:100000000C9446000C946F000C946F000C946F00DD
:100010000C946F000C946F000C944E020C946F00C3
:100020000C946F000C946F000C946F000C940D08EE
:100030000C946F000C946F000C946D070C946F007F
:100040000C946F000C946F000C946F000C946F0074
:100050000C946F000C946F000C946F000C942F089C
:100060000C946F000C946F00B402300388027F027E
:1000700085021203070392096F086F088F099B0915
:100080008B09A2099E09A6095E09300911241FBE29
:10009000CFEFD8E0DEBFCDBF14BE0FB6F894A89561
:1000A00080916000886180936000109260000FBEB4
:1000B00011E0A0E0B1E0E0E0FCE102C005900D92AB
:1000C000AA31B107D9F721E0AAE1B1E001C01D9240
:1000D000AC38B207E1F70E94D80A0C94FE0D0C94DC
:1000E00000008093C6008091C00085FFFCCF80E0B7
:1000F00090E0089520911C0130911D01232B69F49B
:1001000021E030E030931D0120931C01FC0180812F
:1001100090E090931F0180931E01089580911A0131
:1001200090911B01019771F081E090E090931B0189
:1001300080931A010E94CD03609184018091830114
:100140000E94C80380914B0190914C01A0914D01F8
:10015000B0914E018093240190932501A093260134
:10016000B09327010895CF93DF93C0911C01D091E4
:100170001D01C130D10519F0DF91CF910895109282
:100180001D0110921C0180911E0190911F01892B6D
:10019000E1F40E94270480FF2FC080E10E94E9075C
:1001A00080911A0190911B01039731F383E090E055
:1001B00090931B0180931A010E94CD0360917101FD
:1001C00080E0DF91CF910C94C80384E00E94E9079E
:1001D00080911A0190911B01019771F2D0931B013C
:1001E000C0931A010E94CD03609184018091830124
:1001F000DF91CF910C94C80381E00E94E9078091C0
:100200001A0190911B01029709F4B6CF82E090E0A9
:1002100090931B0180931A010E94CD0360E08091AE
:100220008501DF91CF910C94C803F894519A8CE02A
:1002300090E09093C5008093C400E0ECF0E08081F2
:100240008D7F8083E2ECF0E0808186608083E1EC4A
:10025000F0E080818860808380E091E09093890164
:10026000809388017894089520911A0130911B01A0
:100270002817390771F090931B0180931A0100979A
:1002800081F08130910589F082309105B1F00397BA
:1002900009F008950E94CD036091710180E00C94F3
:1002A000C80360E080E00C94C8030E94CD03609115
:1002B0008401809183010C94C8030E94CD0360E007
:1002C000809185010C94C803089580E090E0089522
:1002D0000895DF92EF92FF920F931F93CF93DF93D6
:1002E000F89414B817B81AB815B818B81BB8529AB9
:1002F0005A9A14BC85E085BD8FEF87BD82E080935C
:100300006E0010928000109281002FE83BE0309345
:1003100089002093880080936F005398239891EA76
:100320009093B0008093B1001092B4001092B3008B
:100330008BE080BF83E080937F0086E080937C0029
:1003400083E880937A0080917A00806480937A00B9
:1003500080917A0086FDFCCF10927C0083EA809326
:100360007A0081E080937B0081E090E00E94940D10
:100370008F3F11F08093660010924F01C1E0C0934F
:100380002801C0936C01109246011092800180E90F
:1003900090E00E94940D80934501809145018873FF
:1003A00011F0C09345011092700110926F018FEF10
:1003B00090E090936E0180936D0110924B0110922A
:1003C0004C0110924D0110924E0181E08093230167
:1003D00082E49FE090937F0180937E0180EB90E028
:1003E0000E94940DC82F81EB90E00E94940D2C2F59
:1003F00030E0382B309382012093810185E090E03A
:100400000E94940D8093850189E090E00E94940DF4
:10041000809371018CE090E00E94940D80938301A1
:1004200084E190E00E94940D8093840150E5E52ED4
:1004300051E0F52E09E211E0C0E2D0E0CE010E94C9
:10044000940DD82ECE0101960E94940D2D2D30E0F2
:10045000322F2227282BF701219331937F01CE01E0
:10046000C0960E94940DD82ECE01C1960E94940D84
:100470002D2D30E0322F2227282BF80121933193A4
:100480008F012296CC33D105C9F67894DF91CF91B4
:100490001F910F91FF90EF90DF9008951F920F92A0
:1004A0000FB60F9211248F930FB6F894A8958091F0
:1004B0006000886180936000109260000FBE8F9191
:1004C0000F900FBE0F901F9018953C01EB0110E0AC
:1004D00099249A9484E0C82E96E0A92E23E8B22E9F
:1004E00038E1D32E49E2E42E90912301E92FF0E088
:1004F000E730F105C8F7EC5CFF4F0C94FF0A1123BD
:1005000009F4FCC0C092230111E0FE010995ECCF73
:1005100080914F018111EBC0F894A0927C00B092C1
:100520007A0080917A00806480937A0090917A00BA
:1005300096FDFCCF809178009091790078948B3A69
:10054000E2E09E070CF0EDC08938F2E09F070CF066
:10055000EFC0873692400CF4CAC0559A549A3B9A21
:100560003A9A3D983C98C0CFF89480B7877F80BF77
:1005700080917A008F7780937A0014B817B81AB8F0
:1005800015B818B81BB80FB6F894A895D0926000AB
:100590000FBEE092600080916000806480936000F4
:1005A00093B7917F946093BFF89483B7816083BFC2
:1005B0007894889583B78E7F83BF789410924F018B
:1005C000529A5A9A80917A00806880937A0087E5DF
:1005D00092E00197F1F700C0000080B7886180BF0A
:1005E000559A549A3B9A3A9A3D9A3C9AEFE1FEE426
:1005F0003197F1F700C0000080914F01811181C057
:10060000559854983B983A983D983C986DCF809176
:100610002101811141C01092B3001092B4001092D8
:10062000220162CF4899ECCF559A54983B983A985A
:100630003D983C988FEC97E00197F1F700C00000DF
:10064000559854983B983A983D983C989FEFE1EE26
:10065000F4E09150E040F040E1F700C0000044CFEA
:10066000559854983B9A3A9A3D983C98EFECF7E0AD
:100670003197F1F700C00000559854983B983A988C
:100680003D983C98FFEF21EE84E0F15020408040FF
:10069000E1F700C0000028CF909121018091220154
:1006A000981709F421CF8091210180932201809134
:1006B0002101813009F450C0809121011092B300D2
:1006C0009092B4008230D9F19092B3009092B4002D
:1006D0008FE295E70197F1F700C000008091840157
:1006E000909183019093B3008093B400FDCE559A0E
:1006F000549A3B983A983D983C98F6CEF301099568
:1007000001CF559A549A3B983A983D983C98FFEF00
:1007100020E782E0F15020408040E1F700C0000077
:100720006FCF559854983B9A3A9A3D983C98DCCEB6
:10073000559854983B983A983D9A3C9AD5CEEFE21A
:10074000F5E73197F1F700C0000080917101109238
:10075000B3008093B400C8CE9092B3001092B4005E
:100760008FE295E70197F1F700C0000080918501C5
:100770008093B3001092B400B7CE07C0EFECF7E05F
:100780003197F1F700C0000001970097B9F708957D
:100790008093B3006093B40008958FEF8093B3000B
:1007A0008093B4008FE090E0EFECF7E03197F1F741
:1007B00000C000000197C1F7089580914F01811199
:1007C0001EC0F89487E080937C0083E880937A00D1
:1007D00080917A00806480937A0080917A0086FD0F
:1007E000FCCF809178009091790010927C0023EAF0
:1007F00020937A0021E020937B00789408958FEF76
:100800009FEF089580914F0181111EC0F89488ECEC
:1008100080937C0087E880937A0080917A008064DE
:1008200080937A0080917A0086FDFCCF80917800D9
:100830009091790010927C0023EA20937A0021E0C5
:1008400020937B00789408958FEF9FEF08950F9386
:100850001F93CF93DF93E0E0F0E080E003EA11E044
:10086000D6E0C3E8A1E0B0E060E870E0F894D0938F
:100870007C00C0937A0090917A00906490937A0003
:1008800090917A0096FDFCCF20917800309179000C
:10089000217090917A00906490937A0090917A0000
:1008A00096FDFCCF409178005091790010927C0029
:1008B00000937A0010937B0078944170241303C056
:1008C0006150710999F6222339F09D010E2E01C065
:1008D000220F0A94EAF7822B3196E830F10509F0ED
:1008E000C3CFDF91CF911F910F91089580910E0199
:1008F000982F990F990F990F89279091200121E046
:10090000290F20932001282F2295269527708227D2
:1009100096959695892780930E01089580930E01F0
:10092000089580914F01811116C0F89486E080935C
:100930007C0083E880937A0080917A0080648093C1
:100940007A0080917A0086FDFCCF809178009091AA
:100950007900789408958FEF9FEF08952F923F923A
:100960004F925F926F927F928F929F92AF92BF92BF
:10097000CF92DF92EF92FF920F931F93CF93DF936B
:1009800000D000D000D0CDB7DEB71C01DC0112963C
:100990000D90BC91A02DBE83AD83A438E3E0BE07CB
:1009A0000CF0C9C08091290190912A018A179B07F8
:1009B00008F437C100912B0110912C010A171B0775
:1009C00008F42FC200912D0110912E010A171B0768
:1009D00008F42FC200912F01109130010A171B0754
:1009E00008F42FC200913101109132010A171B0740
:1009F00008F42FC200913301109134010A171B072C
:100A000008F4EFC100913501109136010A171B0758
:100A100008F427C200913701109138010A171B070B
:100A200008F427C20091390110913A010A171B07F7
:100A300008F427C200913B0110913C010A171B07E3
:100A400008F427C200913D0110913E010A171B07CF
:100A500008F427C200913F01109140010A171B07BB
:100A600008F423C200914101109142010A171B07AB
:100A700008F423C200914301109144010A171B0797
:100A800008F423C280E090E0A0EDB0E489839A836B
:100A9000AB83BC834CE0E42EF12CF701EE0FFF1F7B
:100AA000E75DFE4F80819181B801681B790B80E082
:100AB00090E00E943D0C9B01AC010E94290B6B0150
:100AC0007C01AD81BE81BD01BB0F880B990B0E94DB
:100AD0003F0C4B015C01B80180E090E00E943D0CAE
:100AE0002B013C0129813A814B815C81C701B60110
:100AF0000E94CB0C9B01AC01C301B2010E94280BE8
:100B00009B01AC01C501B4010E94280B20E030E03C
:100B100040E251E40E94CB0C0E94070C8B01C701FC
:100B2000B6010E94070CAB01BC01C801BA010E94CA
:100B3000EB0A162F77C0DC01CD90DC90809150013C
:100B4000909151018C159D0508F48CC01FEFE09029
:100B50005201F0905301EC14FD0408F45EC1E090E2
:100B60005401F0905501EC14FD0408F45EC1E090CE
:100B70005601F0905701EC14FD0408F45EC1E090BA
:100B80005801F0905901EC14FD0408F45EC1E090A6
:100B90005A01F0905B01EC14FD0408F4C3C0E0902E
:100BA0005C01F0905D01EC14FD0408F456C1E09086
:100BB0005E01F0905F01EC14FD0408F456C1E09072
:100BC0006001F0906101EC14FD0408F456C1E0905E
:100BD0006201F0906301EC14FD0408F456C1E0904A
:100BE0006401F0906501EC14FD0408F456C1E09036
:100BF0006601F0906701EC14FD0408F45AC1E0901E
:100C00006801F0906901EC14FD0408F45AC1E09009
:100C10006A01F0906B01EC14FD0408F45AC10AE576
:100C200031C010E0ED81FE81ED3BF240FCF481E249
:100C3000810F26960FB6F894DEBF0FBECDBFDF91B1
:100C4000CF911F910F91FF90EF90DF90CF90BF90C9
:100C5000AF909F908F907F906F905F904F903F905C
:100C60002F90089500E081E2800FE3CFD101CD9075
:100C7000DC9080915001909151018C159D0508F0F8
:100C800066CF00E01F3F79F3ED81FE81BF01FF0FCA
:100C9000880B990B0E943F0C6B017C01612F70E067
:100CA00080E090E00E943D0C4B015C01A7019601A1
:100CB00060E070E081E694E40E94280B9B01AC01A7
:100CC000C501B4010E94CB0C4B015C01602F70E0A8
:100CD00080E090E00E943D0C2B013C0120E030E0E0
:100CE0004FE254E4C701B6010E94280B9B01AC01FE
:100CF000C301B2010E94CB0C9B01AC01C501B40140
:100D00000E94290B20E030E048E453E40E94950B58
:100D100020E030E044E052E40E94290B0E940E0CD7
:100D2000862F87CF05E085E090E0880F991FFC01B2
:100D3000E25BFE4F80819181B701681B790B80E0F7
:100D400090E00E943D0C9B01AC010E94290B4B01DD
:100D50005C01B601DD0C880B990B0E943F0C2B0146
:100D60003C01B70180E090E00E943D0C6B017C01EA
:100D7000602F70E080E090E00E943D0C20E030E0C9
:100D800040E05FE30E94CB0C20E030E0A9010E942C
:100D9000290BA50194010E94CB0C9B01AC01C7015A
:100DA000B6010E94280B9B01AC01C301B2010E9455
:100DB000280B20E030E040E251E40E94CB0C0E947E
:100DC000070C7B01C501B4010E94070CAB01BC01FB
:100DD000C701BA010E94EB0A062F6F3F09F052CFFC
:100DE00026CF65E085E090E07C01F1E0EF1AF108A4
:100DF00070E080E090E00E943D0C20E030E040E0B8
:100E00005FE30E94CB0C20E030E0A9010E94290B97
:100E100069837A838B839C8340CE01E081E090E0FC
:100E200084CF61E081E090E0DFCF02E082E090E0FB
:100E30007CCF62E082E090E0D7CF03E083E090E0F7
:100E400074CF63E083E090E0CFCF04E084E090E0F3
:100E50006CCF64E084E090E0C7CF06E086E090E0ED
:100E600064CF66E086E090E0BFCF07E087E090E0E7
:100E70005CCF67E087E090E0B7CF08E088E090E0E3
:100E800054CF68E088E090E0AFCF09E089E090E0DF
:100E90004CCF69E089E090E0A7CF0AE08AE090E0DB
:100EA00044CF6AE08AE090E09FCF6BE08BE090E077
:100EB0009BCF0BE08BE090E038CF6CE08CE090E0D3
:100EC00093CF0CE08CE090E030CF6DE08DE090E0CF
:100ED0008BCF0DE08DE090E028CF1F920F920FB6E0
:100EE0000F9211242F933F934F935F936F937F93B0
:100EF0008F939F93AF93BF93EF93FF9320916F01D5
:100F00003091700180916D0190916E01820F931F5D
:100F10009093700180936F018FEF90E090936E013A
:100F200080936D018FEF87BD80914B0190914C01B3
:100F3000A0914D01B0914E010196A11DB11D80936C
:100F40004B0190934C01A0934D01B0934E018091C1
:100F50004F0181110FC080917E0190917F012091FE
:100F60006F01309170018217930720F48091230163
:100F7000843089F0FF91EF91BF91AF919F918F9154
:100F80007F916F915F914F913F912F910F900FBE85
:100F90000F901F901895E0911101F09112010995A1
:100FA000009741F30E94550A811109C00E94840DE7
:100FB000992790936E0180936D0187BDDBCFE091FF
:100FC0000F01F091100109951092700110926F01BC
:100FD000D1CF80FF11C0559A81FF11C0549A82FF72
:100FE00011C03B9A83FF11C03A9A84FF11C03D9A09
:100FF00085FD11C03C980895559881FDEFCF549818
:1010000082FDEFCF3B9883FDEFCF3A9884FDEFCF81
:101010003D9885FFEFCF3C9A08951F920F920FB62F
:101020000F9211248F939F9310928100109285004C
:101030001092840081E08093280180936C011092CB
:101040004F0110927C0093EA90937A0080937B008A
:101050009F918F910F900FBE0F901F9018951F9228
:101060000F920FB60F9211242F933F934F935F93DC
:101070006F937F938F939F93AF93BF93CF93DF93A0
:10108000EF93FF93209184003091850041E04093DD
:101090004F01809128018823A9F1109285001092B8
:1010A0008400409381001092800110922801809169
:1010B0006C018823A1F080917A0086FDFCCF80919D
:1010C00078009091790090934A018093490181E0E2
:1010D00080937C0093EA90937A0080937B00FF9149
:1010E000EF91DF91CF91BF91AF919F918F917F91C0
:1010F0006F915F914F913F912F910F900FBE0F9085
:101100001F901895C901875891098437994008F0B4
:1011100052C026583109A4EFB0E00E94050BAA275F
:10112000BB2788309105A105B10508F47BC0409329
:10113000280180916C01811152C080914601E82FF5
:10114000F0E0EE58FE4F9091800190838F5F809386
:1011500046018C3021F61092810010928500109289
:10116000840040936C0110924F01C0917C01D0919A
:101170007D0182E791E00E94390AC817D90709F07A
:10118000AECF80917B0187FF61C098E7980F9330C5
:1011900030F0539823981092B4001092B30090E06E
:1011A000FC01E058F109EB30F10508F098CFE55C5F
:1011B000FF4F0C94FF0A109281001092850010924C
:1011C00084004093280140936C0110924F011092CB
:1011D0007C0083EA80937A0040937B0080CF8091EB
:1011E0007A0086FDFCCF80917800909179009093F1
:1011F00048018093470110927C0083EA80937A0033
:1012000081E080937B00909180019923D1F010922E
:101210008100109285001092840080936C011092DE
:101220004F015DCF21E030E0F90102C0EE0FFF1F5A
:101230008A95E2F7CF0190918001892B80938001FC
:101240004ECF10926C011092460149CFE0911301EC
:10125000F091140167E471E082E791E009953FCFD6
:1012600080917201823009F4DDC008F4BAC0833085
:1012700009F4C6C0843009F0B1C080912101909179
:101280007801833009F4E3C0809177011092220144
:1012900023E0209321018093830190938401809126
:1012A0002301863009F41BCF539A239A1092B4007D
:1012B0001092B30086E08093230111CF8091230127
:1012C000863099F0539A239A1092B4001092B3008A
:1012D000559854983B983A983D983C981092210123
:1012E0001092220186E08093230181E090E09C012E
:1012F0000090720102C0220F331F0A94E2F780911E
:1013000081019091820182239323892B09F086C069
:1013100010922101E4CE81E080932301E0CEE0E051
:10132000F0E0099580916E008D7F80936E0016BC71
:10133000E0E0F0E7099510922301D1CE82E080939E
:101340002301CDCE85E080932301C9CE8091230176
:10135000833009F4C4CE80912301843009F4BFCED8
:10136000539A239A1092B4001092B30083E08093B2
:101370002301B5CE80912301863009F0B0CE609173
:10138000810180EB90E00E949C0D6091820181EBD5
:1013900090E00E949C0D6091850185E090E00E94A4
:1013A0009C0D6091710189E090E00E949C0D60911C
:1013B00083018CE090E00E949C0D6091840184E1A7
:1013C00090E00E949C0D539823981092B4001092C4
:1013D000B30081E0809323018091720181115FCF7E
:1013E0007ECE882339F28130C9F7809173019091C4
:1013F00074019093820180938101109221014FCF5B
:1014000080912101823071F1809176011092220148
:1014100092E0909321018093710141CF81E080930C
:1014200021015DCE80912101813051F080917501C3
:101430001092220191E090932101809385012FCF9A
:1014400080917501909185018913F2CF28CF809109
:101450008401981319CF8091770120918301821321
:1014600015CF1DCF80917601909171018913CECF58
:1014700016CFFC01AC01465F5F4F8FEF9FEF2191CC
:101480008227082E8295807F8025092E982F8295AD
:101490008F700826869598278927880F880F880FD0
:1014A0008025E417F50759F708950FB6F894A4B10D
:1014B000209145012A2B24B921E0309145012030AB
:1014C00029F0000025B1232B25B904C0000000003D
:1014D000000000C0000000000000309525B123236B
:1014E00025B92EEA2A95F1F72BEE30B735FF0AC061
:1014F000A4B930914501309525B1232325B90FBEFC
:1015000080E0089500002A9581F721E0309145019F
:10151000203029F0000025B1232B25B904C000009C
:101520000000000000C0000000000000309525B160
:10153000232325B9000024E52A95F1F7FC018CE06E
:10154000619170E0660F771F616072609AE041E020
:1015500050E09A0126233723232B30914501203078
:1015600029F0000025B1232B25B904C0000000009C
:10157000000000C0000000000000309525B12323CA
:1015800025B9000021E52A95F1F7440F551F9A95DA
:1015900001F78A95A9F620B7206120BFA4B9309140
:1015A0004501309525B1232325B90FBE81E008956B
:1015B0000E9469018AE790E09093140180931301DF
:1015C0000E94150163EB70E08EE890E00E946502D6
:1015D00080E090E0089597FB072E16F4009407D062
:1015E00077FD09D00E94140B07FC05D03EF49095BE
:1015F00081959F4F0895709561957F4F0895EE0FE7
:10160000FF1F0590F491E02D0994A29FB001B39FB4
:10161000C001A39F700D811D1124911DB29F700DFB
:10162000811D1124911D0895AA1BBB1B51E107C008
:10163000AA1FBB1FA617B70710F0A61BB70B881F62
:10164000991F5A95A9F780959095BC01CD010895F1
:101650005058BB27AA270E94400B0C94910C0E9463
:10166000830C38F00E948A0C20F039F49F3F19F463
:1016700026F40C94800C0EF4E095E7FB0C947A0CA5
:10168000E92F0E94A20C58F3BA1762077307840768
:10169000950720F079F4A6F50C94C40C0EF4E095AF
:1016A0000B2EBA2FA02D0B01B90190010C01CA011C
:1016B000A0011124FF27591B99F0593F50F4503EC7
:1016C00068F11A16F040A22F232F342F4427585FB9
:1016D000F3CF469537952795A795F0405395C9F7D1
:1016E0007EF41F16BA0B620B730B840BBAF0915089
:1016F000A1F0FF0FBB1F661F771F881FC2F70EC028
:10170000BA0F621F731F841F48F4879577956795FA
:10171000B795F7959E3F08F0B0CF9395880F08F0E6
:101720009927EE0F9795879508950E94A90B0C9421
:10173000910C0E948A0C58F00E94830C40F029F40E
:101740005F3F29F00C947A0C51110C94C50C0C9449
:10175000800C0E94A20C68F39923B1F3552391F3F6
:10176000951B550BBB27AA2762177307840738F010
:101770009F5F5F4F220F331F441FAA1FA9F335D06D
:101780000E2E3AF0E0E832D091505040E695001C21
:10179000CAF72BD0FE2F29D0660F771F881FBB1FDB
:1017A000261737074807AB07B0E809F0BB0B802DB9
:1017B000BF01FF2793585F4F3AF09E3F510578F0E5
:1017C0000C947A0C0C94C50C5F3FE4F3983ED4F370
:1017D000869577956795B795F7959F5FC9F7880FB9
:1017E000911D9695879597F90895E1E0660F771F0B
:1017F000881FBB1F621773078407BA0720F0621B9C
:10180000730B840BBA0BEE1F88F7E09508950E94C6
:101810000E0C6894B1110C94C50C08950E94AA0C8A
:1018200088F09F5798F0B92F9927B751B0F0E1F0A1
:10183000660F771F881F991F1AF0BA95C9F714C051
:10184000B13091F00E94C40CB1E008950C94C40C26
:10185000672F782F8827B85F39F0B93FCCF386958A
:1018600077956795B395D9F73EF4909580957095E7
:1018700061957F4F8F4F9F4F0895E89409C097FB64
:101880003EF490958095709561957F4F8F4F9F4F57
:101890009923A9F0F92F96E9BB279395F69587959B
:1018A00077956795B795F111F8CFFAF4BB0F11F45E
:1018B00060FF1BC06F5F7F4F8F4F9F4F16C0882305
:1018C00011F096E911C0772321F09EE8872F762F3B
:1018D00005C0662371F096E8862F70E060E02AF07C
:1018E0009A95660F771F881FDAF7880F9695879568
:1018F00097F9089597F99F6780E870E060E0089590
:101900009FEF80EC089500240A9416161706180617
:101910000906089500240A941216130614060506F3
:101920000895092E0394000C11F4882352F0BB0F84
:1019300040F4BF2B11F460FF04C06F5F7F4F8F4FE7
:101940009F4F089557FD9058440F551F59F05F3F22
:1019500071F04795880F97FB991F61F09F3F79F0D1
:1019600087950895121613061406551FF2CF469553
:10197000F1DF08C0161617061806991FF1CF8695D5
:101980007105610508940895E894BB2766277727B9
:10199000CB0197F908950E94DE0C0C94910C0E94E3
:1019A000830C38F00E948A0C20F0952311F00C94DF
:1019B0007A0C0C94800C11240C94C50C0E94A20C7F
:1019C00070F3959FC1F3950F50E0551F629FF00192
:1019D000729FBB27F00DB11D639FAA27F00DB11DAB
:1019E000AA1F649F6627B00DA11D661F829F222734
:1019F000B00DA11D621F739FB00DA11D621F839FBB
:101A0000A00D611D221F749F3327A00D611D231F90
:101A1000849F600D211D822F762F6A2F11249F57DE
:101A200050409AF0F1F088234AF0EE0FFF1FBB1FE1
:101A3000661F771F881F91505040A9F79E3F5105A0
:101A400080F00C947A0C0C94C50C5F3FE4F3983E44
:101A5000D4F3869577956795B795F795E7959F5F4A
:101A6000C1F7FE2B880F911D9695879597F90895DC
:101A70008F929F92AF92BF92CF92DF92EF92FF929E
:101A8000CF93DF93EC01688179818A819B81611515
:101A900071058105910521F464E279ED8BE597E00C
:101AA0002DE133EF41E050E00E94AA0D49015A01B7
:101AB0009B01AC01A7EAB1E40E94C90D6B017C0156
:101AC000ACEEB4EFA50194010E94D70DDC01CB016F
:101AD0008C0D9D1DAE1DBF1DB7FF03C00197A10951
:101AE000B04888839983AA83BB839F77DF91CF9186
:101AF000FF90EF90DF90CF90BF90AF909F908F902E
:101B000008950E94380D089585E191E00E94380DF6
:101B10000895A0E0B0E08093150190931601A09382
:101B20001701B09318010895F999FECF92BD81BDB8
:101B3000F89A992780B50895262FF999FECF1FBAF4
:101B400092BD81BD20BD0FB6F894FA9AF99A0FBEE6
:101B500001960895052E97FB1EF400940E94C10D76
:101B600057FD07D00E94DC0D07FC03D04EF40C9407
:101B7000C10D50954095309521953F4F4F4F5F4F88
:101B8000089590958095709561957F4F8F4F9F4FE9
:101B900008950E94050BA59F900DB49F900DA49FE2
:101BA000800D911D11240895B7FF0C94C90D0E945A
:101BB000C90D821B930B0895A1E21A2EAA1BBB1B11
:101BC000FD010DC0AA1FBB1FEE1FFF1FA217B30709
:101BD000E407F50720F0A21BB30BE40BF50B661F1F
:101BE000771F881F991F1A9469F7609570958095E3
:101BF00090959B01AC01BD01CF010895F894FFCFF2
:101C00000000000200000000710000000000AA684F
:0A1C100001650164010100000000FD
:00000001FF
