:100000000C9446000C946F000C946F000C946F00DD
:100010000C946F000C946F000C949D010C946F0075
:100020000C946F000C946F000C946F000C945C07A0
:100030000C946F000C946F000C94BC060C946F0031
:100040000C946F000C946F000C946F000C946F0074
:100050000C946F000C946F000C946F000C947E074E
:100060000C946F000C946F0003027F02D701CE0145
:10007000D40161025602E108BE07BE07DE08EA08A5
:10008000DA08F108ED08F508AD087F0811241FBE55
:10009000CFEFD8E0DEBFCDBF14BE0FB6F894A89561
:1000A00080916000886180936000109260000FBEB4
:1000B00011E0A0E0B1E0EEE8FAE102C005900D9297
:1000C000AC30B107D9F721E0ACE0B1E001C01D923E
:1000D000AE36B207E1F70E94270A0C94450D0C9446
:1000E0000000089584E00E9438070E941C0360917C
:1000F0006C0180916B010E94170388EE93E00E94CF
:100100000C0381E00E94380760E080916D010E943D
:10011000170384EF91E00E940C0384E00E943807EB
:100120000E941C0360916C0180916B010E94170377
:1001300088EE93E00E940C0380E10E9438076091F2
:10014000590180E00E94170384EF91E00E940C03A4
:1001500080E00E94380760E080E00E94170384EF8F
:1001600091E00C940C03089580E090E008950895C8
:10017000DF92EF92FF920F931F93CF93DF93F89448
:1001800014B817B81AB815B818B81BB8529A5A9AB2
:1001900014BC85E085BD8FEF87BD82E080936E0043
:1001A00010928000109281002FE83BE0309389008C
:1001B0002093880080936F005398239891EA90933E
:1001C000B0008093B1001092B4001092B3008BE0A5
:1001D00080BF83E080937F0086E080937C0083E88B
:1001E00080937A0080917A00806480937A00809175
:1001F0007A0086FDFCCF10927C0083EA80937A001F
:1002000081E080937B0081E090E00E94DB0C8F3FD7
:1002100011F08093660010923701C1E0C093100185
:10022000C093540110922E011092680180E990E071
:100230000E94DB0C80932D0180912D01887311F0B9
:10024000C0932D0110925801109257018FEF90E04A
:10025000909356018093550110923301109234010E
:10026000109235011092360181E080930F0182E4F3
:100270009FE0909367018093660180EB90E00E947D
:10028000DB0CC82F81EB90E00E94DB0C2C2F30E0C0
:10029000382B30936A012093690185E090E00E9439
:1002A000DB0C80936D0189E090E00E94DB0C809371
:1002B00059018CE090E00E94DB0C80936B0184E19B
:1002C00090E00E94DB0C80936C0158E3E52E51E036
:1002D000F52E01E111E0C0E2D0E0CE010E94DB0C7E
:1002E000D82ECE0101960E94DB0C2D2D30E0322F4E
:1002F0002227282BF701219331937F01CE01C0964D
:100300000E94DB0CD82ECE01C1960E94DB0C2D2D55
:1003100030E0322F2227282BF801219331938F01CF
:100320002296CC33D105C9F67894DF91CF911F91F5
:100330000F91FF90EF90DF9008951F920F920FB6EC
:100340000F9211248F930FB6F894A89580916000B6
:10035000886180936000109260000FBE8F910F90B3
:100360000FBE0F901F9018953C01EB0110E09924EF
:100370009A9484E0C82E96E0A92E23E8B22E38E1A4
:10038000D32E49E2E42E90910F01E92FF0E0E730FF
:10039000F105C8F7EC5CFF4F0C94460A112309F4F1
:1003A000FCC0C0920F0111E0FE010995ECCF8091D5
:1003B00037018111EBC0F894A0927C00B0927A00D2
:1003C00080917A00806480937A0090917A0096FD03
:1003D000FCCF809178009091790078948B3AE2E09C
:1003E0009E070CF0EDC08938F2E09F070CF0EFC0DB
:1003F000873692400CF4CAC0559A549A3B9A3A9A5E
:100400003D983C98C0CFF89480B7877F80BF80919B
:100410007A008F7780937A0014B817B81AB815B895
:1004200018B81BB80FB6F894A895D09260000FBE0C
:10043000E09260008091600080648093600093B7D8
:10044000917F946093BFF89483B7816083BF789461
:10045000889583B78E7F83BF789410923701529A24
:100460005A9A80917A00806880937A0087E592E0BA
:100470000197F1F700C0000080B7886180BF559AEE
:10048000549A3B9A3A9A3D9A3C9AEFE1FEE43197AE
:10049000F1F700C0000080913701811181C05598AB
:1004A00054983B983A983D983C986DCF80910D01B7
:1004B000811141C01092B3001092B40010920E014D
:1004C00062CF4899ECCF559A54983B983A983D980A
:1004D0003C988FEC97E00197F1F700C00000559829
:1004E00054983B983A983D983C989FEFE1EEF4E0A1
:1004F0009150E040F040E1F700C0000044CF559833
:1005000054983B9A3A9A3D983C98EFECF7E0319733
:10051000F1F700C00000559854983B983A983D98E0
:100520003C98FFEF21EE84E0F15020408040E1F75D
:1005300000C0000028CF90910D0180910E01981706
:1005400009F421CF80910D0180930E0180910D015E
:10055000813009F450C080910D011092B300909247
:10056000B4008230D9F19092B3009092B4008FE23F
:1005700095E70197F1F700C0000080916C01909120
:100580006B019093B3008093B400FDCE559A549ABA
:100590003B983A983D983C98F6CEF301099501CFE7
:1005A000559A549A3B983A983D983C98FFEF20E72B
:1005B00082E0F15020408040E1F700C000006FCFA2
:1005C000559854983B9A3A9A3D983C98DCCE559869
:1005D00054983B983A983D9A3C9AD5CEEFE2F5E78D
:1005E0003197F1F700C00000809159011092B300DB
:1005F0008093B400C8CE9092B3001092B4008FE202
:1006000095E70197F1F700C0000080916D0180939C
:10061000B3001092B400B7CE07C0EFECF7E031970B
:10062000F1F700C0000001970097B9F70895809393
:10063000B3006093B40008958FEF8093B30080936C
:10064000B4008FE090E0EFECF7E03197F1F700C0F5
:1006500000000197C1F708958091370181111EC0F4
:10066000F89487E080937C0083E880937A008091FF
:100670007A00806480937A0080917A0086FDFCCFB6
:10068000809178009091790010927C0023EA209369
:100690007A0021E020937B00789408958FEF9FEFFC
:1006A00008958091370181111EC0F89488EC8093E1
:1006B0007C0087E880937A0080917A008064809340
:1006C0007A0080917A0086FDFCCF8091780090912D
:1006D000790010927C0023EA20937A0021E0209395
:1006E0007B00789408958FEF9FEF08950F931F93E9
:1006F000CF93DF93E0E0F0E080E003EA11E0D6E0A2
:10070000C3E8A1E0B0E060E870E0F894D0937C002A
:10071000C0937A0090917A00906490937A009091BF
:100720007A0096FDFCCF20917800309179002170FD
:1007300090917A00906490937A0090917A0096FD5F
:10074000FCCF409178005091790010927C0000938A
:100750007A0010937B0078944170241303C0615099
:10076000710999F6222339F09D010E2E01C0220F46
:100770000A94EAF7822B3196E830F10509F0C3CFED
:10078000DF91CF911F910F91089580910001982FD3
:10079000990F990F990F892790910C0121E0290F4A
:1007A00020930C01282F2295269527708227969555
:1007B00096958927809300010895809300010895FC
:1007C00080913701811116C0F89486E080937C00F7
:1007D00083E880937A0080917A00806480937A0025
:1007E00080917A0086FDFCCF80917800909179000D
:1007F000789408958FEF9FEF08952F923F924F9234
:100800005F926F927F928F929F92AF92BF92CF92A0
:10081000DF92EF92FF920F931F93CF93DF9300D05D
:1008200000D000D0CDB7DEB71C01DC0112960D90D0
:10083000BC91A02DBE83AD83A438E3E0BE070CF0CD
:10084000C9C080911101909112018A179B0708F489
:1008500037C100911301109114010A171B0708F406
:100860002FC200911501109116010A171B0708F4F9
:100870002FC200911701109118010A171B0708F4E5
:100880002FC20091190110911A010A171B0708F4D1
:100890002FC200911B0110911C010A171B0708F4BD
:1008A000EFC100911D0110911E010A171B0708F4EA
:1008B00027C200911F01109120010A171B0708F49D
:1008C00027C200912101109122010A171B0708F489
:1008D00027C200912301109124010A171B0708F475
:1008E00027C200912501109126010A171B0708F461
:1008F00027C200912701109128010A171B0708F44D
:1009000023C20091290110912A010A171B0708F43C
:1009100023C200912B0110912C010A171B0708F428
:1009200023C280E090E0A0EDB0E489839A83AB839A
:10093000BC834CE0E42EF12CF701EE0FFF1FEF5EBD
:10094000FE4F80819181B801681B790B80E090E0B7
:100950000E94840B9B01AC010E94700A6B017C0118
:10096000AD81BE81BD01BB0F880B990B0E94860B28
:100970004B015C01B80180E090E00E94840B2B01E8
:100980003C0129813A814B815C81C701B6010E94FB
:10099000120C9B01AC01C301B2010E946F0A9B01C2
:1009A000AC01C501B4010E946F0A20E030E040E2D2
:1009B00051E40E94120C0E944E0B8B01C701B6013C
:1009C0000E944E0BAB01BC01C801BA010E94320A61
:1009D000162F77C0DC01CD90DC908091380190918A
:1009E00039018C159D0508F48CC01FEFE0903A0189
:1009F000F0903B01EC14FD0408F45EC1E0903C0172
:100A0000F0903D01EC14FD0408F45EC1E0903E015D
:100A1000F0903F01EC14FD0408F45EC1E090400149
:100A2000F0904101EC14FD0408F45EC1E090420135
:100A3000F0904301EC14FD0408F4C3C0E0904401BD
:100A4000F0904501EC14FD0408F456C1E090460115
:100A5000F0904701EC14FD0408F456C1E090480101
:100A6000F0904901EC14FD0408F456C1E0904A01ED
:100A7000F0904B01EC14FD0408F456C1E0904C01D9
:100A8000F0904D01EC14FD0408F456C1E0904E01C5
:100A9000F0904F01EC14FD0408F45AC1E0905001AD
:100AA000F0905101EC14FD0408F45AC1E090520199
:100AB000F0905301EC14FD0408F45AC10AE531C06A
:100AC00010E0ED81FE81ED3BF240FCF481E2810F0C
:100AD00026960FB6F894DEBF0FBECDBFDF91CF9143
:100AE0001F910F91FF90EF90DF90CF90BF90AF904C
:100AF0009F908F907F906F905F904F903F902F903E
:100B0000089500E081E2800FE3CFD101CD90DC9029
:100B100080913801909139018C159D0508F066CFC0
:100B200000E01F3F79F3ED81FE81BF01FF0F880BCD
:100B3000990B0E94860B6B017C01612F70E080E0B5
:100B400090E00E94840B4B015C01A701960160E0DC
:100B500070E081E694E40E946F0A9B01AC01C5013C
:100B6000B4010E94120C4B015C01602F70E080E028
:100B700090E00E94840B2B013C0120E030E04FE22A
:100B800054E4C701B6010E946F0A9B01AC01C30186
:100B9000B2010E94120C9B01AC01C501B4010E947C
:100BA000700A20E030E048E453E40E94DC0A20E0D0
:100BB00030E044E052E40E94700A0E94550B862FF8
:100BC00087CF05E085E090E0880F991FFC01EA5C83
:100BD000FE4F80819181B701681B790B80E090E026
:100BE0000E94840B9B01AC010E94700A4B015C01C6
:100BF000B601DD0C880B990B0E94860B2B013C0182
:100C0000B70180E090E00E94840B6B017C01602FB3
:100C100070E080E090E00E94840B20E030E040E053
:100C20005FE30E94120C20E030E0A9010E94700AEC
:100C3000A50194010E94120C9B01AC01C701B601F1
:100C40000E946F0A9B01AC01C301B2010E946F0AAE
:100C500020E030E040E251E40E94120C0E944E0B72
:100C60007B01C501B4010E944E0BAB01BC01C70161
:100C7000BA010E94320A062F6F3F09F052CF26CFE9
:100C800065E085E090E07C01F1E0EF1AF10870E0AA
:100C900080E090E00E94840B20E030E040E05FE3E1
:100CA0000E94120C20E030E0A9010E94700A6983C2
:100CB0007A838B839C8340CE01E081E090E084CFF7
:100CC00061E081E090E0DFCF02E082E090E07CCF65
:100CD00062E082E090E0D7CF03E083E090E074CF61
:100CE00063E083E090E0CFCF04E084E090E06CCF5D
:100CF00064E084E090E0C7CF06E086E090E064CF57
:100D000066E086E090E0BFCF07E087E090E05CCF50
:100D100067E087E090E0B7CF08E088E090E054CF4C
:100D200068E088E090E0AFCF09E089E090E04CCF48
:100D300069E089E090E0A7CF0AE08AE090E044CF44
:100D40006AE08AE090E09FCF6BE08BE090E09BCF81
:100D50000BE08BE090E038CF6CE08CE090E093CF3C
:100D60000CE08CE090E030CF6DE08DE090E08BCF38
:100D70000DE08DE090E028CF1F920F920FB60F92FA
:100D800011242F933F934F935F936F937F938F9390
:100D90009F93AF93BF93EF93FF93209157013091AF
:100DA00058018091550190915601820F931F9093A5
:100DB0005801809357018FEF90E0909356018093F4
:100DC00055018FEF87BD8091330190913401A0913F
:100DD0003501B09136010196A11DB11D80933301FB
:100DE00090933401A0933501B0933601809137017F
:100DF00081110FC080916601909167012091570188
:100E0000309158018217930720F480910F018430AC
:100E100089F0FF91EF91BF91AF919F918F917F9159
:100E20006F915F914F913F912F910F900FBE0F9057
:100E30001F901895E0910301F09104010995009726
:100E400041F30E94A409811109C00E94CB0C99278B
:100E5000909356018093550187BDDBCFE09101014E
:100E6000F091020109951092580110925701D1CFCB
:100E700080FF11C0559A81FF11C0549A82FF11C0A2
:100E80003B9A83FF11C03A9A84FF11C03D9A85FDB9
:100E900011C03C980895559881FDEFCF549882FD7C
:100EA000EFCF3B9883FDEFCF3A9884FDEFCF3D988D
:100EB00085FFEFCF3C9A08951F920F920FB60F92C5
:100EC00011248F939F9310928100109285001092AD
:100ED000840081E0809310018093540110923701C7
:100EE00010927C0093EA90937A0080937B009F910C
:100EF0008F910F900FBE0F901F9018951F920F9219
:100F00000FB60F9211242F933F934F935F936F93DC
:100F10007F938F939F93AF93BF93CF93DF93EF9381
:100F2000FF93209184003091850041E04093370188
:100F3000809110018823A9F11092850010928400FD
:100F40004093810010926801109210018091540129
:100F50008823A1F080917A0086FDFCCF80917800F3
:100F600090917900909332018093310181E08093D8
:100F70007C0093EA90937A0080937B00FF91EF913D
:100F8000DF91CF91BF91AF919F918F917F916F91A1
:100F90005F914F913F912F910F900FBE0F901F9037
:100FA0001895C901875891098437994008F052C0B3
:100FB00026583109A4EFB0E00E944C0AAA27BB27AB
:100FC00088309105A105B10508F47BC0409310015C
:100FD00080915401811152C080912E01E82FF0E0E0
:100FE000E65AFE4F9091680190838F5F80932E01A7
:100FF0008C3021F6109281001092850010928400AE
:101000004093540110923701C0916401D091650161
:101010008AE591E00E948809C817D90709F0AECF88
:101020008091630187FF61C098E7980F933030F09B
:10103000539823981092B4001092B30090E0FC01F2
:10104000E058F109EB30F10508F098CFE55CFF4F6F
:101050000C94460A10928100109285001092840030
:1010600040931001409354011092370110927C007C
:1010700083EA80937A0040937B0080CF80917A004E
:1010800086FDFCCF8091780090917900909330019B
:1010900080932F0110927C0083EA80937A0081E094
:1010A00080937B00909168019923D1F01092810088
:1010B00010928500109284008093540110923701A1
:1010C0005DCF21E030E0F90102C0EE0FFF1F8A95ED
:1010D000E2F7CF0190916801892B809368014ECF90
:1010E0001092540110922E0149CFE0910501F09128
:1010F00006016FE271E08AE591E009953FCF8091AA
:101100005A01823009F4DDC008F4BAC0833009F412
:10111000C6C0843009F0B1C080910D01909160018A
:10112000833009F4E3C080915F0110920E0123E047
:1011300020930D0180936B0190936C0180910F01BE
:10114000863009F41BCF539A239A1092B400109260
:10115000B30086E080930F0111CF80910F0186309C
:1011600099F0539A239A1092B4001092B3005598B4
:1011700054983B983A983D983C9810920D011092E3
:101180000E0186E080930F0181E090E09C010090C9
:101190005A0102C0220F331F0A94E2F780916901BD
:1011A00090916A0182239323892B09F086C01092C3
:1011B0000D01E4CE81E080930F01E0CEE0E0F0E0AD
:1011C000099580916E008D7F80936E0016BCE0E0E3
:1011D000F0E7099510920F01D1CE82E080930F01C4
:1011E000CDCE85E080930F01C9CE80910F01833071
:1011F00009F4C4CE80910F01843009F4BFCE539A14
:10120000239A1092B4001092B30083E080930F01F0
:10121000B5CE80910F01863009F0B0CE60916901A2
:1012200080EB90E00E94E30C60916A0181EB90E01A
:101230000E94E30C60916D0185E090E00E94E30C58
:101240006091590189E090E00E94E30C60916B018C
:101250008CE090E00E94E30C60916C0184E190E0EE
:101260000E94E30C539823981092B4001092B3009C
:1012700081E080930F0180915A0181115FCF7ECE72
:10128000882339F28130C9F780915B0190915C012C
:1012900090936A018093690110920D014FCF809164
:1012A0000D01823071F180915E0110920E0192E089
:1012B00090930D018093590141CF81E080930D01FE
:1012C0005DCE80910D01813051F080915D011092D1
:1012D0000E0191E090930D0180936D012FCF8091CD
:1012E0005D0190916D018913F2CF28CF80916C013F
:1012F000981319CF80915F0120916B01821315CF54
:101300001DCF80915E01909159018913CECF16CFE8
:10131000FC01AC01465F5F4F8FEF9FEF2191822769
:10132000082E8295807F8025092E982F82958F70B8
:101330000826869598278927880F880F880F80258B
:10134000E417F50759F708950FB6F894A4B1209162
:101350002D012A2B24B921E030912D01203029F0D4
:10136000000025B1232B25B904C0000000000000B7
:1013700000C0000000000000309525B1232325B9EE
:101380002EEA2A95F1F72BEE30B735FF0AC0A4B943
:1013900030912D01309525B1232325B90FBE80E072
:1013A000089500002A9581F721E030912D01203029
:1013B00029F0000025B1232B25B904C0000000004E
:1013C000000000C0000000000000309525B123237C
:1013D00025B9000024E52A95F1F7FC018CE0619124
:1013E00070E0660F771F616072609AE041E050E044
:1013F0009A0126233723232B30912D01203029F009
:10140000000025B1232B25B904C000000000000016
:1014100000C0000000000000309525B1232325B94D
:10142000000021E52A95F1F7440F551F9A9501F721
:101430008A95A9F620B7206120BFA4B930912D016B
:10144000309525B1232325B90FBE81E008950E9470
:10145000B80062E770E081E790E00E94B40180E0AC
:1014600090E0089597FB072E16F4009407D077FDBF
:1014700009D00E945B0A07FC05D03EF49095819547
:101480009F4F0895709561957F4F0895EE0FFF1F50
:101490000590F491E02D0994A29FB001B39FC00183
:1014A000A39F700D811D1124911DB29F700D811D90
:1014B0001124911D0895AA1BBB1B51E107C0AA1F4F
:1014C000BB1FA617B70710F0A61BB70B881F991FE5
:1014D0005A95A9F780959095BC01CD010895505873
:1014E000BB27AA270E94870A0C94D80B0E94CA0B1C
:1014F00038F00E94D10B20F039F49F3F19F426F404
:101500000C94C70B0EF4E095E7FB0C94C10BE92F8C
:101510000E94E90B58F3BA1762077307840795070F
:1015200020F079F4A6F50C940B0C0EF4E0950B2E3C
:10153000BA2FA02D0B01B90190010C01CA01A00125
:101540001124FF27591B99F0593F50F4503E68F180
:101550001A16F040A22F232F342F4427585FF3CFC1
:10156000469537952795A795F0405395C9F77EF492
:101570001F16BA0B620B730B840BBAF09150A1F0DB
:10158000FF0FBB1F661F771F881FC2F70EC0BA0F61
:10159000621F731F841F48F4879577956795B795E9
:1015A000F7959E3F08F0B0CF9395880F08F09927E4
:1015B000EE0F9795879508950E94F00A0C94D80B2A
:1015C0000E94D10B58F00E94CA0B40F029F45F3FF3
:1015D00029F00C94C10B51110C940C0C0C94C70BFA
:1015E0000E94E90B68F39923B1F3552391F3951BFE
:1015F000550BBB27AA2762177307840738F09F5F34
:101600005F4F220F331F441FAA1FA9F335D00E2EA0
:101610003AF0E0E832D091505040E695001CCAF70D
:101620002BD0FE2F29D0660F771F881FBB1F2617D0
:1016300037074807AB07B0E809F0BB0B802DBF01A7
:10164000FF2793585F4F3AF09E3F510578F00C9476
:10165000C10B0C940C0C5F3FE4F3983ED4F38695D9
:1016600077956795B795F7959F5FC9F7880F911D97
:101670009695879597F90895E1E0660F771F881F83
:10168000BB1F621773078407BA0720F0621B730B36
:10169000840BBA0BEE1F88F7E09508950E94550B56
:1016A0006894B1110C940C0C08950E94F10B88F011
:1016B0009F5798F0B92F9927B751B0F0E1F0660F16
:1016C000771F881F991F1AF0BA95C9F714C0B13057
:1016D00091F00E940B0CB1E008950C940B0C672F55
:1016E000782F8827B85F39F0B93FCCF38695779586
:1016F0006795B395D9F73EF490958095709561956F
:101700007F4F8F4F9F4F0895E89409C097FB3EF499
:1017100090958095709561957F4F8F4F9F4F99233E
:10172000A9F0F92F96E9BB279395F69587957795BC
:101730006795B795F111F8CFFAF4BB0F11F460FF7C
:101740001BC06F5F7F4F8F4F9F4F16C0882311F0D4
:1017500096E911C0772321F09EE8872F762F05C0E8
:10176000662371F096E8862F70E060E02AF09A9583
:10177000660F771F881FDAF7880F9695879597F978
:10178000089597F99F6780E870E060E008959FEF03
:1017900080EC089500240A94161617061806090608
:1017A000089500240A9412161306140605060895D7
:1017B000092E0394000C11F4882352F0BB0F40F45F
:1017C000BF2B11F460FF04C06F5F7F4F8F4F9F4F9F
:1017D000089557FD9058440F551F59F05F3F71F021
:1017E0004795880F97FB991F61F09F3F79F0879588
:1017F0000895121613061406551FF2CF4695F1DF11
:1018000008C0161617061806991FF1CF86957105A0
:10181000610508940895E894BB2766277727CB01D4
:1018200097F908950E94250C0C94D80B0E94CA0BBE
:1018300038F00E94D10B20F0952311F00C94C10BCD
:101840000C94C70B11240C940C0C0E94E90B70F340
:10185000959FC1F3950F50E0551F629FF001729F55
:10186000BB27F00DB11D639FAA27F00DB11DAA1F64
:10187000649F6627B00DA11D661F829F2227B00DB1
:10188000A11D621F739FB00DA11D621F839FA00D3C
:10189000611D221F749F3327A00D611D231F849F8C
:1018A000600D211D822F762F6A2F11249F575040E3
:1018B0009AF0F1F088234AF0EE0FFF1FBB1F661F5E
:1018C000771F881F91505040A9F79E3F510580F027
:1018D0000C94C10B0C940C0C5F3FE4F3983ED4F3D2
:1018E000869577956795B795F795E7959F5FC1F7CB
:1018F000FE2B880F911D9695879597F908958F92E5
:101900009F92AF92BF92CF92DF92EF92FF92CF93CE
:10191000DF93EC01688179818A819B816115710572
:101920008105910521F464E279ED8BE597E02DE1E5
:1019300033EF41E050E00E94F10C49015A019B0154
:10194000AC01A7EAB1E40E94100D6B017C01ACEE82
:10195000B4EFA50194010E941E0DDC01CB018C0D9A
:101960009D1DAE1DBF1DB7FF03C00197A109B04863
:1019700088839983AA83BB839F77DF91CF91FF9060
:10198000EF90DF90CF90BF90AF909F908F90089591
:101990000E947F0C089587E091E00E947F0C0895DB
:1019A000A0E0B0E08093070190930801A0930901A3
:1019B000B0930A010895F999FECF92BD81BDF89ABE
:1019C000992780B50895262FF999FECF1FBA92BDA9
:1019D00081BD20BD0FB6F894FA9AF99A0FBE019610
:1019E0000895052E97FB1EF400940E94080D57FDE4
:1019F00007D00E94230D07FC03D04EF40C94080D71
:101A000050954095309521953F4F4F4F5F4F08952A
:101A100090958095709561957F4F8F4F9F4F08955A
:101A20000E944C0AA59F900DB49F900DA49F800D1D
:101A3000911D11240895B7FF0C94100D0E94100DF4
:101A4000821B930B0895A1E21A2EAA1BBB1BFD015A
:101A50000DC0AA1FBB1FEE1FFF1FA217B307E4078D
:101A6000F50720F0A21BB30BE40BF50B661F771FE5
:101A7000881F991F1A9469F76095709580959095C5
:0E1A80009B01AC01BD01CF010895F894FFCF8A
:0C1A8E00AAB700B400B300010000000083
:00000001FF
