:100000000C9446000C946F000C946F000C946F00DD
:100010000C946F000C946F000C947D090C946F008D
:100020000C946F000C946F000C946F000C943C0FB8
:100030000C946F000C946F000C949C0E0C946F0049
:100040000C946F000C946F000C946F000C946F0074
:100050000C946F000C946F000C946F000C945E0F66
:100060000C946F000C946F00E3095F0AB709AE09A6
:10007000B409410A360AC1109E0F9E0FBE10CA1065
:10008000BA10D110CD10D5108D105F1011241FBEE5
:10009000CFEFD8E0DEBFCDBF14BE0FB6F894A89561
:1000A00080916000886180936000109260000FBEB4
:1000B00011E0A0E0B1E0E2E7FAE202C005900D92A3
:1000C000AC30B107D9F721E0ACE0B1E001C01D923E
:1000D000AC38B207E1F70E9407120C9437150C9464
:1000E00000008091510190915201A0915301B09173
:1000F000540180932A0190932B01A0932C01B0937B
:100100002D0180918701909188018A9739F085E1CE
:1001100090E09093290180932801089584E190E074
:10012000909329018093280108958AE191E0089530
:1001300081E090E090931101809310010895209147
:100140000E0130910F01232B69F421E030E0309350
:100150000F0120930E01FC01808190E090930D012E
:1001600080930C010895CF93DF9320911401309177
:1001700015012817390779F0909315018093140120
:10018000009791F1EC0181309105A1F18230910548
:1001900029F00397B9F0DF91CF9108958091120172
:1001A00090911301892B11F40E94FC0A60E0809168
:1001B0008B010E94F70A1092130110921201DF9135
:1001C000CF9108958091120190911301892BF9F03C
:1001D0006091770180E00E94F70A1092130110925B
:1001E0001201DF91CF91089560E080E0DF91CF911F
:1001F0000C94F70A0E94FC0A60918A01809189019F
:100200000E94F70AD0931301C0931201C4CF0E9439
:10021000FC0ADECFCF93DF930E94560B83708230AF
:1002200020F18230F1F180E10E94180F80911401D9
:10023000909115010397B1F083E090E09093150140
:10024000809314018091120190911301892B09F47C
:100250004AC06091770180E00E94F70A1092130172
:1002600010921201DF91CF91089584E00E94180F3F
:1002700080911401909115010197A1F3C1E0D0E0A4
:10028000D0931501C09314010E94FC0A60918A0169
:10029000809189010E94F70AD0931301C093120143
:1002A000E1CF81E00E94180F809114019091150117
:1002B0000297C1F282E090E09093150180931401BF
:1002C0008091120190911301892B51F060E080918F
:1002D0008B010E94F70A1092130110921201C2CFF3
:1002E0000E94FC0AF3CF0E94FC0AB3CF80E10E9477
:1002F000180F84E690E00E94EC0A84E00E94180F38
:1003000084E690E00E94EC0A84E10E94180F84E6E3
:1003100090E00E94EC0A81E00E94180F84E690E0D1
:100320000E94EC0A81E10E94180F84E690E00E948E
:10033000EC0A85E00E94180F84E690E00E94EC0A27
:1003400085E10E94180F84E690E00C94EC0A0E946C
:10035000FC0A8EE190E00E94EC0A60E080E00E94DE
:10036000F70A86E990E00C94EC0ACF93DF931092A1
:1003700023018AE080931A018AE191E00E946811CA
:1003800090932501809324010E94560B8370823044
:1003900020F18230F1F180E10E94180F8091140168
:1003A000909115010397B1F083E090E090931501CF
:1003B000809314018091120190911301892B09F40B
:1003C0004AC06091770180E00E94F70A1092130101
:1003D00010921201DF91CF91089584E00E94180FCE
:1003E00080911401909115010197A1F3C1E0D0E033
:1003F000D0931501C09314010E94FC0A60918A01F8
:10040000809189010E94F70AD0931301C0931201D1
:10041000E1CF81E00E94180F8091140190911501A5
:100420000297C1F282E090E090931501809314014D
:100430008091120190911301892B51F060E080911D
:100440008B010E94F70A1092130110921201C2CF81
:100450000E94FC0AF3CF0E94FC0AB3CFCF93DF9334
:10046000CAE1D1E019868CE08883CE010E94681130
:100470009B878A8780E10E94180F84E690E00E94A3
:10048000EC0A84E00E94180F84E690E00E94EC0AD7
:1004900084E10E94180F84E690E00E94EC0A81E05B
:1004A0000E94180F84E690E00E94EC0A81E10E940D
:1004B000180F84E690E00E94EC0A85E00E94180F75
:1004C00084E690E00E94EC0A85E10E94180F84E621
:1004D00090E00E94EC0A80E10E94180F84E690E010
:1004E0000E94EC0A84E00E94180F84E690E00E94CB
:1004F000EC0A84E10E94180F84E690E00E94EC0A66
:1005000081E00E94180F84E690E00E94EC0A81E1ED
:100510000E94180F84E690E00E94EC0A85E00E9499
:10052000180F84E690E00E94EC0A85E10E94180F03
:1005300084E690E00E94EC0A80E10E94180F84E6B5
:1005400090E00E94EC0A84E00E94180F84E690E09C
:100550000E94EC0A84E10E94180F84E690E00E9459
:10056000EC0A81E00E94180F84E690E00E94EC0AF9
:1005700081E10E94180F84E690E00E94EC0A85E079
:100580000E94180F84E690E00E94EC0A85E10E9428
:10059000180F84E690E00E94EC0A0E94FC0A8EE1AB
:1005A00090E00E94EC0A60E080E00E94F70A86E991
:1005B00090E00E94EC0A0E94FC0A8EE190E00E940A
:1005C000EC0A60E080E00E94F70A86E990E00E9471
:1005D000EC0A0E94FC0A8EE190E00E94EC0A60E0C6
:1005E00080E00E94F70A86E990E00E94EC0A0E94EF
:1005F000FC0A8EE190E00E94EC0A60E080E00E943C
:10060000F70A86E990E00E94EC0A0E94FC0A8EE15B
:1006100090E00E94EC0A60E080E00E94F70A86E920
:1006200090E00E94EC0A0E94FC0A8EE190E00E9499
:10063000EC0A60E080E00E94F70A86E990E0DF9132
:10064000CF910C94EC0A84E190E09093290180937F
:10065000280180E10E94180F84E690E00E94EC0AD5
:1006600084E00E94180F84E690E00E94EC0A84E186
:100670000E94180F84E690E00E94EC0A81E00E943C
:10068000180F84E690E00E94EC0A81E10E94180FA6
:1006900084E690E00E94EC0A85E00E94180F84E650
:1006A00090E00E94EC0A85E10E94180F84E690E039
:1006B0000E94EC0A80E10E94180F84E690E00E94FC
:1006C000EC0A84E00E94180F84E690E00E94EC0A95
:1006D00084E10E94180F84E690E00E94EC0A81E019
:1006E0000E94180F84E690E00E94EC0A81E10E94CB
:1006F000180F84E690E00E94EC0A85E00E94180F33
:1007000084E690E00E94EC0A85E10E94180F84E6DE
:1007100090E00E94EC0A80E10E94180F84E690E0CD
:100720000E94EC0A84E00E94180F84E690E00E9488
:10073000EC0A84E10E94180F84E690E00E94EC0A23
:1007400081E00E94180F84E690E00E94EC0A81E1AB
:100750000E94180F84E690E00E94EC0A85E00E9457
:10076000180F84E690E00E94EC0A85E10E94180FC1
:1007700084E690E00E94EC0A0E94FC0A8EE190E080
:100780000E94EC0A60E080E00E94F70A86E990E0AF
:100790000E94EC0A0E94FC0A8EE190E00E94EC0AA2
:1007A00060E080E00E94F70A86E990E00E94EC0A8F
:1007B0000E94FC0A8EE190E00E94EC0A60E080E07A
:1007C0000E94F70A86E990E00E94EC0A0E94FC0A67
:1007D0008EE190E00E94EC0A60E080E00E94F70A5F
:1007E00086E990E00E94EC0A0E94FC0A8EE190E00B
:1007F0000E94EC0A60E080E00E94F70A86E990E03F
:100800000E94EC0A0E94FC0A8EE190E00E94EC0A31
:1008100060E080E00E94F70A86E990E00C94EC0A20
:100820008091100190911101019709F44BC1409101
:100830005101509152016091530170915401809186
:100840002A0190912B01A0912C01B0912D0140968D
:10085000A11DB11D84179507A607B70708F031C180
:100860008091510190915201A0915301B091540196
:1008700080932A0190932B01A0932C01B0932D011A
:1008800080910E0190910F01019779F01092230150
:100890008AE080931A018AE191E00E9468119093A6
:1008A0002501809324010C940A0110920F011092EB
:1008B0000E0180910C0190910D010B9739F78091F9
:1008C000140190911501892B41F01092150110929D
:1008D000140160E080E00E94F70A109223018CE08E
:1008E00080931A018AE191E00E946811909325019A
:1008F0008093240180E10E94180F84E690E00E941A
:10090000EC0A84E00E94180F84E690E00E94EC0A52
:1009100084E10E94180F84E690E00E94EC0A81E0D6
:100920000E94180F84E690E00E94EC0A81E10E9488
:10093000180F84E690E00E94EC0A85E00E94180FF0
:1009400084E690E00E94EC0A85E10E94180F84E69C
:1009500090E00E94EC0A80E10E94180F84E690E08B
:100960000E94EC0A84E00E94180F84E690E00E9446
:10097000EC0A84E10E94180F84E690E00E94EC0AE1
:1009800081E00E94180F84E690E00E94EC0A81E169
:100990000E94180F84E690E00E94EC0A85E00E9415
:1009A000180F84E690E00E94EC0A85E10E94180F7F
:1009B00084E690E00E94EC0A80E10E94180F84E631
:1009C00090E00E94EC0A84E00E94180F84E690E018
:1009D0000E94EC0A84E10E94180F84E690E00E94D5
:1009E000EC0A81E00E94180F84E690E00E94EC0A75
:1009F00081E10E94180F84E690E00E94EC0A85E0F5
:100A00000E94180F84E690E00E94EC0A85E10E94A3
:100A1000180F84E690E00E94EC0A0E94FC0A8EE126
:100A200090E00E94EC0A60E080E00E94F70A86E90C
:100A300090E00E94EC0A0E94FC0A8EE190E00E9485
:100A4000EC0A60E080E00E94F70A86E990E00E94EC
:100A5000EC0A0E94FC0A8EE190E00E94EC0A60E041
:100A600080E00E94F70A86E990E00E94EC0A0E946A
:100A7000FC0A8EE190E00E94EC0A60E080E00E94B7
:100A8000F70A86E990E00E94EC0A0E94FC0A8EE1D7
:100A900090E00E94EC0A60E080E00E94F70A86E99C
:100AA00090E00E94EC0A0E94FC0A8EE190E00E9415
:100AB000EC0A60E080E00E94F70A86E990E00C947E
:100AC000EC0A08951092110110921001B0CE80919D
:100AD0002801909129018431910509F443C145977A
:100AE00009F008958091100190911101019709F486
:100AF0003DC140915101509152016091530170915B
:100B0000540180912A0190912B01A0912C01B09168
:100B10002D014096A11DB11D84179507A607B707A3
:100B200000F78091510190915201A0915301B09131
:100B3000540180932A0190932B01A0932C01B09330
:100B40002D0180910E0190910F01019709F00CC1C8
:100B500010920F0110920E0180910C0190910D01E5
:100B60008A30910509F407C10C9709F0BACF80913A
:100B7000140190911501892B41F0109215011092EA
:100B8000140160E080E00E94F70A84E190E0909315
:100B900029018093280180E10E94180F84E690E0EB
:100BA0000E94EC0A84E00E94180F84E690E00E9404
:100BB000EC0A84E10E94180F84E690E00E94EC0A9F
:100BC00081E00E94180F84E690E00E94EC0A81E127
:100BD0000E94180F84E690E00E94EC0A85E00E94D3
:100BE000180F84E690E00E94EC0A85E10E94180F3D
:100BF00084E690E00E94EC0A80E10E94180F84E6EF
:100C000090E00E94EC0A84E00E94180F84E690E0D5
:100C10000E94EC0A84E10E94180F84E690E00E9492
:100C2000EC0A81E00E94180F84E690E00E94EC0A32
:100C300081E10E94180F84E690E00E94EC0A85E0B2
:100C40000E94180F84E690E00E94EC0A85E10E9461
:100C5000180F84E690E00E94EC0A80E10E94180FD1
:100C600084E690E00E94EC0A84E00E94180F84E67B
:100C700090E00E94EC0A84E10E94180F84E690E064
:100C80000E94EC0A81E00E94180F84E690E00E9426
:100C9000EC0A81E10E94180F84E690E00E94EC0AC1
:100CA00085E00E94180F84E690E00E94EC0A85E13E
:100CB0000E94180F84E690E00E94EC0A0E94FC0A51
:100CC0008EE190E00E94EC0A60E080E00E94F70A6A
:100CD00086E990E00E94EC0A0E94FC0A8EE190E016
:100CE0000E94EC0A60E080E00E94F70A86E990E04A
:100CF0000E94EC0A0E94FC0A8EE190E00E94EC0A3D
:100D000060E080E00E94F70A86E990E00E94EC0A29
:100D10000E94FC0A8EE190E00E94EC0A60E080E014
:100D20000E94F70A86E990E00E94EC0A0E94FC0A01
:100D30008EE190E00E94EC0A60E080E00E94F70AF9
:100D400086E990E00E94EC0A0E94FC0A8EE190E0A5
:100D50000E94EC0A60E080E00E94F70A86E990E0D9
:100D60000C94EC0A0C9410040C940A0110921101DA
:100D700010921001BECE109223018BE080931A01D5
:100D80008AE191E00E9468119093250180932401EB
:100D900080910C0190910D01E7CECF93DF9380916C
:100DA000100190911101019709F464C14091510122
:100DB00050915201609153017091540180912A0128
:100DC00090912B01A0912C01B0912D014096A11D75
:100DD000B11D84179507A607B707F0F5809151015B
:100DE00090915201A0915301B091540180932A0136
:100DF00090932B01A0932C01B0932D0180910E01B3
:100E000090910F01019759F10E94560B8370823027
:100E100008F447C1823009F461C180E10E94180FD3
:100E200080911401909115010397B1F083E090E057
:100E300090931501809314018091120190911301F8
:100E4000892B09F46DC16091770180E00E94F70A57
:100E50001092130110921201DF91CF910895109218
:100E60000F0110920E0180910C0190910D018A30BA
:100E7000910509F404C10C9779F7809114019091C0
:100E80001501892B41F0109215011092140160E0B8
:100E900080E00E94F70A84E190E09093290180931A
:100EA000280180E10E94180F84E690E00E94EC0A7D
:100EB00084E00E94180F84E690E00E94EC0A84E12E
:100EC0000E94180F84E690E00E94EC0A81E00E94E4
:100ED000180F84E690E00E94EC0A81E10E94180F4E
:100EE00084E690E00E94EC0A85E00E94180F84E6F8
:100EF00090E00E94EC0A85E10E94180F84E690E0E1
:100F00000E94EC0A80E10E94180F84E690E00E94A3
:100F1000EC0A84E00E94180F84E690E00E94EC0A3C
:100F200084E10E94180F84E690E00E94EC0A81E0C0
:100F30000E94180F84E690E00E94EC0A81E10E9472
:100F4000180F84E690E00E94EC0A85E00E94180FDA
:100F500084E690E00E94EC0A85E10E94180F84E686
:100F600090E00E94EC0A80E10E94180F84E690E075
:100F70000E94EC0A84E00E94180F84E690E00E9430
:100F8000EC0A84E10E94180F84E690E00E94EC0ACB
:100F900081E00E94180F84E690E00E94EC0A81E153
:100FA0000E94180F84E690E00E94EC0A85E00E94FF
:100FB000180F84E690E00E94EC0A85E10E94180F69
:100FC00084E690E00E94EC0A0E94FC0A8EE190E028
:100FD0000E94EC0A60E080E00E94F70A86E990E057
:100FE0000E94EC0A0E94FC0A8EE190E00E94EC0A4A
:100FF00060E080E00E94F70A86E990E00E94EC0A37
:101000000E94FC0A8EE190E00E94EC0A60E080E021
:101010000E94F70A86E990E00E94EC0A0E94FC0A0E
:101020008EE190E00E94EC0A60E080E00E94F70A06
:1010300086E990E00E94EC0A0E94FC0A8EE190E0B2
:101040000E94EC0A60E080E00E94F70A86E990E0E6
:101050000E94EC0A0E94FC0A8EE190E00E94EC0AD9
:1010600060E080E00E94F70A86E990E0DF91CF918E
:101070000C94EC0A109211011092100197CE10926C
:1010800023018BE080931A018AE191E00E946811AC
:10109000909325018093240180910C0190910D0182
:1010A000EACE84E00E94180F8091140190911501FE
:1010B000019709F4D1CEC1E0D0E0D0931501C093DF
:1010C00014010E94FC0A60918A01809189010E94AA
:1010D000F70AD0931301C0931201BECE81E00E94A3
:1010E000180F8091140190911501029709F4B4CE64
:1010F00082E090E090931501809314018091120199
:1011000090911301892B11F40E94FC0A60E08091F8
:101110008B010E94F70A10921301109212019CCECB
:101120000E94FC0A90CE089580E090E00895089512
:10113000DF92EF92FF920F931F93CF93DF93F89478
:1011400014B817B81AB815B818B81BB8529A5A9AE2
:1011500014BC85E085BD8FEF87BD82E080936E0073
:1011600010928000109281002FE83BE030938900BC
:101170002093880080936F005398239891EA90936E
:10118000B0008093B1001092B4001092B3008BE0D5
:1011900080BF83E080937F0086E080937C0083E8BB
:1011A00080937A0080917A00806480937A008091A5
:1011B0007A0086FDFCCF10927C0083EA80937A004F
:1011C00081E080937B0081E090E00E94CD148F3F0E
:1011D00011F08093660010925501C1E0C0932E017A
:1011E000C093720110924C011092860180E990E048
:1011F0000E94CD1480934B0180914B01887311F0B4
:10120000C0934B0110927601109275018FEF90E020
:1012100090937401809373011092510110925201C6
:10122000109253011092540181E08093190182E4DD
:101230009FE0909385018093840180EB90E00E9471
:10124000CD14C82F81EB90E00E94CD142C2F30E0FC
:10125000382B309388012093870185E090E00E942D
:10126000CD1480938B0189E090E00E94CD1480938F
:1012700077018CE090E00E94CD148093890184E195
:1012800090E00E94CD1480938A0156E5E52E51E04E
:10129000F52E0FE211E0C0E2D0E0CE010E94CD14A5
:1012A000D82ECE0101960E94CD142D2D30E0322F84
:1012B0002227282BF701219331937F01CE01C0967D
:1012C0000E94CD14D82ECE01C1960E94CD142D2D92
:1012D00030E0322F2227282BF801219331938F0100
:1012E0002296CC33D105C9F67894DF91CF911F9126
:1012F0000F91FF90EF90DF9008951F920F920FB61D
:101300000F9211248F930FB6F894A89580916000E6
:10131000886180936000109260000FBE8F910F90E3
:101320000FBE0F901F9018953C01EB0110E099241F
:101330009A9484E0C82E96E0A92E23E8B22E38E1D4
:10134000D32E49E2E42E90911901E92FF0E0E73025
:10135000F105C8F7EC5CFF4F0C943812112309F427
:10136000FCC0C092190111E0FE010995ECCF8091FB
:1013700055018111EBC0F894A0927C00B0927A00E4
:1013800080917A00806480937A0090917A0096FD33
:10139000FCCF809178009091790078948B3AE2E0CC
:1013A0009E070CF0EDC08938F2E09F070CF0EFC00B
:1013B000873692400CF4CAC0559A549A3B9A3A9A8E
:1013C0003D983C98C0CFF89480B7877F80BF8091CC
:1013D0007A008F7780937A0014B817B81AB815B8C6
:1013E00018B81BB80FB6F894A895D09260000FBE3D
:1013F000E09260008091600080648093600093B709
:10140000917F946093BFF89483B7816083BF789491
:10141000889583B78E7F83BF789410925501529A36
:101420005A9A80917A00806880937A0087E592E0EA
:101430000197F1F700C0000080B7886180BF559A1E
:10144000549A3B9A3A9A3D9A3C9AEFE1FEE43197DE
:10145000F1F700C0000080915501811181C05598BD
:1014600054983B983A983D983C986DCF80911701DD
:10147000811141C01092B3001092B4001092180173
:1014800062CF4899ECCF559A54983B983A983D983A
:101490003C988FEC97E00197F1F700C00000559859
:1014A00054983B983A983D983C989FEFE1EEF4E0D1
:1014B0009150E040F040E1F700C0000044CF559863
:1014C00054983B9A3A9A3D983C98EFECF7E0319764
:1014D000F1F700C00000559854983B983A983D9811
:1014E0003C98FFEF21EE84E0F15020408040E1F78E
:1014F00000C0000028CF9091170180911801981723
:1015000009F421CF80911701809318018091170170
:10151000813009F450C0809117011092B30090926D
:10152000B4008230D9F19092B3009092B4008FE26F
:1015300095E70197F1F700C0000080918A01909132
:1015400089019093B3008093B400FDCE559A549ACC
:101550003B983A983D983C98F6CEF301099501CF17
:10156000559A549A3B983A983D983C98FFEF20E75B
:1015700082E0F15020408040E1F700C000006FCFD2
:10158000559854983B9A3A9A3D983C98DCCE559899
:1015900054983B983A983D9A3C9AD5CEEFE2F5E7BD
:1015A0003197F1F700C00000809177011092B300ED
:1015B0008093B400C8CE9092B3001092B4008FE232
:1015C00095E70197F1F700C0000080918B018093AF
:1015D000B3001092B400B7CE07C0EFECF7E031973C
:1015E000F1F700C0000001970097B9F708958093C4
:1015F000B3006093B40008958FEF8093B30080939D
:10160000B4008FE090E0EFECF7E03197F1F700C025
:1016100000000197C1F708958091550181111EC006
:10162000F89487E080937C0083E880937A0080912F
:101630007A00806480937A0080917A0086FDFCCFE6
:10164000809178009091790010927C0023EA209399
:101650007A0021E020937B00789408958FEF9FEF2C
:1016600008958091550181111EC0F89488EC8093F3
:101670007C0087E880937A0080917A008064809370
:101680007A0080917A0086FDFCCF8091780090915D
:10169000790010927C0023EA20937A0021E02093C5
:1016A0007B00789408958FEF9FEF08950F931F9319
:1016B000CF93DF93E0E0F0E080E003EA11E0D6E0D2
:1016C000C3E8A1E0B0E060E870E0F894D0937C005B
:1016D000C0937A0090917A00906490937A009091F0
:1016E0007A0096FDFCCF209178003091790021702E
:1016F00090917A00906490937A0090917A0096FD90
:10170000FCCF409178005091790010927C000093BA
:101710007A0010937B0078944170241303C06150C9
:10172000710999F6222339F09D010E2E01C0220F76
:101730000A94EAF7822B3196E830F10509F0C3CF1D
:10174000DF91CF911F910F91089580910001982F03
:10175000990F990F990F89279091160121E0290F70
:1017600020931601282F229526952770822796957B
:10177000969589278093000108958093000108952C
:1017800080915501811116C0F89486E080937C0009
:1017900083E880937A0080917A00806480937A0055
:1017A00080917A0086FDFCCF80917800909179003D
:1017B000789408958FEF9FEF08952F923F924F9264
:1017C0005F926F927F928F929F92AF92BF92CF92D1
:1017D000DF92EF92FF920F931F93CF93DF9300D08E
:1017E00000D000D0CDB7DEB71C01DC0112960D9001
:1017F000BC91A02DBE83AD83A438E3E0BE070CF0FE
:10180000C9C080912F01909130018A179B0708F47D
:1018100037C100913101109132010A171B0708F4FA
:101820002FC200913301109134010A171B0708F4ED
:101830002FC200913501109136010A171B0708F4D9
:101840002FC200913701109138010A171B0708F4C5
:101850002FC20091390110913A010A171B0708F4B1
:10186000EFC100913B0110913C010A171B0708F4DE
:1018700027C200913D0110913E010A171B0708F491
:1018800027C200913F01109140010A171B0708F47D
:1018900027C200914101109142010A171B0708F469
:1018A00027C200914301109144010A171B0708F455
:1018B00027C200914501109146010A171B0708F441
:1018C00023C200914701109148010A171B0708F431
:1018D00023C20091490110914A010A171B0708F41D
:1018E00023C280E090E0A0EDB0E489839A83AB83CB
:1018F000BC834CE0E42EF12CF701EE0FFF1FE15DFD
:10190000FE4F80819181B801681B790B80E090E0E7
:101910000E9476139B01AC010E9462126B017C0154
:10192000AD81BE81BD01BB0F880B990B0E9478135E
:101930004B015C01B80180E090E00E9476132B011E
:101940003C0129813A814B815C81C701B6010E942B
:1019500004149B01AC01C301B2010E9461129B01FE
:10196000AC01C501B4010E94611220E030E040E208
:1019700051E40E9404140E9440138B01C701B60178
:101980000E944013AB01BC01C801BA010E9424129D
:10199000162F77C0DC01CD90DC908091560190919C
:1019A00057018C159D0508F48CC01FEFE09058017D
:1019B000F0905901EC14FD0408F45EC1E0905A0166
:1019C000F0905B01EC14FD0408F45EC1E0905C0152
:1019D000F0905D01EC14FD0408F45EC1E0905E013E
:1019E000F0905F01EC14FD0408F45EC1E09060012A
:1019F000F0906101EC14FD0408F4C3C0E0906201B2
:101A0000F0906301EC14FD0408F456C1E090640109
:101A1000F0906501EC14FD0408F456C1E0906601F5
:101A2000F0906701EC14FD0408F456C1E0906801E1
:101A3000F0906901EC14FD0408F456C1E0906A01CD
:101A4000F0906B01EC14FD0408F456C1E0906C01B9
:101A5000F0906D01EC14FD0408F45AC1E0906E01A1
:101A6000F0906F01EC14FD0408F45AC1E09070018D
:101A7000F0907101EC14FD0408F45AC10AE531C07C
:101A800010E0ED81FE81ED3BF240FCF481E2810F3C
:101A900026960FB6F894DEBF0FBECDBFDF91CF9173
:101AA0001F910F91FF90EF90DF90CF90BF90AF907C
:101AB0009F908F907F906F905F904F903F902F906E
:101AC000089500E081E2800FE3CFD101CD90DC905A
:101AD00080915601909157018C159D0508F066CFB5
:101AE00000E01F3F79F3ED81FE81BF01FF0F880BFE
:101AF000990B0E9478136B017C01612F70E080E0EC
:101B000090E00E9476134B015C01A701960160E012
:101B100070E081E694E40E9461129B01AC01C50172
:101B2000B4010E9404144B015C01602F70E080E05E
:101B300090E00E9476132B013C0120E030E04FE260
:101B400054E4C701B6010E9461129B01AC01C301BC
:101B5000B2010E9404149B01AC01C501B4010E94B2
:101B6000621220E030E048E453E40E94CE1220E00C
:101B700030E044E052E40E9462120E944713862F34
:101B800087CF05E085E090E0880F991FFC01EC5AB3
:101B9000FE4F80819181B701681B790B80E090E056
:101BA0000E9476139B01AC010E9462124B015C0102
:101BB000B601DD0C880B990B0E9478132B013C01B8
:101BC000B70180E090E00E9476136B017C01602FEA
:101BD00070E080E090E00E94761320E030E040E08A
:101BE0005FE30E94041420E030E0A9010E94621229
:101BF000A50194010E9404149B01AC01C701B60128
:101C00000E9461129B01AC01C301B2010E946112EA
:101C100020E030E040E251E40E9404140E944013AE
:101C20007B01C501B4010E944013AB01BC01C70197
:101C3000BA010E942412062F6F3F09F052CF26CF1F
:101C400065E085E090E07C01F1E0EF1AF10870E0DA
:101C500080E090E00E94761320E030E040E05FE317
:101C60000E94041420E030E0A9010E9462126983FE
:101C70007A838B839C8340CE01E081E090E084CF27
:101C800061E081E090E0DFCF02E082E090E07CCF95
:101C900062E082E090E0D7CF03E083E090E074CF91
:101CA00063E083E090E0CFCF04E084E090E06CCF8D
:101CB00064E084E090E0C7CF06E086E090E064CF87
:101CC00066E086E090E0BFCF07E087E090E05CCF81
:101CD00067E087E090E0B7CF08E088E090E054CF7D
:101CE00068E088E090E0AFCF09E089E090E04CCF79
:101CF00069E089E090E0A7CF0AE08AE090E044CF75
:101D00006AE08AE090E09FCF6BE08BE090E09BCFB1
:101D10000BE08BE090E038CF6CE08CE090E093CF6C
:101D20000CE08CE090E030CF6DE08DE090E08BCF68
:101D30000DE08DE090E028CF1F920F920FB60F922A
:101D400011242F933F934F935F936F937F938F93C0
:101D50009F93AF93BF93EF93FF93209175013091C1
:101D600076018091730190917401820F931F90937B
:101D70007601809375018FEF90E0909374018093CA
:101D800073018FEF87BD8091510190915201A09115
:101D90005301B09154010196A11DB11D80935101D1
:101DA00090935201A0935301B09354018091550137
:101DB00081110FC08091840190918501209175015E
:101DC000309176018217930720F4809119018430B5
:101DD00089F0FF91EF91BF91AF919F918F917F918A
:101DE0006F915F914F913F912F910F900FBE0F9088
:101DF0001F901895E0910301F09104010995009757
:101E000041F30E948411811109C00E94BD149927D9
:101E1000909374018093730187BDDBCFE091010142
:101E2000F091020109951092760110927501D1CFBF
:101E300080FF11C0559A81FF11C0549A82FF11C0D2
:101E40003B9A83FF11C03A9A84FF11C03D9A85FDE9
:101E500011C03C980895559881FDEFCF549882FDAC
:101E6000EFCF3B9883FDEFCF3A9884FDEFCF3D98BD
:101E700085FFEFCF3C9A08951F920F920FB60F92F5
:101E800011248F939F9310928100109285001092DD
:101E9000840081E080932E0180937201109255019D
:101EA00010927C0093EA90937A0080937B009F913C
:101EB0008F910F900FBE0F901F9018951F920F9249
:101EC0000FB60F9211242F933F934F935F936F930D
:101ED0007F938F939F93AF93BF93CF93DF93EF93B2
:101EE000FF93209184003091850041E0409355019B
:101EF00080912E018823A9F1109285001092840010
:101F0000409381001092860110922E0180917201FF
:101F10008823A1F080917A0086FDFCCF8091780023
:101F2000909179009093500180934F0181E08093CC
:101F30007C0093EA90937A0080937B00FF91EF916D
:101F4000DF91CF91BF91AF919F918F917F916F91D1
:101F50005F914F913F912F910F900FBE0F901F9067
:101F60001895C901875891098437994008F052C0E3
:101F700026583109A4EFB0E00E943E12AA27BB27E1
:101F800088309105A105B10508F47BC040932E016E
:101F900080917201811152C080914C01E82FF0E0D4
:101FA000E858FE4F9091860190838F5F80934C019B
:101FB0008C3021F6109281001092850010928400DE
:101FC0004093720110925501C0918201D09183011A
:101FD00088E791E00E946811C817D90709F0AECFD1
:101FE0008091810187FF61C098E7980F933030F0AE
:101FF000539823981092B4001092B30090E0FC0123
:10200000E058F109EB30F10508F098CFE55CFF4F9F
:102010000C94381210928100109285001092840066
:1020200040932E01409372011092550110927C0052
:1020300083EA80937A0040937B0080CF80917A007E
:1020400086FDFCCF809178009091790090934E01AD
:1020500080934D0110927C0083EA80937A0081E0A6
:1020600080937B00909186019923D1F0109281009A
:102070001092850010928400809372011092550195
:102080005DCF21E030E0F90102C0EE0FFF1F8A951D
:10209000E2F7CF0190918601892B809386014ECF84
:1020A0001092720110924C0149CFE0910501F0911C
:1020B00006016DE471E088E791E009953FCF8091DA
:1020C0007801823009F4DDC008F4BAC0833009F425
:1020D000C6C0843009F0B1C08091170190917E0193
:1020E000833009F4E3C080917D011092180123E050
:1020F000209317018093890190938A01809119019F
:10210000863009F41BCF539A239A1092B400109290
:10211000B30086E08093190111CF809119018630B8
:1021200099F0539A239A1092B4001092B3005598E4
:1021300054983B983A983D983C9810921701109209
:10214000180186E08093190181E090E09C010090E5
:10215000780102C0220F331F0A94E2F780918701B1
:102160009091880182239323892B09F086C01092D5
:102170001701E4CE81E080931901E0CEE0E0F0E0C9
:10218000099580916E008D7F80936E0016BCE0E013
:10219000F0E7099510921901D1CE82E080931901E0
:1021A000CDCE85E080931901C9CE8091190183308D
:1021B00009F4C4CE80911901843009F4BFCE539A3A
:1021C000239A1092B4001092B30083E08093190117
:1021D000B5CE80911901863009F0B0CE60918701AB
:1021E00080EB90E00E94D5146091880181EB90E033
:1021F0000E94D51460918B0185E090E00E94D51477
:102200006091770189E090E00E94D5146091890186
:102210008CE090E00E94D51460918A0184E190E006
:102220000E94D514539823981092B4001092B300D2
:1022300081E0809319018091780181115FCF7ECE7A
:10224000882339F28130C9F78091790190917A0120
:102250009093880180938701109217014FCF80914E
:102260001701823071F180917C011092180192E087
:10227000909317018093770141CF81E080931701FC
:102280005DCE80911701813051F080917B011092D9
:10229000180191E09093170180938B012FCF8091CB
:1022A0007B0190918B018913F2CF28CF80918A0115
:1022B000981319CF80917D0120918901821315CF48
:1022C0001DCF80917C01909177018913CECF16CFDD
:1022D000FC01AC01465F5F4F8FEF9FEF219182279A
:1022E000082E8295807F8025092E982F82958F70E9
:1022F0000826869598278927880F880F880F8025BC
:10230000E417F50759F708950FB6F894A4B1209192
:102310004B012A2B24B921E030914B01203029F0C8
:10232000000025B1232B25B904C0000000000000E7
:1023300000C0000000000000309525B1232325B91E
:102340002EEA2A95F1F72BEE30B735FF0AC0A4B973
:1023500030914B01309525B1232325B90FBE80E084
:10236000089500002A9581F721E030914B0120303B
:1023700029F0000025B1232B25B904C0000000007E
:10238000000000C0000000000000309525B12323AC
:1023900025B9000024E52A95F1F7FC018CE0619154
:1023A00070E0660F771F616072609AE041E050E074
:1023B0009A0126233723232B30914B01203029F01B
:1023C000000025B1232B25B904C000000000000047
:1023D00000C0000000000000309525B1232325B97E
:1023E000000021E52A95F1F7440F551F9A9501F752
:1023F0008A95A9F620B7206120BFA4B930914B017E
:10240000309525B1232325B90FBE81E008950E94A0
:10241000980885E990E0909304018093030188E98E
:1024200090E090930201809301018FE990E09093F6
:1024300006018093050167E675E081E790E00E9460
:10244000940980E090E0089597FB072E16F400941D
:1024500007D077FD09D00E944D1207FC05D03EF44D
:10246000909581959F4F0895709561957F4F089540
:10247000EE0FFF1F0590F491E02D0994A29FB0018B
:10248000B39FC001A39F700D811D1124911DB29FA8
:10249000700D811D1124911D0895AA1BBB1B51E1D4
:1024A00007C0AA1FBB1FA617B70710F0A61BB70BC4
:1024B000881F991F5A95A9F780959095BC01CD0169
:1024C00008955058BB27AA270E9479120C94CA136A
:1024D0000E94BC1338F00E94C31320F039F49F3FD0
:1024E00019F426F40C94B9130EF4E095E7FB0C9460
:1024F000B313E92F0E94DB1358F3BA17620773076F
:102500008407950720F079F4A6F50C94FD130EF4DA
:10251000E0950B2EBA2FA02D0B01B90190010C01F3
:10252000CA01A0011124FF27591B99F0593F50F40B
:10253000503E68F11A16F040A22F232F342F442763
:10254000585FF3CF469537952795A795F04053955B
:10255000C9F77EF41F16BA0B620B730B840BBAF02B
:102560009150A1F0FF0FBB1F661F771F881FC2F796
:102570000EC0BA0F621F731F841F48F487957795AA
:102580006795B795F7959E3F08F0B0CF9395880F64
:1025900008F09927EE0F9795879508950E94E2120B
:1025A0000C94CA130E94C31358F00E94BC1340F04D
:1025B00029F45F3F29F00C94B31351110C94FE13CE
:1025C0000C94B9130E94DB1368F39923B1F35523DC
:1025D00091F3951B550BBB27AA2762177307840736
:1025E00038F09F5F5F4F220F331F441FAA1FA9F3CC
:1025F00035D00E2E3AF0E0E832D091505040E695BA
:10260000001CCAF72BD0FE2F29D0660F771F881F1A
:10261000BB1F261737074807AB07B0E809F0BB0B0D
:10262000802DBF01FF2793585F4F3AF09E3F510521
:1026300078F00C94B3130C94FE135F3FE4F3983ED0
:10264000D4F3869577956795B795F7959F5FC9F70A
:10265000880F911D9695879597F90895E1E0660F8B
:10266000771F881FBB1F621773078407BA0720F004
:10267000621B730B840BBA0BEE1F88F7E09508956D
:102680000E9447136894B1110C94FE1308950E94A0
:10269000E31388F09F5798F0B92F9927B751B0F0FE
:1026A000E1F0660F771F881F991F1AF0BA95C9F7D6
:1026B00014C0B13091F00E94FD13B1E008950C9464
:1026C000FD13672F782F8827B85F39F0B93FCCF317
:1026D000869577956795B395D9F73EF49095809553
:1026E000709561957F4F8F4F9F4F0895E89409C073
:1026F00097FB3EF490958095709561957F4F8F4F35
:102700009F4F9923A9F0F92F96E9BB279395F6954A
:10271000879577956795B795F111F8CFFAF4BB0FC8
:1027200011F460FF1BC06F5F7F4F8F4F9F4F16C02C
:10273000882311F096E911C0772321F09EE8872FB6
:10274000762F05C0662371F096E8862F70E060E072
:102750002AF09A95660F771F881FDAF7880F9695EB
:10276000879597F9089597F99F6780E870E060E092
:1027700008959FEF80EC089500240A94161617061A
:1027800018060906089500240A9412161306140662
:1027900005060895092E0394000C11F4882352F0C5
:1027A000BB0F40F4BF2B11F460FF04C06F5F7F4F7D
:1027B0008F4F9F4F089557FD9058440F551F59F064
:1027C0005F3F71F04795880F97FB991F61F09F3F1E
:1027D00079F087950895121613061406551FF2CF47
:1027E0004695F1DF08C0161617061806991FF1CF97
:1027F00086957105610508940895E894BB276627BE
:102800007727CB0197F908950E9417140C94CA13E7
:102810000E94BC1338F00E94C31320F0952311F0DE
:102820000C94B3130C94B91311240C94FE130E944E
:10283000DB1370F3959FC1F3950F50E0551F629F16
:10284000F001729FBB27F00DB11D639FAA27F00D09
:10285000B11DAA1F649F6627B00DA11D661F829F30
:102860002227B00DA11D621F739FB00DA11D621F15
:10287000839FA00D611D221F749F3327A00D611D32
:10288000231F849F600D211D822F762F6A2F112414
:102890009F5750409AF0F1F088234AF0EE0FFF1F47
:1028A000BB1F661F771F881F91505040A9F79E3F9E
:1028B000510580F00C94B3130C94FE135F3FE4F3C6
:1028C000983ED4F3869577956795B795F795E795F4
:1028D0009F5FC1F7FE2B880F911D9695879597F9FD
:1028E00008958F929F92AF92BF92CF92DF92EF9214
:1028F000FF92CF93DF93EC01688179818A819B817C
:10290000611571058105910521F464E279ED8BE58E
:1029100097E02DE133EF41E050E00E94E3144901DC
:102920005A019B01AC01A7EAB1E40E9402156B01B8
:102930007C01ACEEB4EFA50194010E941015DC01FE
:10294000CB018C0D9D1DAE1DBF1DB7FF03C00197B0
:10295000A109B04888839983AA83BB839F77DF91BD
:10296000CF91FF90EF90DF90CF90BF90AF909F906E
:102970008F9008950E947114089587E091E00E945D
:1029800071140895A0E0B0E08093070190930801CE
:10299000A0930901B0930A010895F999FECF92BD61
:1029A00081BDF89A992780B50895262FF999FECF11
:1029B0001FBA92BD81BD20BD0FB6F894FA9AF99A5C
:1029C0000FBE01960895052E97FB1EF400940E94F9
:1029D000FA1457FD07D00E94151507FC03D04EF4DA
:1029E0000C94FA1450954095309521953F4F4F4FD8
:1029F0005F4F089590958095709561957F4F8F4FAB
:102A00009F4F08950E943E12A59F900DB49F900D78
:102A1000A49F800D911D11240895B7FF0C940215F9
:102A20000E940215821B930B0895A1E21A2EAA1B85
:102A3000BB1BFD010DC0AA1FBB1FEE1FFF1FA2176E
:102A4000B307E407F50720F0A21BB30BE40BF50B6B
:102A5000661F771F881F991F1A9469F760957095F4
:102A6000809590959B01AC01BD01CF010895F8942C
:022A7000FFCF96
:0C2A7200AA9708940893080100000000D7
:00000001FF
