:100000000C9446000C946F000C946F000C946F00DD
:100010000C946F000C946F000C9469020C946F00A8
:100020000C946F000C946F000C946F000C942808D3
:100030000C946F000C946F000C9488070C946F0064
:100040000C946F000C946F000C946F000C946F0074
:100050000C946F000C946F000C946F000C944A0881
:100060000C946F000C946F00CF024B03A3029A0212
:10007000A0022D032203AD098A088A08AA09B6093D
:10008000A609BD09B909C10979094B0911241FBE87
:10009000CFEFD8E0DEBFCDBF14BE0FB6F894A89561
:1000A00080916000886180936000109260000FBEB4
:1000B00011E0A0E0B1E0E6E2FCE102C005900D92A3
:1000C000AC30B107D9F721E0ACE0B1E001C01D923E
:1000D000A637B207E1F70E94F30A0C94110E0C94B4
:1000E000000080913B0190913C01A0913D01B091B5
:1000F0003E018093140190931501A0931601B093D3
:1001000017010895CF9340913B0150913C016091BC
:100110003D0170913E018091140190911501A091D3
:100120001601B0911701805C9F4FAF4FBF4F8417EE
:100130009507A607B70710F0CF91089584E00E94B5
:10014000040880910C0190910D01892B11F40E94FB
:10015000E8036091740170E080E090E00E94500C30
:1001600023E333E343E95FE30E94DE0C0E94210CAA
:10017000C62F80917301682F70E080E090E00E94AC
:10018000500C23E333E343E95FE30E94DE0C0E945B
:10019000210C862F6C2F0E94E30381E090E0909366
:1001A0000D0180930C01CF91089520910E013091A3
:1001B0000F012817390771F090930F0180930E01FA
:1001C000009771F18130910531F08230910561F134
:1001D0000397B1F0089580910C0190910D01892B46
:1001E00011F40E94E80360917401809173010E94F0
:1001F000E30381E090E090930D0180930C0108955A
:1002000080910C0190910D01892B01F160916101A8
:1002100080E00E94E30310920D0110920C010895FA
:1002200060E080E00C94E30380910C0190910D015B
:10023000892B11F40E94E80360E0809175010E940F
:10024000E30310920D0110920C0108950E94E8033F
:10025000DDCFCF92DF92EF92FF921F93CF93DF9388
:1002600000D000D0CDB7DEB76B017C0180910C01CE
:1002700090910D01892B51F429833A834B835C8340
:100280000E94E8035C814B813A812981809174014D
:10029000682F70E080E090E029833A834B835C8391
:1002A0000E94500C29813A814B815C810E94DE0CB6
:1002B0000E94210C162F80917301682F70E080E05E
:1002C00090E00E94500CA70196010E94DE0C0E9453
:1002D000210C862F612F0E94E30381E090E0909330
:1002E0000D0180930C010F900F900F900F90DF91F4
:1002F000CF911F91FF90EF90DF90CF9008950895D8
:1003000080E090E008950895DF92EF92FF920F93BE
:100310001F93CF93DF93F89414B817B81AB815B891
:1003200018B81BB8529A5A9A14BC85E085BD8FEF55
:1003300087BD82E080936E00109280001092810051
:100340002FE83BE0309389002093880080936F0072
:100350005398239891EA9093B0008093B100109243
:10036000B4001092B3008BE080BF83E080937F00E5
:1003700086E080937C0083E880937A0080917A0005
:10038000806480937A0080917A0086FDFCCF109281
:100390007C0083EA80937A0081E080937B0081E097
:1003A00090E00E94A70D8F3F11F08093660010929D
:1003B0003F01C1E0C0931801C0935C011092360167
:1003C0001092700180E990E00E94A70D80933501A2
:1003D00080913501887311F0C0933501109260014E
:1003E00010925F018FEF90E090935E0180935D012A
:1003F00010923B0110923C0110923D0110923E017F
:1004000081E08093130182E49FE090936F018093D9
:100410006E0180EB90E00E94A70DC82F81EB90E069
:100420000E94A70D2C2F30E0382B309372012093BF
:10043000710185E090E00E94A70D8093750189E02D
:1004400090E00E94A70D809361018CE090E00E94F3
:10045000A70D8093730184E190E00E94A70D809323
:10046000740150E4E52E51E0F52E09E111E0C0E2FF
:10047000D0E0CE010E94A70DD82ECE0101960E9499
:10048000A70D2D2D30E0322F2227282BF7012193A5
:1004900031937F01CE01C0960E94A70DD82ECE01C8
:1004A000C1960E94A70D2D2D30E0322F2227282B38
:1004B000F801219331938F012296CC33D105C9F6EF
:1004C0007894DF91CF911F910F91FF90EF90DF9083
:1004D00008951F920F920FB60F9211248F930FB6AB
:1004E000F894A895809160008861809360001092D4
:1004F00060000FBE8F910F900FBE0F901F90189548
:100500003C01EB0110E099249A9484E0C82E96E017
:10051000A92E23E8B22E38E1D32E49E2E42E9091A1
:100520001301E92FF0E0E730F105C8F7EC5CFF4F6D
:100530000C94120B112309F4FCC0C092130111E0BA
:10054000FE010995ECCF80913F018111EBC0F89439
:10055000A0927C00B0927A0080917A0080648093AF
:100560007A0090917A0096FDFCCF8091780090916E
:10057000790078948B3AE2E09E070CF0EDC0893860
:10058000F2E09F070CF0EFC0873692400CF4CAC02F
:10059000559A549A3B9A3A9A3D983C98C0CFF89411
:1005A00080B7877F80BF80917A008F7780937A00B1
:1005B00014B817B81AB815B818B81BB80FB6F8940D
:1005C000A895D09260000FBEE0926000809160001C
:1005D00080648093600093B7917F946093BFF89498
:1005E00083B7816083BF7894889583B78E7F83BFFC
:1005F000789410923F01529A5A9A80917A008068BA
:1006000080937A0087E592E00197F1F700C000003F
:1006100080B7886180BF559A549A3B9A3A9A3D9A1E
:100620003C9AEFE1FEE43197F1F700C000008091C1
:100630003F01811181C0559854983B983A983D9854
:100640003C986DCF80911101811141C01092B3008F
:100650001092B4001092120162CF4899ECCF559AD3
:1006600054983B983A983D983C988FEC97E00197C6
:10067000F1F700C00000559854983B983A983D987F
:100680003C989FEFE1EEF4E09150E040F040E1F75C
:1006900000C0000044CF559854983B9A3A9A3D9830
:1006A0003C98EFECF7E03197F1F700C00000559867
:1006B00054983B983A983D983C98FFEF21EE84E09F
:1006C000F15020408040E1F700C0000028CF909119
:1006D000110180911201981709F421CF8091110125
:1006E0008093120180911101813009F450C08091F2
:1006F00011011092B3009092B4008230D9F190921F
:10070000B3009092B4008FE295E70197F1F700C033
:10071000000080917401909173019093B3008093D5
:10072000B400FDCE559A549A3B983A983D983C981F
:10073000F6CEF301099501CF559A549A3B983A9811
:100740003D983C98FFEF20E782E0F1502040804048
:10075000E1F700C000006FCF559854983B9A3A9A41
:100760003D983C98DCCE559854983B983A983D9AE1
:100770003C9AD5CEEFE2F5E73197F1F700C00000E3
:10078000809161011092B3008093B400C8CE909222
:10079000B3001092B4008FE295E70197F1F700C023
:1007A0000000809175018093B3001092B400B7CE21
:1007B00007C0EFECF7E03197F1F700C000000197B8
:1007C0000097B9F708958093B3006093B40008953B
:1007D0008FEF8093B3008093B4008FE090E0EFEC54
:1007E000F7E03197F1F700C000000197C1F70895D5
:1007F00080913F0181111EC0F89487E080937C00B6
:1008000083E880937A0080917A00806480937A00F4
:1008100080917A0086FDFCCF8091780090917900DC
:1008200010927C0023EA20937A0021E020937B0041
:10083000789408958FEF9FEF089580913F01811183
:100840001EC0F89488EC80937C0087E880937A003F
:1008500080917A00806480937A0080917A0086FD8E
:10086000FCCF809178009091790010927C0023EA6F
:1008700020937A0021E020937B00789408958FEFF5
:100880009FEF08950F931F93CF93DF93E0E0F0E085
:1008900080E003EA11E0D6E0C3E8A1E0B0E060E860
:1008A00070E0F894D0937C00C0937A0090917A0025
:1008B000906490937A0090917A0096FDFCCF2091FD
:1008C000780030917900217090917A009064909333
:1008D0007A0090917A0096FDFCCF4091780050917B
:1008E000790010927C0000937A0010937B0078943A
:1008F0004170241303C06150710999F6222339F025
:100900009D010E2E01C0220F0A94EAF7822B319628
:10091000E830F10509F0C3CFDF91CF911F910F911E
:10092000089580910001982F990F990F990F8927A9
:100930009091100121E0290F20931001282F22957A
:100940002695277082279695969589278093000192
:10095000089580930001089580913F01811116C090
:10096000F89486E080937C0083E880937A008091FD
:100970007A00806480937A0080917A0086FDFCCFB3
:100980008091780090917900789408958FEF9FEF8F
:1009900008952F923F924F925F926F927F928F9223
:1009A0009F92AF92BF92CF92DF92EF92FF920F93FE
:1009B0001F93CF93DF9300D000D000D0CDB7DEB728
:1009C0001C01DC0112960D90BC91A02DBE83AD835D
:1009D000A438E3E0BE070CF0C9C0809119019091E2
:1009E0001A018A179B0708F437C100911B01109167
:1009F0001C010A171B0708F42FC200911D0110915A
:100A00001E010A171B0708F42FC200911F01109145
:100A100020010A171B0708F42FC200912101109131
:100A200022010A171B0708F42FC20091230110911D
:100A300024010A171B0708F4EFC10091250110914A
:100A400026010A171B0708F427C2009127011091FD
:100A500028010A171B0708F427C2009129011091E9
:100A60002A010A171B0708F427C200912B011091D5
:100A70002C010A171B0708F427C200912D011091C1
:100A80002E010A171B0708F427C200912F011091AD
:100A900030010A171B0708F423C20091310110919D
:100AA00032010A171B0708F423C200913301109189
:100AB00034010A171B0708F423C280E090E0A0ED80
:100AC000B0E489839A83AB83BC834CE0E42EF12CA1
:100AD000F701EE0FFF1FE75EFE4F80819181B801A5
:100AE000681B790B80E090E00E94500C9B01AC01E8
:100AF0000E943C0B6B017C01AD81BE81BD01BB0F2F
:100B0000880B990B0E94520C4B015C01B80180E0EC
:100B100090E00E94500C2B013C0129813A814B81CD
:100B20005C81C701B6010E94DE0C9B01AC01C301D0
:100B3000B2010E943B0B9B01AC01C501B4010E94B4
:100B40003B0B20E030E040E251E40E94DE0C0E94CA
:100B50001A0C8B01C701B6010E941A0CAB01BC0133
:100B6000C801BA010E94FE0A162F77C0DC01CD90A1
:100B7000DC9080914001909141018C159D0508F415
:100B80008CC01FEFE0904201F0904301EC14FD0493
:100B900008F45EC1E0904401F0904501EC14FD04BE
:100BA00008F45EC1E0904601F0904701EC14FD04AA
:100BB00008F45EC1E0904801F0904901EC14FD0496
:100BC00008F45EC1E0904A01F0904B01EC14FD0482
:100BD00008F4C3C0E0904C01F0904D01EC14FD040A
:100BE00008F456C1E0904E01F0904F01EC14FD0462
:100BF00008F456C1E0905001F0905101EC14FD044E
:100C000008F456C1E0905201F0905301EC14FD0439
:100C100008F456C1E0905401F0905501EC14FD0425
:100C200008F456C1E0905601F0905701EC14FD0411
:100C300008F45AC1E0905801F0905901EC14FD04F9
:100C400008F45AC1E0905A01F0905B01EC14FD04E5
:100C500008F45AC10AE531C010E0ED81FE81ED3B98
:100C6000F240FCF481E2810F26960FB6F894DEBFC5
:100C70000FBECDBFDF91CF911F910F91FF90EF90ED
:100C8000DF90CF90BF90AF909F908F907F906F90AC
:100C90005F904F903F902F90089500E081E2800F89
:100CA000E3CFD101CD90DC90809140019091410142
:100CB0008C159D0508F066CF00E01F3F79F3ED81AC
:100CC000FE81BF01FF0F880B990B0E94520C6B0134
:100CD0007C01612F70E080E090E00E94500C4B019D
:100CE0005C01A701960160E070E081E694E40E9457
:100CF0003B0B9B01AC01C501B4010E94DE0C4B0112
:100D00005C01602F70E080E090E00E94500C2B01AD
:100D10003C0120E030E04FE254E4C701B6010E94FC
:100D20003B0B9B01AC01C301B2010E94DE0C9B0195
:100D3000AC01C501B4010E943C0B20E030E048E466
:100D400053E40E94A80B20E030E044E052E40E940B
:100D50003C0B0E94210C862F87CF05E085E090E0B8
:100D6000880F991FFC01E25CFE4F80819181B701E1
:100D7000681B790B80E090E00E94500C9B01AC0155
:100D80000E943C0B4B015C01B601DD0C880B990BFA
:100D90000E94520C2B013C01B70180E090E00E94C0
:100DA000500C6B017C01602F70E080E090E00E94AD
:100DB000500C20E030E040E05FE30E94DE0C20E0D9
:100DC00030E0A9010E943C0BA50194010E94DE0CB9
:100DD0009B01AC01C701B6010E943B0B9B01AC011A
:100DE000C301B2010E943B0B20E030E040E251E43D
:100DF0000E94DE0C0E941A0C7B01C501B4010E9406
:100E00001A0CAB01BC01C701BA010E94FE0A062FF1
:100E10006F3F09F052CF26CF65E085E090E07C017E
:100E2000F1E0EF1AF10870E080E090E00E94500CD1
:100E300020E030E040E05FE30E94DE0C20E030E0A4
:100E4000A9010E943C0B69837A838B839C8340CEEB
:100E500001E081E090E084CF61E081E090E0DFCFCD
:100E600002E082E090E07CCF62E082E090E0D7CFC9
:100E700003E083E090E074CF63E083E090E0CFCFC5
:100E800004E084E090E06CCF64E084E090E0C7CFC1
:100E900006E086E090E064CF66E086E090E0BFCFB9
:100EA00007E087E090E05CCF67E087E090E0B7CFB5
:100EB00008E088E090E054CF68E088E090E0AFCFB1
:100EC00009E089E090E04CCF69E089E090E0A7CFAD
:100ED0000AE08AE090E044CF6AE08AE090E09FCFA9
:100EE0006BE08BE090E09BCF0BE08BE090E038CFA5
:100EF0006CE08CE090E093CF0CE08CE090E030CFA1
:100F00006DE08DE090E08BCF0DE08DE090E028CF9C
:100F10001F920F920FB60F9211242F933F934F936E
:100F20005F936F937F938F939F93AF93BF93EF9351
:100F3000FF9320915F013091600180915D0190915C
:100F40005E01820F931F9093600180935F018FEF8A
:100F500090E090935E0180935D018FEF87BD80915B
:100F60003B0190913C01A0913D01B0913E01019661
:100F7000A11DB11D80933B0190933C01A0933D01C5
:100F8000B0933E0180913F0181110FC080916E01AD
:100F900090916F0120915F0130916001821793075A
:100FA00020F480911301843089F0FF91EF91BF917B
:100FB000AF919F918F917F916F915F914F913F91F1
:100FC0002F910F900FBE0F901F901895E091030185
:100FD000F09104010995009741F30E94700A811174
:100FE00009C00E94970D992790935E0180935D013F
:100FF00087BDDBCFE0910101F091020109951092CC
:10100000600110925F01D1CF80FF11C0559A81FF1E
:1010100011C0549A82FF11C03B9A83FF11C03A9AC3
:1010200084FF11C03D9A85FD11C03C9808955598E4
:1010300081FDEFCF549882FDEFCF3B9883FDEFCF3A
:101040003A9884FDEFCF3D9885FFEFCF3C9A089505
:101050001F920F920FB60F9211248F939F931092AD
:101060008100109285001092840081E08093180125
:1010700080935C0110923F0110927C0093EA909360
:101080007A0080937B009F918F910F900FBE0F90FD
:101090001F9018951F920F920FB60F9211242F9345
:1010A0003F934F935F936F937F938F939F93AF93F0
:1010B000BF93CF93DF93EF93FF9320918400309100
:1010C000850041E040933F01809118018823A9F1F8
:1010D000109285001092840040938100109270015C
:1010E0001092180180915C018823A1F080917A0010
:1010F00086FDFCCF809178009091790090933A0121
:101100008093390181E080937C0093EA90937A0088
:1011100080937B00FF91EF91DF91CF91BF91AF91D1
:101120009F918F917F916F915F914F913F912F91FF
:101130000F900FBE0F901F901895C9018758910905
:101140008437994008F052C026583109A4EFB0E026
:101150000E94180BAA27BB2788309105A105B1056D
:1011600008F47BC04093180180915C01811152C04A
:1011700080913601E82FF0E0EE59FE4F909170011A
:1011800090838F5F809336018C3021F6109281001E
:10119000109285001092840040935C0110923F01F0
:1011A000C0916C01D0916D0182E691E00E94540AD9
:1011B000C817D90709F0AECF80916B0187FF61C0D6
:1011C00098E7980F933030F0539823981092B4001A
:1011D0001092B30090E0FC01E058F109EB30F1050A
:1011E00008F098CFE55CFF4F0C94120B1092810031
:1011F00010928500109284004093180140935C0186
:1012000010923F0110927C0083EA80937A00409311
:101210007B0080CF80917A0086FDFCCF80917800A2
:1012200090917900909338018093370110927C005F
:1012300083EA80937A0081E080937B009091700133
:101240009923D1F0109281001092850010928400B1
:1012500080935C0110923F015DCF21E030E0F90105
:1012600002C0EE0FFF1F8A95E2F7CF019091700147
:10127000892B809370014ECF10925C011092360141
:1012800049CFE0910501F091060167E371E082E644
:1012900091E009953FCF80916201823009F4DDC071
:1012A00008F4BAC0833009F4C6C0843009F0B1C074
:1012B0008091110190916801833009F4E3C080911D
:1012C00067011092120123E02093110180937301B2
:1012D0009093740180911301863009F41BCF539AC7
:1012E000239A1092B4001092B30086E08093130109
:1012F00011CF80911301863099F0539A239A10925E
:10130000B4001092B300559854983B983A983D9881
:101310003C98109211011092120186E08093130103
:1013200081E090E09C010090620102C0220F331F17
:101330000A94E2F7809171019091720182239323C4
:10134000892B09F086C010921101E4CE81E08093D0
:101350001301E0CEE0E0F0E0099580916E008D7F12
:1013600080936E0016BCE0E0F0E70995109213013F
:10137000D1CE82E080931301CDCE85E0809313011E
:10138000C9CE80911301833009F4C4CE809113013A
:10139000843009F4BFCE539A239A1092B40010926D
:1013A000B30083E080931301B5CE809113018630A2
:1013B00009F0B0CE6091710180EB90E00E94AF0D1A
:1013C0006091720181EB90E00E94AF0D6091750118
:1013D00085E090E00E94AF0D6091610189E090E0AE
:1013E0000E94AF0D609173018CE090E00E94AF0D00
:1013F0006091740184E190E00E94AF0D53982398AE
:101400001092B4001092B30081E080931301809198
:10141000620181115FCF7ECE882339F28130C9F716
:1014200080916301909164019093720180937101A6
:10143000109211014FCF80911101823071F1809192
:1014400066011092120192E0909311018093610164
:1014500041CF81E0809311015DCE809111018130F7
:1014600051F0809165011092120191E09093110169
:10147000809375012FCF809165019091750189133B
:10148000F2CF28CF80917401981319CF8091670112
:1014900020917301821315CF1DCF80916601909129
:1014A00061018913CECF16CFFC01AC01465F5F4FBF
:1014B0008FEF9FEF21918227082E8295807F8025D4
:1014C000092E982F82958F70082686959827892750
:1014D000880F880F880F8025E417F50759F70895BE
:1014E0000FB6F894A4B1209135012A2B24B921E03C
:1014F00030913501203029F0000025B1232B25B98A
:1015000004C000000000000000C000000000000057
:10151000309525B1232325B92EEA2A95F1F72BEE34
:1015200030B735FF0AC0A4B930913501309525B1E7
:10153000232325B90FBE80E0089500002A9581F786
:1015400021E030913501203029F0000025B1232B16
:1015500025B904C000000000000000C00000000029
:101560000000309525B1232325B9000024E52A95F4
:10157000F1F7FC018CE0619170E0660F771F61600C
:1015800072609AE041E050E09A0126233723232B32
:1015900030913501203029F0000025B1232B25B9E9
:1015A00004C000000000000000C0000000000000B7
:1015B000309525B1232325B9000021E52A95F1F7BF
:1015C000440F551F9A9501F78A95A9F620B7206117
:1015D00020BFA4B930913501309525B1232325B919
:1015E0000FBE81E008950E94840162E870E081E707
:1015F00090E00E94800280E090E0089597FB072E23
:1016000016F4009407D077FD09D00E94270B07FC41
:1016100005D03EF4909581959F4F08957095619502
:101620007F4F0895EE0FFF1F0590F491E02D099470
:10163000A29FB001B39FC001A39F700D811D112413
:10164000911DB29F700D811D1124911D0895AA1B3B
:10165000BB1B51E107C0AA1FBB1FA617B70710F09D
:10166000A61BB70B881F991F5A95A9F780959095CF
:10167000BC01CD0108955058BB27AA270E94530BE7
:101680000C94A40C0E94960C38F00E949D0C20F043
:1016900039F49F3F19F426F40C94930C0EF4E09562
:1016A000E7FB0C948D0CE92F0E94B50C58F3BA1788
:1016B000620773078407950720F079F4A6F50C9468
:1016C000D70C0EF4E0950B2EBA2FA02D0B01B9010B
:1016D00090010C01CA01A0011124FF27591B99F0A8
:1016E000593F50F4503E68F11A16F040A22F232FB4
:1016F000342F4427585FF3CF469537952795A79504
:10170000F0405395C9F77EF41F16BA0B620B730BAA
:10171000840BBAF09150A1F0FF0FBB1F661F771F1B
:10172000881FC2F70EC0BA0F621F731F841F48F4D0
:10173000879577956795B795F7959E3F08F0B0CF59
:101740009395880F08F09927EE0F97958795089540
:101750000E94BC0B0C94A40C0E949D0C58F00E949B
:10176000960C40F029F45F3F29F00C948D0C511138
:101770000C94D80C0C94930C0E94B50C68F399232C
:10178000B1F3552391F3951B550BBB27AA2762177D
:101790007307840738F09F5F5F4F220F331F441F8A
:1017A000AA1FA9F335D00E2E3AF0E0E832D09150BE
:1017B0005040E695001CCAF72BD0FE2F29D0660FAB
:1017C000771F881FBB1F261737074807AB07B0E8EE
:1017D00009F0BB0B802DBF01FF2793585F4F3AF0F4
:1017E0009E3F510578F00C948D0C0C94D80C5F3F03
:1017F000E4F3983ED4F3869577956795B795F7957A
:101800009F5FC9F7880F911D9695879597F9089561
:10181000E1E0660F771F881FBB1F621773078407FD
:10182000BA0720F0621B730B840BBA0BEE1F88F70C
:10183000E09508950E94210C6894B1110C94D80C85
:1018400008950E94BD0C88F09F5798F0B92F9927F2
:10185000B751B0F0E1F0660F771F881F991F1AF09B
:10186000BA95C9F714C0B13091F00E94D70CB1E01D
:1018700008950C94D70C672F782F8827B85F39F01C
:10188000B93FCCF3869577956795B395D9F73EF434
:1018900090958095709561957F4F8F4F9F4F0895DC
:1018A000E89409C097FB3EF49095809570956195FA
:1018B0007F4F8F4F9F4F9923A9F0F92F96E9BB27B0
:1018C0009395F695879577956795B795F111F8CF2C
:1018D000FAF4BB0F11F460FF1BC06F5F7F4F8F4F97
:1018E0009F4F16C0882311F096E911C0772321F08D
:1018F0009EE8872F762F05C0662371F096E8862F25
:1019000070E060E02AF09A95660F771F881FDAF77B
:10191000880F9695879597F9089597F99F6780E8BE
:1019200070E060E008959FEF80EC089500240A9431
:101930001616170618060906089500240A941216AA
:101940001306140605060895092E0394000C11F4DD
:10195000882352F0BB0F40F4BF2B11F460FF04C08A
:101960006F5F7F4F8F4F9F4F089557FD9058440FE3
:10197000551F59F05F3F71F04795880F97FB991FEE
:1019800061F09F3F79F087950895121613061406AB
:10199000551FF2CF4695F1DF08C016161706180638
:1019A000991FF1CF86957105610508940895E89413
:1019B000BB2766277727CB0197F908950E94F10C82
:1019C0000C94A40C0E94960C38F00E949D0C20F000
:1019D000952311F00C948D0C0C94930C11240C9401
:1019E000D80C0E94B50C70F3959FC1F3950F50E091
:1019F000551F629FF001729FBB27F00DB11D639FC1
:101A0000AA27F00DB11DAA1F649F6627B00DA11D66
:101A1000661F829F2227B00DA11D621F739FB00D0C
:101A2000A11D621F839FA00D611D221F749F33277C
:101A3000A00D611D231F849F600D211D822F762F15
:101A40006A2F11249F5750409AF0F1F088234AF0F2
:101A5000EE0FFF1FBB1F661F771F881F915050405E
:101A6000A9F79E3F510580F00C948D0C0C94D80C76
:101A70005F3FE4F3983ED4F3869577956795B795E5
:101A8000F795E7959F5FC1F7FE2B880F911D9695FF
:101A9000879597F908958F929F92AF92BF92CF92B8
:101AA000DF92EF92FF92CF93DF93EC01688179810F
:101AB0008A819B81611571058105910521F464E29C
:101AC00079ED8BE597E02DE133EF41E050E00E94A6
:101AD000BD0D49015A019B01AC01A7EAB1E40E9486
:101AE000DC0D6B017C01ACEEB4EFA50194010E940A
:101AF000EA0DDC01CB018C0D9D1DAE1DBF1DB7FF96
:101B000003C00197A109B04888839983AA83BB8346
:101B10009F77DF91CF91FF90EF90DF90CF90BF90B4
:101B2000AF909F908F9008950E944B0D089587E08D
:101B300091E00E944B0D0895A0E0B0E08093070172
:101B400090930801A0930901B0930A010895F999AF
:101B5000FECF92BD81BDF89A992780B50895262FB2
:101B6000F999FECF1FBA92BD81BD20BD0FB6F89482
:101B7000FA9AF99A0FBE01960895052E97FB1EF466
:101B800000940E94D40D57FD07D00E94EF0D07FC72
:101B900003D04EF40C94D40D50954095309521957A
:101BA0003F4F4F4F5F4F0895909580957095619589
:101BB0007F4F8F4F9F4F08950E94180BA59F900D48
:101BC000B49F900DA49F800D911D11240895B7FF1F
:101BD0000C94DC0D0E94DC0D821B930B0895A1E296
:101BE0001A2EAA1BBB1BFD010DC0AA1FBB1FEE1F97
:101BF000FF1FA217B307E407F50720F0A21BB30BE2
:101C0000E40BF50B661F771F881F991F1A9469F75D
:101C100060957095809590959B01AC01BD01CF01B9
:061C20000895F894FFCFC7
:0C1C2600AA830180017F01010000000082
:00000001FF
