:100000000C9446000C946F000C946F000C946F00DD
:100010000C946F000C946F000C9435030C946F00DB
:100020000C946F000C946F000C946F000C94F40807
:100030000C946F000C946F000C9454080C946F0097
:100040000C946F000C946F000C946F000C946F0074
:100050000C946F000C946F000C946F000C941609B4
:100060000C946F000C946F009B0317046F036603DE
:100070006C03F903EE03790A56095609760A820AD7
:10008000720A890A850A8D0A450A170A11241FBEB9
:10009000CFEFD8E0DEBFCDBF14BE0FB6F894A89561
:1000A00080916000886180936000109260000FBEB4
:1000B00011E0A0E0B1E0EEEBFDE102C005900D9291
:1000C000AC30B107D9F721E0ACE0B1E001C01D923E
:1000D000AC37B207E1F70E94BF0B0C94DD0E0C9415
:1000E00000008091410190914201A0914301B091A3
:1000F000440180931A0190931B01A0931C01B093BB
:100100001D018091410190914201A0914301B09164
:1001100044018093140190931501A0931601B093AC
:1001200017010E940E0590E067E070E00E94CA0B84
:10013000009789F08130910589F08230910589F02E
:100140008330910589F08430910589F0059791F00D
:1001500085E00C94D00880E10C94D00885E10C94E3
:10016000D00884E00C94D00884E10C94D00881E09D
:100170000C94D00881E10C94D008CF93DF93409188
:10018000410150914201609143017091440180917D
:100190001A0190911B01A0911C01B0911D01809644
:1001A000A11DB11D84179507A607B70708F44DC018
:1001B000409141015091420160914301709144018D
:1001C0008091140190911501A0911601B091170131
:1001D0009B5FAF4FBF4F84179507A607B70718F06F
:1001E000DF91CF9108958091410190914201A091BA
:1001F0004301B09144018093140190931501A093A1
:100200001601B09317010E940E0590E067E070E0C0
:100210000E94CA0B009709F44EC08130910509F481
:100220008DC08230910509F48EC08330910509F4A8
:100230008FC08430910509F490C0059709F440C03F
:1002400085E0DF91CF910C94D0088091410190918D
:100250004201A0914301B091440180931A0190930F
:100260001B01A0931C01B0931D010E940E05837019
:10027000823058F1823009F442C080910E01909191
:100280000F01039709F494CF83E090E090930F015E
:1002900080930E0180910C0190910D01892B09F43E
:1002A00061C06091670180E00E94AF0410920D016F
:1002B00010920C017DCF80E1DF91CF910C94D0089A
:1002C00081E1DF91CF910C94D00880910E01909143
:1002D0000F01019709F46CCFC1E0D0E0D0930F017A
:1002E000C0930E010E94B40460917A01809179015B
:1002F0000E94AF04D0930D01C0930C0159CF80919F
:100300000E0190910F01029709F452CF82E090E024
:1003100090930F0180930E0180910C0190910D013B
:10032000892B11F40E94B40460E080917B010E944B
:10033000AF0410920D0110920C013ACF85E1DF91CC
:10034000CF910C94D00884E0DF91CF910C94D00829
:1003500084E1DF91CF910C94D00881E0DF91CF91BF
:100360000C94D0080E94B4049CCFCF93DF932091CB
:100370000E0130910F012817390779F090930F0182
:1003800080930E01009791F1EC0181309105A1F16C
:100390008230910529F00397B9F0DF91CF9108954C
:1003A00080910C0190910D01892B11F40E94B404ED
:1003B00060E080917B010E94AF0410920D011092C9
:1003C0000C01DF91CF91089580910C0190910D0166
:1003D000892BF9F06091670180E00E94AF041092D0
:1003E0000D0110920C01DF91CF91089560E080E043
:1003F000DF91CF910C94AF040E94B40460917A0114
:10040000809179010E94AF04D0930D01C0930C013B
:10041000C4CF0E94B404DECF80E10E94D00884E6FD
:1004200090E00E94A40484E00E94D00884E690E05A
:100430000E94A40484E10E94D00884E690E00E9417
:10044000A40481E00E94D00884E690E00E94A40405
:1004500081E10E94D00884E690E00E94A40485E037
:100460000E94D00884E690E00E94A40485E10E94E6
:10047000D00884E690E00C94A4040E94B4048EE1B9
:1004800090E00E94A40460E080E00E94AF0486E94E
:1004900090E00C94A404089580E090E008950895FD
:1004A000DF92EF92FF920F931F93CF93DF93F89415
:1004B00014B817B81AB815B818B81BB8529A5A9A7F
:1004C00014BC85E085BD8FEF87BD82E080936E0010
:1004D00010928000109281002FE83BE03093890059
:1004E0002093880080936F005398239891EA90930B
:1004F000B0008093B1001092B4001092B3008BE072
:1005000080BF83E080937F0086E080937C0083E857
:1005100080937A0080917A00806480937A00809141
:100520007A0086FDFCCF10927C0083EA80937A00EB
:1005300081E080937B0081E090E00E94730E8F3F0A
:1005400011F08093660010924501C1E0C0931E0136
:10055000C093620110923C011092760180E990E014
:100560000E94730E80933B0180913B01887311F0D0
:10057000C0933B0110926601109265018FEF90E0ED
:1005800090936401809363011092410110924201A3
:10059000109243011092440181E08093130182E4A0
:1005A0009FE0909375018093740180EB90E00E942E
:1005B000730EC82F81EB90E00E94730E2C2F30E059
:1005C000382B309378012093770185E090E00E94EA
:1005D000730E80937B0189E090E00E94730E8093FC
:1005E00067018CE090E00E94730E8093790184E1B2
:1005F00090E00E94730E80937A0156E4E52E51E05C
:10060000F52E0FE111E0C0E2D0E0CE010E94730EA2
:10061000D82ECE0101960E94730E2D2D30E0322F80
:100620002227282BF701219331937F01CE01C09619
:100630000E94730ED82ECE01C1960E94730E2D2DEE
:1006400030E0322F2227282BF801219331938F019C
:100650002296CC33D105C9F67894DF91CF911F91C2
:100660000F91FF90EF90DF9008951F920F920FB6B9
:100670000F9211248F930FB6F894A8958091600083
:10068000886180936000109260000FBE8F910F9080
:100690000FBE0F901F9018953C01EB0110E09924BC
:1006A0009A9484E0C82E96E0A92E23E8B22E38E171
:1006B000D32E49E2E42E90911301E92FF0E0E730C8
:1006C000F105C8F7EC5CFF4F0C94DE0B112309F425
:1006D000FCC0C092130111E0FE010995ECCF80919E
:1006E00045018111EBC0F894A0927C00B0927A0091
:1006F00080917A00806480937A0090917A0096FDD0
:10070000FCCF809178009091790078948B3AE2E068
:100710009E070CF0EDC08938F2E09F070CF0EFC0A7
:10072000873692400CF4CAC0559A549A3B9A3A9A2A
:100730003D983C98C0CFF89480B7877F80BF809168
:100740007A008F7780937A0014B817B81AB815B862
:1007500018B81BB80FB6F894A895D09260000FBED9
:10076000E09260008091600080648093600093B7A5
:10077000917F946093BFF89483B7816083BF78942E
:10078000889583B78E7F83BF789410924501529AE3
:100790005A9A80917A00806880937A0087E592E087
:1007A0000197F1F700C0000080B7886180BF559ABB
:1007B000549A3B9A3A9A3D9A3C9AEFE1FEE431977B
:1007C000F1F700C0000080914501811181C055986A
:1007D00054983B983A983D983C986DCF8091110180
:1007E000811141C01092B3001092B4001092120116
:1007F00062CF4899ECCF559A54983B983A983D98D7
:100800003C988FEC97E00197F1F700C000005598F5
:1008100054983B983A983D983C989FEFE1EEF4E06D
:100820009150E040F040E1F700C0000044CF5598FF
:1008300054983B9A3A9A3D983C98EFECF7E0319700
:10084000F1F700C00000559854983B983A983D98AD
:100850003C98FFEF21EE84E0F15020408040E1F72A
:1008600000C0000028CF90911101809112019817CB
:1008700009F421CF8091110180931201809111011F
:10088000813009F450C0809111011092B300909210
:10089000B4008230D9F19092B3009092B4008FE20C
:1008A00095E70197F1F700C0000080917A019091DF
:1008B00079019093B3008093B400FDCE559A549A79
:1008C0003B983A983D983C98F6CEF301099501CFB4
:1008D000559A549A3B983A983D983C98FFEF20E7F8
:1008E00082E0F15020408040E1F700C000006FCF6F
:1008F000559854983B9A3A9A3D983C98DCCE559836
:1009000054983B983A983D9A3C9AD5CEEFE2F5E759
:100910003197F1F700C00000809167011092B30099
:100920008093B400C8CE9092B3001092B4008FE2CE
:1009300095E70197F1F700C0000080917B0180935B
:10094000B3001092B400B7CE07C0EFECF7E03197D8
:10095000F1F700C0000001970097B9F70895809360
:10096000B3006093B40008958FEF8093B300809339
:10097000B4008FE090E0EFECF7E03197F1F700C0C2
:1009800000000197C1F708958091450181111EC0B3
:10099000F89487E080937C0083E880937A008091CC
:1009A0007A00806480937A0080917A0086FDFCCF83
:1009B000809178009091790010927C0023EA209336
:1009C0007A0021E020937B00789408958FEF9FEFC9
:1009D00008958091450181111EC0F89488EC8093A0
:1009E0007C0087E880937A0080917A00806480930D
:1009F0007A0080917A0086FDFCCF809178009091FA
:100A0000790010927C0023EA20937A0021E0209361
:100A10007B00789408958FEF9FEF08950F931F93B5
:100A2000CF93DF93E0E0F0E080E003EA11E0D6E06E
:100A3000C3E8A1E0B0E060E870E0F894D0937C00F7
:100A4000C0937A0090917A00906490937A0090918C
:100A50007A0096FDFCCF20917800309179002170CA
:100A600090917A00906490937A0090917A0096FD2C
:100A7000FCCF409178005091790010927C00009357
:100A80007A0010937B0078944170241303C0615066
:100A9000710999F6222339F09D010E2E01C0220F13
:100AA0000A94EAF7822B3196E830F10509F0C3CFBA
:100AB000DF91CF911F910F91089580910001982FA0
:100AC000990F990F990F89279091100121E0290F13
:100AD00020931001282F229526952770822796951E
:100AE00096958927809300010895809300010895C9
:100AF00080914501811116C0F89486E080937C00B6
:100B000083E880937A0080917A00806480937A00F1
:100B100080917A0086FDFCCF8091780090917900D9
:100B2000789408958FEF9FEF08952F923F924F9200
:100B30005F926F927F928F929F92AF92BF92CF926D
:100B4000DF92EF92FF920F931F93CF93DF9300D02A
:100B500000D000D0CDB7DEB71C01DC0112960D909D
:100B6000BC91A02DBE83AD83A438E3E0BE070CF09A
:100B7000C9C080911F01909120018A179B0708F43A
:100B800037C100912101109122010A171B0708F4B7
:100B90002FC200912301109124010A171B0708F4AA
:100BA0002FC200912501109126010A171B0708F496
:100BB0002FC200912701109128010A171B0708F482
:100BC0002FC20091290110912A010A171B0708F46E
:100BD000EFC100912B0110912C010A171B0708F49B
:100BE00027C200912D0110912E010A171B0708F44E
:100BF00027C200912F01109130010A171B0708F43A
:100C000027C200913101109132010A171B0708F425
:100C100027C200913301109134010A171B0708F411
:100C200027C200913501109136010A171B0708F4FD
:100C300023C200913701109138010A171B0708F4ED
:100C400023C20091390110913A010A171B0708F4D9
:100C500023C280E090E0A0EDB0E489839A83AB8367
:100C6000BC834CE0E42EF12CF701EE0FFF1FE15E98
:100C7000FE4F80819181B801681B790B80E090E084
:100C80000E941C0D9B01AC010E94080C6B017C01B1
:100C9000AD81BE81BD01BB0F880B990B0E941E0D5B
:100CA0004B015C01B80180E090E00E941C0D2B011B
:100CB0003C0129813A814B815C81C701B6010E94C8
:100CC000AA0D9B01AC01C301B2010E94070C9B015C
:100CD000AC01C501B4010E94070C20E030E040E205
:100CE00051E40E94AA0D0E94E60C8B01C701B601D7
:100CF0000E94E60CAB01BC01C801BA010E94CA0BFC
:100D0000162F77C0DC01CD90DC9080914601909148
:100D100047018C159D0508F48CC01FEFE090480139
:100D2000F0904901EC14FD0408F45EC1E0904A0122
:100D3000F0904B01EC14FD0408F45EC1E0904C010E
:100D4000F0904D01EC14FD0408F45EC1E0904E01FA
:100D5000F0904F01EC14FD0408F45EC1E0905001E6
:100D6000F0905101EC14FD0408F4C3C0E09052016E
:100D7000F0905301EC14FD0408F456C1E0905401C6
:100D8000F0905501EC14FD0408F456C1E0905601B2
:100D9000F0905701EC14FD0408F456C1E09058019E
:100DA000F0905901EC14FD0408F456C1E0905A018A
:100DB000F0905B01EC14FD0408F456C1E0905C0176
:100DC000F0905D01EC14FD0408F45AC1E0905E015E
:100DD000F0905F01EC14FD0408F45AC1E09060014A
:100DE000F0906101EC14FD0408F45AC10AE531C029
:100DF00010E0ED81FE81ED3BF240FCF481E2810FD9
:100E000026960FB6F894DEBF0FBECDBFDF91CF910F
:100E10001F910F91FF90EF90DF90CF90BF90AF9018
:100E20009F908F907F906F905F904F903F902F900A
:100E3000089500E081E2800FE3CFD101CD90DC90F6
:100E400080914601909147018C159D0508F066CF71
:100E500000E01F3F79F3ED81FE81BF01FF0F880B9A
:100E6000990B0E941E0D6B017C01612F70E080E0E8
:100E700090E00E941C0D4B015C01A701960160E00F
:100E800070E081E694E40E94070C9B01AC01C5016F
:100E9000B4010E94AA0D4B015C01602F70E080E05C
:100EA00090E00E941C0D2B013C0120E030E04FE25D
:100EB00054E4C701B6010E94070C9B01AC01C301B9
:100EC000B2010E94AA0D9B01AC01C501B4010E94B0
:100ED000080C20E030E048E453E40E94740C20E069
:100EE00030E044E052E40E94080C0E94ED0C862F92
:100EF00087CF05E085E090E0880F991FFC01EC5B4F
:100F0000FE4F80819181B701681B790B80E090E0F2
:100F10000E941C0D9B01AC010E94080C4B015C015E
:100F2000B601DD0C880B990B0E941E0D2B013C01B4
:100F3000B70180E090E00E941C0D6B017C01602FE6
:100F400070E080E090E00E941C0D20E030E040E086
:100F50005FE30E94AA0D20E030E0A9010E94080C86
:100F6000A50194010E94AA0D9B01AC01C701B60125
:100F70000E94070C9B01AC01C301B2010E94070C47
:100F800020E030E040E251E40E94AA0D0E94E60C0D
:100F90007B01C501B4010E94E60CAB01BC01C70195
:100FA000BA010E94CA0B062F6F3F09F052CF26CF1D
:100FB00065E085E090E07C01F1E0EF1AF10870E077
:100FC00080E090E00E941C0D20E030E040E05FE314
:100FD0000E94AA0D20E030E0A9010E94080C69835C
:100FE0007A838B839C8340CE01E081E090E084CFC4
:100FF00061E081E090E0DFCF02E082E090E07CCF32
:1010000062E082E090E0D7CF03E083E090E074CF2D
:1010100063E083E090E0CFCF04E084E090E06CCF29
:1010200064E084E090E0C7CF06E086E090E064CF23
:1010300066E086E090E0BFCF07E087E090E05CCF1D
:1010400067E087E090E0B7CF08E088E090E054CF19
:1010500068E088E090E0AFCF09E089E090E04CCF15
:1010600069E089E090E0A7CF0AE08AE090E044CF11
:101070006AE08AE090E09FCF6BE08BE090E09BCF4E
:101080000BE08BE090E038CF6CE08CE090E093CF09
:101090000CE08CE090E030CF6DE08DE090E08BCF05
:1010A0000DE08DE090E028CF1F920F920FB60F92C7
:1010B00011242F933F934F935F936F937F938F935D
:1010C0009F93AF93BF93EF93FF932091650130916E
:1010D00066018091630190916401820F931F909348
:1010E0006601809365018FEF90E090936401809397
:1010F00063018FEF87BD8091410190914201A091E2
:101100004301B09144010196A11DB11D809341019D
:1011100090934201A0934301B09344018091450113
:1011200081110FC08091740190917501209165012A
:10113000309166018217930720F480911301843067
:1011400089F0FF91EF91BF91AF919F918F917F9126
:101150006F915F914F913F912F910F900FBE0F9024
:101160001F901895E0910301F091040109950097F3
:1011700041F30E943C0B811109C00E94630E992724
:10118000909364018093630187BDDBCFE0910101FF
:10119000F091020109951092660110926501D1CF7C
:1011A00080FF11C0559A81FF11C0549A82FF11C06F
:1011B0003B9A83FF11C03A9A84FF11C03D9A85FD86
:1011C00011C03C980895559881FDEFCF549882FD49
:1011D000EFCF3B9883FDEFCF3A9884FDEFCF3D985A
:1011E00085FFEFCF3C9A08951F920F920FB60F9292
:1011F00011248F939F93109281001092850010927A
:10120000840081E080931E01809362011092450169
:1012100010927C0093EA90937A0080937B009F91D8
:101220008F910F900FBE0F901F9018951F920F92E5
:101230000FB60F9211242F933F934F935F936F93A9
:101240007F938F939F93AF93BF93CF93DF93EF934E
:10125000FF93209184003091850041E04093450147
:1012600080911E018823A9F11092850010928400BC
:10127000409381001092760110921E0180916201CC
:101280008823A1F080917A0086FDFCCF80917800C0
:10129000909179009093400180933F0181E0809389
:1012A0007C0093EA90937A0080937B00FF91EF910A
:1012B000DF91CF91BF91AF919F918F917F916F916E
:1012C0005F914F913F912F910F900FBE0F901F9004
:1012D0001895C901875891098437994008F052C080
:1012E00026583109A4EFB0E00E94E40BAA27BB27DF
:1012F00088309105A105B10508F47BC040931E011B
:1013000080916201811152C080913C01E82FF0E090
:10131000E859FE4F9091760190838F5F80933C0156
:101320008C3021F61092810010928500109284007A
:101330004093620110924501C0917201D0917301F6
:1013400088E691E00E94200BC817D90709F0AECFBC
:101350008091710187FF61C098E7980F933030F05A
:10136000539823981092B4001092B30090E0FC01BF
:10137000E058F109EB30F10508F098CFE55CFF4F3C
:101380000C94DE0B10928100109285001092840064
:1013900040931E01409362011092450110927C001F
:1013A00083EA80937A0040937B0080CF80917A001B
:1013B00086FDFCCF809178009091790090933E015A
:1013C00080933D0110927C0083EA80937A0081E053
:1013D00080937B00909176019923D1F01092810047
:1013E0001092850010928400809362011092450152
:1013F0005DCF21E030E0F90102C0EE0FFF1F8A95BA
:10140000E2F7CF0190917601892B809376014ECF40
:101410001092620110923C0149CFE0910501F091D8
:1014200006016DE371E088E691E009953FCF809178
:101430006801823009F4DDC008F4BAC0833009F4D1
:10144000C6C0843009F0B1C08091110190916E0145
:10145000833009F4E3C080916D011092120123E002
:10146000209311018093790190937A018091130167
:10147000863009F41BCF539A239A1092B40010922D
:10148000B30086E08093130111CF80911301863061
:1014900099F0539A239A1092B4001092B300559881
:1014A00054983B983A983D983C98109211011092AC
:1014B000120186E08093130181E090E09C0100908E
:1014C000680102C0220F331F0A94E2F7809177016E
:1014D0009091780182239323892B09F086C0109282
:1014E0001101E4CE81E080931301E0CEE0E0F0E072
:1014F000099580916E008D7F80936E0016BCE0E0B0
:10150000F0E7099510921301D1CE82E08093130188
:10151000CDCE85E080931301C9CE80911301833035
:1015200009F4C4CE80911301843009F4BFCE539ADC
:10153000239A1092B4001092B30083E080931301B9
:10154000B5CE80911301863009F0B0CE609177015D
:1015500080EB90E00E947B0E6091780181EB90E03F
:101560000E947B0E60917B0185E090E00E947B0EE3
:101570006091670189E090E00E947B0E60917901A3
:101580008CE090E00E947B0E60917A0184E190E013
:101590000E947B0E539823981092B4001092B300CF
:1015A00081E0809313018091680181115FCF7ECE2D
:1015B000882339F28130C9F78091690190916A01DD
:1015C0009093780180937701109211014FCF809111
:1015D0001101823071F180916C011092120192E040
:1015E000909311018093670141CF81E080931101B5
:1015F0005DCE80911101813051F080916B0110928C
:10160000120191E09093110180937B012FCF809183
:101610006B0190917B018913F2CF28CF80917A01E1
:10162000981319CF80916D0120917901821315CF04
:101630001DCF80916C01909167018913CECF16CF99
:10164000FC01AC01465F5F4F8FEF9FEF2191822736
:10165000082E8295807F8025092E982F82958F7085
:101660000826869598278927880F880F880F802558
:10167000E417F50759F708950FB6F894A4B120912F
:101680003B012A2B24B921E030913B01203029F085
:10169000000025B1232B25B904C000000000000084
:1016A00000C0000000000000309525B1232325B9BB
:1016B0002EEA2A95F1F72BEE30B735FF0AC0A4B910
:1016C00030913B01309525B1232325B90FBE80E031
:1016D000089500002A9581F721E030913B012030E8
:1016E00029F0000025B1232B25B904C0000000001B
:1016F000000000C0000000000000309525B1232349
:1017000025B9000024E52A95F1F7FC018CE06191F0
:1017100070E0660F771F616072609AE041E050E010
:101720009A0126233723232B30913B01203029F0C7
:10173000000025B1232B25B904C0000000000000E3
:1017400000C0000000000000309525B1232325B91A
:10175000000021E52A95F1F7440F551F9A9501F7EE
:101760008A95A9F620B7206120BFA4B930913B012A
:10177000309525B1232325B90FBE81E008950E943D
:1017800050026DEB70E081E790E00E944C0380E036
:1017900090E0089597FB072E16F4009407D077FD8C
:1017A00009D00E94F30B07FC05D03EF4909581957B
:1017B0009F4F0895709561957F4F0895EE0FFF1F1D
:1017C0000590F491E02D0994A29FB001B39FC00150
:1017D000A39F700D811D1124911DB29F700D811D5D
:1017E0001124911D0895AA1BBB1B51E107C0AA1F1C
:1017F000BB1FA617B70710F0A61BB70B881F991FB2
:101800005A95A9F780959095BC01CD01089550583F
:10181000BB27AA270E941F0C0C94700D0E94620D1A
:1018200038F00E94690D20F039F49F3F19F426F436
:101830000C945F0D0EF4E095E7FB0C94590DE92F25
:101840000E94810D58F3BA17620773078407950742
:1018500020F079F4A6F50C94A30D0EF4E0950B2E70
:10186000BA2FA02D0B01B90190010C01CA01A001F2
:101870001124FF27591B99F0593F50F4503E68F14D
:101880001A16F040A22F232F342F4427585FF3CF8E
:10189000469537952795A795F0405395C9F77EF45F
:1018A0001F16BA0B620B730B840BBAF09150A1F0A8
:1018B000FF0FBB1F661F771F881FC2F70EC0BA0F2E
:1018C000621F731F841F48F4879577956795B795B6
:1018D000F7959E3F08F0B0CF9395880F08F09927B1
:1018E000EE0F9795879508950E94880C0C94700DC3
:1018F0000E94690D58F00E94620D40F029F45F3F8C
:1019000029F00C94590D51110C94A40D0C945F0DF9
:101910000E94810D68F39923B1F3552391F3951B30
:10192000550BBB27AA2762177307840738F09F5F00
:101930005F4F220F331F441FAA1FA9F335D00E2E6D
:101940003AF0E0E832D091505040E695001CCAF7DA
:101950002BD0FE2F29D0660F771F881FBB1F26179D
:1019600037074807AB07B0E809F0BB0B802DBF0174
:10197000FF2793585F4F3AF09E3F510578F00C9443
:10198000590D0C94A40D5F3FE4F3983ED4F3869573
:1019900077956795B795F7959F5FC9F7880F911D64
:1019A0009695879597F90895E1E0660F771F881F50
:1019B000BB1F621773078407BA0720F0621B730B03
:1019C000840BBA0BEE1F88F7E09508950E94ED0C8A
:1019D0006894B1110C94A40D08950E94890D88F0AB
:1019E0009F5798F0B92F9927B751B0F0E1F0660FE3
:1019F000771F881F991F1AF0BA95C9F714C0B13024
:101A000091F00E94A30DB1E008950C94A30D672FEF
:101A1000782F8827B85F39F0B93FCCF38695779552
:101A20006795B395D9F73EF490958095709561953B
:101A30007F4F8F4F9F4F0895E89409C097FB3EF466
:101A400090958095709561957F4F8F4F9F4F99230B
:101A5000A9F0F92F96E9BB279395F6958795779589
:101A60006795B795F111F8CFFAF4BB0F11F460FF49
:101A70001BC06F5F7F4F8F4F9F4F16C0882311F0A1
:101A800096E911C0772321F09EE8872F762F05C0B5
:101A9000662371F096E8862F70E060E02AF09A9550
:101AA000660F771F881FDAF7880F9695879597F945
:101AB000089597F99F6780E870E060E008959FEFD0
:101AC00080EC089500240A941616170618060906D5
:101AD000089500240A9412161306140605060895A4
:101AE000092E0394000C11F4882352F0BB0F40F42C
:101AF000BF2B11F460FF04C06F5F7F4F8F4F9F4F6C
:101B0000089557FD9058440F551F59F05F3F71F0ED
:101B10004795880F97FB991F61F09F3F79F0879554
:101B20000895121613061406551FF2CF4695F1DFDD
:101B300008C0161617061806991FF1CF869571056D
:101B4000610508940895E894BB2766277727CB01A1
:101B500097F908950E94BD0D0C94700D0E94620DBE
:101B600038F00E94690D20F0952311F00C94590D66
:101B70000C945F0D11240C94A40D0E94810D70F340
:101B8000959FC1F3950F50E0551F629FF001729F22
:101B9000BB27F00DB11D639FAA27F00DB11DAA1F31
:101BA000649F6627B00DA11D661F829F2227B00D7E
:101BB000A11D621F739FB00DA11D621F839FA00D09
:101BC000611D221F749F3327A00D611D231F849F59
:101BD000600D211D822F762F6A2F11249F575040B0
:101BE0009AF0F1F088234AF0EE0FFF1FBB1F661F2B
:101BF000771F881F91505040A9F79E3F510580F0F4
:101C00000C94590D0C94A40D5F3FE4F3983ED4F36B
:101C1000869577956795B795F795E7959F5FC1F797
:101C2000FE2B880F911D9695879597F908958F92B1
:101C30009F92AF92BF92CF92DF92EF92FF92CF939B
:101C4000DF93EC01688179818A819B81611571053F
:101C50008105910521F464E279ED8BE597E02DE1B2
:101C600033EF41E050E00E94890E49015A019B0187
:101C7000AC01A7EAB1E40E94A80E6B017C01ACEEB6
:101C8000B4EFA50194010E94B60EDC01CB018C0DCE
:101C90009D1DAE1DBF1DB7FF03C00197A109B04830
:101CA00088839983AA83BB839F77DF91CF91FF902D
:101CB000EF90DF90CF90BF90AF909F908F9008955E
:101CC0000E94170E089587E091E00E94170E089574
:101CD000A0E0B0E08093070190930801A093090170
:101CE000B0930A010895F999FECF92BD81BDF89A8B
:101CF000992780B50895262FF999FECF1FBA92BD76
:101D000081BD20BD0FB6F894FA9AF99A0FBE0196DC
:101D10000895052E97FB1EF400940E94A00E57FD17
:101D200007D00E94BB0E07FC03D04EF40C94A00E0B
:101D300050954095309521953F4F4F4F5F4F0895F7
:101D400090958095709561957F4F8F4F9F4F089527
:101D50000E94E40BA59F900DB49F900DA49F800D51
:101D6000911D11240895B7FF0C94A80E0E94A80E8F
:101D7000821B930B0895A1E21A2EAA1BBB1BFD0127
:101D80000DC0AA1FBB1FEE1FFF1FA217B307E4075A
:101D9000F50720F0A21BB30BE40BF50B661F771FB2
:101DA000881F991F1A9469F7609570958095909592
:0E1DB0009B01AC01BD01CF010895F894FFCF57
:0C1DBE00AA4F024C024B02010000000082
:00000001FF
