:100000000C9446000C946F000C946F000C946F00DD
:100010000C946F000C946F000C94E9020C946F0028
:100020000C946F000C946F000C946F000C94A80853
:100030000C946F000C946F000C9408080C946F00E3
:100040000C946F000C946F000C946F000C946F0074
:100050000C946F000C946F000C946F000C94CA0801
:100060000C946F000C946F004F03CB0323031A030F
:100070002003AD03A2032D0A0A090A092A0A360A37
:10008000260A3D0A390A410AF909CB0911241FBE83
:10009000CFEFD8E0DEBFCDBF14BE0FB6F894A89561
:1000A00080916000886180936000109260000FBEB4
:1000B00011E0A0E0B1E0E6E2FDE102C005900D92A2
:1000C000AC30B107D9F721E0ACE0B1E001C01D923E
:1000D000A837B207E1F70E94730B0C94910E0C94B1
:1000E000000080913D0190913E01A0913F01B091AF
:1000F00040018093160190931701A0931801B093CB
:100100001901089580E10E94840884E690E00E942D
:10011000580484E00E94840884E690E00E94580419
:1001200084E10E94840884E690E00E94580481E003
:100130000E94840884E690E00E94580481E10E94B5
:10014000840884E690E00E94580485E00E948408B8
:1001500084E690E00E94580485E10E94840884E6C9
:1001600090E00E94580480E10E94840884E690E0B8
:100170000E94580484E00E94840884E690E00E9473
:10018000580484E10E94840884E690E00E945804A8
:1001900081E00E94840884E690E00E94580481E196
:1001A0000E94840884E690E00E94580485E00E9442
:1001B000840884E690E00E94580485E10E94840847
:1001C00084E690E00E94580480E10E94840884E65E
:1001D00090E00E94580484E00E94840884E690E045
:1001E0000E94580484E10E94840884E690E00E9402
:1001F000580481E00E94840884E690E00E9458043C
:1002000081E10E94840884E690E00E94580485E021
:100210000E94840884E690E00E94580485E10E94D0
:10022000840884E690E00E9458040E9468048EE1ED
:1002300090E00E94580460E080E00E94630486E938
:1002400090E00E9458040E9468048EE190E00E94B1
:10025000580460E080E00E94630486E990E00E9418
:1002600058040E9468048EE190E00E94580460E007
:1002700080E00E94630486E990E00E9458040E9496
:1002800068048EE190E00E94580460E080E00E94E3
:10029000630486E990E00E9458040E9468048EE19D
:1002A00090E00E94580460E080E00E94630486E9C8
:1002B00090E00E9458040E9468048EE190E00E9441
:1002C000580460E080E00E94630486E990E00C94AA
:1002D0005804CF93DF9320910E0130910F0128171E
:1002E000390779F090930F0180930E01009791F1F7
:1002F000EC0181309105A1F18230910529F003973D
:10030000B9F0DF91CF91089580910C0190910D018A
:10031000892B11F40E94680460E0809177010E94AB
:10032000630410920D0110920C01DF91CF9108959A
:1003300080910C0190910D01892BF9F0609163017E
:1003400080E00E94630410920D0110920C01DF9175
:10035000CF91089560E080E0DF91CF910C94630429
:100360000E94680460917601809175010E94630487
:10037000D0930D01C0930C01C4CF0E946804DECF5E
:1003800080E10E94840884E690E00E94580484E0A2
:100390000E94840884E690E00E94580484E10E9450
:1003A000840884E690E00E94580481E00E9484085A
:1003B00084E690E00E94580481E10E94840884E66B
:1003C00090E00E94580485E00E94840884E690E052
:1003D0000E94580485E10E94840884E690E00C9411
:1003E00058040E9468048EE190E00E94580460E086
:1003F00080E00E94630486E990E00C94580408951C
:1004000080E090E008950895DF92EF92FF920F93BD
:100410001F93CF93DF93F89414B817B81AB815B890
:1004200018B81BB8529A5A9A14BC85E085BD8FEF54
:1004300087BD82E080936E00109280001092810050
:100440002FE83BE0309389002093880080936F0071
:100450005398239891EA9093B0008093B100109242
:10046000B4001092B3008BE080BF83E080937F00E4
:1004700086E080937C0083E880937A0080917A0004
:10048000806480937A0080917A0086FDFCCF109280
:100490007C0083EA80937A0081E080937B0081E096
:1004A00090E00E94270E8F3F11F08093660010921B
:1004B0004101C1E0C0931A01C0935E01109238015E
:1004C0001092720180E990E00E94270E809337011C
:1004D00080913701887311F0C09337011092620147
:1004E000109261018FEF90E09093600180935F0123
:1004F00010923D0110923E0110923F011092400176
:1005000081E08093130182E49FE0909371018093D6
:10051000700180EB90E00E94270EC82F81EB90E0E5
:100520000E94270E2C2F30E0382B3093740120933B
:10053000730185E090E00E94270E8093770189E0A7
:1005400090E00E94270E809363018CE090E00E946F
:10055000270E8093750184E190E00E94270E80931E
:10056000760152E4E52E51E0F52E0BE111E0C0E2F8
:10057000D0E0CE010E94270ED82ECE0101960E9417
:10058000270E2D2D30E0322F2227282BF701219323
:1005900031937F01CE01C0960E94270ED82ECE0146
:1005A000C1960E94270E2D2D30E0322F2227282BB6
:1005B000F801219331938F012296CC33D105C9F6EE
:1005C0007894DF91CF911F910F91FF90EF90DF9082
:1005D00008951F920F920FB60F9211248F930FB6AA
:1005E000F894A895809160008861809360001092D3
:1005F00060000FBE8F910F900FBE0F901F90189547
:100600003C01EB0110E099249A9484E0C82E96E016
:10061000A92E23E8B22E38E1D32E49E2E42E9091A0
:100620001301E92FF0E0E730F105C8F7EC5CFF4F6C
:100630000C94920B112309F4FCC0C092130111E039
:10064000FE010995ECCF809141018111EBC0F89436
:10065000A0927C00B0927A0080917A0080648093AE
:100660007A0090917A0096FDFCCF8091780090916D
:10067000790078948B3AE2E09E070CF0EDC089385F
:10068000F2E09F070CF0EFC0873692400CF4CAC02E
:10069000559A549A3B9A3A9A3D983C98C0CFF89410
:1006A00080B7877F80BF80917A008F7780937A00B0
:1006B00014B817B81AB815B818B81BB80FB6F8940C
:1006C000A895D09260000FBEE0926000809160001B
:1006D00080648093600093B7917F946093BFF89497
:1006E00083B7816083BF7894889583B78E7F83BFFB
:1006F000789410924101529A5A9A80917A008068B7
:1007000080937A0087E592E00197F1F700C000003E
:1007100080B7886180BF559A549A3B9A3A9A3D9A1D
:100720003C9AEFE1FEE43197F1F700C000008091C0
:100730004101811181C0559854983B983A983D9851
:100740003C986DCF80911101811141C01092B3008E
:100750001092B4001092120162CF4899ECCF559AD2
:1007600054983B983A983D983C988FEC97E00197C5
:10077000F1F700C00000559854983B983A983D987E
:100780003C989FEFE1EEF4E09150E040F040E1F75B
:1007900000C0000044CF559854983B9A3A9A3D982F
:1007A0003C98EFECF7E03197F1F700C00000559866
:1007B00054983B983A983D983C98FFEF21EE84E09E
:1007C000F15020408040E1F700C0000028CF909118
:1007D000110180911201981709F421CF8091110124
:1007E0008093120180911101813009F450C08091F1
:1007F00011011092B3009092B4008230D9F190921E
:10080000B3009092B4008FE295E70197F1F700C032
:10081000000080917601909175019093B3008093D0
:10082000B400FDCE559A549A3B983A983D983C981E
:10083000F6CEF301099501CF559A549A3B983A9810
:100840003D983C98FFEF20E782E0F1502040804047
:10085000E1F700C000006FCF559854983B9A3A9A40
:100860003D983C98DCCE559854983B983A983D9AE0
:100870003C9AD5CEEFE2F5E73197F1F700C00000E2
:10088000809163011092B3008093B400C8CE90921F
:10089000B3001092B4008FE295E70197F1F700C022
:1008A0000000809177018093B3001092B400B7CE1E
:1008B00007C0EFECF7E03197F1F700C000000197B7
:1008C0000097B9F708958093B3006093B40008953A
:1008D0008FEF8093B3008093B4008FE090E0EFEC53
:1008E000F7E03197F1F700C000000197C1F70895D4
:1008F0008091410181111EC0F89487E080937C00B3
:1009000083E880937A0080917A00806480937A00F3
:1009100080917A0086FDFCCF8091780090917900DB
:1009200010927C0023EA20937A0021E020937B0040
:10093000789408958FEF9FEF089580914101811180
:100940001EC0F89488EC80937C0087E880937A003E
:1009500080917A00806480937A0080917A0086FD8D
:10096000FCCF809178009091790010927C0023EA6E
:1009700020937A0021E020937B00789408958FEFF4
:100980009FEF08950F931F93CF93DF93E0E0F0E084
:1009900080E003EA11E0D6E0C3E8A1E0B0E060E85F
:1009A00070E0F894D0937C00C0937A0090917A0024
:1009B000906490937A0090917A0096FDFCCF2091FC
:1009C000780030917900217090917A009064909332
:1009D0007A0090917A0096FDFCCF4091780050917A
:1009E000790010927C0000937A0010937B00789439
:1009F0004170241303C06150710999F6222339F024
:100A00009D010E2E01C0220F0A94EAF7822B319627
:100A1000E830F10509F0C3CFDF91CF911F910F911D
:100A2000089580910001982F990F990F990F8927A8
:100A30009091100121E0290F20931001282F229579
:100A40002695277082279695969589278093000191
:100A5000089580930001089580914101811116C08D
:100A6000F89486E080937C0083E880937A008091FC
:100A70007A00806480937A0080917A0086FDFCCFB2
:100A80008091780090917900789408958FEF9FEF8E
:100A900008952F923F924F925F926F927F928F9222
:100AA0009F92AF92BF92CF92DF92EF92FF920F93FD
:100AB0001F93CF93DF9300D000D000D0CDB7DEB727
:100AC0001C01DC0112960D90BC91A02DBE83AD835C
:100AD000A438E3E0BE070CF0C9C080911B019091DF
:100AE0001C018A179B0708F437C100911D01109162
:100AF0001E010A171B0708F42FC200911F01109155
:100B000020010A171B0708F42FC200912101109140
:100B100022010A171B0708F42FC20091230110912C
:100B200024010A171B0708F42FC200912501109118
:100B300026010A171B0708F4EFC100912701109145
:100B400028010A171B0708F427C2009129011091F8
:100B50002A010A171B0708F427C200912B011091E4
:100B60002C010A171B0708F427C200912D011091D0
:100B70002E010A171B0708F427C200912F011091BC
:100B800030010A171B0708F427C2009131011091A8
:100B900032010A171B0708F423C200913301109198
:100BA00034010A171B0708F423C200913501109184
:100BB00036010A171B0708F423C280E090E0A0ED7D
:100BC000B0E489839A83AB83BC834CE0E42EF12CA0
:100BD000F701EE0FFF1FE55EFE4F80819181B801A6
:100BE000681B790B80E090E00E94D00C9B01AC0167
:100BF0000E94BC0B6B017C01AD81BE81BD01BB0FAE
:100C0000880B990B0E94D20C4B015C01B80180E06B
:100C100090E00E94D00C2B013C0129813A814B814C
:100C20005C81C701B6010E945E0D9B01AC01C3014E
:100C3000B2010E94BB0B9B01AC01C501B4010E9433
:100C4000BB0B20E030E040E251E40E945E0D0E94C8
:100C50009A0C8B01C701B6010E949A0CAB01BC0132
:100C6000C801BA010E947E0B162F77C0DC01CD901F
:100C7000DC9080914201909143018C159D0508F410
:100C80008CC01FEFE0904401F0904501EC14FD048E
:100C900008F45EC1E0904601F0904701EC14FD04B9
:100CA00008F45EC1E0904801F0904901EC14FD04A5
:100CB00008F45EC1E0904A01F0904B01EC14FD0491
:100CC00008F45EC1E0904C01F0904D01EC14FD047D
:100CD00008F4C3C0E0904E01F0904F01EC14FD0405
:100CE00008F456C1E0905001F0905101EC14FD045D
:100CF00008F456C1E0905201F0905301EC14FD0449
:100D000008F456C1E0905401F0905501EC14FD0434
:100D100008F456C1E0905601F0905701EC14FD0420
:100D200008F456C1E0905801F0905901EC14FD040C
:100D300008F45AC1E0905A01F0905B01EC14FD04F4
:100D400008F45AC1E0905C01F0905D01EC14FD04E0
:100D500008F45AC10AE531C010E0ED81FE81ED3B97
:100D6000F240FCF481E2810F26960FB6F894DEBFC4
:100D70000FBECDBFDF91CF911F910F91FF90EF90EC
:100D8000DF90CF90BF90AF909F908F907F906F90AB
:100D90005F904F903F902F90089500E081E2800F88
:100DA000E3CFD101CD90DC9080914201909143013D
:100DB0008C159D0508F066CF00E01F3F79F3ED81AB
:100DC000FE81BF01FF0F880B990B0E94D20C6B01B3
:100DD0007C01612F70E080E090E00E94D00C4B011C
:100DE0005C01A701960160E070E081E694E40E9456
:100DF000BB0B9B01AC01C501B4010E945E0D4B0110
:100E00005C01602F70E080E090E00E94D00C2B012C
:100E10003C0120E030E04FE254E4C701B6010E94FB
:100E2000BB0B9B01AC01C301B2010E945E0D9B0193
:100E3000AC01C501B4010E94BC0B20E030E048E4E5
:100E400053E40E94280C20E030E044E052E40E9489
:100E5000BC0B0E94A10C862F87CF05E085E090E0B7
:100E6000880F991FFC01E05CFE4F80819181B701E2
:100E7000681B790B80E090E00E94D00C9B01AC01D4
:100E80000E94BC0B4B015C01B601DD0C880B990B79
:100E90000E94D20C2B013C01B70180E090E00E943F
:100EA000D00C6B017C01602F70E080E090E00E942C
:100EB000D00C20E030E040E05FE30E945E0D20E0D7
:100EC00030E0A9010E94BC0BA50194010E945E0DB7
:100ED0009B01AC01C701B6010E94BB0B9B01AC0199
:100EE000C301B2010E94BB0B20E030E040E251E4BC
:100EF0000E945E0D0E949A0C7B01C501B4010E9404
:100F00009A0CAB01BC01C701BA010E947E0B062FEF
:100F10006F3F09F052CF26CF65E085E090E07C017D
:100F2000F1E0EF1AF10870E080E090E00E94D00C50
:100F300020E030E040E05FE30E945E0D20E030E022
:100F4000A9010E94BC0B69837A838B839C8340CE6A
:100F500001E081E090E084CF61E081E090E0DFCFCC
:100F600002E082E090E07CCF62E082E090E0D7CFC8
:100F700003E083E090E074CF63E083E090E0CFCFC4
:100F800004E084E090E06CCF64E084E090E0C7CFC0
:100F900006E086E090E064CF66E086E090E0BFCFB8
:100FA00007E087E090E05CCF67E087E090E0B7CFB4
:100FB00008E088E090E054CF68E088E090E0AFCFB0
:100FC00009E089E090E04CCF69E089E090E0A7CFAC
:100FD0000AE08AE090E044CF6AE08AE090E09FCFA8
:100FE0006BE08BE090E09BCF0BE08BE090E038CFA4
:100FF0006CE08CE090E093CF0CE08CE090E030CFA0
:101000006DE08DE090E08BCF0DE08DE090E028CF9B
:101010001F920F920FB60F9211242F933F934F936D
:101020005F936F937F938F939F93AF93BF93EF9350
:10103000FF93209161013091620180915F01909155
:101040006001820F931F90936201809361018FEF83
:1010500090E09093600180935F018FEF87BD809156
:101060003D0190913E01A0913F01B0914001019658
:10107000A11DB11D80933D0190933E01A0933F01BE
:10108000B09340018091410181110FC080917001A6
:101090009091710120916101309162018217930753
:1010A00020F480911301843089F0FF91EF91BF917A
:1010B000AF919F918F917F916F915F914F913F91F0
:1010C0002F910F900FBE0F901F901895E091030184
:1010D000F09104010995009741F30E94F00A8111F3
:1010E00009C00E94170E99279093600180935F01B9
:1010F00087BDDBCFE0910101F091020109951092CB
:10110000620110926101D1CF80FF11C0559A81FF19
:1011100011C0549A82FF11C03B9A83FF11C03A9AC2
:1011200084FF11C03D9A85FD11C03C9808955598E3
:1011300081FDEFCF549882FDEFCF3B9883FDEFCF39
:101140003A9884FDEFCF3D9885FFEFCF3C9A089504
:101150001F920F920FB60F9211248F939F931092AC
:101160008100109285001092840081E080931A0122
:1011700080935E011092410110927C0093EA90935B
:101180007A0080937B009F918F910F900FBE0F90FC
:101190001F9018951F920F920FB60F9211242F9344
:1011A0003F934F935F936F937F938F939F93AF93EF
:1011B000BF93CF93DF93EF93FF93209184003091FF
:1011C000850041E04093410180911A018823A9F1F3
:1011D0001092850010928400409381001092720159
:1011E00010921A0180915E018823A1F080917A000B
:1011F00086FDFCCF809178009091790090933C011E
:1012000080933B0181E080937C0093EA90937A0085
:1012100080937B00FF91EF91DF91CF91BF91AF91D0
:101220009F918F917F916F915F914F913F912F91FE
:101230000F900FBE0F901F901895C9018758910904
:101240008437994008F052C026583109A4EFB0E025
:101250000E94980BAA27BB2788309105A105B105EC
:1012600008F47BC040931A0180915E01811152C045
:1012700080913801E82FF0E0EC59FE4F9091720117
:1012800090838F5F809338018C3021F6109281001B
:10129000109285001092840040935E0110924101EB
:1012A000C0916E01D0916F0184E691E00E94D40A52
:1012B000C817D90709F0AECF80916D0187FF61C0D3
:1012C00098E7980F933030F0539823981092B40019
:1012D0001092B30090E0FC01E058F109EB30F10509
:1012E00008F098CFE55CFF4F0C94920B10928100B0
:1012F000109285001092840040931A0140935E0181
:101300001092410110927C0083EA80937A0040930E
:101310007B0080CF80917A0086FDFCCF80917800A1
:101320009091790090933A018093390110927C005A
:1013300083EA80937A0081E080937B009091720130
:101340009923D1F0109281001092850010928400B0
:1013500080935E01109241015DCF21E030E0F90100
:1013600002C0EE0FFF1F8A95E2F7CF019091720144
:10137000892B809372014ECF10925E01109238013A
:1013800049CFE0910501F091060169E371E084E63F
:1013900091E009953FCF80916401823009F4DDC06E
:1013A00008F4BAC0833009F4C6C0843009F0B1C073
:1013B0008091110190916A01833009F4E3C080911A
:1013C00069011092120123E02093110180937501AD
:1013D0009093760180911301863009F41BCF539AC4
:1013E000239A1092B4001092B30086E08093130108
:1013F00011CF80911301863099F0539A239A10925D
:10140000B4001092B300559854983B983A983D9880
:101410003C98109211011092120186E08093130102
:1014200081E090E09C010090640102C0220F331F14
:101430000A94E2F7809173019091740182239323BF
:10144000892B09F086C010921101E4CE81E08093CF
:101450001301E0CEE0E0F0E0099580916E008D7F11
:1014600080936E0016BCE0E0F0E70995109213013E
:10147000D1CE82E080931301CDCE85E0809313011D
:10148000C9CE80911301833009F4C4CE8091130139
:10149000843009F4BFCE539A239A1092B40010926C
:1014A000B30083E080931301B5CE809113018630A1
:1014B00009F0B0CE6091730180EB90E00E942F0E96
:1014C0006091740181EB90E00E942F0E6091770192
:1014D00085E090E00E942F0E6091630189E090E02A
:1014E0000E942F0E609175018CE090E00E942F0EFB
:1014F0006091760184E190E00E942F0E539823982A
:101500001092B4001092B30081E080931301809197
:10151000640181115FCF7ECE882339F28130C9F713
:10152000809165019091660190937401809373019D
:10153000109211014FCF80911101823071F1809191
:1015400068011092120192E090931101809363015F
:1015500041CF81E0809311015DCE809111018130F6
:1015600051F0809167011092120191E09093110166
:10157000809377012FCF8091670190917701891334
:10158000F2CF28CF80917601981319CF809169010D
:1015900020917501821315CF1DCF80916801909124
:1015A00063018913CECF16CFFC01AC01465F5F4FBC
:1015B0008FEF9FEF21918227082E8295807F8025D3
:1015C000092E982F82958F7008268695982789274F
:1015D000880F880F880F8025E417F50759F70895BD
:1015E0000FB6F894A4B1209137012A2B24B921E039
:1015F00030913701203029F0000025B1232B25B987
:1016000004C000000000000000C000000000000056
:10161000309525B1232325B92EEA2A95F1F72BEE33
:1016200030B735FF0AC0A4B930913701309525B1E4
:10163000232325B90FBE80E0089500002A9581F785
:1016400021E030913701203029F0000025B1232B13
:1016500025B904C000000000000000C00000000028
:101660000000309525B1232325B9000024E52A95F3
:10167000F1F7FC018CE0619170E0660F771F61600B
:1016800072609AE041E050E09A0126233723232B31
:1016900030913701203029F0000025B1232B25B9E6
:1016A00004C000000000000000C0000000000000B6
:1016B000309525B1232325B9000021E52A95F1F7BE
:1016C000440F551F9A9501F78A95A9F620B7206116
:1016D00020BFA4B930913701309525B1232325B916
:1016E0000FBE81E008950E94040262E870E081E785
:1016F00090E00E94000380E090E0089597FB072EA1
:1017000016F4009407D077FD09D00E94A70B07FCC0
:1017100005D03EF4909581959F4F08957095619501
:101720007F4F0895EE0FFF1F0590F491E02D09946F
:10173000A29FB001B39FC001A39F700D811D112412
:10174000911DB29F700D811D1124911D0895AA1B3A
:10175000BB1B51E107C0AA1FBB1FA617B70710F09C
:10176000A61BB70B881F991F5A95A9F780959095CE
:10177000BC01CD0108955058BB27AA270E94D30B66
:101780000C94240D0E94160D38F00E941D0D20F0BF
:1017900039F49F3F19F426F40C94130D0EF4E095E0
:1017A000E7FB0C940D0DE92F0E94350D58F3BA1785
:1017B000620773078407950720F079F4A6F50C9467
:1017C000570D0EF4E0950B2EBA2FA02D0B01B90189
:1017D00090010C01CA01A0011124FF27591B99F0A7
:1017E000593F50F4503E68F11A16F040A22F232FB3
:1017F000342F4427585FF3CF469537952795A79503
:10180000F0405395C9F77EF41F16BA0B620B730BA9
:10181000840BBAF09150A1F0FF0FBB1F661F771F1A
:10182000881FC2F70EC0BA0F621F731F841F48F4CF
:10183000879577956795B795F7959E3F08F0B0CF58
:101840009395880F08F09927EE0F9795879508953F
:101850000E943C0C0C94240D0E941D0D58F00E9417
:10186000160D40F029F45F3F29F00C940D0D511135
:101870000C94580D0C94130D0E94350D68F39923A8
:10188000B1F3552391F3951B550BBB27AA2762177C
:101890007307840738F09F5F5F4F220F331F441F89
:1018A000AA1FA9F335D00E2E3AF0E0E832D09150BD
:1018B0005040E695001CCAF72BD0FE2F29D0660FAA
:1018C000771F881FBB1F261737074807AB07B0E8ED
:1018D00009F0BB0B802DBF01FF2793585F4F3AF0F3
:1018E0009E3F510578F00C940D0D0C94580D5F3F00
:1018F000E4F3983ED4F3869577956795B795F79579
:101900009F5FC9F7880F911D9695879597F9089560
:10191000E1E0660F771F881FBB1F621773078407FC
:10192000BA0720F0621B730B840BBA0BEE1F88F70B
:10193000E09508950E94A10C6894B1110C94580D83
:1019400008950E943D0D88F09F5798F0B92F992770
:10195000B751B0F0E1F0660F771F881F991F1AF09A
:10196000BA95C9F714C0B13091F00E94570DB1E09B
:1019700008950C94570D672F782F8827B85F39F09A
:10198000B93FCCF3869577956795B395D9F73EF433
:1019900090958095709561957F4F8F4F9F4F0895DB
:1019A000E89409C097FB3EF49095809570956195F9
:1019B0007F4F8F4F9F4F9923A9F0F92F96E9BB27AF
:1019C0009395F695879577956795B795F111F8CF2B
:1019D000FAF4BB0F11F460FF1BC06F5F7F4F8F4F96
:1019E0009F4F16C0882311F096E911C0772321F08C
:1019F0009EE8872F762F05C0662371F096E8862F24
:101A000070E060E02AF09A95660F771F881FDAF77A
:101A1000880F9695879597F9089597F99F6780E8BD
:101A200070E060E008959FEF80EC089500240A9430
:101A30001616170618060906089500240A941216A9
:101A40001306140605060895092E0394000C11F4DC
:101A5000882352F0BB0F40F4BF2B11F460FF04C089
:101A60006F5F7F4F8F4F9F4F089557FD9058440FE2
:101A7000551F59F05F3F71F04795880F97FB991FED
:101A800061F09F3F79F087950895121613061406AA
:101A9000551FF2CF4695F1DF08C016161706180637
:101AA000991FF1CF86957105610508940895E89412
:101AB000BB2766277727CB0197F908950E94710D00
:101AC0000C94240D0E94160D38F00E941D0D20F07C
:101AD000952311F00C940D0D0C94130D11240C94FE
:101AE000580D0E94350D70F3959FC1F3950F50E08E
:101AF000551F629FF001729FBB27F00DB11D639FC0
:101B0000AA27F00DB11DAA1F649F6627B00DA11D65
:101B1000661F829F2227B00DA11D621F739FB00D0B
:101B2000A11D621F839FA00D611D221F749F33277B
:101B3000A00D611D231F849F600D211D822F762F14
:101B40006A2F11249F5750409AF0F1F088234AF0F1
:101B5000EE0FFF1FBB1F661F771F881F915050405D
:101B6000A9F79E3F510580F00C940D0D0C94580D73
:101B70005F3FE4F3983ED4F3869577956795B795E4
:101B8000F795E7959F5FC1F7FE2B880F911D9695FE
:101B9000879597F908958F929F92AF92BF92CF92B7
:101BA000DF92EF92FF92CF93DF93EC01688179810E
:101BB0008A819B81611571058105910521F464E29B
:101BC00079ED8BE597E02DE133EF41E050E00E94A5
:101BD0003D0E49015A019B01AC01A7EAB1E40E9404
:101BE0005C0E6B017C01ACEEB4EFA50194010E9488
:101BF0006A0EDC01CB018C0D9D1DAE1DBF1DB7FF14
:101C000003C00197A109B04888839983AA83BB8345
:101C10009F77DF91CF91FF90EF90DF90CF90BF90B3
:101C2000AF909F908F9008950E94CB0D089587E00C
:101C300091E00E94CB0D0895A0E0B0E080930701F1
:101C400090930801A0930901B0930A010895F999AE
:101C5000FECF92BD81BDF89A992780B50895262FB1
:101C6000F999FECF1FBA92BD81BD20BD0FB6F89481
:101C7000FA9AF99A0FBE01960895052E97FB1EF465
:101C800000940E94540E57FD07D00E946F0E07FC6F
:101C900003D04EF40C94540E5095409530952195F8
:101CA0003F4F4F4F5F4F0895909580957095619588
:101CB0007F4F8F4F9F4F08950E94980BA59F900DC7
:101CC000B49F900DA49F800D911D11240895B7FF1E
:101CD0000C945C0E0E945C0E821B930B0895A1E293
:101CE0001A2EAA1BBB1BFD010DC0AA1FBB1FEE1F96
:101CF000FF1FA217B307E407F50720F0A21BB30BE1
:101D0000E40BF50B661F771F881F991F1A9469F75C
:101D100060957095809590959B01AC01BD01CF01B8
:061D20000895F894FFCFC6
:0C1D2600AA03020002FF010100000000FF
:00000001FF
