:100000000C9446000C946F000C946F000C946F00DD
:100010000C946F000C946F000C94AA020C946F0067
:100020000C946F000C946F000C946F000C94690892
:100030000C946F000C946F000C94C9070C946F0023
:100040000C946F000C946F000C946F000C946F0074
:100050000C946F000C946F000C946F000C948B0840
:100060000C946F000C946F0010038C03E402DB020D
:10007000E1026E036303EE09CB08CB08EB09F70935
:10008000E709FE09FA09020ABA098C0911241FBE00
:10009000CFEFD8E0DEBFCDBF14BE0FB6F894A89561
:1000A00080916000886180936000109260000FBEB4
:1000B00011E0A0E0B1E0E8EAFCE102C005900D9299
:1000C000AC30B107D9F721E0ACE0B1E001C01D923E
:1000D000AA37B207E1F70E94340B0C94520E0C942D
:1000E000000080913F0190914001A0914101B091A9
:1000F00042018093180190931901A0931A01B093C3
:100100001B01089540913F015091400160914101D0
:10011000709142018091180190911901A0911A01EA
:10012000B0911B018096A11DB11D84179507A607EC
:10013000B70708F042C080913F0190914001A09123
:100140004101B09142018093180190931901A0934D
:100150001A01B0931B0180910E0190910F01209123
:100160000C0130910D012817390744F52091120137
:100170003091130121303105E1F081E090E090935E
:100180001301809312018091100190911101892B2C
:10019000C9F160917801809177010E94240481E087
:1001A00090E0909311018093100180910E01909145
:1001B0000F0190930D0180930C0108950E94830418
:1001C00080FF23C080911201909113010397A9F041
:1001D00083E090E0909313018093120180911001CD
:1001E00090911101892BA1F16091650180E00E943D
:1001F0002404109211011092100180910E0190912F
:100200000F01D7CF0E942904C4CF80911201909191
:100210001301029791F382E090E090931301809391
:1002200012018091100190911101892B71F060E011
:10023000809179010E942404109211011092100102
:1002400080910E0190910F01B4CF0E942904EFCF4D
:100250000E942904C9CF209112013091130128175F
:10026000390771F09093130180931201009771F197
:100270008130910531F08230910561F10397B1F041
:1002800008958091100190911101892B11F40E9421
:10029000290460917801809177010E94240481E013
:1002A00090E09093110180931001089580911001C6
:1002B00090911101892B01F16091650180E00E940C
:1002C00024041092110110921001089560E080E062
:1002D0000C9424048091100190911101892B11F448
:1002E0000E94290460E0809179010E942404109208
:1002F00011011092100108950E942904DDCF0E947F
:10030000830480FF1CC08091120190911301039718
:10031000A9F083E090E09093130180931201809103
:10032000100190911101892B41F16091650180E0EC
:100330000E942404109211011092100108958091DE
:100340001201909113010297C9F382E090E090931B
:100350001301809312018091100190911101892B5A
:1003600011F40E94290460E0809179010E94240424
:10037000109211011092100108950E942904D5CF06
:10038000089580E090E008950895DF92EF92FF9243
:100390000F931F93CF93DF93F89414B817B81AB83C
:1003A00015B818B81BB8529A5A9A14BC85E085BD86
:1003B0008FEF87BD82E080936E00109280001092D4
:1003C00081002FE83BE030938900209388008093E0
:1003D0006F005398239891EA9093B0008093B100F6
:1003E0001092B4001092B3008BE080BF83E0809342
:1003F0007F0086E080937C0083E880937A00809180
:100400007A00806480937A0080917A0086FDFCCF28
:1004100010927C0083EA80937A0081E080937B00D5
:1004200081E090E00E94E80D8F3F11F0809366001C
:1004300010924301C1E0C0931C01C093600110926F
:100440003A011092740180E990E00E94E80D8093D7
:10045000390180913901887311F0C09339011092EC
:100460006401109263018FEF90E09093620180939A
:10047000610110923F0110924001109241011092CF
:10048000420181E08093170182E49FE09093730121
:100490008093720180EB90E00E94E80DC82F81EB01
:1004A00090E00E94E80D2C2F30E0382B309376013D
:1004B0002093750185E090E00E94E80D809379011A
:1004C00089E090E00E94E80D809365018CE090E067
:1004D0000E94E80D8093770184E190E00E94E80D8E
:1004E0008093780154E4E52E51E0F52E0DE111E002
:1004F000C0E2D0E0CE010E94E80DD82ECE010196D8
:100500000E94E80D2D2D30E0322F2227282BF701F5
:10051000219331937F01CE01C0960E94E80DD82E21
:10052000CE01C1960E94E80D2D2D30E0322F2227FA
:10053000282BF801219331938F012296CC33D105DA
:10054000C9F67894DF91CF911F910F91FF90EF90B2
:10055000DF9008951F920F920FB60F9211248F9380
:100560000FB6F894A8958091600088618093600030
:10057000109260000FBE8F910F900FBE0F901F90D2
:1005800018953C01EB0110E099249A9484E0C82E60
:1005900096E0A92E23E8B22E38E1D32E49E2E42ECC
:1005A00090911701E92FF0E0E730F105C8F7EC5C16
:1005B000FF4F0C94530B112309F4FCC0C092170198
:1005C00011E0FE010995ECCF809143018111EBC050
:1005D000F894A0927C00B0927A0080917A008064B6
:1005E00080937A0090917A0096FDFCCF80917800FC
:1005F0009091790078948B3AE2E09E070CF0EDC080
:100600008938F2E09F070CF0EFC0873692400CF477
:10061000CAC0559A549A3B9A3A9A3D983C98C0CF92
:10062000F89480B7877F80BF80917A008F7780931E
:100630007A0014B817B81AB815B818B81BB80FB69E
:10064000F894A895D09260000FBEE092600080916F
:10065000600080648093600093B7917F946093BF43
:10066000F89483B7816083BF7894889583B78E7F31
:1006700083BF789410924301529A5A9A80917A00DB
:10068000806880937A0087E592E00197F1F700C0D7
:10069000000080B7886180BF559A549A3B9A3A9A75
:1006A0003D9A3C9AEFE1FEE43197F1F700C000007B
:1006B00080914301811181C0559854983B983A9894
:1006C0003D983C986DCF80911501811141C01092E9
:1006D000B3001092B4001092160162CF4899ECCF8B
:1006E000559A54983B983A983D983C988FEC97E0EF
:1006F0000197F1F700C00000559854983B983A983C
:100700003D983C989FEFE1EEF4E09150E040F040DE
:10071000E1F700C0000044CF559854983B9A3A9AAC
:100720003D983C98EFECF7E03197F1F700C00000FE
:10073000559854983B983A983D983C98FFEF21EE95
:1007400084E0F15020408040E1F700C0000028CF55
:100750009091150180911601981709F421CF80918D
:1007600015018093160180911501813009F450C064
:10077000809115011092B3009092B4008230D9F1AB
:100780009092B3009092B4008FE295E70197F1F751
:1007900000C0000080917801909177019093B300A0
:1007A0008093B400FDCE559A549A3B983A983D9860
:1007B0003C98F6CEF301099501CF559A549A3B988F
:1007C0003A983D983C98FFEF20E782E0F1502040B6
:1007D0008040E1F700C000006FCF559854983B9AD5
:1007E0003A9A3D983C98DCCE559854983B983A9864
:1007F0003D9A3C9AD5CEEFE2F5E73197F1F700C08C
:100800000000809165011092B3008093B400C8CEBF
:100810009092B3001092B4008FE295E70197F1F740
:1008200000C00000809179018093B3001092B40061
:10083000B7CE07C0EFECF7E03197F1F700C000004A
:1008400001970097B9F708958093B3006093B400BF
:1008500008958FEF8093B3008093B4008FE090E011
:10086000EFECF7E03197F1F700C000000197C1F716
:1008700008958091430181111EC0F89487E0809310
:100880007C0083E880937A0080917A008064809372
:100890007A0080917A0086FDFCCF8091780090915B
:1008A000790010927C0023EA20937A0021E02093C3
:1008B0007B00789408958FEF9FEF08958091430116
:1008C00081111EC0F89488EC80937C0087E88093A7
:1008D0007A0080917A00806480937A0080917A0017
:1008E00086FDFCCF809178009091790010927C0079
:1008F00023EA20937A0021E020937B0078940895E6
:100900008FEF9FEF08950F931F93CF93DF93E0E056
:10091000F0E080E003EA11E0D6E0C3E8A1E0B0E057
:1009200060E870E0F894D0937C00C0937A009091D6
:100930007A00906490937A0090917A0096FDFCCFB3
:100940002091780030917900217090917A00906424
:1009500090937A0090917A0096FDFCCF40917800B8
:100960005091790010927C0000937A0010937B00E4
:1009700078944170241303C06150710999F62223C1
:1009800039F09D010E2E01C0220F0A94EAF7822B46
:100990003196E830F10509F0C3CFDF91CF911F9177
:1009A0000F91089580910001982F990F990F990F39
:1009B00089279091140121E0290F20931401282FF9
:1009C000229526952770822796959695892780935C
:1009D00000010895809300010895809143018111E1
:1009E00016C0F89486E080937C0083E880937A00B8
:1009F00080917A00806480937A0080917A0086FDED
:100A0000FCCF8091780090917900789408958FEFD1
:100A10009FEF08952F923F924F925F926F927F9235
:100A20008F929F92AF92BF92CF92DF92EF92FF92FE
:100A30000F931F93CF93DF9300D000D000D0CDB79A
:100A4000DEB71C01DC0112960D90BC91A02DBE8377
:100A5000AD83A438E3E0BE070CF0C9C080911D014E
:100A600090911E018A179B0708F437C100911F015E
:100A7000109120010A171B0708F42FC200912101D1
:100A8000109122010A171B0708F42FC200912301BD
:100A9000109124010A171B0708F42FC200912501A9
:100AA000109126010A171B0708F42FC20091270195
:100AB000109128010A171B0708F4EFC100912901C2
:100AC00010912A010A171B0708F427C200912B0175
:100AD00010912C010A171B0708F427C200912D0161
:100AE00010912E010A171B0708F427C200912F014D
:100AF000109130010A171B0708F427C20091310139
:100B0000109132010A171B0708F427C20091330124
:100B1000109134010A171B0708F423C20091350114
:100B2000109136010A171B0708F423C20091370100
:100B3000109138010A171B0708F423C280E090E0E7
:100B4000A0EDB0E489839A83AB83BC834CE0E42EB0
:100B5000F12CF701EE0FFF1FE35EFE4F80819181C4
:100B6000B801681B790B80E090E00E94910C9B011A
:100B7000AC010E947D0B6B017C01AD81BE81BD018A
:100B8000BB0F880B990B0E94930C4B015C01B801C1
:100B900080E090E00E94910C2B013C0129813A8178
:100BA0004B815C81C701B6010E941F0D9B01AC0106
:100BB000C301B2010E947C0B9B01AC01C501B401D1
:100BC0000E947C0B20E030E040E251E40E941F0DC7
:100BD0000E945B0C8B01C701B6010E945B0CAB014C
:100BE000BC01C801BA010E943F0B162F77C0DC017F
:100BF000CD90DC9080914401909145018C159D052C
:100C000008F48CC01FEFE0904601F0904701EC140F
:100C1000FD0408F45EC1E0904801F0904901EC1435
:100C2000FD0408F45EC1E0904A01F0904B01EC1421
:100C3000FD0408F45EC1E0904C01F0904D01EC140D
:100C4000FD0408F45EC1E0904E01F0904F01EC14F9
:100C5000FD0408F4C3C0E0905001F0905101EC1481
:100C6000FD0408F456C1E0905201F0905301EC14D9
:100C7000FD0408F456C1E0905401F0905501EC14C5
:100C8000FD0408F456C1E0905601F0905701EC14B1
:100C9000FD0408F456C1E0905801F0905901EC149D
:100CA000FD0408F456C1E0905A01F0905B01EC1489
:100CB000FD0408F45AC1E0905C01F0905D01EC1471
:100CC000FD0408F45AC1E0905E01F0905F01EC145D
:100CD000FD0408F45AC10AE531C010E0ED81FE813F
:100CE000ED3BF240FCF481E2810F26960FB6F894BA
:100CF000DEBF0FBECDBFDF91CF911F910F91FF904F
:100D0000EF90DF90CF90BF90AF909F908F907F90AB
:100D10006F905F904F903F902F90089500E081E298
:100D2000800FE3CFD101CD90DC9080914401909170
:100D300045018C159D0508F066CF00E01F3F79F353
:100D4000ED81FE81BF01FF0F880B990B0E94930C70
:100D50006B017C01612F70E080E090E00E94910CBB
:100D60004B015C01A701960160E070E081E694E42C
:100D70000E947C0B9B01AC01C501B4010E941F0DB8
:100D80004B015C01602F70E080E090E00E94910CCC
:100D90002B013C0120E030E04FE254E4C701B601F2
:100DA0000E947C0B9B01AC01C301B2010E941F0D8C
:100DB0009B01AC01C501B4010E947D0B20E030E035
:100DC00048E453E40E94E90B20E030E044E052E4C0
:100DD0000E947D0B0E94620C862F87CF05E085E084
:100DE00090E0880F991FFC01EE5BFE4F808191819E
:100DF000B701681B790B80E090E00E94910C9B0189
:100E0000AC010E947D0B4B015C01B601DD0C880B2F
:100E1000990B0E94930C2B013C01B70180E090E0FC
:100E20000E94910C6B017C01602F70E080E090E0EB
:100E30000E94910C20E030E040E05FE30E941F0D33
:100E400020E030E0A9010E947D0BA50194010E94E1
:100E50001F0D9B01AC01C701B6010E947C0B9B01D9
:100E6000AC01C301B2010E947C0B20E030E040E203
:100E700051E40E941F0D0E945B0C7B01C501B4016F
:100E80000E945B0CAB01BC01C701BA010E943F0B81
:100E9000062F6F3F09F052CF26CF65E085E090E046
:100EA0007C01F1E0EF1AF10870E080E090E00E9430
:100EB000910C20E030E040E05FE30E941F0D20E055
:100EC00030E0A9010E947D0B69837A838B839C8328
:100ED00040CE01E081E090E084CF61E081E090E0ED
:100EE000DFCF02E082E090E07CCF62E082E090E041
:100EF000D7CF03E083E090E074CF63E083E090E03D
:100F0000CFCF04E084E090E06CCF64E084E090E038
:100F1000C7CF06E086E090E064CF66E086E090E030
:100F2000BFCF07E087E090E05CCF67E087E090E02C
:100F3000B7CF08E088E090E054CF68E088E090E028
:100F4000AFCF09E089E090E04CCF69E089E090E024
:100F5000A7CF0AE08AE090E044CF6AE08AE090E020
:100F60009FCF6BE08BE090E09BCF0BE08BE090E0BD
:100F700038CF6CE08CE090E093CF0CE08CE090E018
:100F800030CF6DE08DE090E08BCF0DE08DE090E014
:100F900028CF1F920F920FB60F9211242F933F93D9
:100FA0004F935F936F937F938F939F93AF93BF9371
:100FB000EF93FF932091630130916401809161016F
:100FC00090916201820F931F90936401809363015B
:100FD0008FEF90E090936201809361018FEF87BD66
:100FE00080913F0190914001A0914101B091420157
:100FF0000196A11DB11D80933F0190934001A093E4
:101000004101B09342018091430181110FC0809151
:1010100072019091730120916301309164018217F4
:10102000930720F480911701843089F0FF91EF91AC
:10103000BF91AF919F918F917F916F915F914F91F0
:101040003F912F910F900FBE0F901F901895E09138
:101050000301F09104010995009741F30E94B10A40
:10106000811109C00E94D80D992790936201809345
:10107000610187BDDBCFE0910101F091020109958B
:101080001092640110926301D1CF80FF11C0559A74
:1010900081FF11C0549A82FF11C03B9A83FF11C097
:1010A0003A9A84FF11C03D9A85FD11C03C9808957D
:1010B000559881FDEFCF549882FDEFCF3B9883FD8B
:1010C000EFCF3A9884FDEFCF3D9885FFEFCF3C9A64
:1010D00008951F920F920FB60F9211248F939F9332
:1010E00010928100109285001092840081E080931C
:1010F0001C01809360011092430110927C0093EADE
:1011000090937A0080937B009F918F910F900FBEF8
:101110000F901F9018951F920F920FB60F921124E7
:101120002F933F934F935F936F937F938F939F93EF
:10113000AF93BF93CF93DF93EF93FF9320918400FE
:101140003091850041E04093430180911C01882348
:10115000A9F11092850010928400409381001092B2
:10116000740110921C01809160018823A1F080918C
:101170007A0086FDFCCF8091780090917900909361
:101180003E0180933D0181E080937C0093EA90933F
:101190007A0080937B00FF91EF91DF91CF91BF9117
:1011A000AF919F918F917F916F915F914F913F91FF
:1011B0002F910F900FBE0F901F901895C90187585F
:1011C00091098437994008F052C026583109A4EF9C
:1011D000B0E00E94590BAA27BB2788309105A105D2
:1011E000B10508F47BC040931C018091600181111E
:1011F00052C080913A01E82FF0E0EA59FE4F9091F9
:10120000740190838F5F80933A018C3021F61092A5
:10121000810010928500109284004093600110922A
:101220004301C0917001D091710186E691E00E9466
:10123000950AC817D90709F0AECF80916F0187FFD3
:1012400061C098E7980F933030F05398239810922C
:10125000B4001092B30090E0FC01E058F109EB30CB
:10126000F10508F098CFE55CFF4F0C94530B1092FA
:101270008100109285001092840040931C014093DD
:1012800060011092430110927C0083EA80937A00FF
:1012900040937B0080CF80917A0086FDFCCF8091C7
:1012A00078009091790090933C0180933B011092DB
:1012B0007C0083EA80937A0081E080937B009091A8
:1012C00074019923D1F01092810010928500109240
:1012D000840080936001109243015DCF21E030E0F3
:1012E000F90102C0EE0FFF1F8A95E2F7CF0190913E
:1012F0007401892B809374014ECF1092600110927B
:101300003A0149CFE0910501F09106016BE371E0EC
:1013100086E691E009953FCF80916601823009F41D
:10132000DDC008F4BAC0833009F4C6C0843009F0C7
:10133000B1C08091150190916C01833009F4E3C034
:1013400080916B011092160123E020931501809388
:1013500077019093780180911701863009F41BCFB3
:10136000539A239A1092B4001092B30086E08093AF
:10137000170111CF80911701863099F0539A239A63
:101380001092B4001092B300559854983B983A9834
:101390003D983C98109215011092160186E08093BA
:1013A000170181E090E09C010090660102C0220FCD
:1013B000331F0A94E2F780917501909176018223A0
:1013C0009323892B09F086C010921501E4CE81E0A9
:1013D00080931701E0CEE0E0F0E0099580916E0087
:1013E0008D7F80936E0016BCE0E0F0E709951092C7
:1013F0001701D1CE82E080931701CDCE85E0809396
:101400001701C9CE80911701833009F4C4CE8091B1
:101410001701843009F4BFCE539A239A1092B40076
:101420001092B30083E080931701B5CE809117012D
:10143000863009F0B0CE6091750180EB90E00E949B
:10144000F00D6091760181EB90E00E94F00D6091CB
:10145000790185E090E00E94F00D6091650189E0DE
:1014600090E00E94F00D609177018CE090E00E9486
:10147000F00D6091780184E190E00E94F00D5398A6
:1014800023981092B4001092B30081E0809317016A
:101490008091660181115FCF7ECE882339F2813041
:1014A000C9F78091670190916801909376018093CC
:1014B0007501109215014FCF80911501823071F1A5
:1014C00080916A011092160192E090931501809329
:1014D000650141CF81E0809315015DCE80911501BA
:1014E000813051F0809169011092160191E0909342
:1014F0001501809379012FCF809169019091790135
:101500008913F2CF28CF80917801981319CF809159
:101510006B0120917701821315CF1DCF80916A0155
:10152000909165018913CECF16CFFC01AC01465FC7
:101530005F4F8FEF9FEF21918227082E8295807F4A
:101540008025092E982F82958F70082686959827DA
:101550008927880F880F880F8025E417F50759F72A
:1015600008950FB6F894A4B1209139012A2B24B91B
:1015700021E030913901203029F0000025B1232BE2
:1015800025B904C000000000000000C000000000F9
:101590000000309525B1232325B92EEA2A95F1F7CD
:1015A0002BEE30B735FF0AC0A4B930913901309520
:1015B00025B1232325B90FBE80E0089500002A95A8
:1015C00081F721E030913901203029F0000025B168
:1015D000232B25B904C000000000000000C000005B
:1015E00000000000309525B1232325B9000024E533
:1015F0002A95F1F7FC018CE0619170E0660F771F8E
:10160000616072609AE041E050E09A01262337233E
:10161000232B30913901203029F0000025B1232BF4
:1016200025B904C000000000000000C00000000058
:101630000000309525B1232325B9000021E52A9526
:10164000F1F7440F551F9A9501F78A95A9F620B72F
:10165000206120BFA4B930913901309525B12323F1
:1016600025B90FBE81E008950E94C50162E870E0CF
:1016700081E790E00E94C10280E090E0089597FB2E
:10168000072E16F4009407D077FD09D00E94680B4E
:1016900007FC05D03EF4909581959F4F0895709575
:1016A00061957F4F0895EE0FFF1F0590F491E02D97
:1016B0000994A29FB001B39FC001A39F700D811D2B
:1016C0001124911DB29F700D811D1124911D08954B
:1016D000AA1BBB1B51E107C0AA1FBB1FA617B70758
:1016E00010F0A61BB70B881F991F5A95A9F7809574
:1016F0009095BC01CD0108955058BB27AA270E94A0
:10170000940B0C94E50C0E94D70C38F00E94DE0C70
:1017100020F039F49F3F19F426F40C94D40C0EF405
:10172000E095E7FB0C94CE0CE92F0E94F60C58F3E1
:10173000BA17620773078407950720F079F4A6F5B6
:101740000C94180D0EF4E0950B2EBA2FA02D0B0162
:10175000B90190010C01CA01A0011124FF27591BF6
:1017600099F0593F50F4503E68F11A16F040A22FFC
:10177000232F342F4427585FF3CF4695379527956D
:10178000A795F0405395C9F77EF41F16BA0B620B6C
:10179000730B840BBAF09150A1F0FF0FBB1F661FB3
:1017A000771F881FC2F70EC0BA0F621F731F841FF6
:1017B00048F4879577956795B795F7959E3F08F01C
:1017C000B0CF9395880F08F09927EE0F97958795DE
:1017D00008950E94FD0B0C94E50C0E94DE0C58F05D
:1017E0000E94D70C40F029F45F3F29F00C94CE0CF6
:1017F00051110C94190D0C94D40C0E94F60C68F342
:101800009923B1F3552391F3951B550BBB27AA27B9
:1018100062177307840738F09F5F5F4F220F331FF3
:10182000441FAA1FA9F335D00E2E3AF0E0E832D0BB
:1018300091505040E695001CCAF72BD0FE2F29D0BE
:10184000660F771F881FBB1F261737074807AB0790
:10185000B0E809F0BB0B802DBF01FF2793585F4F05
:101860003AF09E3F510578F00C94CE0C0C94190D73
:101870005F3FE4F3983ED4F3869577956795B795E7
:10188000F7959F5FC9F7880F911D9695879597F9F2
:101890000895E1E0660F771F881FBB1F621773076B
:1018A0008407BA0720F0621B730B840BBA0BEE1F80
:1018B00088F7E09508950E94620C6894B1110C9429
:1018C000190D08950E94FE0C88F09F5798F0B92FCB
:1018D0009927B751B0F0E1F0660F771F881F991F65
:1018E0001AF0BA95C9F714C0B13091F00E94180DE2
:1018F000B1E008950C94180D672F782F8827B85FF2
:1019000039F0B93FCCF3869577956795B395D9F7BC
:101910003EF490958095709561957F4F8F4F9F4FC6
:101920000895E89409C097FB3EF4909580957095D2
:1019300061957F4F8F4F9F4F9923A9F0F92F96E91B
:10194000BB279395F695879577956795B795F11190
:10195000F8CFFAF4BB0F11F460FF1BC06F5F7F4F2D
:101960008F4F9F4F16C0882311F096E911C077233F
:1019700021F09EE8872F762F05C0662371F096E848
:10198000862F70E060E02AF09A95660F771F881F17
:10199000DAF7880F9695879597F9089597F99F67D5
:1019A00080E870E060E008959FEF80EC08950024E7
:1019B0000A941616170618060906089500240A94B4
:1019C00012161306140605060895092E0394000C3A
:1019D00011F4882352F0BB0F40F4BF2B11F460FFC9
:1019E00004C06F5F7F4F8F4F9F4F089557FD9058F2
:1019F000440F551F59F05F3F71F04795880F97FBD3
:101A0000991F61F09F3F79F087950895121613068C
:101A10001406551FF2CF4695F1DF08C016161706BB
:101A20001806991FF1CF86957105610508940895F0
:101A3000E894BB2766277727CB0197F908950E9482
:101A4000320D0C94E50C0E94D70C38F00E94DE0C8D
:101A500020F0952311F00C94CE0C0C94D40C11248E
:101A60000C94190D0E94F60C70F3959FC1F3950F1D
:101A700050E0551F629FF001729FBB27F00DB11D12
:101A8000639FAA27F00DB11DAA1F649F6627B00DA2
:101A9000A11D661F829F2227B00DA11D621F739F8B
:101AA000B00DA11D621F839FA00D611D221F749F99
:101AB0003327A00D611D231F849F600D211D822FE0
:101AC000762F6A2F11249F5750409AF0F1F0882307
:101AD0004AF0EE0FFF1FBB1F661F771F881F915034
:101AE0005040A9F79E3F510580F00C94CE0C0C9409
:101AF000190D5F3FE4F3983ED4F38695779567958B
:101B0000B795F795E7959F5FC1F7FE2B880F911D5D
:101B10009695879597F908958F929F92AF92BF926D
:101B2000CF92DF92EF92FF92CF93DF93EC01688127
:101B300079818A819B81611571058105910521F467
:101B400064E279ED8BE597E02DE133EF41E050E081
:101B50000E94FE0D49015A019B01AC01A7EAB1E4C4
:101B60000E941D0E6B017C01ACEEB4EFA501940147
:101B70000E942B0EDC01CB018C0D9D1DAE1DBF1DE7
:101B8000B7FF03C00197A109B04888839983AA834E
:101B9000BB839F77DF91CF91FF90EF90DF90CF9045
:101BA000BF90AF909F908F9008950E948C0D0895E4
:101BB00087E091E00E948C0D0895A0E0B0E0809352
:101BC000070190930801A0930901B0930A010895B9
:101BD000F999FECF92BD81BDF89A992780B50895F5
:101BE000262FF999FECF1FBA92BD81BD20BD0FB639
:101BF000F894FA9AF99A0FBE01960895052E97FB6C
:101C00001EF400940E94150E57FD07D00E94300E5E
:101C100007FC03D04EF40C94150E5095409530956A
:101C200021953F4F4F4F5F4F089590958095709548
:101C300061957F4F8F4F9F4F08950E94590BA59F2D
:101C4000900DB49F900DA49F800D911D11240895B7
:101C5000B7FF0C941D0E0E941D0E821B930B08955E
:101C6000A1E21A2EAA1BBB1BFD010DC0AA1FBB1FA0
:101C7000EE1FFF1FA217B307E407F50720F0A21B12
:101C8000B30BE40BF50B661F771F881F991F1A947F
:101C900069F760957095809590959B01AC01BD01A9
:081CA000CF010895F894FFCF75
:0C1CA800AAC401C101C00101000000003D
:00000001FF
