:100000000C9446000C946F000C946F000C946F00DD
:100010000C946F000C946F000C9480010C946F0092
:100020000C946F000C946F000C946F000C943F07BD
:100030000C946F000C946F000C949F060C946F004E
:100040000C946F000C946F000C946F000C946F0074
:100050000C946F000C946F000C946F000C9461076B
:100060000C946F000C946F00E6016202BA01B101BA
:10007000B70144023902C408A107A107C108CD088D
:10008000BD08D408D008D8089008620811241FBE03
:10009000CFEFD8E0DEBFCDBF14BE0FB6F894A89561
:1000A00080916000886180936000109260000FBEB4
:1000B00011E0A0E0B1E0E0E6FAE102C005900D92A7
:1000C000AC30B107D9F721E0ACE0B1E001C01D923E
:1000D000AC37B207E1F70E940A0A0C942E0D0C947B
:1000E0000000FC019CE0A2E1B1E001900D929A9524
:1000F000E1F781E090E090930D0180930C01089569
:10010000089580910C0190910D01019709F00895D7
:1001100010920D0110920C0185E00E941B0784E6ED
:1001200090E00E94EF0280E00C941B07089580E0AD
:1001300090E008950895DF92EF92FF920F931F933E
:10014000CF93DF93F89414B817B81AB815B818B845
:100150001BB8529A5A9A14BC85E085BD8FEF87BDB3
:1001600082E080936E0010928000109281002FE850
:100170003BE0309389002093880080936F00539870
:10018000239891EA9093B0008093B1001092B4004C
:100190001092B3008BE080BF83E080937F0086E005
:1001A00080937C0083E880937A0080917A00806459
:1001B00080937A0080917A0086FDFCCF10927C00BB
:1001C00083EA80937A0081E080937B0081E090E075
:1001D0000E94C40C8F3F11F080936600109245017D
:1001E000C1E0C0931E01C093620110923C011092C5
:1001F000760180E990E00E94C40C80933B018091DD
:100200003B01887311F0C0933B011092660110927C
:1002100065018FEF90E090936401809363011092E9
:10022000410110924201109243011092440181E079
:100230008093110182E49FE0909375018093740193
:1002400080EB90E00E94C40CC82F81EB90E00E94EC
:10025000C40C2C2F30E0382B309378012093770199
:1002600085E090E00E94C40C80937B0189E090E0DF
:100270000E94C40C809367018CE090E00E94C40C43
:100280008093790184E190E00E94C40C80937A010C
:1002900056E4E52E51E0F52E0FE111E0C0E2D0E08A
:1002A000CE010E94C40CD82ECE0101960E94C40C2F
:1002B0002D2D30E0322F2227282BF7012193319367
:1002C0007F01CE01C0960E94C40CD82ECE01C196EB
:1002D0000E94C40C2D2D30E0322F2227282BF8014C
:1002E000219331938F012296CC33D105C9F67894AE
:1002F000DF91CF911F910F91FF90EF90DF900895C4
:100300001F920F920FB60F9211248F930FB6F8948D
:10031000A8958091600088618093600010926000D1
:100320000FBE8F910F900FBE0F901F9018953C013C
:10033000EB0110E099249A9484E0C82E96E0A92E4F
:1003400023E8B22E38E1D32E49E2E42E9091110138
:10035000E92FF0E0E730F105C8F7EC5CFF4F0C94B3
:100360002F0A112309F4FCC0C092110111E0FE0113
:100370000995ECCF809145018111EBC0F894A092D2
:100380007C00B0927A0080917A00806480937A0039
:1003900090917A0096FDFCCF809178009091790041
:1003A00078948B3AE2E09E070CF0EDC08938F2E0D9
:1003B0009F070CF0EFC0873692400CF4CAC0559AE4
:1003C000549A3B9A3A9A3D983C98C0CFF89480B79B
:1003D000877F80BF80917A008F7780937A0014B8EE
:1003E00017B81AB815B818B81BB80FB6F894A8956E
:1003F000D09260000FBEE092600080916000806447
:100400008093600093B7917F946093BFF89483B713
:10041000816083BF7894889583B78E7F83BF7894FB
:1004200010924501529A5A9A80917A00806880937E
:100430007A0087E592E00197F1F700C0000080B7ED
:10044000886180BF559A549A3B9A3A9A3D9A3C9A51
:10045000EFE1FEE43197F1F700C000008091450123
:10046000811181C0559854983B983A983D983C9892
:100470006DCF80910F01811141C01092B300109295
:10048000B4001092100162CF4899ECCF559A54985D
:100490003B983A983D983C988FEC97E00197F1F79C
:1004A00000C00000559854983B983A983D983C9865
:1004B0009FEFE1EEF4E09150E040F040E1F700C042
:1004C000000044CF559854983B9A3A9A3D983C98EE
:1004D000EFECF7E03197F1F700C000005598549821
:1004E0003B983A983D983C98FFEF21EE84E0F1501C
:1004F00020408040E1F700C0000028CF90910F011C
:1005000080911001981709F421CF80910F018093F9
:10051000100180910F01813009F450C080910F01CA
:100520001092B3009092B4008230D9F19092B3004F
:100530009092B4008FE295E70197F1F700C00000B8
:1005400080917A01909179019093B3008093B400E7
:10055000FDCE559A549A3B983A983D983C98F6CEE1
:10056000F301099501CF559A549A3B983A983D98D2
:100570003C98FFEF20E782E0F15020408040E1F717
:1005800000C000006FCF559854983B9A3A9A3D9816
:100590003C98DCCE559854983B983A983D9A3C9AB2
:1005A000D5CEEFE2F5E73197F1F700C0000080917A
:1005B00067011092B3008093B400C8CE9092B3004C
:1005C0001092B4008FE295E70197F1F700C00000A8
:1005D00080917B018093B3001092B400B7CE07C026
:1005E000EFECF7E03197F1F700C0000001970097BA
:1005F000B9F708958093B3006093B40008958FEF26
:100600008093B3008093B4008FE090E0EFECF7E0CC
:100610003197F1F700C000000197C1F7089580916C
:10062000450181111EC0F89487E080937C0083E827
:1006300080937A0080917A00806480937A00809120
:100640007A0086FDFCCF809178009091790010921D
:100650007C0023EA20937A0021E020937B007894A9
:1006600008958FEF9FEF08958091450181111EC07D
:10067000F89488EC80937C0087E880937A008091DE
:100680007A00806480937A0080917A0086FDFCCFA6
:10069000809178009091790010927C0023EA209359
:1006A0007A0021E020937B00789408958FEF9FEFEC
:1006B00008950F931F93CF93DF93E0E0F0E080E085
:1006C00003EA11E0D6E0C3E8A1E0B0E060E870E042
:1006D000F894D0937C00C0937A0090917A00906453
:1006E00090937A0090917A0096FDFCCF209178004B
:1006F00030917900217090917A00906490937A0003
:1007000090917A0096FDFCCF40917800509179004D
:1007100010927C0000937A0010937B0078944170D3
:10072000241303C06150710999F6222339F09D0109
:100730000E2E01C0220F0A94EAF7822B3196E83080
:10074000F10509F0C3CFDF91CF911F910F9108956B
:1007500080910001982F990F990F990F89279091F7
:100760000E0121E0290F20930E01282F22952695B6
:100770002770822796959695892780930001089582
:1007800080930001089580914501811116C0F8946D
:1007900086E080937C0083E880937A0080917A00E1
:1007A000806480937A0080917A0086FDFCCF8091EE
:1007B000780090917900789408958FEF9FEF0895D5
:1007C0002F923F924F925F926F927F928F929F9261
:1007D000AF92BF92CF92DF92EF92FF920F931F934F
:1007E000CF93DF9300D000D000D0CDB7DEB71C018F
:1007F000DC0112960D90BC91A02DBE83AD83A43870
:10080000E3E0BE070CF0C9C080911F019091200168
:100810008A179B0708F437C100912101109122012A
:100820000A171B0708F42FC200912301109124011D
:100830000A171B0708F42FC2009125011091260109
:100840000A171B0708F42FC20091270110912801F5
:100850000A171B0708F42FC20091290110912A01E1
:100860000A171B0708F4EFC100912B0110912C010E
:100870000A171B0708F427C200912D0110912E01C1
:100880000A171B0708F427C200912F0110913001AD
:100890000A171B0708F427C2009131011091320199
:1008A0000A171B0708F427C2009133011091340185
:1008B0000A171B0708F427C2009135011091360171
:1008C0000A171B0708F423C2009137011091380161
:1008D0000A171B0708F423C20091390110913A014D
:1008E0000A171B0708F423C280E090E0A0EDB0E4F3
:1008F00089839A83AB83BC834CE0E42EF12CF7010F
:10090000EE0FFF1FE15EFE4F80819181B801681BF1
:10091000790B80E090E00E946D0B9B01AC010E947E
:10092000590A6B017C01AD81BE81BD01BB0F880BF3
:10093000990B0E946F0B4B015C01B80180E090E0C5
:100940000E946D0B2B013C0129813A814B815C8116
:10095000C701B6010E94FB0B9B01AC01C301B201B0
:100960000E94580A9B01AC01C501B4010E94580ABB
:1009700020E030E040E251E40E94FB0B0E94370B84
:100980008B01C701B6010E94370BAB01BC01C80146
:10099000BA010E941B0A162F77C0DC01CD90DC90B3
:1009A00080914601909147018C159D0508F48CC0FB
:1009B0001FEFE0904801F0904901EC14FD0408F4A9
:1009C0005EC1E0904A01F0904B01EC14FD0408F484
:1009D0005EC1E0904C01F0904D01EC14FD0408F470
:1009E0005EC1E0904E01F0904F01EC14FD0408F45C
:1009F0005EC1E0905001F0905101EC14FD0408F448
:100A0000C3C0E0905201F0905301EC14FD0408F4CF
:100A100056C1E0905401F0905501EC14FD0408F427
:100A200056C1E0905601F0905701EC14FD0408F413
:100A300056C1E0905801F0905901EC14FD0408F4FF
:100A400056C1E0905A01F0905B01EC14FD0408F4EB
:100A500056C1E0905C01F0905D01EC14FD0408F4D7
:100A60005AC1E0905E01F0905F01EC14FD0408F4BF
:100A70005AC1E0906001F0906101EC14FD0408F4AB
:100A80005AC10AE531C010E0ED81FE81ED3BF24034
:100A9000FCF481E2810F26960FB6F894DEBF0FBEFC
:100AA000CDBFDF91CF911F910F91FF90EF90DF901D
:100AB000CF90BF90AF909F908F907F906F905F90FE
:100AC0004F903F902F90089500E081E2800FE3CF98
:100AD000D101CD90DC9080914601909147018C1519
:100AE0009D0508F066CF00E01F3F79F3ED81FE81A0
:100AF000BF01FF0F880B990B0E946F0B6B017C01EC
:100B0000612F70E080E090E00E946D0B4B015C0172
:100B1000A701960160E070E081E694E40E94580A23
:100B20009B01AC01C501B4010E94FB0B4B015C01B0
:100B3000602F70E080E090E00E946D0B2B013C0183
:100B400020E030E04FE254E4C701B6010E94580AA9
:100B50009B01AC01C301B2010E94FB0B9B01AC01E4
:100B6000C501B4010E94590A20E030E048E453E492
:100B70000E94C50A20E030E044E052E40E94590A95
:100B80000E943E0B862F87CF05E085E090E0880F1E
:100B9000991FFC01EC5BFE4F80819181B701681BBE
:100BA000790B80E090E00E946D0B9B01AC010E94EC
:100BB000590A4B015C01B601DD0C880B990B0E94B0
:100BC0006F0B2B013C01B70180E090E00E946D0BA0
:100BD0006B017C01602F70E080E090E00E946D0B63
:100BE00020E030E040E05FE30E94FB0B20E030E0DB
:100BF000A9010E94590AA50194010E94FB0B9B01C7
:100C0000AC01C701B6010E94580A9B01AC01C301A7
:100C1000B2010E94580A20E030E040E251E40E9414
:100C2000FB0B0E94370B7B01C501B4010E94370BFF
:100C3000AB01BC01C701BA010E941B0A062F6F3F1E
:100C400009F052CF26CF65E085E090E07C01F1E02D
:100C5000EF1AF10870E080E090E00E946D0B20E058
:100C600030E040E05FE30E94FB0B20E030E0A901B0
:100C70000E94590A69837A838B839C8340CE01E06A
:100C800081E090E084CF61E081E090E0DFCF02E09E
:100C900082E090E07CCF62E082E090E0D7CF03E09A
:100CA00083E090E074CF63E083E090E0CFCF04E096
:100CB00084E090E06CCF64E084E090E0C7CF06E091
:100CC00086E090E064CF66E086E090E0BFCF07E08A
:100CD00087E090E05CCF67E087E090E0B7CF08E086
:100CE00088E090E054CF68E088E090E0AFCF09E082
:100CF00089E090E04CCF69E089E090E0A7CF0AE07E
:100D00008AE090E044CF6AE08AE090E09FCF6BE019
:100D10008BE090E09BCF0BE08BE090E038CF6CE075
:100D20008CE090E093CF0CE08CE090E030CF6DE071
:100D30008DE090E08BCF0DE08DE090E028CF1F920A
:100D40000F920FB60F9211242F933F934F935F93FF
:100D50006F937F938F939F93AF93BF93EF93FF9383
:100D60002091650130916601809163019091640149
:100D7000820F931F90936601809365018FEF90E03F
:100D800090936401809363018FEF87BD809141014F
:100D900090914201A0914301B09144010196A11D9F
:100DA000B11D8093410190934201A0934301B09300
:100DB00044018091450181110FC08091740190918F
:100DC000750120916501309166018217930720F427
:100DD00080911101843089F0FF91EF91BF91AF9123
:100DE0009F918F917F916F915F914F913F912F9143
:100DF0000F900FBE0F901F901895E0910301F09196
:100E000004010995009741F30E948709811109C0E7
:100E10000E94B40C9927909364018093630187BD6D
:100E2000DBCFE0910101F09102010995109266017A
:100E300010926501D1CF80FF11C0559A81FF11C07A
:100E4000549A82FF11C03B9A83FF11C03A9A84FFE3
:100E500011C03D9A85FD11C03C980895559881FDBB
:100E6000EFCF549882FDEFCF3B9883FDEFCF3A98B8
:100E700084FDEFCF3D9885FFEFCF3C9A08951F92F8
:100E80000F920FB60F9211248F939F9310928100AF
:100E9000109285001092840081E080931E0180935F
:100EA00062011092450110927C0093EA90937A00BF
:100EB00080937B009F918F910F900FBE0F901F909A
:100EC00018951F920F920FB60F9211242F933F93F4
:100ED0004F935F936F937F938F939F93AF93BF9342
:100EE000CF93DF93EF93FF9320918400309185009F
:100EF00041E04093450180911E018823A9F11092A1
:100F00008500109284004093810010927601109227
:100F10001E01809162018823A1F080917A0086FDF4
:100F2000FCCF80917800909179009093400180935C
:100F30003F0181E080937C0093EA90937A00809354
:100F40007B00FF91EF91DF91CF91BF91AF919F9186
:100F50008F917F916F915F914F913F912F910F9062
:100F60000FBE0F901F901895C901875891098437BB
:100F7000994008F052C026583109A4EFB0E00E9411
:100F8000350AAA27BB2788309105A105B10508F4C9
:100F90007BC040931E0180916201811152C08091FB
:100FA0003C01E82FF0E0E859FE4F909176019083E4
:100FB0008F5F80933C018C3021F61092810010925B
:100FC0008500109284004093620110924501C09107
:100FD0007201D091730188E691E00E946B09C817F5
:100FE000D90709F0AECF8091710187FF61C098E702
:100FF000980F933030F0539823981092B4001092C9
:10100000B30090E0FC01E058F109EB30F10508F085
:1010100098CFE55CFF4F0C942F0A1092810010923C
:1010200085001092840040931E014093620110924B
:10103000450110927C0083EA80937A0040937B0004
:1010400080CF80917A0086FDFCCF809178009091CE
:10105000790090933E0180933D0110927C0083EAD9
:1010600080937A0081E080937B00909176019923B0
:10107000D1F010928100109285001092840080932C
:101080006201109245015DCF21E030E0F90102C01C
:10109000EE0FFF1F8A95E2F7CF0190917601892B21
:1010A000809376014ECF1092620110923C0149CF9D
:1010B000E0910501F09106016DE371E088E691E0B1
:1010C00009953FCF80916801823009F4DDC008F4B2
:1010D000BAC0833009F4C6C0843009F0B1C0809131
:1010E0000F0190916E01833009F4E3C080916D018E
:1010F0001092100123E020930F01809379019093C7
:101100007A0180911101863009F41BCF539A239AFA
:101110001092B4001092B30086E08093110111CFB9
:1011200080911101863099F0539A239A1092B4005D
:101130001092B300559854983B983A983D983C9833
:1011400010920F011092100186E08093110181E04E
:1011500090E09C010090680102C0220F331F0A94A6
:10116000E2F7809177019091780182239323892B74
:1011700009F086C010920F01E4CE81E08093110146
:10118000E0CEE0E0F0E0099580916E008D7F8093E5
:101190006E0016BCE0E0F0E7099510921101D1CE87
:1011A00082E080931101CDCE85E080931101C9CEFC
:1011B00080911101833009F4C4CE809111018430F3
:1011C00009F4BFCE539A239A1092B4001092B30040
:1011D00083E080931101B5CE80911101863009F032
:1011E000B0CE6091770180EB90E00E94CC0C6091D2
:1011F000780181EB90E00E94CC0C60917B0185E04E
:1012000090E00E94CC0C6091670189E090E00E9420
:10121000CC0C609179018CE090E00E94CC0C609144
:101220007A0184E190E00E94CC0C539823981092AC
:10123000B4001092B30081E08093110180916801A5
:1012400081115FCF7ECE882339F28130C9F780913A
:10125000690190916A0190937801809377011092CF
:101260000F014FCF80910F01823071F180916C019D
:101270001092100192E090930F018093670141CF8B
:1012800081E080930F015DCE80910F01813051F09C
:1012900080916B011092100191E090930F01809367
:1012A0007B012FCF80916B0190917B018913F2CF4D
:1012B00028CF80917A01981319CF80916D012091E8
:1012C0007901821315CF1DCF80916C019091670138
:1012D0008913CECF16CFFC01AC01465F5F4F8FEF75
:1012E0009FEF21918227082E8295807F8025092EED
:1012F000982F82958F700826869598278927880FC2
:10130000880F880F8025E417F50759F708950FB661
:10131000F894A4B120913B012A2B24B921E030910B
:101320003B01203029F0000025B1232B25B904C052
:1013300000000000000000C0000000000000309528
:1013400025B1232325B92EEA2A95F1F72BEE30B7E4
:1013500035FF0AC0A4B930913B01309525B1232354
:1013600025B90FBE80E0089500002A9581F721E09D
:1013700030913B01203029F0000025B1232B25B905
:1013800004C000000000000000C0000000000000D9
:10139000309525B1232325B9000024E52A95F1F7DE
:1013A000FC018CE0619170E0660F771F61607260F4
:1013B0009AE041E050E09A0126233723232B309115
:1013C0003B01203029F0000025B1232B25B904C0B2
:1013D00000000000000000C0000000000000309588
:1013E00025B1232325B9000021E52A95F1F7440F03
:1013F000551F9A9501F78A95A9F620B7206120BF5D
:10140000A4B930913B01309525B1232325B90FBEF6
:1014100081E008950E949B0081E790E0909306018F
:101420008093050161E870E080E890E00E949701F8
:1014300080E090E0089597FB072E16F4009407D003
:1014400077FD09D00E94440A07FC05D03EF4909530
:1014500081959F4F0895709561957F4F0895EE0F88
:10146000FF1F0590F491E02D0994A29FB001B39F56
:10147000C001A39F700D811D1124911DB29F700D9D
:10148000811D1124911D0895AA1BBB1B51E107C0AA
:10149000AA1FBB1FA617B70710F0A61BB70B881F04
:1014A000991F5A95A9F780959095BC01CD01089593
:1014B0005058BB27AA270E94700A0C94C10B0E94A7
:1014C000B30B38F00E94BA0B20F039F49F3F19F4A7
:1014D00026F40C94B00B0EF4E095E7FB0C94AA0BE9
:1014E000E92F0E94D20B58F3BA17620773078407DB
:1014F000950720F079F4A6F50C94F40B0EF4E09522
:101500000B2EBA2FA02D0B01B90190010C01CA01BD
:10151000A0011124FF27591B99F0593F50F4503E68
:1015200068F11A16F040A22F232F342F4427585F5A
:10153000F3CF469537952795A795F0405395C9F772
:101540007EF41F16BA0B620B730B840BBAF091502A
:10155000A1F0FF0FBB1F661F771F881FC2F70EC0C9
:10156000BA0F621F731F841F48F48795779567959C
:10157000B795F7959E3F08F0B0CF9395880F08F088
:101580009927EE0F9795879508950E94D90A0C9494
:10159000C10B0E94BA0B58F00E94B30B40F029F423
:1015A0005F3F29F00C94AA0B51110C94F50B0C948D
:1015B000B00B0E94D20B68F39923B1F3552391F33A
:1015C000951B550BBB27AA2762177307840738F0B2
:1015D0009F5F5F4F220F331F441FAA1FA9F335D00F
:1015E0000E2E3AF0E0E832D091505040E695001CC3
:1015F000CAF72BD0FE2F29D0660F771F881FBB1F7D
:10160000261737074807AB07B0E809F0BB0B802D5A
:10161000BF01FF2793585F4F3AF09E3F510578F086
:101620000C94AA0B0C94F50B5F3FE4F3983ED4F3B3
:10163000869577956795B795F7959F5FC9F7880F5A
:10164000911D9695879597F90895E1E0660F771FAC
:10165000881FBB1F621773078407BA0720F0621B3D
:10166000730B840BBA0BEE1F88F7E09508950E9468
:101670003E0B6894B1110C94F50B08950E94DA0B9F
:1016800088F09F5798F0B92F9927B751B0F0E1F043
:10169000660F771F881F991F1AF0BA95C9F714C0F3
:1016A000B13091F00E94F40BB1E008950C94F40B6A
:1016B000672F782F8827B85F39F0B93FCCF386952C
:1016C00077956795B395D9F73EF490958095709589
:1016D00061957F4F8F4F9F4F0895E89409C097FB06
:1016E0003EF490958095709561957F4F8F4F9F4FF9
:1016F0009923A9F0F92F96E9BB279395F69587953D
:1017000077956795B795F111F8CFFAF4BB0F11F4FF
:1017100060FF1BC06F5F7F4F8F4F9F4F16C08823A6
:1017200011F096E911C0772321F09EE8872F762FDC
:1017300005C0662371F096E8862F70E060E02AF01D
:101740009A95660F771F881FDAF7880F9695879509
:1017500097F9089597F99F6780E870E060E0089531
:101760009FEF80EC089500240A94161617061806B9
:101770000906089500240A94121613061406050695
:101780000895092E0394000C11F4882352F0BB0F26
:1017900040F4BF2B11F460FF04C06F5F7F4F8F4F89
:1017A0009F4F089557FD9058440F551F59F05F3FC4
:1017B00071F04795880F97FB991F61F09F3F79F073
:1017C00087950895121613061406551FF2CF4695F5
:1017D000F1DF08C0161617061806991FF1CF869577
:1017E0007105610508940895E894BB27662777275B
:1017F000CB0197F908950E940E0C0C94C10B0E9426
:10180000B30B38F00E94BA0B20F0952311F00C9422
:10181000AA0B0C94B00B11240C94F50B0E94D20B64
:1018200070F3959FC1F3950F50E0551F629FF00133
:10183000729FBB27F00DB11D639FAA27F00DB11D4C
:10184000AA1F649F6627B00DA11D661F829F2227D5
:10185000B00DA11D621F739FB00DA11D621F839F5C
:10186000A00D611D221F749F3327A00D611D231F32
:10187000849F600D211D822F762F6A2F11249F5780
:1018800050409AF0F1F088234AF0EE0FFF1FBB1F83
:10189000661F771F881F91505040A9F79E3F510542
:1018A00080F00C94AA0B0C94F50B5F3FE4F3983E88
:1018B000D4F3869577956795B795F795E7959F5FEC
:1018C000C1F7FE2B880F911D9695879597F908957E
:1018D0008F929F92AF92BF92CF92DF92EF92FF9240
:1018E000CF93DF93EC01688179818A819B816115B7
:1018F00071058105910521F464E279ED8BE597E0AE
:101900002DE133EF41E050E00E94DA0C49015A0129
:101910009B01AC01A7EAB1E40E94F90C6B017C01C8
:10192000ACEEB4EFA50194010E94070DDC01CB01E0
:101930008C0D9D1DAE1DBF1DB7FF03C00197A109F2
:10194000B04888839983AA83BB839F77DF91CF9127
:10195000FF90EF90DF90CF90BF90AF909F908F90CF
:1019600008950E94680C089587E091E00E94680C39
:101970000895A0E0B0E08093070190930801A09340
:101980000901B0930A010895F999FECF92BD81BD76
:10199000F89A992780B50895262FF999FECF1FBA96
:1019A00092BD81BD20BD0FB6F894FA9AF99A0FBE88
:1019B00001960895052E97FB1EF400940E94F10CE9
:1019C00057FD07D00E940C0D07FC03D04EF40C9479
:1019D000F10C50954095309521953F4F4F4F5F4FFB
:1019E000089590958095709561957F4F8F4F9F4F8B
:1019F00008950E94350AA59F900DB49F900DA49F55
:101A0000800D911D11240895B7FF0C94F90C0E94CC
:101A1000F90C821B930B0895A1E21A2EAA1BBB1B83
:101A2000FD010DC0AA1FBB1FEE1FFF1FA217B307AA
:101A3000E407F50720F0A21BB30BE40BF50B661FC0
:101A4000771F881F991F1A9469F760957095809584
:101A500090959B01AC01BD01CF010895F894FFCF93
:0C1A6000AA9A0097009600010000000008
:00000001FF
