:100000000C9446000C946F000C946F000C946F00DD
:100010000C946F000C946F000C94EC020C946F0025
:100020000C946F000C946F000C946F000C94AB0850
:100030000C946F000C946F000C940B080C946F00E0
:100040000C946F000C946F000C946F000C946F0074
:100050000C946F000C946F000C946F000C94CD08FE
:100060000C946F000C946F005203CE0326031D0303
:100070002303B003A503300A0D090D092D0A390A1F
:10008000290A400A3C0A440AFC09CE0911241FBE71
:10009000CFEFD8E0DEBFCDBF14BE0FB6F894A89561
:1000A00080916000886180936000109260000FBEB4
:1000B00011E0A0E0B1E0ECE3FDE102C005900D929B
:1000C000AA31B107D9F721E0AAE1B1E001C01D9240
:1000D000AE38B207E1F70E94760B0C949C0E0C949C
:1000E00000008093C6008091C00085FFFCCF80E0B7
:1000F00090E0089580914D0190914E01A0914F01A3
:10010000B09150018093260190932701A09328017C
:10011000B093290184EF91E090932501809324010D
:100120000895CB0121E030E030931B0120931A01A8
:100130000E944C0590E09093230180932201089542
:100140002091240130912501809122019091230179
:10015000821793072CF490932501809324019C012E
:1001600040914D0150914E0160914F0170915001AD
:100170008091260190912701A0912801B091290139
:100180008096A11DB11D84179507A607B707E0F457
:1001900080914D0190914E01A0914F01B09150017D
:1001A0008093260190932701A0932801B093290101
:1001B00080911A0190911B01019739F084EF91E031
:1001C0009093250180932401089510921B011092B1
:1001D0001A01233331050CF44AC081E00E948708DC
:1001E00080911C0190911D01029741F382E090E003
:1001F00090931D0180931C0160918601809185017F
:100200000E94660484EF91E00E945B0460E08091AC
:1002100087010E94660488EE93E00E945B040E94BE
:100220006B0460918601809185010E94660488EECE
:1002300093E00E945B046091730180E00E94660479
:1002400084EF91E00E945B040E946B046091860140
:10025000809185010E94660484EF91E00E945B0416
:1002600084EF91E09093250180932401ADCF80E14C
:100270000E94870880911C0190911D01039709F449
:100280009DCF83E090E090931D0180931C016091CD
:100290008601809185010E94660484EF91E00E94AE
:1002A0005B046091730180E00E94660488EE93E035
:1002B0000E945B040E946B0460918601809185011D
:1002C0000E94660488EE93E00E945B0460E08091E7
:1002D0008701B4CFF894519A8CE090E09093C500D8
:1002E0008093C400E0ECF0E080818D7F8083E2ECBD
:1002F000F0E0808186608083E1ECF0E080818860BE
:10030000808380E091E090938B0180938A017894C0
:10031000089520911C0130911D012817390781F0A3
:1003200090931D0180931C010097F9F18130910594
:1003300009F43FC08230910509F441C0039709F0E8
:10034000089560918601809185010E94660484EF82
:1003500091E00E945B046091730180E00E9466045A
:1003600088EE93E00E945B040E946B04609186011A
:10037000809185010E94660488EE93E00E945B04F0
:1003800060E0809187010E94660484EF91E00E9402
:100390005B040E946B0460918601809185010E943C
:1003A000660484EF91E00C945B0460E080E00C94C0
:1003B000660460918601809185010C9466046091C9
:1003C0008601809185010E94660484EF91E00E947D
:1003D0005B0460E0809187010E94660488EE93E0F0
:1003E0000E945B040E946B046091860180918501EC
:1003F0000E94660488EE93E00E945B0460917301A2
:1004000080E0C1CF089580E090E008950895DF92E4
:10041000EF92FF920F931F93CF93DF93F89414B84A
:1004200017B81AB815B818B81BB8529A5A9A14BC0B
:1004300085E085BD8FEF87BD82E080936E001092CE
:100440008000109281002FE83BE0309389002093D8
:10045000880080936F005398239891EA9093B0009E
:100460008093B1001092B4001092B3008BE080BF73
:1004700083E080937F0086E080937C0083E8809314
:100480007A0080917A00806480937A0080917A006B
:1004900086FDFCCF10927C0083EA80937A0081E095
:1004A00080937B0081E090E00E94320E8F3F11F03C
:1004B0008093660010925101C1E0C0932A01C0935D
:1004C0006E01109248011092820180E990E00E9432
:1004D000320E8093470180914701887311F0C093D9
:1004E000470110927201109271018FEF90E090938A
:1004F000700180936F0110924D0110924E01109285
:100500004F011092500181E08093210182E49FE02D
:10051000909381018093800180EB90E00E94320EE5
:10052000C82F81EB90E00E94320E2C2F30E0382B48
:10053000309384012093830185E090E00E94320E85
:100540008093870189E090E00E94320E80937301CE
:100550008CE090E00E94320E8093850184E190E06F
:100560000E94320E8093860152E5E52E51E0F52E71
:100570000BE211E0C0E2D0E0CE010E94320ED82E94
:10058000CE0101960E94320E2D2D30E0322F22270F
:10059000282BF701219331937F01CE01C0960E9451
:1005A000320ED82ECE01C1960E94320E2D2D30E093
:1005B000322F2227282BF801219331938F01229685
:1005C000CC33D105C9F67894DF91CF911F910F916B
:1005D000FF90EF90DF9008951F920F920FB60F9249
:1005E00011248F930FB6F894A895809160008861CC
:1005F00080936000109260000FBE8F910F900FBE2D
:100600000F901F9018953C01EB0110E099249A94EB
:1006100084E0C82E96E0A92E23E8B22E38E1D32E2E
:1006200049E2E42E90912101E92FF0E0E730F10555
:10063000C8F7EC5CFF4F0C949D0B112309F4FCC030
:10064000C092210111E0FE010995ECCF809151018A
:100650008111EBC0F894A0927C00B0927A00809156
:100660007A00806480937A0090917A0096FDFCCFA6
:10067000809178009091790078948B3AE2E09E071F
:100680000CF0EDC08938F2E09F070CF0EFC0873620
:1006900092400CF4CAC0559A549A3B9A3A9A3D98A3
:1006A0003C98C0CFF89480B7877F80BF80917A0054
:1006B0008F7780937A0014B817B81AB815B818B89D
:1006C0001BB80FB6F894A895D09260000FBEE092C8
:1006D00060008091600080648093600093B7917F98
:1006E000946093BFF89483B7816083BF78948895B2
:1006F00083B78E7F83BF789410925101529A5A9A91
:1007000080917A00806880937A0087E592E0019773
:10071000F1F700C0000080B7886180BF559A549AF5
:100720003B9A3A9A3D9A3C9AEFE1FEE43197F1F711
:1007300000C0000080915101811181C055985498EA
:100740003B983A983D983C986DCF80911F0181115C
:1007500041C01092B3001092B4001092200162CFF9
:100760004899ECCF559A54983B983A983D983C98C4
:100770008FEC97E00197F1F700C00000559854986E
:100780003B983A983D983C989FEFE1EEF4E0915009
:10079000E040F040E1F700C0000044CF5598549885
:1007A0003B9A3A9A3D983C98EFECF7E03197F1F795
:1007B00000C00000559854983B983A983D983C9852
:1007C000FFEF21EE84E0F15020408040E1F700C0CF
:1007D000000028CF90911F0180912001981709F403
:1007E00021CF80911F018093200180911F018130D2
:1007F00009F450C080911F011092B3009092B40090
:100800008230D9F19092B3009092B4008FE295E7D4
:100810000197F1F700C00000809186019091850159
:100820009093B3008093B400FDCE559A549A3B98B0
:100830003A983D983C98F6CEF301099501CF559A28
:10084000549A3B983A983D983C98FFEF20E782E015
:10085000F15020408040E1F700C000006FCF559874
:1008600054983B9A3A9A3D983C98DCCE55985498C7
:100870003B983A983D9A3C9AD5CEEFE2F5E731970E
:10088000F1F700C00000809173011092B3008093D3
:10089000B400C8CE9092B3001092B4008FE295E7F6
:1008A0000197F1F700C00000809187018093B300A9
:1008B0001092B400B7CE07C0EFECF7E03197F1F734
:1008C00000C0000001970097B9F708958093B30026
:1008D0006093B40008958FEF8093B3008093B400C9
:1008E0008FE090E0EFECF7E03197F1F700C0000007
:1008F0000197C1F708958091510181111EC0F894AC
:1009000087E080937C0083E880937A0080917A006E
:10091000806480937A0080917A0086FDFCCF80917C
:1009200078009091790010927C0023EA20937A005D
:1009300021E020937B00789408958FEF9FEF089536
:100940008091510181111EC0F89488EC80937C0045
:1009500087E880937A0080917A00806480937A009F
:1009600080917A0086FDFCCF80917800909179008B
:1009700010927C0023EA20937A0021E020937B00F0
:10098000789408958FEF9FEF08950F931F93CF935F
:10099000DF93E0E0F0E080E003EA11E0D6E0C3E8B6
:1009A000A1E0B0E060E870E0F894D0937C00C093E0
:1009B0007A0090917A00906490937A0090917A00F6
:1009C00096FDFCCF209178003091790021709091B4
:1009D0007A00906490937A0090917A0096FDFCCF13
:1009E000409178005091790010927C0000937A0039
:1009F00010937B0078944170241303C061507109F7
:100A000099F6222339F09D010E2E01C0220F0A947F
:100A1000EAF7822B3196E830F10509F0C3CFDF9178
:100A2000CF911F910F91089580910E01982F990FEA
:100A3000990F990F892790911E0121E0290F20938A
:100A40001E01282F22952695277082279695969528
:100A5000892780930E01089580930E010895809157
:100A60005101811116C0F89486E080937C0083E8E0
:100A700080937A0080917A00806480937A008091DC
:100A80007A0086FDFCCF809178009091790078946F
:100A900008958FEF9FEF08952F923F924F925F92AC
:100AA0006F927F928F929F92AF92BF92CF92DF927E
:100AB000EF92FF920F931F93CF93DF9300D000D05C
:100AC00000D0CDB7DEB71C01DC0112960D90BC91B1
:100AD000A02DBE83AD83A438E3E0BE070CF0C9C0EF
:100AE00080912B0190912C018A179B0708F437C144
:100AF00000912D0110912E010A171B0708F42FC237
:100B000000912F01109130010A171B0708F42FC222
:100B100000913101109132010A171B0708F42FC20E
:100B200000913301109134010A171B0708F42FC2FA
:100B300000913501109136010A171B0708F4EFC127
:100B400000913701109138010A171B0708F427C2DA
:100B50000091390110913A010A171B0708F427C2C6
:100B600000913B0110913C010A171B0708F427C2B2
:100B700000913D0110913E010A171B0708F427C29E
:100B800000913F01109140010A171B0708F427C28A
:100B900000914101109142010A171B0708F423C27A
:100BA00000914301109144010A171B0708F423C266
:100BB00000914501109146010A171B0708F423C252
:100BC00080E090E0A0EDB0E489839A83AB83BC839E
:100BD0004CE0E42EF12CF701EE0FFF1FE55DFE4F18
:100BE00080819181B801681B790B80E090E00E94C0
:100BF000DB0C9B01AC010E94C70B6B017C01AD813A
:100C0000BE81BD01BB0F880B990B0E94DD0C4B010F
:100C10005C01B80180E090E00E94DB0C2B013C01FC
:100C200029813A814B815C81C701B6010E94690D1F
:100C30009B01AC01C301B2010E94C60B9B01AC0138
:100C4000C501B4010E94C60B20E030E040E251E44F
:100C50000E94690D0E94A50C8B01C701B6010E947C
:100C6000A50CAB01BC01C801BA010E94890B162F6B
:100C700077C0DC01CD90DC908091520190915301BE
:100C80008C159D0508F48CC01FEFE0905401F09086
:100C90005501EC14FD0408F45EC1E0905601F0909B
:100CA0005701EC14FD0408F45EC1E0905801F09087
:100CB0005901EC14FD0408F45EC1E0905A01F09073
:100CC0005B01EC14FD0408F45EC1E0905C01F0905F
:100CD0005D01EC14FD0408F4C3C0E0905E01F090E7
:100CE0005F01EC14FD0408F456C1E0906001F0903F
:100CF0006101EC14FD0408F456C1E0906201F0902B
:100D00006301EC14FD0408F456C1E0906401F09016
:100D10006501EC14FD0408F456C1E0906601F09002
:100D20006701EC14FD0408F456C1E0906801F090EE
:100D30006901EC14FD0408F45AC1E0906A01F090D6
:100D40006B01EC14FD0408F45AC1E0906C01F090C2
:100D50006D01EC14FD0408F45AC10AE531C010E03D
:100D6000ED81FE81ED3BF240FCF481E2810F26969D
:100D70000FB6F894DEBF0FBECDBFDF91CF911F91AC
:100D80000F91FF90EF90DF90CF90BF90AF909F902A
:100D90008F907F906F905F904F903F902F9008952D
:100DA00000E081E2800FE3CFD101CD90DC90809113
:100DB0005201909153018C159D0508F066CF00E01B
:100DC0001F3F79F3ED81FE81BF01FF0F880B990B67
:100DD0000E94DD0C6B017C01612F70E080E090E0EF
:100DE0000E94DB0C4B015C01A701960160E070E002
:100DF00081E694E40E94C60B9B01AC01C501B401DD
:100E00000E94690D4B015C01602F70E080E090E072
:100E10000E94DB0C2B013C0120E030E04FE254E467
:100E2000C701B6010E94C60B9B01AC01C301B20110
:100E30000E94690D9B01AC01C501B4010E94C70B62
:100E400020E030E048E453E40E94330C20E030E03E
:100E500044E052E40E94C70B0E94AC0C862F87CF5F
:100E600005E085E090E0880F991FFC01E05BFE4FF4
:100E700080819181B701681B790B80E090E00E942E
:100E8000DB0C9B01AC010E94C70B4B015C01B6015E
:100E9000DD0C880B990B0E94DD0C2B013C01B70186
:100EA00080E090E00E94DB0C6B017C01602F70E021
:100EB00080E090E00E94DB0C20E030E040E05FE367
:100EC0000E94690D20E030E0A9010E94C70BA50136
:100ED00094010E94690D9B01AC01C701B6010E94FB
:100EE000C60B9B01AC01C301B2010E94C60B20E0FE
:100EF00030E040E251E40E94690D0E94A50C7B01A4
:100F0000C501B4010E94A50CAB01BC01C701BA0127
:100F10000E94890B062F6F3F09F052CF26CF65E064
:100F200085E090E07C01F1E0EF1AF10870E080E0EC
:100F300090E00E94DB0C20E030E040E05FE30E94A4
:100F4000690D20E030E0A9010E94C70B69837A8314
:100F50008B839C8340CE01E081E090E084CF61E010
:100F600081E090E0DFCF02E082E090E07CCF62E0C1
:100F700082E090E0D7CF03E083E090E074CF63E0BD
:100F800083E090E0CFCF04E084E090E06CCF64E0B9
:100F900084E090E0C7CF06E086E090E064CF66E0B2
:100FA00086E090E0BFCF07E087E090E05CCF67E0AD
:100FB00087E090E0B7CF08E088E090E054CF68E0A9
:100FC00088E090E0AFCF09E089E090E04CCF69E0A5
:100FD00089E090E0A7CF0AE08AE090E044CF6AE0A1
:100FE0008AE090E09FCF6BE08BE090E09BCF0BE03E
:100FF0008BE090E038CF6CE08CE090E093CF0CE099
:101000008CE090E030CF6DE08DE090E08BCF0DE094
:101010008DE090E028CF1F920F920FB60F9211240F
:101020002F933F934F935F936F937F938F939F93F0
:10103000AF93BF93EF93FF932091710130917201B1
:1010400080916F0190917001820F931F90937201B4
:10105000809371018FEF90E09093700180936F0106
:101060008FEF87BD80914D0190914E01A0914F016E
:10107000B09150010196A11DB11D80934D01909337
:101080004E01A0934F01B093500180915101811105
:101090000FC0809180019091810120917101309168
:1010A00072018217930720F480912101843089F026
:1010B000FF91EF91BF91AF919F918F917F916F9130
:1010C0005F914F913F912F910F900FBE0F901F9006
:1010D0001895E0911101F09112010995009741F3E3
:1010E0000E94F30A811109C00E94220E9927909351
:1010F000700180936F0187BDDBCFE0910F01F0910C
:10110000100109951092720110927101D1CF80FFE8
:1011100011C0559A81FF11C0549A82FF11C03B9AA9
:1011200083FF11C03A9A84FF11C03D9A85FD11C01A
:101130003C980895559881FDEFCF549882FDEFCFEC
:101140003B9883FDEFCF3A9884FDEFCF3D9885FF24
:10115000EFCF3C9A08951F920F920FB60F92112471
:101160008F939F93109281001092850010928400BB
:1011700081E080932A0180936E01109251011092B8
:101180007C0093EA90937A0080937B009F918F91EB
:101190000F900FBE0F901F9018951F920F920FB6D1
:1011A0000F9211242F933F934F935F936F937F93ED
:1011B0008F939F93AF93BF93CF93DF93EF93FF935F
:1011C000209184003091850041E04093510180914D
:1011D0002A018823A9F1109285001092840040937F
:1011E00081001092820110922A0180916E01882361
:1011F000A1F080917A0086FDFCCF809178009091DB
:10120000790090934C0180934B0181E080937C00A6
:1012100093EA90937A0080937B00FF91EF91DF91A6
:10122000CF91BF91AF919F918F917F916F915F917E
:101230004F913F912F910F900FBE0F901F901895D7
:10124000C901875891098437994008F052C026583F
:101250003109A4EFB0E00E94A30BAA27BB27883076
:101260009105A105B10508F47BC040932A01809146
:101270006E01811152C080914801E82FF0E0EC58D6
:10128000FE4F9091820190838F5F809348018C3054
:1012900021F61092810010928500109284004093F4
:1012A0006E0110925101C0917E01D0917F0184E7BF
:1012B00091E00E94D70AC817D90709F0AECF8091F4
:1012C0007D0187FF61C098E7980F933030F0539805
:1012D00023981092B4001092B30090E0FC01E05803
:1012E000F109EB30F10508F098CFE55CFF4F0C9465
:1012F0009D0B109281001092850010928400409303
:101300002A0140936E011092510110927C0083EAF1
:1013100080937A0040937B0080CF80917A0086FD95
:10132000FCCF809178009091790090934A0180934E
:10133000490110927C0083EA80937A0081E08093D7
:101340007B00909182019923D1F01092810010923C
:1013500085001092840080936E01109251015DCF40
:1013600021E030E0F90102C0EE0FFF1F8A95E2F79D
:10137000CF0190918201892B809382014ECF1092F0
:101380006E011092480149CFE0911301F0911401D0
:1013900069E471E084E791E009953FCF80917401A1
:1013A000823009F4DDC008F4BAC0833009F4C6C045
:1013B000843009F0B1C080911F0190917A0183308F
:1013C00009F4E3C0809179011092200123E0209379
:1013D0001F018093850190938601809121018630C1
:1013E00009F41BCF539A239A1092B4001092B300C1
:1013F00086E08093210111CF80912101863099F000
:10140000539A239A1092B4001092B30055985498AE
:101410003B983A983D983C9810921F0110922001F9
:1014200086E08093210181E090E09C0100907401AE
:1014300002C0220F331F0A94E2F78091830190913A
:10144000840182239323892B09F086C010921F0107
:10145000E4CE81E080932101E0CEE0E0F0E0099568
:1014600080916E008D7F80936E0016BCE0E0F0E707
:10147000099510922101D1CE82E080932101CDCE39
:1014800085E080932101C9CE80912101833009F448
:10149000C4CE80912101843009F4BFCE539A239A9F
:1014A0001092B4001092B30083E080932101B5CE76
:1014B00080912101863009F0B0CE6091830180EBEC
:1014C00090E00E943A0E6091840181EB90E00E94CE
:1014D0003A0E6091870185E090E00E943A0E60919B
:1014E000730189E090E00E943A0E609185018CE0E2
:1014F00090E00E943A0E6091860184E190E00E94A3
:101500003A0E539823981092B4001092B30081E0E1
:10151000809321018091740181115FCF7ECE882359
:1015200039F28130C9F780917501909176019093DD
:1015300084018093830110921F014FCF80911F017E
:10154000823071F1809178011092200192E09093A5
:101550001F018093730141CF81E080931F015DCE15
:1015600080911F01813051F080917701109220010C
:1015700091E090931F01809387012FCF8091770195
:10158000909187018913F2CF28CF8091860198131B
:1015900019CF8091790120918501821315CF1DCF3C
:1015A00080917801909173018913CECF16CFFC0101
:1015B000AC01465F5F4F8FEF9FEF21918227082E8E
:1015C0008295807F8025092E982F82958F7008261E
:1015D000869598278927880F880F880F8025E4171C
:1015E000F50759F708950FB6F894A4B12091470173
:1015F0002A2B24B921E030914701203029F0000046
:1016000025B1232B25B904C000000000000000C054
:10161000000000000000309525B1232325B92EEAF3
:101620002A95F1F72BEE30B735FF0AC0A4B93091F7
:101630004701309525B1232325B90FBE80E00895D9
:1016400000002A9581F721E030914701203029F0F0
:10165000000025B1232B25B904C0000000000000C4
:1016600000C0000000000000309525B1232325B9FB
:10167000000024E52A95F1F7FC018CE0619170E00F
:10168000660F771F616072609AE041E050E09A0156
:1016900026233723232B30914701203029F00000E7
:1016A00025B1232B25B904C000000000000000C0B4
:1016B000000000000000309525B1232325B900006B
:1016C00021E52A95F1F7440F551F9A9501F78A9560
:1016D000A9F620B7206120BFA4B930914701309509
:1016E00025B1232325B90FBE81E008950E9407028A
:1016F0000E946A0181E990E09093140180931301A4
:1017000060EA70E08AE790E00E94030380E090E0E6
:10171000089597FB072E16F4009407D077FD09D0A3
:101720000E94B20B07FC05D03EF4909581959F4F27
:101730000895709561957F4F0895EE0FFF1F0590F6
:10174000F491E02D0994A29FB001B39FC001A39F23
:10175000700D811D1124911DB29F700D811D1124EA
:10176000911D0895AA1BBB1B51E107C0AA1FBB1FF7
:10177000A617B70710F0A61BB70B881F991F5A951D
:10178000A9F780959095BC01CD0108955058BB27CD
:10179000AA270E94DE0B0C942F0D0E94210D38F019
:1017A0000E94280D20F039F49F3F19F426F40C9480
:1017B0001E0D0EF4E095E7FB0C94180DE92F0E9426
:1017C000400D58F3BA17620773078407950720F096
:1017D00079F4A6F50C94620D0EF4E0950B2EBA2F59
:1017E000A02D0B01B90190010C01CA01A001112427
:1017F000FF27591B99F0593F50F4503E68F11A16D3
:10180000F040A22F232F342F4427585FF3CF469563
:1018100037952795A795F0405395C9F77EF41F1685
:10182000BA0B620B730B840BBAF09150A1F0FF0F4F
:10183000BB1F661F771F881FC2F70EC0BA0F621F3B
:10184000731F841F48F4879577956795B795F7952B
:101850009E3F08F0B0CF9395880F08F09927EE0FC0
:101860009795879508950E94470C0C942F0D0E9420
:10187000280D58F00E94210D40F029F45F3F29F017
:101880000C94180D51110C94630D0C941E0D0E94B4
:10189000400D68F39923B1F3552391F3951B550B34
:1018A000BB27AA2762177307840738F09F5F5F4F33
:1018B000220F331F441FAA1FA9F335D00E2E3AF072
:1018C000E0E832D091505040E695001CCAF72BD08A
:1018D000FE2F29D0660F771F881FBB1F26173707DB
:1018E0004807AB07B0E809F0BB0B802DBF01FF270D
:1018F00093585F4F3AF09E3F510578F00C94180DC5
:101900000C94630D5F3FE4F3983ED4F3869577958E
:101910006795B795F7959F5FC9F7880F911D9695C5
:10192000879597F90895E1E0660F771F881FBB1F21
:10193000621773078407BA0720F0621B730B840BCE
:10194000BA0BEE1F88F7E09508950E94AC0C6894DE
:10195000B1110C94630D08950E94480D88F09F57B3
:1019600098F0B92F9927B751B0F0E1F0660F771FC3
:10197000881F991F1AF0BA95C9F714C0B13091F0B9
:101980000E94620DB1E008950C94620D672F782FCC
:101990008827B85F39F0B93FCCF38695779567957E
:1019A000B395D9F73EF490958095709561957F4FEA
:1019B0008F4F9F4F0895E89409C097FB3EF4909590
:1019C0008095709561957F4F8F4F9F4F9923A9F018
:1019D000F92F96E9BB279395F695879577956795A7
:1019E000B795F111F8CFFAF4BB0F11F460FF1BC0EB
:1019F0006F5F7F4F8F4F9F4F16C0882311F096E97E
:101A000011C0772321F09EE8872F762F05C066232B
:101A100071F096E8862F70E060E02AF09A95660FE4
:101A2000771F881FDAF7880F9695879597F908959D
:101A300097F99F6780E870E060E008959FEF80EC81
:101A4000089500240A941616170618060906089524
:101A500000240A9412161306140605060895092E8A
:101A60000394000C11F4882352F0BB0F40F4BF2BF9
:101A700011F460FF04C06F5F7F4F8F4F9F4F089539
:101A800057FD9058440F551F59F05F3F71F047952F
:101A9000880F97FB991F61F09F3F79F08795089514
:101AA000121613061406551FF2CF4695F1DF08C033
:101AB000161617061806991FF1CF86957105610550
:101AC00008940895E894BB2766277727CB0197F9F8
:101AD00008950E947C0D0C942F0D0E94210D38F06A
:101AE0000E94280D20F0952311F00C94180D0C94F1
:101AF0001E0D11240C94630D0E94400D70F3959FF0
:101B0000C1F3950F50E0551F629FF001729FBB27F4
:101B1000F00DB11D639FAA27F00DB11DAA1F649F90
:101B20006627B00DA11D661F829F2227B00DA11D43
:101B3000621F739FB00DA11D621F839FA00D611DC9
:101B4000221F749F3327A00D611D231F849F600DEA
:101B5000211D822F762F6A2F11249F5750409AF013
:101B6000F1F088234AF0EE0FFF1FBB1F661F771F9F
:101B7000881F91505040A9F79E3F510580F00C946A
:101B8000180D0C94630D5F3FE4F3983ED4F38695F3
:101B900077956795B795F795E7959F5FC1F7FE2B0A
:101BA000880F911D9695879597F908958F929F922A
:101BB000AF92BF92CF92DF92EF92FF92CF93DF93DB
:101BC000EC01688179818A819B81611571058105AC
:101BD000910521F464E279ED8BE597E02DE133EF97
:101BE00041E050E00E94480E49015A019B01AC01BE
:101BF000A7EAB1E40E94670E6B017C01ACEEB4EF82
:101C0000A50194010E94750EDC01CB018C0D9D1D78
:101C1000AE1DBF1DB7FF03C00197A109B04888835F
:101C20009983AA83BB839F77DF91CF91FF90EF9039
:101C3000DF90CF90BF90AF909F908F9008950E94BB
:101C4000D60D089585E191E00E94D60D0895A0E09B
:101C5000B0E08093150190931601A0931701B09303
:101C600018010895F999FECF92BD81BDF89A992780
:101C700080B50895262FF999FECF1FBA92BD81BD78
:101C800020BD0FB6F894FA9AF99A0FBE01960895FE
:101C9000052E97FB1EF400940E945F0E57FD07D09F
:101CA0000E947A0E07FC03D04EF40C945F0E509500
:101CB0004095309521953F4F4F4F5F4F0895909538
:101CC0008095709561957F4F8F4F9F4F08950E942B
:101CD000A30BA59F900DB49F900DA49F800D911D07
:101CE00011240895B7FF0C94670E0E94670E821BA3
:101CF000930B0895A1E21A2EAA1BBB1BFD010DC078
:101D0000AA1FBB1FEE1FFF1FA217B307E407F507AB
:101D100020F0A21BB30BE40BF50B661F771F881F87
:101D2000991F1A9469F760957095809590959B011D
:0C1D3000AC01BD01CF010895F894FFCF75
:101D3C000000000200000000710000000000AA0674
:0A1D4C000203020202010000000081
:00000001FF
