:100000000C9446000C946F000C946F000C946F00DD
:100010000C946F000C946F000C9482020C946F008F
:100020000C946F000C946F000C946F000C944108BA
:100030000C946F000C946F000C94A1070C946F004B
:100040000C946F000C946F000C946F000C946F0074
:100050000C946F000C946F000C946F000C94630868
:100060000C946F000C946F00E8026403BC02B302AE
:10007000B90246033B03C609A308A308C309CF0975
:10008000BF09D609D209DA099209640911241FBEF1
:10009000CFEFD8E0DEBFCDBF14BE0FB6F894A89561
:1000A00080916000886180936000109260000FBEB4
:1000B00011E0A0E0B1E0E2EFF1E202C005900D92A4
:1000C000A234B107D9F721E0A2E4B1E001C01D924A
:1000D000A43BB207E1F70E940C0B0C94F7100C94B0
:1000E00000008093C6008091C00085FFFCCF80E0B7
:1000F00090E008958091460190914701029769F040
:1001000082E090E090934701809346010E940104B1
:1001100060E08091AD010E94FC0380917301909199
:100120007401A0917501B091760180934C01909378
:100130004D01A0934E01B0934F0108950E94110408
:100140009F938F9389E191E09F938F930E94C20DBB
:100150004091730150917401609175017091760125
:1001600080914C0190914D01A0914E01B0914F01B1
:100170008096A11DB11D0F900F900F900F908417C6
:100180009507A607B70730F5809173019091740128
:10019000A0917501B091760180934C0190934D012F
:1001A000A0934E01B0934F01809142019091430181
:1001B0002091440130914501AC014C535109241761
:1001C00035074CF0CC9682179307ECF0309343013F
:1001D0002093420108958091460190914701039731
:1001E000A9F383E090E090934701809346010E9439
:1001F00001046091990180E00E94FC032091440178
:1002000030914501E3CF80914601909147010297DB
:10021000E9F282E090E090934701809346010E94CA
:10022000010460E08091AD010E94FC032091440133
:1002300030914501CBCFF894519A8CE090E09093A7
:10024000C5008093C400E0ECF0E080818D7F808366
:10025000E2ECF0E0808186608083E1ECF0E0808178
:100260008860808380E091E09093B1018093B00139
:100270007894089520914601309147012817390755
:1002800071F09093470180934601009781F081308F
:10029000910589F082309105B1F0039709F0089536
:1002A0000E9401046091990180E00C94FC0360E0DD
:1002B00080E00C94FC030E9401046091AC018091E9
:1002C000AB010C94FC030E94010460E08091AD013D
:1002D0000C94FC030F931F93CF93DF9300E010E087
:1002E000C0E0D0E00E9411048F3F2FEF920719F079
:1002F000080F191F2196CC3281E0D8079CF3C80162
:10030000BE010E94190B60934401709345017F93D5
:100310006F938EE291E09F938F930E94C20D0F9096
:100320000F900F900F90DF91CF911F910F91089533
:10033000089580E090E008950895DF92EF92FF9293
:100340000F931F93CF93DF93F89414B817B81AB88C
:1003500015B818B81BB8529A5A9A14BC85E085BDD6
:100360008FEF87BD82E080936E0010928000109224
:1003700081002FE83BE03093890020938800809330
:100380006F005398239891EA9093B0008093B10046
:100390001092B4001092B3008BE080BF83E0809392
:1003A0007F0086E080937C0083E880937A008091D0
:1003B0007A00806480937A0080917A0086FDFCCF79
:1003C00010927C0083EA80937A0081E080937B0026
:1003D00081E090E00E9456108F3F11F080936600FC
:1003E00010927701C1E0C0935001C0939401109224
:1003F0006E011092A80180E990E00E94561080934F
:100400006D0180916D01887311F0C0936D011092A0
:100410009801109297018FEF90E09093960180934E
:10042000950110927301109274011092750110924F
:10043000760181E080934B0182E49FE09093A701D5
:100440008093A60180EB90E00E945610C82F81EBAC
:1004500090E00E9456102C2F30E0382B3093AA01E8
:100460002093A90185E090E00E9456108093AD0191
:1004700089E090E00E945610809399018CE090E012
:100480000E9456108093AB0184E190E00E945610C8
:100490008093AC0158E7E52E51E0F52E01E511E01F
:1004A000C0E2D0E0CE010E945610D82ECE010196B7
:1004B0000E9456102D2D30E0322F2227282BF701D5
:1004C000219331937F01CE01C0960E945610D82E01
:1004D000CE01C1960E9456102D2D30E0322F2227DA
:1004E000282BF801219331938F012296CC33D1052B
:1004F000C9F67894DF91CF911F910F91FF90EF9003
:10050000DF9008951F920F920FB60F9211248F93D0
:100510000FB6F894A8958091600088618093600080
:10052000109260000FBE8F910F900FBE0F901F9022
:1005300018953C01EB0110E099249A9484E0C82EB0
:1005400096E0A92E23E8B22E38E1D32E49E2E42E1C
:1005500090914B01E92FF0E0E730F105C8F7EC5C32
:10056000FF4F0C942D0B112309F4FCC0C0924B01DA
:1005700011E0FE010995ECCF809177018111EBC06C
:10058000F894A0927C00B0927A0080917A00806406
:1005900080937A0090917A0096FDFCCF809178004C
:1005A0009091790078948B3AE2E09E070CF0EDC0D0
:1005B0008938F2E09F070CF0EFC0873692400CF4C8
:1005C000CAC0559A549A3B9A3A9A3D983C98C0CFE3
:1005D000F89480B7877F80BF80917A008F7780936F
:1005E0007A0014B817B81AB815B818B81BB80FB6EF
:1005F000F894A895D09260000FBEE09260008091C0
:10060000600080648093600093B7917F946093BF93
:10061000F89483B7816083BF7894889583B78E7F81
:1006200083BF789410927701529A5A9A80917A00F7
:10063000806880937A0087E592E00197F1F700C027
:10064000000080B7886180BF559A549A3B9A3A9AC5
:100650003D9A3C9AEFE1FEE43197F1F700C00000CB
:1006600080917701811181C0559854983B983A98B0
:100670003D983C986DCF80914901811141C0109205
:10068000B3001092B40010924A0162CF4899ECCFA7
:10069000559A54983B983A983D983C988FEC97E03F
:1006A0000197F1F700C00000559854983B983A988C
:1006B0003D983C989FEFE1EEF4E09150E040F0402F
:1006C000E1F700C0000044CF559854983B9A3A9AFD
:1006D0003D983C98EFECF7E03197F1F700C000004F
:1006E000559854983B983A983D983C98FFEF21EEE6
:1006F00084E0F15020408040E1F700C0000028CFA6
:100700009091490180914A01981709F421CF809175
:10071000490180934A0180914901813009F450C018
:10072000809149011092B3009092B4008230D9F1C7
:100730009092B3009092B4008FE295E70197F1F7A1
:1007400000C000008091AC019091AB019093B30088
:100750008093B400FDCE559A549A3B983A983D98B0
:100760003C98F6CEF301099501CF559A549A3B98DF
:100770003A983D983C98FFEF20E782E0F150204006
:100780008040E1F700C000006FCF559854983B9A25
:100790003A9A3D983C98DCCE559854983B983A98B4
:1007A0003D9A3C9AD5CEEFE2F5E73197F1F700C0DC
:1007B0000000809199011092B3008093B400C8CEDC
:1007C0009092B3001092B4008FE295E70197F1F791
:1007D00000C000008091AD018093B3001092B4007E
:1007E000B7CE07C0EFECF7E03197F1F700C000009B
:1007F00001970097B9F708958093B3006093B40010
:1008000008958FEF8093B3008093B4008FE090E061
:10081000EFECF7E03197F1F700C000000197C1F766
:1008200008958091770181111EC0F89487E080932C
:100830007C0083E880937A0080917A0080648093C2
:100840007A0080917A0086FDFCCF809178009091AB
:10085000790010927C0023EA20937A0021E0209313
:100860007B00789408958FEF9FEF08958091770132
:1008700081111EC0F89488EC80937C0087E88093F7
:100880007A0080917A00806480937A0080917A0067
:1008900086FDFCCF809178009091790010927C00C9
:1008A00023EA20937A0021E020937B007894089536
:1008B0008FEF9FEF08950F931F93CF93DF93E0E0A7
:1008C000F0E080E003EA11E0D6E0C3E8A1E0B0E0A8
:1008D00060E870E0F894D0937C00C0937A00909127
:1008E0007A00906490937A0090917A0096FDFCCF04
:1008F0002091780030917900217090917A00906475
:1009000090937A0090917A0096FDFCCF4091780008
:100910005091790010927C0000937A0010937B0034
:1009200078944170241303C06150710999F6222311
:1009300039F09D010E2E01C0220F0A94EAF7822B96
:100940003196E830F10509F0C3CFDF91CF911F91C7
:100950000F91089580910E01982F990F990F990F7B
:1009600089279091480121E0290F20934801282FE1
:1009700022952695277082279695969589278093AC
:100980000E01089580930E010895809177018111E1
:1009900016C0F89486E080937C0083E880937A0008
:1009A00080917A00806480937A0080917A0086FD3D
:1009B000FCCF8091780090917900789408958FEF22
:1009C0009FEF08952F923F924F925F926F927F9286
:1009D0008F929F92AF92BF92CF92DF92EF92FF924F
:1009E0000F931F93CF93DF9300D000D000D0CDB7EB
:1009F000DEB71C01DC0112960D90BC91A02DBE83C8
:100A0000AD83A438E3E0BE070CF0C9C0809151016A
:100A1000909152018A179B0708F437C10091530146
:100A2000109154010A171B0708F42FC200915501B9
:100A3000109156010A171B0708F42FC200915701A5
:100A4000109158010A171B0708F42FC20091590191
:100A500010915A010A171B0708F42FC200915B017D
:100A600010915C010A171B0708F4EFC100915D01AA
:100A700010915E010A171B0708F427C200915F015D
:100A8000109160010A171B0708F427C20091610149
:100A9000109162010A171B0708F427C20091630135
:100AA000109164010A171B0708F427C20091650121
:100AB000109166010A171B0708F427C2009167010D
:100AC000109168010A171B0708F423C200916901FD
:100AD00010916A010A171B0708F423C200916B01E9
:100AE00010916C010A171B0708F423C280E090E004
:100AF000A0EDB0E489839A83AB83BC834CE0E42E01
:100B0000F12CF701EE0FFF1FEF5AFE4F808191810C
:100B1000B801681B790B80E090E00E946B0C9B0190
:100B2000AC010E94570B6B017C01AD81BE81BD0100
:100B3000BB0F880B990B0E946D0C4B015C01B80137
:100B400080E090E00E946B0C2B013C0129813A81EE
:100B50004B815C81C701B6010E94F90C9B01AC017D
:100B6000C301B2010E94560B9B01AC01C501B40147
:100B70000E94560B20E030E040E251E40E94F90C64
:100B80000E94350C8B01C701B6010E94350CAB01E8
:100B9000BC01C801BA010E94190B162F77C0DC01F5
:100BA000CD90DC9080917801909179018C159D0514
:100BB00008F48CC01FEFE0907A01F0907B01EC14F8
:100BC000FD0408F45EC1E0907C01F0907D01EC141E
:100BD000FD0408F45EC1E0907E01F0907F01EC140A
:100BE000FD0408F45EC1E0908001F0908101EC14F6
:100BF000FD0408F45EC1E0908201F0908301EC14E2
:100C0000FD0408F4C3C0E0908401F0908501EC1469
:100C1000FD0408F456C1E0908601F0908701EC14C1
:100C2000FD0408F456C1E0908801F0908901EC14AD
:100C3000FD0408F456C1E0908A01F0908B01EC1499
:100C4000FD0408F456C1E0908C01F0908D01EC1485
:100C5000FD0408F456C1E0908E01F0908F01EC1471
:100C6000FD0408F45AC1E0909001F0909101EC1459
:100C7000FD0408F45AC1E0909201F0909301EC1445
:100C8000FD0408F45AC10AE531C010E0ED81FE818F
:100C9000ED3BF240FCF481E2810F26960FB6F8940A
:100CA000DEBF0FBECDBFDF91CF911F910F91FF909F
:100CB000EF90DF90CF90BF90AF909F908F907F90FC
:100CC0006F905F904F903F902F90089500E081E2E9
:100CD000800FE3CFD101CD90DC908091780190918D
:100CE00079018C159D0508F066CF00E01F3F79F370
:100CF000ED81FE81BF01FF0F880B990B0E946D0CE7
:100D00006B017C01612F70E080E090E00E946B0C31
:100D10004B015C01A701960160E070E081E694E47C
:100D20000E94560B9B01AC01C501B4010E94F90C55
:100D30004B015C01602F70E080E090E00E946B0C42
:100D40002B013C0120E030E04FE254E4C701B60142
:100D50000E94560B9B01AC01C301B2010E94F90C29
:100D60009B01AC01C501B4010E94570B20E030E0AB
:100D700048E453E40E94C30B20E030E044E052E436
:100D80000E94570B0E943C0C862F87CF05E085E020
:100D900090E0880F991FFC01EA58FE4F80819181F5
:100DA000B701681B790B80E090E00E946B0C9B01FF
:100DB000AC010E94570B4B015C01B601DD0C880BA6
:100DC000990B0E946D0C2B013C01B70180E090E073
:100DD0000E946B0C6B017C01602F70E080E090E062
:100DE0000E946B0C20E030E040E05FE30E94F90CD1
:100DF00020E030E0A9010E94570BA50194010E9458
:100E0000F90C9B01AC01C701B6010E94560B9B0176
:100E1000AC01C301B2010E94560B20E030E040E279
:100E200051E40E94F90C0E94350C7B01C501B4010C
:100E30000E94350CAB01BC01C701BA010E94190B1D
:100E4000062F6F3F09F052CF26CF65E085E090E096
:100E50007C01F1E0EF1AF10870E080E090E00E9480
:100E60006B0C20E030E040E05FE30E94F90C20E0F2
:100E700030E0A9010E94570B69837A838B839C839E
:100E800040CE01E081E090E084CF61E081E090E03D
:100E9000DFCF02E082E090E07CCF62E082E090E091
:100EA000D7CF03E083E090E074CF63E083E090E08D
:100EB000CFCF04E084E090E06CCF64E084E090E089
:100EC000C7CF06E086E090E064CF66E086E090E081
:100ED000BFCF07E087E090E05CCF67E087E090E07D
:100EE000B7CF08E088E090E054CF68E088E090E079
:100EF000AFCF09E089E090E04CCF69E089E090E075
:100F0000A7CF0AE08AE090E044CF6AE08AE090E070
:100F10009FCF6BE08BE090E09BCF0BE08BE090E00D
:100F200038CF6CE08CE090E093CF0CE08CE090E068
:100F300030CF6DE08DE090E08BCF0DE08DE090E064
:100F400028CF1F920F920FB60F9211242F933F9329
:100F50004F935F936F937F938F939F93AF93BF93C1
:100F6000EF93FF9320919701309198018091950123
:100F700090919601820F931F90939801809397010F
:100F80008FEF90E090939601809395018FEF87BD4E
:100F90008091730190917401A0917501B0917601D7
:100FA0000196A11DB11D8093730190937401A093CC
:100FB0007501B09376018091770181110FC0809106
:100FC000A6019091A7012091970130919801821775
:100FD000930720F480914B01843089F0FF91EF91C9
:100FE000BF91AF919F918F917F916F915F914F9141
:100FF0003F912F910F900FBE0F901F901895E09189
:101000001101F09112010995009741F30E94890A9C
:10101000811109C00E94B20D992790939601809387
:10102000950187BDDBCFE0910F01F091100109958B
:101030001092980110929701D1CF80FF11C0559A5C
:1010400081FF11C0549A82FF11C03B9A83FF11C0E7
:101050003A9A84FF11C03D9A85FD11C03C980895CD
:10106000559881FDEFCF549882FDEFCF3B9883FDDB
:10107000EFCF3A9884FDEFCF3D9885FFEFCF3C9AB4
:1010800008951F920F920FB60F9211248F939F9382
:1010900010928100109285001092840081E080936C
:1010A0005001809394011092770110927C0093EA92
:1010B00090937A0080937B009F918F910F900FBE49
:1010C0000F901F9018951F920F920FB60F92112438
:1010D0002F933F934F935F936F937F938F939F9340
:1010E000AF93BF93CF93DF93EF93FF93209184004F
:1010F0003091850041E04093770180915001882331
:10110000A9F1109285001092840040938100109202
:10111000A80110925001809194018823A1F0809140
:101120007A0086FDFCCF80917800909179009093B1
:1011300072018093710181E080937C0093EA909327
:101140007A0080937B00FF91EF91DF91CF91BF9167
:10115000AF919F918F917F916F915F914F913F914F
:101160002F910F900FBE0F901F901895C9018758AF
:1011700091098437994008F052C026583109A4EFEC
:10118000B0E00E94330BAA27BB2788309105A10548
:10119000B10508F47BC04093500180919401811106
:1011A00052C080916E01E82FF0E0E656FE4F90911C
:1011B000A80190838F5F80936E018C3021F610928E
:1011C0008100109285001092840040939401109247
:1011D0007701C091A401D091A5018AE991E00E9414
:1011E0006D0AC817D90709F0AECF8091A30187FF18
:1011F00061C098E7980F933030F05398239810927D
:10120000B4001092B30090E0FC01E058F109EB301B
:10121000F10508F098CFE55CFF4F0C942D0B109270
:1012200081001092850010928400409350014093F9
:1012300094011092770110927C0083EA80937A00E7
:1012400040937B0080CF80917A0086FDFCCF809117
:101250007800909179009093700180936F011092C3
:101260007C0083EA80937A0081E080937B009091F8
:10127000A8019923D1F0109281001092850010925C
:10128000840080939401109277015DCF21E030E0DB
:10129000F90102C0EE0FFF1F8A95E2F7CF0190918E
:1012A000A801892B8093A8014ECF1092940110922F
:1012B0006E0149CFE0911301F09114016FE671E0E6
:1012C0008AE991E009953FCF80919A01823009F433
:1012D000DDC008F4BAC0833009F4C6C0843009F018
:1012E000B1C0809149019091A001833009F4E3C01D
:1012F00080919F0110924A0123E02093490180933D
:10130000AB019093AC0180914B01863009F41BCF67
:10131000539A239A1092B4001092B30086E08093FF
:101320004B0111CF80914B01863099F0539A239A4B
:101330001092B4001092B300559854983B983A9884
:101340003D983C981092490110924A0186E08093A2
:101350004B0181E090E09C0100909A0102C0220FB5
:10136000331F0A94E2F78091A9019091AA01822388
:101370009323892B09F086C010924901E4CE81E0C5
:1013800080934B01E0CEE0E0F0E0099580916E00A3
:101390008D7F80936E0016BCE0E0F0E70995109217
:1013A0004B01D1CE82E080934B01CDCE85E080937E
:1013B0004B01C9CE80914B01833009F4C4CE80919A
:1013C0004B01843009F4BFCE539A239A1092B40093
:1013D0001092B30083E080934B01B5CE80914B0116
:1013E000863009F0B0CE6091A90180EB90E00E94B8
:1013F0005E106091AA0181EB90E00E945E10609106
:10140000AD0185E090E00E945E106091990189E055
:1014100090E00E945E106091AB018CE090E00E9431
:101420005E106091AC0184E190E00E945E105398E0
:1014300023981092B4001092B30081E080934B0186
:1014400080919A0181115FCF7ECE882339F281305D
:10145000C9F780919B0190919C019093AA01809380
:10146000A901109249014FCF80914901823071F159
:1014700080919E0110924A0192E0909349018093DD
:10148000990141CF81E0809349015DCE809149016E
:10149000813051F080919D0110924A0191E090932A
:1014A00049018093AD012FCF80919D019091AD01B5
:1014B0008913F2CF28CF8091AC01981319CF809176
:1014C0009F012091AB01821315CF1DCF80919E010A
:1014D000909199018913CECF16CFFC01AC01465FE4
:1014E0005F4F8FEF9FEF21918227082E8295807F9B
:1014F0008025092E982F82958F700826869598272B
:101500008927880F880F880F8025E417F50759F77A
:1015100008950FB6F894A4B120916D012A2B24B937
:1015200021E030916D01203029F0000025B1232BFE
:1015300025B904C000000000000000C00000000049
:101540000000309525B1232325B92EEA2A95F1F71D
:101550002BEE30B735FF0AC0A4B930916D0130953C
:1015600025B1232325B90FBE80E0089500002A95F8
:1015700081F721E030916D01203029F0000025B184
:10158000232B25B904C000000000000000C00000AB
:1015900000000000309525B1232325B9000024E583
:1015A0002A95F1F7FC018CE0619170E0660F771FDE
:1015B000616072609AE041E050E09A01262337238F
:1015C000232B30916D01203029F0000025B1232B11
:1015D00025B904C000000000000000C000000000A9
:1015E0000000309525B1232325B9000021E52A9577
:1015F000F1F7440F551F9A9501F78A95A9F620B780
:10160000206120BFA4B930916D01309525B123230D
:1016100025B90FBE81E008950E949D010E941B0123
:101620006EE970E08AE790E00E94990280E090E025
:10163000089597FB072E16F4009407D077FD09D084
:101640000E94420B07FC05D03EF4909581959F4F78
:101650000895709561957F4F0895EE0FFF1F0590D7
:10166000F491E02D0994A29FB001B39FC001A39F04
:10167000700D811D1124911DB29F700D811D1124CB
:10168000911D0895AA1BBB1B51E107C0AA1FBB1FD8
:10169000A617B70710F0A61BB70B881F991F5A95FE
:1016A000A9F780959095BC01CD0108955058BB27AE
:1016B000AA270E946E0B0C94BF0C0E94B10C38F04C
:1016C0000E94B80C20F039F49F3F19F426F40C94D2
:1016D000AE0C0EF4E095E7FB0C94A80CE92F0E94E9
:1016E000D00C58F3BA17620773078407950720F0E8
:1016F00079F4A6F50C94F20C0EF4E0950B2EBA2FAB
:10170000A02D0B01B90190010C01CA01A001112407
:10171000FF27591B99F0593F50F4503E68F11A16B3
:10172000F040A22F232F342F4427585FF3CF469544
:1017300037952795A795F0405395C9F77EF41F1666
:10174000BA0B620B730B840BBAF09150A1F0FF0F30
:10175000BB1F661F771F881FC2F70EC0BA0F621F1C
:10176000731F841F48F4879577956795B795F7950C
:101770009E3F08F0B0CF9395880F08F09927EE0FA1
:101780009795879508950E94D70B0C94BF0C0E94E3
:10179000B80C58F00E94B10C40F029F45F3F29F0DA
:1017A0000C94A80C51110C94F30C0C94AE0C0E94E8
:1017B000D00C68F39923B1F3552391F3951B550B86
:1017C000BB27AA2762177307840738F09F5F5F4F14
:1017D000220F331F441FAA1FA9F335D00E2E3AF053
:1017E000E0E832D091505040E695001CCAF72BD06B
:1017F000FE2F29D0660F771F881FBB1F26173707BC
:101800004807AB07B0E809F0BB0B802DBF01FF27ED
:1018100093585F4F3AF09E3F510578F00C94A80C16
:101820000C94F30C5F3FE4F3983ED4F386957795E0
:101830006795B795F7959F5FC9F7880F911D9695A6
:10184000879597F90895E1E0660F771F881FBB1F02
:10185000621773078407BA0720F0621B730B840BAF
:10186000BA0BEE1F88F7E09508950E943C0C68942F
:10187000B1110C94F30C08950E94D80C88F09F5776
:1018800098F0B92F9927B751B0F0E1F0660F771FA4
:10189000881F991F1AF0BA95C9F714C0B13091F09A
:1018A0000E94F20CB1E008950C94F20C672F782F8F
:1018B0008827B85F39F0B93FCCF38695779567955F
:1018C000B395D9F73EF490958095709561957F4FCB
:1018D0008F4F9F4F0895E89409C097FB3EF4909571
:1018E0008095709561957F4F8F4F9F4F9923A9F0F9
:1018F000F92F96E9BB279395F69587957795679588
:10190000B795F111F8CFFAF4BB0F11F460FF1BC0CB
:101910006F5F7F4F8F4F9F4F16C0882311F096E95E
:1019200011C0772321F09EE8872F762F05C066230C
:1019300071F096E8862F70E060E02AF09A95660FC5
:10194000771F881FDAF7880F9695879597F908957E
:1019500097F99F6780E870E060E008959FEF80EC62
:10196000089500240A941616170618060906089505
:1019700000240A9412161306140605060895092E6B
:101980000394000C11F4882352F0BB0F40F4BF2BDA
:1019900011F460FF04C06F5F7F4F8F4F9F4F08951A
:1019A00057FD9058440F551F59F05F3F71F0479510
:1019B000880F97FB991F61F09F3F79F087950895F5
:1019C000121613061406551FF2CF4695F1DF08C014
:1019D000161617061806991FF1CF86957105610531
:1019E00008940895E894BB2766277727CB0197F9D9
:1019F00008950E940C0D0C94BF0C0E94B10C38F09D
:101A00000E94B80C20F0952311F00C94A80C0C94B3
:101A1000AE0C11240C94F30C0E94D00C70F3959F23
:101A2000C1F3950F50E0551F629FF001729FBB27D5
:101A3000F00DB11D639FAA27F00DB11DAA1F649F71
:101A40006627B00DA11D661F829F2227B00DA11D24
:101A5000621F739FB00DA11D621F839FA00D611DAA
:101A6000221F749F3327A00D611D231F849F600DCB
:101A7000211D822F762F6A2F11249F5750409AF0F4
:101A8000F1F088234AF0EE0FFF1FBB1F661F771F80
:101A9000881F91505040A9F79E3F510580F00C944B
:101AA000A80C0C94F30C5F3FE4F3983ED4F38695B6
:101AB00077956795B795F795E7959F5FC1F7FE2BEB
:101AC000880F911D9695879597F908958F929F920B
:101AD000AF92BF92CF92DF92EF92FF92CF93DF93BC
:101AE000EC01688179818A819B816115710581058D
:101AF000910521F464E279ED8BE597E02DE133EF78
:101B000041E050E00E946C1049015A019B01AC0178
:101B1000A7EAB1E40E948B106B017C01ACEEB4EF3C
:101B2000A50194010E949910DC01CB018C0D9D1D33
:101B3000AE1DBF1DB7FF03C00197A109B048888340
:101B40009983AA83BB839F77DF91CF91FF90EF901A
:101B5000DF90CF90BF90AF909F908F9008950E949C
:101B6000660D089585E191E00E94660D0895A0E05C
:101B7000B0E08093150190931601A0931701B093E4
:101B800018010895A0E0B0E0E8ECFDE00C94AE1080
:101B9000AE014B5F5F4FFA0161917191AF0180918E
:101BA000B0019091B1010E94D80DE2E00C94CA10EE
:101BB000ACE0B0E0EEEDFDE00C949E107C016B011A
:101BC0008A01FC0117821682838181FFBDC1CE018B
:101BD00001964C01F7019381F60193FD859193FFE6
:101BE00081916F01882309F4ABC1853239F493FDEB
:101BF000859193FF81916F01853229F4B70190E0BF
:101C00000E94C00FE7CF512C312C20E02032A0F4ED
:101C10008B3269F030F4803259F0833269F42061FC
:101C20002CC08D3239F0803339F4216026C0226017
:101C3000246023C0286021C027FD27C030ED380F65
:101C40003A3078F426FF06C0FAE05F9E300D11248A
:101C5000532E13C08AE0389E300D1124332E20629B
:101C60000CC08E3221F426FD6BC1206406C08C3678
:101C700011F4206802C0883641F4F60193FD859185
:101C800093FF81916F018111C1CF982F9F7D955452
:101C9000933028F40C5F1F4FFFE3F9830DC08336A8
:101CA00031F0833771F0833509F05BC022C0F80151
:101CB000808189830E5F1F4F44244394512C54012B
:101CC00015C03801F2E06F0E711CF801A080B180E0
:101CD00026FF03C0652D70E002C06FEF7FEFC501E6
:101CE0002C870E94B50F2C0183012C852F77222E83
:101CF00017C03801F2E06F0E711CF801A080B180AE
:101D000026FF03C0652D70E002C06FEF7FEFC501B5
:101D10002C870E94AA0F2C012C852068222E83017B
:101D200023FC1BC0832D90E048165906B0F4B70180
:101D300080E290E00E94C00F3A94F4CFF50127FCB6
:101D4000859127FE81915F01B70190E00E94C00F4D
:101D500031103A94F1E04F1A51084114510471F7CF
:101D6000E5C0843611F0893639F5F80127FF07C040
:101D700060817181828193810C5F1F4F08C06081F7
:101D80007181072E000C880B990B0E5F1F4F2F7669
:101D9000722E97FF09C090958095709561957F4F41
:101DA0008F4F9F4F2068722E2AE030E0A4010E94DE
:101DB000F80FA82EA81844C0853729F42F7EB22E1C
:101DC0002AE030E025C0F22FF97FBF2E8F36C1F018
:101DD00018F4883579F0B4C0803719F0883721F0CD
:101DE000AFC02F2F2061B22EB4FE0DC08B2D8460AA
:101DF000B82E09C024FF0AC09F2F9660B92E06C0D6
:101E000028E030E005C020E130E002C020E132E00F
:101E1000F801B7FE07C060817181828193810C5FF8
:101E20001F4F06C06081718180E090E00E5F1F4F00
:101E3000A4010E94F80FA82EA818FB2DFF777F2E73
:101E400076FE0BC0372D3E7FA51450F474FE0AC0F9
:101E500072FC08C0372D3E7E05C0BA2C372D03C05A
:101E6000BA2C01C0B52C34FF0DC0FE01EA0DF11DE6
:101E70008081803311F4397E09C032FF06C0B394EB
:101E8000B39404C0832F867809F0B39433FD13C054
:101E900030FF06C05A2CB31418F4530C5B18B32C43
:101EA000B31468F4B70180E290E03C870E94C00F51
:101EB000B3943C85F5CFB31410F43B1801C0312C1A
:101EC00034FF12C0B70180E390E03C870E94C00F4E
:101ED0003C8532FF17C031FD03C088E790E002C0A7
:101EE00088E590E0B7010CC0832F867859F031FF68
:101EF00002C08BE201C080E237FD8DE2B70190E0C5
:101F00000E94C00FA51438F4B70180E390E00E944E
:101F1000C00F5A94F7CFAA94F401EA0DF11D808105
:101F2000B70190E00E94C00FA110F5CF332009F453
:101F300051CEB70180E290E00E94C00F3A94F6CFF4
:101F4000F7018681978102C08FEF9FEF2C96E2E127
:101F50000C94BA10FC010590615070400110D8F744
:101F6000809590958E0F9F1F0895FC0161507040E1
:101F700001900110D8F7809590958E0F9F1F0895BE
:101F80000F931F93CF93DF93FB01238121FD03C0A8
:101F90008FEF9FEF28C022FF16C046815781248112
:101FA00035814217530744F4A081B1819D012F5F11
:101FB0003F4F318320838C93268137812F5F3F4FA2
:101FC0003783268310C0EB01092F182F0084F18579
:101FD000E02D0995892BE1F68E819F8101969F83E3
:101FE0008E83812F902FDF91CF911F910F910895B4
:101FF000FA01AA27283051F1203181F1E8946F933A
:102000006E7F6E5F7F4F8F4F9F4FAF4FB1E03ED0DF
:10201000B4E03CD0670F781F891F9A1FA11D680F7D
:10202000791F8A1F911DA11D6A0F711D811D911DB0
:10203000A11D20D009F468943F912AE0269F112425
:102040003019305D3193DEF6CF010895462F477089
:10205000405D4193B3E00FD0C9F7F6CF462F4F70E4
:10206000405D4A3318F0495D31FD4052419302D042
:10207000A9F7EACFB4E0A6959795879577956795E8
:10208000BA95C9F700976105710508959B01AC01E8
:102090000A2E06945795479537952795BA95C9F70F
:1020A000620F731F841F951FA01D0895F999FECF1D
:1020B00092BD81BDF89A992780B50895262FF99988
:1020C000FECF1FBA92BD81BD20BD0FB6F894FA9A1B
:1020D000F99A0FBE01960895052E97FB1EF4009401
:1020E0000E94831057FD07D00E94D51007FC03D033
:1020F0004EF40C94831050954095309521953F4FA8
:102100004F4F5F4F089590958095709561957F4FE3
:102110008F4F9F4F08950E94330BA59F900DB49F42
:10212000900DA49F800D911D11240895B7FF0C946C
:102130008B100E948B10821B930B08952F923F925D
:102140004F925F926F927F928F929F92AF92BF92C7
:10215000CF92DF92EF92FF920F931F93CF93DF9373
:10216000CDB7DEB7CA1BDB0B0FB6F894DEBF0FBED0
:10217000CDBF09942A88398848885F846E847D841D
:102180008C849B84AA84B984C884DF80EE80FD801F
:102190000C811B81AA81B981CE0FD11D0FB6F89495
:1021A000DEBF0FBECDBFED010895A1E21A2EAA1B1E
:1021B000BB1BFD010DC0AA1FBB1FEE1FFF1FA217F7
:1021C000B307E407F50720F0A21BB30BE40BF50BF4
:1021D000661F771F881F991F1A9469F7609570957D
:1021E000809590959B01AC01BD01CF010895F894B5
:0221F000FFCF1F
:1021F2000000000200000000710000000000AA9C24
:102202000199019801010000006C696768742069F6
:102212006E74656E736974793A2025640A006C697C
:102222006768742073616D706C65643A2025640A76
:022232000000AA
:00000001FF
