:100000000C9446000C946F000C946F000C946F00DD
:100010000C946F000C946F000C9402020C946F000F
:100020000C946F000C946F000C946F000C94C1073B
:100030000C946F000C946F000C9421070C946F00CB
:100040000C946F000C946F000C946F000C946F0074
:100050000C946F000C946F000C946F000C94E307E9
:100060000C946F000C946F006802E4023C023302AF
:100070003902C602BB0246092308230843094F0977
:100080003F09560952095A091209E40811241FBEF2
:10009000CFEFD8E0DEBFCDBF14BE0FB6F894A89561
:1000A00080916000886180936000109260000FBEB4
:1000B00011E0A0E0B1E0E4E6FBE102C005900D92A2
:1000C000AC30B107D9F721E0ACE0B1E001C01D923E
:1000D000A637B207E1F70E948C0A0C94B00D0C947D
:1000E0000000089521E030E03093130120931201C5
:1000F000FC01808190E090930F0180930E010895A0
:10010000CF93DF93C0911201D0911301C130D1057B
:1001100019F0DF91CF9108951092130110921201FE
:1001200080910E0190910F01009771F0813091053F
:10013000C1F1029701F184E690E00E94710380E032
:10014000DF91CF910C949D0781E00E949D078091E3
:100150000C0190910D01029771F382E090E0909371
:100160000D0180930C010E94810360E08091750174
:100170000E947C03E0CF84E00E949D0780910C01E7
:1001800090910D010197B9F2D0930D01C0930C012C
:100190000E94810360917401809173010E947C032D
:1001A000CACF80E10E949D0780910C0190910D01C2
:1001B000039709F283E090E090930D0180930C0186
:1001C0000E9481036091610180E00E947C03B3CFB3
:1001D00020910C0130910D012817390771F090938F
:1001E0000D0180930C01009781F08130910589F019
:1001F00082309105B1F0039709F008950E948103C0
:100200006091610180E00C947C0360E080E00C94DC
:100210007C030E94810360917401809173010C94AE
:100220007C030E94810360E0809175010C947C0343
:10023000089580E090E008950895DF92EF92FF9294
:100240000F931F93CF93DF93F89414B817B81AB88D
:1002500015B818B81BB8529A5A9A14BC85E085BDD7
:100260008FEF87BD82E080936E0010928000109225
:1002700081002FE83BE03093890020938800809331
:100280006F005398239891EA9093B0008093B10047
:100290001092B4001092B3008BE080BF83E0809393
:1002A0007F0086E080937C0083E880937A008091D1
:1002B0007A00806480937A0080917A0086FDFCCF7A
:1002C00010927C0083EA80937A0081E080937B0027
:1002D00081E090E00E94460D8F3F11F08093660010
:1002E00010923F01C1E0C0931801C0935C011092CD
:1002F00036011092700180E990E00E94460D8093D3
:10030000350180913501887311F0C0933501109249
:10031000600110925F018FEF90E090935E018093F7
:100320005D0110923B0110923C0110923D01109230
:100330003E0181E08093170182E49FE090936F017A
:1003400080936E0180EB90E00E94460DC82F81EBF8
:1003500090E00E94460D2C2F30E0382B3093720134
:100360002093710185E090E00E94460D8093750115
:1003700089E090E00E94460D809361018CE090E05E
:100380000E94460D8093730184E190E00E94460D27
:100390008093740150E4E52E51E0F52E09E111E05F
:1003A000C0E2D0E0CE010E94460DD82ECE010196CB
:1003B0000E94460D2D2D30E0322F2227282BF701E9
:1003C000219331937F01CE01C0960E94460DD82E15
:1003D000CE01C1960E94460D2D2D30E0322F2227EE
:1003E000282BF801219331938F012296CC33D1052C
:1003F000C9F67894DF91CF911F910F91FF90EF9004
:10040000DF9008951F920F920FB60F9211248F93D1
:100410000FB6F894A8958091600088618093600081
:10042000109260000FBE8F910F900FBE0F901F9023
:1004300018953C01EB0110E099249A9484E0C82EB1
:1004400096E0A92E23E8B22E38E1D32E49E2E42E1D
:1004500090911701E92FF0E0E730F105C8F7EC5C67
:10046000FF4F0C94B10A112309F4FCC0C09217018C
:1004700011E0FE010995ECCF80913F018111EBC0A5
:10048000F894A0927C00B0927A0080917A00806407
:1004900080937A0090917A0096FDFCCF809178004D
:1004A0009091790078948B3AE2E09E070CF0EDC0D1
:1004B0008938F2E09F070CF0EFC0873692400CF4C9
:1004C000CAC0559A549A3B9A3A9A3D983C98C0CFE4
:1004D000F89480B7877F80BF80917A008F77809370
:1004E0007A0014B817B81AB815B818B81BB80FB6F0
:1004F000F894A895D09260000FBEE09260008091C1
:10050000600080648093600093B7917F946093BF94
:10051000F89483B7816083BF7894889583B78E7F82
:1005200083BF789410923F01529A5A9A80917A0030
:10053000806880937A0087E592E00197F1F700C028
:10054000000080B7886180BF559A549A3B9A3A9AC6
:100550003D9A3C9AEFE1FEE43197F1F700C00000CC
:1005600080913F01811181C0559854983B983A98E9
:100570003D983C986DCF80911501811141C010923A
:10058000B3001092B4001092160162CF4899ECCFDC
:10059000559A54983B983A983D983C988FEC97E040
:1005A0000197F1F700C00000559854983B983A988D
:1005B0003D983C989FEFE1EEF4E09150E040F04030
:1005C000E1F700C0000044CF559854983B9A3A9AFE
:1005D0003D983C98EFECF7E03197F1F700C0000050
:1005E000559854983B983A983D983C98FFEF21EEE7
:1005F00084E0F15020408040E1F700C0000028CFA7
:100600009091150180911601981709F421CF8091DE
:1006100015018093160180911501813009F450C0B5
:10062000809115011092B3009092B4008230D9F1FC
:100630009092B3009092B4008FE295E70197F1F7A2
:1006400000C0000080917401909173019093B300F9
:100650008093B400FDCE559A549A3B983A983D98B1
:100660003C98F6CEF301099501CF559A549A3B98E0
:100670003A983D983C98FFEF20E782E0F150204007
:100680008040E1F700C000006FCF559854983B9A26
:100690003A9A3D983C98DCCE559854983B983A98B5
:1006A0003D9A3C9AD5CEEFE2F5E73197F1F700C0DD
:1006B0000000809161011092B3008093B400C8CE15
:1006C0009092B3001092B4008FE295E70197F1F792
:1006D00000C00000809175018093B3001092B400B7
:1006E000B7CE07C0EFECF7E03197F1F700C000009C
:1006F00001970097B9F708958093B3006093B40011
:1007000008958FEF8093B3008093B4008FE090E062
:10071000EFECF7E03197F1F700C000000197C1F767
:10072000089580913F0181111EC0F89487E0809365
:100730007C0083E880937A0080917A0080648093C3
:100740007A0080917A0086FDFCCF809178009091AC
:10075000790010927C0023EA20937A0021E0209314
:100760007B00789408958FEF9FEF089580913F016B
:1007700081111EC0F89488EC80937C0087E88093F8
:100780007A0080917A00806480937A0080917A0068
:1007900086FDFCCF809178009091790010927C00CA
:1007A00023EA20937A0021E020937B007894089537
:1007B0008FEF9FEF08950F931F93CF93DF93E0E0A8
:1007C000F0E080E003EA11E0D6E0C3E8A1E0B0E0A9
:1007D00060E870E0F894D0937C00C0937A00909128
:1007E0007A00906490937A0090917A0096FDFCCF05
:1007F0002091780030917900217090917A00906476
:1008000090937A0090917A0096FDFCCF4091780009
:100810005091790010927C0000937A0010937B0035
:1008200078944170241303C06150710999F6222312
:1008300039F09D010E2E01C0220F0A94EAF7822B97
:100840003196E830F10509F0C3CFDF91CF911F91C8
:100850000F91089580910001982F990F990F990F8A
:1008600089279091140121E0290F20931401282F4A
:1008700022952695277082279695969589278093AD
:100880000001089580930001089580913F01811136
:1008900016C0F89486E080937C0083E880937A0009
:1008A00080917A00806480937A0080917A0086FD3E
:1008B000FCCF8091780090917900789408958FEF23
:1008C0009FEF08952F923F924F925F926F927F9287
:1008D0008F929F92AF92BF92CF92DF92EF92FF9250
:1008E0000F931F93CF93DF9300D000D000D0CDB7EC
:1008F000DEB71C01DC0112960D90BC91A02DBE83C9
:10090000AD83A438E3E0BE070CF0C9C080911901A3
:1009100090911A018A179B0708F437C100911B01B7
:1009200010911C010A171B0708F42FC200911D012A
:1009300010911E010A171B0708F42FC200911F0116
:10094000109120010A171B0708F42FC20091210102
:10095000109122010A171B0708F42FC200912301EE
:10096000109124010A171B0708F4EFC1009125011B
:10097000109126010A171B0708F427C200912701CE
:10098000109128010A171B0708F427C200912901BA
:1009900010912A010A171B0708F427C200912B01A6
:1009A00010912C010A171B0708F427C200912D0192
:1009B00010912E010A171B0708F427C200912F017E
:1009C000109130010A171B0708F423C2009131016E
:1009D000109132010A171B0708F423C2009133015A
:1009E000109134010A171B0708F423C280E090E03D
:1009F000A0EDB0E489839A83AB83BC834CE0E42E02
:100A0000F12CF701EE0FFF1FE75EFE4F8081918111
:100A1000B801681B790B80E090E00E94EF0B9B010E
:100A2000AC010E94DB0A6B017C01AD81BE81BD017E
:100A3000BB0F880B990B0E94F10B4B015C01B801B5
:100A400080E090E00E94EF0B2B013C0129813A816C
:100A50004B815C81C701B6010E947D0C9B01AC01FA
:100A6000C301B2010E94DA0A9B01AC01C501B401C5
:100A70000E94DA0A20E030E040E251E40E947D0C5E
:100A80000E94B90B8B01C701B6010E94B90BAB01E3
:100A9000BC01C801BA010E949D0A162F77C0DC0173
:100AA000CD90DC9080914001909141018C159D0585
:100AB00008F48CC01FEFE0904201F0904301EC1469
:100AC000FD0408F45EC1E0904401F0904501EC148F
:100AD000FD0408F45EC1E0904601F0904701EC147B
:100AE000FD0408F45EC1E0904801F0904901EC1467
:100AF000FD0408F45EC1E0904A01F0904B01EC1453
:100B0000FD0408F4C3C0E0904C01F0904D01EC14DA
:100B1000FD0408F456C1E0904E01F0904F01EC1432
:100B2000FD0408F456C1E0905001F0905101EC141E
:100B3000FD0408F456C1E0905201F0905301EC140A
:100B4000FD0408F456C1E0905401F0905501EC14F6
:100B5000FD0408F456C1E0905601F0905701EC14E2
:100B6000FD0408F45AC1E0905801F0905901EC14CA
:100B7000FD0408F45AC1E0905A01F0905B01EC14B6
:100B8000FD0408F45AC10AE531C010E0ED81FE8190
:100B9000ED3BF240FCF481E2810F26960FB6F8940B
:100BA000DEBF0FBECDBFDF91CF911F910F91FF90A0
:100BB000EF90DF90CF90BF90AF909F908F907F90FD
:100BC0006F905F904F903F902F90089500E081E2EA
:100BD000800FE3CFD101CD90DC90809140019091C6
:100BE00041018C159D0508F066CF00E01F3F79F3A9
:100BF000ED81FE81BF01FF0F880B990B0E94F10B65
:100C00006B017C01612F70E080E090E00E94EF0BAF
:100C10004B015C01A701960160E070E081E694E47D
:100C20000E94DA0A9B01AC01C501B4010E947D0C4F
:100C30004B015C01602F70E080E090E00E94EF0BC0
:100C40002B013C0120E030E04FE254E4C701B60143
:100C50000E94DA0A9B01AC01C301B2010E947D0C23
:100C60009B01AC01C501B4010E94DB0A20E030E029
:100C700048E453E40E94470B20E030E044E052E4B3
:100C80000E94DB0A0E94C00B862F87CF05E085E01B
:100C900090E0880F991FFC01E25CFE4F80819181FA
:100CA000B701681B790B80E090E00E94EF0B9B017D
:100CB000AC010E94DB0A4B015C01B601DD0C880B24
:100CC000990B0E94F10B2B013C01B70180E090E0F1
:100CD0000E94EF0B6B017C01602F70E080E090E0E0
:100CE0000E94EF0B20E030E040E05FE30E947D0CCB
:100CF00020E030E0A9010E94DB0AA50194010E94D6
:100D00007D0C9B01AC01C701B6010E94DA0A9B0170
:100D1000AC01C301B2010E94DA0A20E030E040E2F7
:100D200051E40E947D0C0E94B90B7B01C501B40106
:100D30000E94B90BAB01BC01C701BA010E949D0A18
:100D4000062F6F3F09F052CF26CF65E085E090E097
:100D50007C01F1E0EF1AF10870E080E090E00E9481
:100D6000EF0B20E030E040E05FE30E947D0C20E0EC
:100D700030E0A9010E94DB0A69837A838B839C831C
:100D800040CE01E081E090E084CF61E081E090E03E
:100D9000DFCF02E082E090E07CCF62E082E090E092
:100DA000D7CF03E083E090E074CF63E083E090E08E
:100DB000CFCF04E084E090E06CCF64E084E090E08A
:100DC000C7CF06E086E090E064CF66E086E090E082
:100DD000BFCF07E087E090E05CCF67E087E090E07E
:100DE000B7CF08E088E090E054CF68E088E090E07A
:100DF000AFCF09E089E090E04CCF69E089E090E076
:100E0000A7CF0AE08AE090E044CF6AE08AE090E071
:100E10009FCF6BE08BE090E09BCF0BE08BE090E00E
:100E200038CF6CE08CE090E093CF0CE08CE090E069
:100E300030CF6DE08DE090E08BCF0DE08DE090E065
:100E400028CF1F920F920FB60F9211242F933F932A
:100E50004F935F936F937F938F939F93AF93BF93C2
:100E6000EF93FF9320915F013091600180915D01CC
:100E700090915E01820F931F9093600180935F01B8
:100E80008FEF90E090935E0180935D018FEF87BDBF
:100E900080913B0190913C01A0913D01B0913E01B8
:100EA0000196A11DB11D80933B0190933C01A0933D
:100EB0003D01B0933E0180913F0181110FC08091AF
:100EC0006E0190916F0120915F0130916001821756
:100ED000930720F480911701843089F0FF91EF91FE
:100EE000BF91AF919F918F917F916F915F914F9142
:100EF0003F912F910F900FBE0F901F901895E0918A
:100F00000301F09104010995009741F30E94090A39
:100F1000811109C00E94360D992790935E0180933C
:100F20005D0187BDDBCFE0910101F09102010995E0
:100F30001092600110925F01D1CF80FF11C0559ACD
:100F400081FF11C0549A82FF11C03B9A83FF11C0E8
:100F50003A9A84FF11C03D9A85FD11C03C980895CE
:100F6000559881FDEFCF549882FDEFCF3B9883FDDC
:100F7000EFCF3A9884FDEFCF3D9885FFEFCF3C9AB5
:100F800008951F920F920FB60F9211248F939F9383
:100F900010928100109285001092840081E080936D
:100FA000180180935C0110923F0110927C0093EA3B
:100FB00090937A0080937B009F918F910F900FBE4A
:100FC0000F901F9018951F920F920FB60F92112439
:100FD0002F933F934F935F936F937F938F939F9341
:100FE000AF93BF93CF93DF93EF93FF932091840050
:100FF0003091850041E040933F01809118018823A2
:10100000A9F1109285001092840040938100109203
:1010100070011092180180915C018823A1F08091E9
:101020007A0086FDFCCF80917800909179009093B2
:101030003A018093390181E080937C0093EA909398
:101040007A0080937B00FF91EF91DF91CF91BF9168
:10105000AF919F918F917F916F915F914F913F9150
:101060002F910F900FBE0F901F901895C9018758B0
:1010700091098437994008F052C026583109A4EFED
:10108000B0E00E94B70AAA27BB2788309105A105C6
:10109000B10508F47BC04093180180915C01811177
:1010A00052C080913601E82FF0E0EE59FE4F90914A
:1010B000700190838F5F809336018C3021F61092FF
:1010C0008100109285001092840040935C01109280
:1010D0003F01C0916C01D0916D0182E691E00E94C8
:1010E000ED09C817D90709F0AECF80916B0187FFD2
:1010F00061C098E7980F933030F05398239810927E
:10110000B4001092B30090E0FC01E058F109EB301C
:10111000F10508F098CFE55CFF4F0C94B10A1092EE
:101120008100109285001092840040931801409332
:101130005C0110923F0110927C0083EA80937A0058
:1011400040937B0080CF80917A0086FDFCCF809118
:101150007800909179009093380180933701109234
:101160007C0083EA80937A0081E080937B009091F9
:1011700070019923D1F01092810010928500109295
:10118000840080935C0110923F015DCF21E030E04C
:10119000F90102C0EE0FFF1F8A95E2F7CF0190918F
:1011A0007001892B809370014ECF10925C011092D8
:1011B000360149CFE0910501F091060167E371E046
:1011C00082E691E009953FCF80916201823009F477
:1011D000DDC008F4BAC0833009F4C6C0843009F019
:1011E000B1C08091150190916801833009F4E3C08A
:1011F000809167011092160123E0209315018093DE
:1012000073019093740180911701863009F41BCF0C
:10121000539A239A1092B4001092B30086E0809300
:10122000170111CF80911701863099F0539A239AB4
:101230001092B4001092B300559854983B983A9885
:101240003D983C98109215011092160186E080930B
:10125000170181E090E09C010090620102C0220F22
:10126000331F0A94E2F780917101909172018223F9
:101270009323892B09F086C010921501E4CE81E0FA
:1012800080931701E0CEE0E0F0E0099580916E00D8
:101290008D7F80936E0016BCE0E0F0E70995109218
:1012A0001701D1CE82E080931701CDCE85E08093E7
:1012B0001701C9CE80911701833009F4C4CE809103
:1012C0001701843009F4BFCE539A239A1092B400C8
:1012D0001092B30083E080931701B5CE809117017F
:1012E000863009F0B0CE6091710180EB90E00E94F1
:1012F0004E0D6091720181EB90E00E944E0D609165
:10130000750185E090E00E944E0D6091610189E0D9
:1013100090E00E944E0D609173018CE090E00E947D
:101320004E0D6091740184E190E00E944E0D53983F
:1013300023981092B4001092B30081E080931701BB
:101340008091620181115FCF7ECE882339F2813096
:10135000C9F7809163019091640190937201809329
:101360007101109215014FCF80911501823071F1FA
:10137000809166011092160192E09093150180937E
:10138000610141CF81E0809315015DCE809115010F
:10139000813051F0809165011092160191E0909397
:1013A0001501809375012FCF809165019091750192
:1013B0008913F2CF28CF80917401981319CF8091AF
:1013C000670120917301821315CF1DCF80916601B3
:1013D000909161018913CECF16CFFC01AC01465F1D
:1013E0005F4F8FEF9FEF21918227082E8295807F9C
:1013F0008025092E982F82958F700826869598272C
:101400008927880F880F880F8025E417F50759F77B
:1014100008950FB6F894A4B1209135012A2B24B970
:1014200021E030913501203029F0000025B1232B37
:1014300025B904C000000000000000C0000000004A
:101440000000309525B1232325B92EEA2A95F1F71E
:101450002BEE30B735FF0AC0A4B930913501309575
:1014600025B1232325B90FBE80E0089500002A95F9
:1014700081F721E030913501203029F0000025B1BD
:10148000232B25B904C000000000000000C00000AC
:1014900000000000309525B1232325B9000024E584
:1014A0002A95F1F7FC018CE0619170E0660F771FDF
:1014B000616072609AE041E050E09A012623372390
:1014C000232B30913501203029F0000025B1232B4A
:1014D00025B904C000000000000000C000000000AA
:1014E0000000309525B1232325B9000021E52A9578
:1014F000F1F7440F551F9A9501F78A95A9F620B781
:10150000206120BFA4B930913501309525B1232346
:1015100025B90FBE81E008950E941D0182E790E089
:10152000909306018093050160E870E081E790E008
:101530000E94190280E090E0089597FB072E16F4B0
:10154000009407D077FD09D00E94C60A07FC05D099
:101550003EF4909581959F4F0895709561957F4FCA
:101560000895EE0FFF1F0590F491E02D0994A29FBE
:10157000B001B39FC001A39F700D811D1124911D67
:10158000B29F700D811D1124911D0895AA1BBB1BD4
:1015900051E107C0AA1FBB1FA617B70710F0A61B73
:1015A000B70B881F991F5A95A9F780959095BC0194
:1015B000CD0108955058BB27AA270E94F20A0C9427
:1015C000430C0E94350C38F00E943C0C20F039F49A
:1015D0009F3F19F426F40C94320C0EF4E095E7FBCF
:1015E0000C942C0CE92F0E94540C58F3BA17620784
:1015F00073078407950720F079F4A6F50C94760C10
:101600000EF4E0950B2EBA2FA02D0B01B90190011D
:101610000C01CA01A0011124FF27591B99F0593F61
:1016200050F4503E68F11A16F040A22F232F342FA9
:101630004427585FF3CF469537952795A795F040F7
:101640005395C9F77EF41F16BA0B620B730B840B0C
:10165000BAF09150A1F0FF0FBB1F661F771F881FC4
:10166000C2F70EC0BA0F621F731F841F48F487951C
:1016700077956795B795F7959E3F08F0B0CF93950E
:10168000880F08F09927EE0F9795879508950E9487
:101690005B0B0C94430C0E943C0C58F00E94350CE0
:1016A00040F029F45F3F29F00C942C0C51110C945C
:1016B000770C0C94320C0E94540C68F39923B1F30C
:1016C000552391F3951B550BBB27AA276217730768
:1016D000840738F09F5F5F4F220F331F441FAA1FFC
:1016E000A9F335D00E2E3AF0E0E832D091505040B8
:1016F000E695001CCAF72BD0FE2F29D0660F771F66
:10170000881FBB1F261737074807AB07B0E809F04B
:10171000BB0B802DBF01FF2793585F4F3AF09E3FD0
:10172000510578F00C942C0C0C94770C5F3FE4F38B
:10173000983ED4F3869577956795B795F7959F5F13
:10174000C9F7880F911D9695879597F90895E1E05F
:10175000660F771F881FBB1F621773078407BA07BE
:1017600020F0621B730B840BBA0BEE1F88F7E09519
:1017700008950E94C00B6894B1110C94770C0895E1
:101780000E945C0C88F09F5798F0B92F9927B751A9
:10179000B0F0E1F0660F771F881F991F1AF0BA9515
:1017A000C9F714C0B13091F00E94760CB1E00895F1
:1017B0000C94760C672F782F8827B85F39F0B93FE3
:1017C000CCF3869577956795B395D9F73EF49095C8
:1017D0008095709561957F4F8F4F9F4F0895E89446
:1017E00009C097FB3EF490958095709561957F4F69
:1017F0008F4F9F4F9923A9F0F92F96E9BB27939517
:10180000F695879577956795B795F111F8CFFAF426
:10181000BB0F11F460FF1BC06F5F7F4F8F4F9F4F57
:1018200016C0882311F096E911C0772321F09EE8B5
:10183000872F762F05C0662371F096E8862F70E01B
:1018400060E02AF09A95660F771F881FDAF7880FF5
:101850009695879597F9089597F99F6780E870E0C6
:1018600060E008959FEF80EC089500240A94161616
:10187000170618060906089500240A94121613067E
:10188000140605060895092E0394000C11F488230C
:1018900052F0BB0F40F4BF2B11F460FF04C06F5F28
:1018A0007F4F8F4F9F4F089557FD9058440F551FFE
:1018B00059F05F3F71F04795880F97FB991F61F0D2
:1018C0009F3F79F087950895121613061406551F49
:1018D000F2CF4695F1DF08C0161617061806991FB5
:1018E000F1CF86957105610508940895E894BB27AA
:1018F00066277727CB0197F908950E94900C0C94E6
:10190000430C0E94350C38F00E943C0C20F09523CB
:1019100011F00C942C0C0C94320C11240C94770CB8
:101920000E94540C70F3959FC1F3950F50E0551F22
:10193000629FF001729FBB27F00DB11D639FAA2724
:10194000F00DB11DAA1F649F6627B00DA11D661F73
:10195000829F2227B00DA11D621F739FB00DA11D94
:10196000621F839FA00D611D221F749F3327A00D4E
:10197000611D231F849F600D211D822F762F6A2FEA
:1019800011249F5750409AF0F1F088234AF0EE0F4F
:10199000FF1FBB1F661F771F881F91505040A9F77C
:1019A0009E3F510580F00C942C0C0C94770C5F3FFB
:1019B000E4F3983ED4F3869577956795B795F795B8
:1019C000E7959F5FC1F7FE2B880F911D9695879530
:1019D00097F908958F929F92AF92BF92CF92DF9224
:1019E000EF92FF92CF93DF93EC01688179818A8136
:1019F0009B81611571058105910521F464E279ED02
:101A00008BE597E02DE133EF41E050E00E945C0D63
:101A100049015A019B01AC01A7EAB1E40E947B0D88
:101A20006B017C01ACEEB4EFA50194010E94890D1D
:101A3000DC01CB018C0D9D1DAE1DBF1DB7FF03C08A
:101A40000197A109B04888839983AA83BB839F77B4
:101A5000DF91CF91FF90EF90DF90CF90BF90AF904C
:101A60009F908F9008950E94EA0C089587E091E07E
:101A70000E94EA0C0895A0E0B0E0809307019093E3
:101A80000801A0930901B0930A010895F999FECFC6
:101A900092BD81BDF89A992780B50895262FF999AE
:101AA000FECF1FBA92BD81BD20BD0FB6F894FA9A41
:101AB000F99A0FBE01960895052E97FB1EF4009427
:101AC0000E94730D57FD07D00E948E0D07FC03D0B6
:101AD0004EF40C94730D50954095309521953F4FE1
:101AE0004F4F5F4F089590958095709561957F4F0A
:101AF0008F4F9F4F08950E94B70AA59F900DB49FE6
:101B0000900DA49F800D911D11240895B7FF0C9492
:101B10007B0D0E947B0D821B930B0895A1E21A2E70
:101B2000AA1BBB1BFD010DC0AA1FBB1FEE1FFF1F81
:101B3000A217B307E407F50720F0A21BB30BE40BD1
:101B4000F50B661F771F881F991F1A9469F7609518
:101B50007095809590959B01AC01BD01CF010895D2
:041B6000F894FFCF27
:0C1B6400AA1C011901180101000000007A
:00000001FF
