:100000000C9446000C946F000C946F000C946F00DD
:100010000C946F000C946F000C943B020C946F00D6
:100020000C946F000C946F000C946F000C94FA0702
:100030000C946F000C946F000C945A070C946F0092
:100040000C946F000C946F000C946F000C946F0074
:100050000C946F000C946F000C946F000C941C08AF
:100060000C946F000C946F00A1021D0375026C02CA
:100070007202FF02F4027F095C085C087C098809AF
:1000800078098F098B0993094B091D0911241FBE9B
:10009000CFEFD8E0DEBFCDBF14BE0FB6F894A89561
:1000A00080916000886180936000109260000FBEB4
:1000B00011E0A0E0B1E0E2EEFBE102C005900D929C
:1000C000AC30B107D9F721E0ACE0B1E001C01D923E
:1000D000A238B207E1F70E94C50A0C94EF0D0C9408
:1000E000000081E090E09093110180931001089549
:1000F00088E191E00895CF93DF93C8E1D1E01986BC
:10010000CE010E94260A9B878A87DF91CF910895AE
:10011000CF93DF934091470150914801609149018D
:1001200070914A0180910C0190910D01A0910E01F6
:10013000B0910F018096A11DB11D84179507A607E8
:10014000B707F0F58091470190914801A0914901CE
:10015000B0914A0180930C0190930D01A0930E0180
:10016000B0930F01C0911001D0911101C130D105A0
:1001700099F085E10E94D6078091120190911301B8
:10018000892BF1F0109213011092120160E080E0CF
:10019000DF91CF910C94B5031092110110921001D0
:1001A0000E94140483708230E8F0823091F180E183
:1001B0000E94D6078091120190911301039719F4C0
:1001C000DF91CF91089583E090E0909313018093A5
:1001D00012010E94BA0360916D0180E0DF91CF911E
:1001E0000C94B50384E00E94D6078091120190918F
:1001F0001301019729F3D0931301C09312010E94B8
:10020000BA036091800180917F01DF91CF910C94BE
:10021000B50381E00E94D6078091120190911301ED
:10022000029771F282E090E09093130180931201A3
:100230000E94BA0360E080918101DF91CF910C941C
:10024000B50320911201309113012817390771F07D
:100250009093130180931201009781F081309105F2
:1002600089F082309105B1F0039709F008950E945A
:10027000BA0360916D0180E00C94B50360E080E00A
:100280000C94B5030E94BA036091800180917F01B4
:100290000C94B5030E94BA0360E0809181010C9434
:1002A000B503089580E090E008950895DF92EF92FD
:1002B000FF920F931F93CF93DF93F89414B817B85E
:1002C0001AB815B818B81BB8529A5A9A14BC85E0D7
:1002D00085BD8FEF87BD82E080936E001092800015
:1002E000109281002FE83BE0309389002093880032
:1002F00080936F005398239891EA9093B000809375
:10030000B1001092B4001092B3008BE080BF83E084
:1003100080937F0086E080937C0083E880937A005E
:1003200080917A00806480937A0080917A0086FDC3
:10033000FCCF10927C0083EA80937A0081E0809366
:100340007B0081E090E00E94850D8F3F11F080934B
:10035000660010924B01C1E0C0932401C093680174
:100360001092420110927C0180E990E00E94850D7C
:100370008093410180914101887311F0C093410144
:1003800010926C0110926B018FEF90E090936A01D4
:10039000809369011092470110924801109249011F
:1003A00010924A0181E08093170182E49FE09093CC
:1003B0007B0180937A0180EB90E00E94850DC82F2D
:1003C00081EB90E00E94850D2C2F30E0382B30938C
:1003D0007E0120937D0185E090E00E94850D809351
:1003E000810189E090E00E94850D80936D018CE091
:1003F00090E00E94850D80937F0184E190E00E944F
:10040000850D809380015CE4E52E51E0F52E05E238
:1004100011E0C0E2D0E0CE010E94850DD82ECE01C1
:1004200001960E94850D2D2D30E0322F2227282B9A
:10043000F701219331937F01CE01C0960E94850D73
:10044000D82ECE01C1960E94850D2D2D30E0322F81
:100450002227282BF801219331938F012296CC3348
:10046000D105C9F67894DF91CF911F910F91FF903C
:10047000EF90DF9008951F920F920FB60F92112404
:100480008F930FB6F894A89580916000886180934F
:100490006000109260000FBE8F910F900FBE0F9002
:1004A0001F9018953C01EB0110E099249A9484E088
:1004B000C82E96E0A92E23E8B22E38E1D32E49E2C9
:1004C000E42E90911701E92FF0E0E730F105C8F72D
:1004D000EC5CFF4F0C94F00A112309F4FCC0C092AD
:1004E000170111E0FE010995ECCF80914B018111BC
:1004F000EBC0F894A0927C00B0927A0080917A00D0
:10050000806480937A0090917A0096FDFCCF809170
:1005100078009091790078948B3AE2E09E070CF095
:10052000EDC08938F2E09F070CF0EFC087369240AB
:100530000CF4CAC0559A549A3B9A3A9A3D983C9802
:10054000C0CFF89480B7877F80BF80917A008F7783
:1005500080937A0014B817B81AB815B818B81BB831
:100560000FB6F894A895D09260000FBEE09260009C
:100570008091600080648093600093B7917F946065
:1005800093BFF89483B7816083BF7894889583B7CD
:100590008E7F83BF789410924B01529A5A9A809121
:1005A0007A00806880937A0087E592E00197F1F7FE
:1005B00000C0000080B7886180BF559A549A3B9A6A
:1005C0003A9A3D9A3C9AEFE1FEE43197F1F700C088
:1005D000000080914B01811181C0559854983B983F
:1005E0003A983D983C986DCF80911501811141C09A
:1005F0001092B3001092B4001092160162CF489985
:10060000ECCF559A54983B983A983D983C988FEC8B
:1006100097E00197F1F700C00000559854983B9877
:100620003A983D983C989FEFE1EEF4E09150E0401D
:10063000F040E1F700C0000044CF559854983B9A31
:100640003A9A3D983C98EFECF7E03197F1F700C00B
:100650000000559854983B983A983D983C98FFEF85
:1006600021EE84E0F15020408040E1F700C000001E
:1006700028CF9091150180911601981709F421CF88
:10068000809115018093160180911501813009F444
:1006900050C0809115011092B3009092B400823046
:1006A000D9F19092B3009092B4008FE295E7019750
:1006B000F1F700C000008091800190917F0190933C
:1006C000B3008093B400FDCE559A549A3B983A9863
:1006D0003D983C98F6CEF301099501CF559A549A6E
:1006E0003B983A983D983C98FFEF20E782E0F15024
:1006F00020408040E1F700C000006FCF559854982B
:100700003B9A3A9A3D983C98DCCE559854983B9841
:100710003A983D9A3C9AD5CEEFE2F5E73197F1F75A
:1007200000C0000080916D011092B3008093B4006E
:10073000C8CE9092B3001092B4008FE295E7019773
:10074000F1F700C00000809181018093B300109206
:10075000B400B7CE07C0EFECF7E03197F1F700C077
:10076000000001970097B9F708958093B300609354
:10077000B40008958FEF8093B3008093B4008FE0AE
:1007800090E0EFECF7E03197F1F700C0000001973F
:10079000C1F7089580914B0181111EC0F89487E044
:1007A00080937C0083E880937A0080917A00806453
:1007B00080937A0080917A0086FDFCCF809178004A
:1007C0009091790010927C0023EA20937A0021E036
:1007D00020937B00789408958FEF9FEF0895809188
:1007E0004B0181111EC0F89488EC80937C0087E84F
:1007F00080937A0080917A00806480937A0080915F
:100800007A0086FDFCCF809178009091790010925B
:100810007C0023EA20937A0021E020937B007894E7
:1008200008958FEF9FEF08950F931F93CF93DF935A
:10083000E0E0F0E080E003EA11E0D6E0C3E8A1E008
:10084000B0E060E870E0F894D0937C00C0937A0048
:1008500090917A00906490937A0090917A0096FD3E
:10086000FCCF2091780030917900217090917A002E
:10087000906490937A0090917A0096FDFCCF40911D
:1008800078005091790010927C0000937A001093C8
:100890007B0078944170241303C06150710999F66C
:1008A000222339F09D010E2E01C0220F0A94EAF78F
:1008B000822B3196E830F10509F0C3CFDF91CF915B
:1008C0001F910F91089580910001982F990F990F12
:1008D000990F89279091140121E0290F2093140189
:1008E000282F2295269527708227969596958927F9
:1008F00080930001089580930001089580914B0139
:10090000811116C0F89486E080937C0083E8809380
:100910007A0080917A00806480937A0080917A00D6
:1009200086FDFCCF809178009091790078940895AD
:100930008FEF9FEF08952F923F924F925F926F92A9
:100940007F928F929F92AF92BF92CF92DF92EF925F
:10095000FF920F931F93CF93DF9300D000D000D06E
:10096000CDB7DEB71C01DC0112960D90BC91A02D15
:10097000BE83AD83A438E3E0BE070CF0C9C080910C
:100980002501909126018A179B0708F437C1009131
:100990002701109128010A171B0708F42FC20091A4
:1009A000290110912A010A171B0708F42FC2009190
:1009B0002B0110912C010A171B0708F42FC200917C
:1009C0002D0110912E010A171B0708F42FC2009168
:1009D0002F01109130010A171B0708F4EFC1009195
:1009E0003101109132010A171B0708F427C2009148
:1009F0003301109134010A171B0708F427C2009134
:100A00003501109136010A171B0708F427C200911F
:100A10003701109138010A171B0708F427C200910B
:100A2000390110913A010A171B0708F427C20091F7
:100A30003B0110913C010A171B0708F423C20091E7
:100A40003D0110913E010A171B0708F423C20091D3
:100A50003F01109140010A171B0708F423C280E0F0
:100A600090E0A0EDB0E489839A83AB83BC834CE033
:100A7000E42EF12CF701EE0FFF1FEB5DFE4F80819E
:100A80009181B801681B790B80E090E00E942E0CE8
:100A90009B01AC010E941A0B6B017C01AD81BE81F0
:100AA000BD01BB0F880B990B0E94300C4B015C0100
:100AB000B80180E090E00E942E0C2B013C012981BE
:100AC0003A814B815C81C701B6010E94BC0C9B013D
:100AD000AC01C301B2010E94190B9B01AC01C5011D
:100AE000B4010E94190B20E030E040E251E40E9482
:100AF000BC0C0E94F80B8B01C701B6010E94F80BD9
:100B0000AB01BC01C801BA010E94DC0A162F77C0F4
:100B1000DC01CD90DC9080914C0190914D018C15C1
:100B20009D0508F48CC01FEFE0904E01F0904F013E
:100B3000EC14FD0408F45EC1E0905001F090510106
:100B4000EC14FD0408F45EC1E0905201F0905301F2
:100B5000EC14FD0408F45EC1E0905401F0905501DE
:100B6000EC14FD0408F45EC1E0905601F0905701CA
:100B7000EC14FD0408F4C3C0E0905801F090590152
:100B8000EC14FD0408F456C1E0905A01F0905B01AA
:100B9000EC14FD0408F456C1E0905C01F0905D0196
:100BA000EC14FD0408F456C1E0905E01F0905F0182
:100BB000EC14FD0408F456C1E0906001F09061016E
:100BC000EC14FD0408F456C1E0906201F09063015A
:100BD000EC14FD0408F45AC1E0906401F090650142
:100BE000EC14FD0408F45AC1E0906601F09067012E
:100BF000EC14FD0408F45AC10AE531C010E0ED819F
:100C0000FE81ED3BF240FCF481E2810F26960FB6A7
:100C1000F894DEBF0FBECDBFDF91CF911F910F9132
:100C2000FF90EF90DF90CF90BF90AF909F908F900C
:100C30007F906F905F904F903F902F90089500E0CD
:100C400081E2800FE3CFD101CD90DC9080914C0107
:100C500090914D018C159D0508F066CF00E01F3F77
:100C600079F3ED81FE81BF01FF0F880B990B0E9484
:100C7000300C6B017C01612F70E080E090E00E94FD
:100C80002E0C4B015C01A701960160E070E081E64B
:100C900094E40E94190B9B01AC01C501B4010E94B0
:100CA000BC0C4B015C01602F70E080E090E00E9482
:100CB0002E0C2B013C0120E030E04FE254E4C70150
:100CC000B6010E94190B9B01AC01C301B2010E9445
:100CD000BC0C9B01AC01C501B4010E941A0B20E0C1
:100CE00030E048E453E40E94860B20E030E044E02A
:100CF00052E40E941A0B0E94FF0B862F87CF05E05B
:100D000085E090E0880F991FFC01E65BFE4F808133
:100D10009181B701681B790B80E090E00E942E0C56
:100D20009B01AC010E941A0B4B015C01B601DD0C6A
:100D3000880B990B0E94300C2B013C01B70180E01D
:100D400090E00E942E0C6B017C01602F70E080E02F
:100D500090E00E942E0C20E030E040E05FE30E9433
:100D6000BC0C20E030E0A9010E941A0BA5019401FF
:100D70000E94BC0C9B01AC01C701B6010E94190B7B
:100D80009B01AC01C301B2010E94190B20E030E0CD
:100D900040E251E40E94BC0C0E94F80B7B01C501AB
:100DA000B4010E94F80BAB01BC01C701BA010E945B
:100DB000DC0A062F6F3F09F052CF26CF65E085E0B1
:100DC00090E07C01F1E0EF1AF10870E080E090E043
:100DD0000E942E0C20E030E040E05FE30E94BC0C5B
:100DE00020E030E0A9010E941A0B69837A838B838B
:100DF0009C8340CE01E081E090E084CF61E081E01F
:100E000090E0DFCF02E082E090E07CCF62E082E021
:100E100090E0D7CF03E083E090E074CF63E083E01D
:100E200090E0CFCF04E084E090E06CCF64E084E019
:100E300090E0C7CF06E086E090E064CF66E086E011
:100E400090E0BFCF07E087E090E05CCF67E087E00D
:100E500090E0B7CF08E088E090E054CF68E088E009
:100E600090E0AFCF09E089E090E04CCF69E089E005
:100E700090E0A7CF0AE08AE090E044CF6AE08AE001
:100E800090E09FCF6BE08BE090E09BCF0BE08BE09E
:100E900090E038CF6CE08CE090E093CF0CE08CE0F9
:100EA00090E030CF6DE08DE090E08BCF0DE08DE0F5
:100EB00090E028CF1F920F920FB60F9211242F931C
:100EC0003F934F935F936F937F938F939F93AF93D2
:100ED000BF93EF93FF9320916B0130916C01809150
:100EE000690190916A01820F931F90936C01809326
:100EF0006B018FEF90E090936A01809369018FEF0F
:100F000087BD8091470190914801A0914901B0911E
:100F10004A010196A11DB11D80934701909348019C
:100F2000A0934901B0934A0180914B0181110FC0F8
:100F300080917A0190917B0120916B0130916C013D
:100F40008217930720F480911701843089F0FF9174
:100F5000EF91BF91AF919F918F917F916F915F9131
:100F60004F913F912F910F900FBE0F901F901895AA
:100F7000E0910301F09104010995009741F30E946B
:100F8000420A811109C00E94750D992790936A0148
:100F90008093690187BDDBCFE0910101F0910201EF
:100FA000099510926C0110926B01D1CF80FF11C096
:100FB000559A81FF11C0549A82FF11C03B9A83FF5A
:100FC00011C03A9A84FF11C03D9A85FD11C03C982A
:100FD0000895559881FDEFCF549882FDEFCF3B984F
:100FE00083FDEFCF3A9884FDEFCF3D9885FFEFCF9B
:100FF0003C9A08951F920F920FB60F9211248F936F
:101000009F9310928100109285001092840081E0DD
:10101000809324018093680110924B0110927C0010
:1010200093EA90937A0080937B009F918F910F9029
:101030000FBE0F901F9018951F920F920FB60F9230
:1010400011242F933F934F935F936F937F938F93CD
:101050009F93AF93BF93CF93DF93EF93FF93209131
:1010600084003091850041E040934B018091240140
:101070008823A9F11092850010928400409381008A
:1010800010927C0110922401809168018823A1F0C4
:1010900080917A0086FDFCCF809178009091790054
:1010A000909346018093450181E080937C0093EA10
:1010B00090937A0080937B00FF91EF91DF91CF9125
:1010C000BF91AF919F918F917F916F915F914F9160
:1010D0003F912F910F900FBE0F901F901895C9014F
:1010E000875891098437994008F052C02658310931
:1010F000A4EFB0E00E94F60AAA27BB27883091052A
:10110000A105B10508F47BC04093240180916801DA
:10111000811152C080914201E82FF0E0E259FE4F68
:1011200090917C0190838F5F809342018C3021F6F7
:101130001092810010928500109284004093680103
:1011400010924B01C0917801D09179018EE691E027
:101150000E94260AC817D90709F0AECF80917701FF
:1011600087FF61C098E7980F933030F05398239829
:101170001092B4001092B30090E0FC01E058F10925
:10118000EB30F10508F098CFE55CFF4F0C94F00AC6
:1011900010928100109285001092840040932401E7
:1011A0004093680110924B0110927C0083EA809377
:1011B0007A0040937B0080CF80917A0086FDFCCF3F
:1011C000809178009091790090934401809343013D
:1011D00010927C0083EA80937A0081E080937B0008
:1011E00090917C019923D1F010928100109285009A
:1011F000109284008093680110924B015DCF21E032
:1012000030E0F90102C0EE0FFF1F8A95E2F7CF012F
:1012100090917C01892B80937C014ECF10926801C4
:101220001092420149CFE0910501F091060163E47B
:1012300071E08EE691E009953FCF80916E0182309A
:1012400009F4DDC008F4BAC0833009F4C6C08430A4
:1012500009F0B1C08091150190917401833009F4B7
:10126000E3C0809173011092160123E020931501D1
:1012700080937F019093800180911701863009F45B
:101280001BCF539A239A1092B4001092B30086E0B9
:101290008093170111CF80911701863099F0539AEE
:1012A000239A1092B4001092B300559854983B982A
:1012B0003A983D983C98109215011092160186E0DC
:1012C0008093170181E090E09C0100906E0102C0C4
:1012D000220F331F0A94E2F780917D0190917E01E5
:1012E00082239323892B09F086C010921501E4CE46
:1012F00081E080931701E0CEE0E0F0E00995809175
:101300006E008D7F80936E0016BCE0E0F0E70995DB
:1013100010921701D1CE82E080931701CDCE85E0E7
:1013200080931701C9CE80911701833009F4C4CE90
:1013300080911701843009F4BFCE539A239A1092FA
:10134000B4001092B30083E080931701B5CE809172
:101350001701863009F0B0CE60917D0180EB90E0FE
:101360000E948D0D60917E0181EB90E00E948D0DB9
:101370006091810185E090E00E948D0D60916D018A
:1013800089E090E00E948D0D60917F018CE090E0FB
:101390000E948D0D6091800184E190E00E948D0D8E
:1013A000539823981092B4001092B30081E0809378
:1013B000170180916E0181115FCF7ECE882339F2B3
:1013C0008130C9F780916F019091700190937E01F7
:1013D00080937D01109215014FCF809115018230CD
:1013E00071F1809172011092160192E090931501B3
:1013F00080936D0141CF81E0809315015DCE809196
:101400001501813051F0809171011092160191E027
:1014100090931501809381012FCF8091710190915C
:1014200081018913F2CF28CF80918001981319CFC1
:101430008091730120917F01821315CF1DCF809180
:10144000720190916D018913CECF16CFFC01AC01D2
:10145000465F5F4F8FEF9FEF21918227082E829585
:10146000807F8025092E982F82958F70082686957B
:1014700098278927880F880F880F8025E417F5079C
:1014800059F708950FB6F894A4B1209141012A2B81
:1014900024B921E030914101203029F0000025B12C
:1014A000232B25B904C000000000000000C000008C
:1014B00000000000309525B1232325B92EEA2A9596
:1014C000F1F72BEE30B735FF0AC0A4B930914101D6
:1014D000309525B1232325B90FBE80E00895000083
:1014E0002A9581F721E030914101203029F0000058
:1014F00025B1232B25B904C000000000000000C066
:10150000000000000000309525B1232325B900001C
:1015100024E52A95F1F7FC018CE0619170E0660FFB
:10152000771F616072609AE041E050E09A012623E3
:101530003723232B30914101203029F0000025B1C1
:10154000232B25B904C000000000000000C00000EB
:1015500000000000309525B1232325B9000021E5C6
:101560002A95F1F7440F551F9A9501F78A95A9F628
:1015700020B7206120BFA4B930914101309525B139
:10158000232325B90FBE81E008950E94560181E70B
:1015900090E0909306018093050188E790E0909396
:1015A00004018093030168E870E08BE790E00E94FB
:1015B000520280E090E0089597FB072E16F4009405
:1015C00007D077FD09D00E94050B07FC05D03EF43B
:1015D000909581959F4F0895709561957F4F0895DF
:1015E000EE0FFF1F0590F491E02D0994A29FB0012A
:1015F000B39FC001A39F700D811D1124911DB29F47
:10160000700D811D1124911D0895AA1BBB1B51E172
:1016100007C0AA1FBB1FA617B70710F0A61BB70B62
:10162000881F991F5A95A9F780959095BC01CD0107
:1016300008955058BB27AA270E94310B0C94820CA6
:101640000E94740C38F00E947B0C20F039F49F3F0C
:1016500019F426F40C94710C0EF4E095E7FB0C944D
:101660006B0CE92F0E94930C58F3BA1762077307AB
:101670008407950720F079F4A6F50C94B50C0EF4C8
:10168000E0950B2EBA2FA02D0B01B90190010C0192
:10169000CA01A0011124FF27591B99F0593F50F4AA
:1016A000503E68F11A16F040A22F232F342F442702
:1016B000585FF3CF469537952795A795F0405395FA
:1016C000C9F77EF41F16BA0B620B730B840BBAF0CA
:1016D0009150A1F0FF0FBB1F661F771F881FC2F735
:1016E0000EC0BA0F621F731F841F48F48795779549
:1016F0006795B795F7959E3F08F0B0CF9395880F03
:1017000008F09927EE0F9795879508950E949A0BF8
:101710000C94820C0E947B0C58F00E94740C40F0D8
:1017200029F45F3F29F00C946B0C51110C94B60C0A
:101730000C94710C0E94930C68F39923B1F3552318
:1017400091F3951B550BBB27AA27621773078407D4
:1017500038F09F5F5F4F220F331F441FAA1FA9F36A
:1017600035D00E2E3AF0E0E832D091505040E69558
:10177000001CCAF72BD0FE2F29D0660F771F881FB9
:10178000BB1F261737074807AB07B0E809F0BB0BAC
:10179000802DBF01FF2793585F4F3AF09E3F5105C0
:1017A00078F00C946B0C0C94B60C5F3FE4F3983E0D
:1017B000D4F3869577956795B795F7959F5FC9F7A9
:1017C000880F911D9695879597F90895E1E0660F2A
:1017D000771F881FBB1F621773078407BA0720F0A3
:1017E000621B730B840BBA0BEE1F88F7E09508950C
:1017F0000E94FF0B6894B1110C94B60C08950E94DE
:101800009B0C88F09F5798F0B92F9927B751B0F0EB
:10181000E1F0660F771F881F991F1AF0BA95C9F774
:1018200014C0B13091F00E94B50CB1E008950C9451
:10183000B50C672F782F8827B85F39F0B93FCCF304
:10184000869577956795B395D9F73EF490958095F1
:10185000709561957F4F8F4F9F4F0895E89409C011
:1018600097FB3EF490958095709561957F4F8F4FD3
:101870009F4F9923A9F0F92F96E9BB279395F695E9
:10188000879577956795B795F111F8CFFAF4BB0F67
:1018900011F460FF1BC06F5F7F4F8F4F9F4F16C0CB
:1018A000882311F096E911C0772321F09EE8872F55
:1018B000762F05C0662371F096E8862F70E060E011
:1018C0002AF09A95660F771F881FDAF7880F96958A
:1018D000879597F9089597F99F6780E870E060E031
:1018E00008959FEF80EC089500240A9416161706B9
:1018F00018060906089500240A9412161306140601
:1019000005060895092E0394000C11F4882352F063
:10191000BB0F40F4BF2B11F460FF04C06F5F7F4F1B
:101920008F4F9F4F089557FD9058440F551F59F002
:101930005F3F71F04795880F97FB991F61F09F3FBC
:1019400079F087950895121613061406551FF2CFE5
:101950004695F1DF08C0161617061806991FF1CF35
:1019600086957105610508940895E894BB2766275C
:101970007727CB0197F908950E94CF0C0C94820C25
:101980000E94740C38F00E947B0C20F0952311F01B
:101990000C946B0C0C94710C11240C94B60C0E94DA
:1019A000930C70F3959FC1F3950F50E0551F629F04
:1019B000F001729FBB27F00DB11D639FAA27F00DA8
:1019C000B11DAA1F649F6627B00DA11D661F829FCF
:1019D0002227B00DA11D621F739FB00DA11D621FB4
:1019E000839FA00D611D221F749F3327A00D611DD1
:1019F000231F849F600D211D822F762F6A2F1124B3
:101A00009F5750409AF0F1F088234AF0EE0FFF1FE5
:101A1000BB1F661F771F881F91505040A9F79E3F3C
:101A2000510580F00C946B0C0C94B60C5F3FE4F302
:101A3000983ED4F3869577956795B795F795E79592
:101A40009F5FC1F7FE2B880F911D9695879597F99B
:101A500008958F929F92AF92BF92CF92DF92EF92B2
:101A6000FF92CF93DF93EC01688179818A819B811A
:101A7000611571058105910521F464E279ED8BE52D
:101A800097E02DE133EF41E050E00E949B0D4901CA
:101A90005A019B01AC01A7EAB1E40E94BA0D6B01A7
:101AA0007C01ACEEB4EFA50194010E94C80DDC01ED
:101AB000CB018C0D9D1DAE1DBF1DB7FF03C001974F
:101AC000A109B04888839983AA83BB839F77DF915C
:101AD000CF91FF90EF90DF90CF90BF90AF909F900D
:101AE0008F9008950E94290D089587E091E00E944B
:101AF000290D0895A0E0B0E08093070190930801BC
:101B0000A0930901B0930A010895F999FECF92BDFF
:101B100081BDF89A992780B50895262FF999FECFAF
:101B20001FBA92BD81BD20BD0FB6F894FA9AF99AFA
:101B30000FBE01960895052E97FB1EF400940E9497
:101B4000B20D57FD07D00E94CD0D07FC03D04EF417
:101B50000C94B20D50954095309521953F4F4F4FC5
:101B60005F4F089590958095709561957F4F8F4F49
:101B70009F4F08950E94F60AA59F900DB49F900D67
:101B8000A49F800D911D11240895B7FF0C94BA0DE8
:101B90000E94BA0D821B930B0895A1E21A2EAA1B74
:101BA000BB1BFD010DC0AA1FBB1FEE1FFF1FA2170D
:101BB000B307E407F50720F0A21BB30BE40BF50B0A
:101BC000661F771F881F991F1A9469F76095709593
:101BD000809590959B01AC01BD01CF010895F894CB
:021BE000FFCF35
:0C1BE200AA550152015101010000000051
:00000001FF
