:100000000C9446000C946F000C946F000C946F00DD
:100010000C946F000C946F000C94E6010C946F002C
:100020000C946F000C946F000C946F000C94A50757
:100030000C946F000C946F000C9405070C946F00E7
:100040000C946F000C946F000C946F000C946F0074
:100050000C946F000C946F000C946F000C94C70705
:100060000C946F000C946F004C02C802200217021F
:100070001D02AA029F022A09070807082709330957
:1000800023093A0936093E09F608C80811241FBE9B
:10009000CFEFD8E0DEBFCDBF14BE0FB6F894A89561
:1000A00080916000886180936000109260000FBEB4
:1000B00011E0A0E0B1E0E8E3FBE102C005900D92A1
:1000C000AE30B107D9F721E0AEE0B1E001C01D923A
:1000D000A038B207E1F70E94700A0C949A0D0C94B4
:1000E000000086E191E0089520910E0130910F010A
:1000F000232B69F421E030E030930F0120930E01AF
:10010000FC01808190E0909311018093100108958B
:1001100080917B0190917C018A9779F08091000118
:1001200010921F018093160186E191E00E94D1098F
:100130009093210180932001089510920101109263
:10014000000180E0EDCF80917B0190917C018A9746
:1001500031F080910E0190910F010197D1F08091C3
:10016000000190910101009789F081309105C1F162
:1001700082309105C1F183309105C1F18430910540
:10018000C1F10CF4089585E00C94810785E10C948D
:10019000810720911001309111012F5F3F4F809115
:1001A000000190910101281739072CF010920F01DE
:1001B00010920E01D8CF30930101209300011092CC
:1001C0001F012093160186E191E00E94D1099093CE
:1001D0002101809320018091000190910101E6CFDF
:1001E00081E00C94810784E00C94810780E10C94F9
:1001F000810781E10C948107089580E090E00895E3
:100200000895DF92EF92FF920F931F93CF93DF93A6
:10021000F89414B817B81AB815B818B81BB8529A89
:100220005A9A14BC85E085BD8FEF87BD82E080932C
:100230006E0010928000109281002FE83BE0309316
:1002400089002093880080936F005398239891EA47
:100250009093B0008093B1001092B4001092B3005C
:100260008BE080BF83E080937F0086E080937C00FA
:1002700083E880937A0080917A00806480937A008A
:1002800080917A0086FDFCCF10927C0083EA8093F7
:100290007A0081E080937B0081E090E00E94300D45
:1002A0008F3F11F08093660010924901C1E0C09326
:1002B0002201C09366011092400110927A0180E9F8
:1002C00090E00E94300D80933F0180913F01887340
:1002D00011F0C0933F0110926A01109269018FEFF3
:1002E00090E090936801809367011092450110920D
:1002F0004601109247011092480181E08093150158
:1003000082E49FE0909379018093780180EB90E004
:100310000E94300DC82F81EB90E00E94300D2C2FF1
:1003200030E0382B30937C0120937B0185E090E016
:100330000E94300D80937F0189E090E00E94300D93
:1003400080936B018CE090E00E94300D80937D01E2
:1003500084E190E00E94300D80937E015AE4E52E06
:1003600051E0F52E03E211E0C0E2D0E0CE010E94A0
:10037000300DD82ECE0101960E94300D2D2D30E08B
:10038000322F2227282BF701219331937F01CE01B1
:10039000C0960E94300DD82ECE01C1960E94300D1D
:1003A0002D2D30E0322F2227282BF8012193319375
:1003B0008F012296CC33D105C9F67894DF91CF9185
:1003C0001F910F91FF90EF90DF9008951F920F9271
:1003D0000FB60F9211248F930FB6F894A8958091C1
:1003E0006000886180936000109260000FBE8F9162
:1003F0000F900FBE0F901F9018953C01EB0110E07D
:1004000099249A9484E0C82E96E0A92E23E8B22E6F
:1004100038E1D32E49E2E42E90911501E92FF0E066
:10042000E730F105C8F7EC5CFF4F0C949B0A1123F1
:1004300009F4FCC0C092150111E0FE010995ECCF52
:10044000809149018111EBC0F894A0927C00B09298
:100450007A0080917A00806480937A0090917A008B
:1004600096FDFCCF809178009091790078948B3A3A
:10047000E2E09E070CF0EDC08938F2E09F070CF037
:10048000EFC0873692400CF4CAC0559A549A3B9AF2
:100490003A9A3D983C98C0CFF89480B7877F80BF48
:1004A00080917A008F7780937A0014B817B81AB8C1
:1004B00015B818B81BB80FB6F894A895D09260007C
:1004C0000FBEE092600080916000806480936000C5
:1004D00093B7917F946093BFF89483B7816083BF93
:1004E0007894889583B78E7F83BF78941092490162
:1004F000529A5A9A80917A00806880937A0087E5B0
:1005000092E00197F1F700C0000080B7886180BFDA
:10051000559A549A3B9A3A9A3D9A3C9AEFE1FEE4F6
:100520003197F1F700C0000080914901811181C02D
:10053000559854983B983A983D983C986DCF809147
:100540001301811141C01092B3001092B4001092B7
:10055000140162CF4899ECCF559A54983B983A9839
:100560003D983C988FEC97E00197F1F700C00000B0
:10057000559854983B983A983D983C989FEFE1EEF7
:10058000F4E09150E040F040E1F700C0000044CFBB
:10059000559854983B9A3A9A3D983C98EFECF7E07E
:1005A0003197F1F700C00000559854983B983A985D
:1005B0003D983C98FFEF21EE84E0F15020408040D0
:1005C000E1F700C0000028CF909113018091140141
:1005D000981709F421CF8091130180931401809121
:1005E0001301813009F450C0809113011092B300BF
:1005F0009092B4008230D9F19092B3009092B400FE
:100600008FE295E70197F1F700C0000080917E012D
:1006100090917D019093B3008093B400FDCE559AE4
:10062000549A3B983A983D983C98F6CEF301099538
:1006300001CF559A549A3B983A983D983C98FFEFD1
:1006400020E782E0F15020408040E1F700C0000048
:100650006FCF559854983B9A3A9A3D983C98DCCE87
:10066000559854983B983A983D9A3C9AD5CEEFE2EB
:10067000F5E73197F1F700C0000080916B0110920F
:10068000B3008093B400C8CE9092B3001092B4002F
:100690008FE295E70197F1F700C0000080917F019C
:1006A0008093B3001092B400B7CE07C0EFECF7E030
:1006B0003197F1F700C0000001970097B9F708954E
:1006C0008093B3006093B40008958FEF8093B300DC
:1006D0008093B4008FE090E0EFECF7E03197F1F712
:1006E00000C000000197C1F7089580914901811170
:1006F0001EC0F89487E080937C0083E880937A00A2
:1007000080917A00806480937A0080917A0086FDDF
:10071000FCCF809178009091790010927C0023EAC0
:1007200020937A0021E020937B00789408958FEF46
:100730009FEF08958091490181111EC0F89488ECC3
:1007400080937C0087E880937A0080917A008064AF
:1007500080937A0080917A0086FDFCCF80917800AA
:100760009091790010927C0023EA20937A0021E096
:1007700020937B00789408958FEF9FEF08950F9357
:100780001F93CF93DF93E0E0F0E080E003EA11E015
:10079000D6E0C3E8A1E0B0E060E870E0F894D09360
:1007A0007C00C0937A0090917A00906490937A00D4
:1007B00090917A0096FDFCCF2091780030917900DD
:1007C000217090917A00906490937A0090917A00D1
:1007D00096FDFCCF409178005091790010927C00FA
:1007E00000937A0010937B0078944170241303C027
:1007F0006150710999F6222339F09D010E2E01C036
:10080000220F0A94EAF7822B3196E830F10509F0BD
:10081000C3CFDF91CF911F910F9108958091020175
:10082000982F990F990F990F89279091120121E024
:10083000290F20931201282F2295269527708227B1
:1008400096959695892780930201089580930201D9
:10085000089580914901811116C0F89486E0809333
:100860007C0083E880937A0080917A008064809392
:100870007A0080917A0086FDFCCF8091780090917B
:100880007900789408958FEF9FEF08952F923F920B
:100890004F925F926F927F928F929F92AF92BF9290
:1008A000CF92DF92EF92FF920F931F93CF93DF933C
:1008B00000D000D000D0CDB7DEB71C01DC0112960D
:1008C0000D90BC91A02DBE83AD83A438E3E0BE079C
:1008D0000CF0C9C080912301909124018A179B07D5
:1008E00008F437C100912501109126010A171B0752
:1008F00008F42FC200912701109128010A171B0745
:1009000008F42FC20091290110912A010A171B0730
:1009100008F42FC200912B0110912C010A171B071C
:1009200008F42FC200912D0110912E010A171B0708
:1009300008F4EFC100912F01109130010A171B0735
:1009400008F427C200913101109132010A171B07E8
:1009500008F427C200913301109134010A171B07D4
:1009600008F427C200913501109136010A171B07C0
:1009700008F427C200913701109138010A171B07AC
:1009800008F427C20091390110913A010A171B0798
:1009900008F423C200913B0110913C010A171B0788
:1009A00008F423C200913D0110913E010A171B0774
:1009B00008F423C280E090E0A0EDB0E489839A833C
:1009C000AB83BC834CE0E42EF12CF701EE0FFF1F4C
:1009D000ED5DFE4F80819181B801681B790B80E04D
:1009E00090E00E94D90B9B01AC010E94C50A6B01EB
:1009F0007C01AD81BE81BD01BB0F880B990B0E94AC
:100A0000DB0B4B015C01B80180E090E00E94D90B48
:100A10002B013C0129813A814B815C81C701B601E0
:100A20000E94670C9B01AC01C301B2010E94C40A81
:100A30009B01AC01C501B4010E94C40A20E030E072
:100A400040E251E40E94670C0E94A30B8B01C70196
:100A5000B6010E94A30BAB01BC01C801BA010E9400
:100A6000870A162F77C0DC01CD90DC9080914A0177
:100A700090914B018C159D0508F48CC01FEFE09000
:100A80004C01F0904D01EC14FD0408F45EC1E090BF
:100A90004E01F0904F01EC14FD0408F45EC1E090AB
:100AA0005001F0905101EC14FD0408F45EC1E09097
:100AB0005201F0905301EC14FD0408F45EC1E09083
:100AC0005401F0905501EC14FD0408F4C3C0E0900B
:100AD0005601F0905701EC14FD0408F456C1E09063
:100AE0005801F0905901EC14FD0408F456C1E0904F
:100AF0005A01F0905B01EC14FD0408F456C1E0903B
:100B00005C01F0905D01EC14FD0408F456C1E09026
:100B10005E01F0905F01EC14FD0408F456C1E09012
:100B20006001F0906101EC14FD0408F45AC1E090FA
:100B30006201F0906301EC14FD0408F45AC1E090E6
:100B40006401F0906501EC14FD0408F45AC10AE553
:100B500031C010E0ED81FE81ED3BF240FCF481E21A
:100B6000810F26960FB6F894DEBF0FBECDBFDF9182
:100B7000CF911F910F91FF90EF90DF90CF90BF909A
:100B8000AF909F908F907F906F905F904F903F902D
:100B90002F90089500E081E2800FE3CFD101CD9046
:100BA000DC9080914A0190914B018C159D0508F0D5
:100BB00066CF00E01F3F79F3ED81FE81BF01FF0F9B
:100BC000880B990B0E94DB0B6B017C01612F70E09D
:100BD00080E090E00E94D90B4B015C01A7019601D7
:100BE00060E070E081E694E40E94C40A9B01AC01DD
:100BF000C501B4010E94670C4B015C01602F70E0DD
:100C000080E090E00E94D90B2B013C0120E030E015
:100C10004FE254E4C701B6010E94C40A9B01AC0133
:100C2000C301B2010E94670C9B01AC01C501B40174
:100C30000E94C50A20E030E048E453E40E94310BF2
:100C400020E030E044E052E40E94C50A0E94AA0B72
:100C5000862F87CF05E085E090E0880F991FFC0183
:100C6000E85BFE4F80819181B701681B790B80E0C2
:100C700090E00E94D90B9B01AC010E94C50A4B0178
:100C80005C01B601DD0C880B990B0E94DB0B2B017C
:100C90003C01B70180E090E00E94D90B6B017C0120
:100CA000602F70E080E090E00E94D90B20E030E0FF
:100CB00040E05FE30E94670C20E030E0A9010E9461
:100CC000C50AA50194010E94670C9B01AC01C701F4
:100CD000B6010E94C40A9B01AC01C301B2010E948B
:100CE000C40A20E030E040E251E40E94670C0E9418
:100CF000A30B7B01C501B4010E94A30BAB01BC0196
:100D0000C701BA010E94870A062F6F3F09F052CF30
:100D100026CF65E085E090E07C01F1E0EF1AF10874
:100D200070E080E090E00E94D90B20E030E040E0ED
:100D30005FE30E94670C20E030E0A9010E94C50A31
:100D400069837A838B839C8340CE01E081E090E0CD
:100D500084CF61E081E090E0DFCF02E082E090E0CC
:100D60007CCF62E082E090E0D7CF03E083E090E0C8
:100D700074CF63E083E090E0CFCF04E084E090E0C4
:100D80006CCF64E084E090E0C7CF06E086E090E0BE
:100D900064CF66E086E090E0BFCF07E087E090E0B8
:100DA0005CCF67E087E090E0B7CF08E088E090E0B4
:100DB00054CF68E088E090E0AFCF09E089E090E0B0
:100DC0004CCF69E089E090E0A7CF0AE08AE090E0AC
:100DD00044CF6AE08AE090E09FCF6BE08BE090E048
:100DE0009BCF0BE08BE090E038CF6CE08CE090E0A4
:100DF00093CF0CE08CE090E030CF6DE08DE090E0A0
:100E00008BCF0DE08DE090E028CF1F920F920FB6B0
:100E10000F9211242F933F934F935F936F937F9380
:100E20008F939F93AF93BF93EF93FF9320916901AB
:100E300030916A018091670190916801820F931F40
:100E400090936A01809369018FEF90E0909368011D
:100E5000809367018FEF87BD809145019091460196
:100E6000A0914701B09148010196A11DB11D809349
:100E7000450190934601A0934701B09348018091AA
:100E8000490181110FC080917801909179012091E1
:100E9000690130916A018217930720F4809115014E
:100EA000843089F0FF91EF91BF91AF919F918F9125
:100EB0007F916F915F914F913F912F910F900FBE56
:100EC0000F901F901895E0910501F091060109958A
:100ED000009741F30E94ED09811109C00E94200D85
:100EE0009927909368018093670187BDDBCFE091DC
:100EF0000301F0910401099510926A0110926901B1
:100F0000D1CF80FF11C0559A81FF11C0549A82FF42
:100F100011C03B9A83FF11C03A9A84FF11C03D9AD9
:100F200085FD11C03C980895559881FDEFCF5498E8
:100F300082FDEFCF3B9883FDEFCF3A9884FDEFCF52
:100F40003D9885FFEFCF3C9A08951F920F920FB600
:100F50000F9211248F939F9310928100109285001D
:100F60001092840081E080932201809366011092A8
:100F7000490110927C0093EA90937A0080937B0061
:100F80009F918F910F900FBE0F901F9018951F92F9
:100F90000F920FB60F9211242F933F934F935F93AD
:100FA0006F937F938F939F93AF93BF93CF93DF9371
:100FB000EF93FF93209184003091850041E04093AE
:100FC0004901809122018823A9F110928500109295
:100FD00084004093810010927A0110922201809146
:100FE00066018823A1F080917A0086FDFCCF809174
:100FF000780090917900909344018093430181E0BF
:1010000080937C0093EA90937A0080937B00FF9119
:10101000EF91DF91CF91BF91AF919F918F917F9190
:101020006F915F914F913F912F910F900FBE0F9055
:101030001F901895C901875891098437994008F085
:1010400052C026583109A4EFB0E00E94A10AAA2795
:10105000BB2788309105A105B10508F47BC04093FA
:10106000220180916601811152C080914001E82FD8
:10107000F0E0E459FE4F90917A0190838F5F809366
:1010800040018C3021F61092810010928500109260
:1010900084004093660110924901C0917601D0917D
:1010A00077018CE691E00E94D109C817D90709F0B1
:1010B000AECF8091750187FF61C098E7980F93309C
:1010C00030F0539823981092B4001092B30090E03F
:1010D000FC01E058F109EB30F10508F098CFE55C30
:1010E000FF4F0C949B0A1092810010928500109281
:1010F00084004093220140936601109249011092AE
:101100007C0083EA80937A0040937B0080CF8091BB
:101110007A0086FDFCCF80917800909179009093C1
:1011200042018093410110927C0083EA80937A000F
:1011300081E080937B0090917A019923D1F0109205
:1011400081001092850010928400809366011092B5
:1011500049015DCF21E030E0F90102C0EE0FFF1F31
:101160008A95E2F7CF0190917A01892B80937A01D9
:101170004ECF109266011092400149CFE0910701D5
:10118000F091080161E471E08CE691E009953FCFB0
:1011900080916C01823009F4DDC008F4BAC083305C
:1011A00009F4C6C0843009F0B1C080911301909158
:1011B0007201833009F4E3C080917101109214012F
:1011C00023E02093130180937D0190937E01809111
:1011D0001501863009F41BCF539A239A1092B4005C
:1011E0001092B30086E08093150111CF8091150114
:1011F000863099F0539A239A1092B4001092B3005B
:10120000559854983B983A983D983C981092130101
:101210001092140186E08093150181E090E09C011A
:1012200000906C0102C0220F331F0A94E2F78091F4
:101230007B0190917C0182239323892B09F086C046
:1012400010921301E4CE81E080931501E0CEE0E03E
:10125000F0E0099580916E008D7F80936E0016BC42
:10126000E0E0F0E7099510921501D1CE82E080937D
:101270001501CDCE85E080931501C9CE8091150171
:10128000833009F4C4CE80911501843009F4BFCEB7
:10129000539A239A1092B4001092B30083E0809383
:1012A0001501B5CE80911501863009F0B0CE609160
:1012B0007B0180EB90E00E94380D60917C0181EB16
:1012C00090E00E94380D60917F0185E090E00E94DF
:1012D000380D60916B0189E090E00E94380D6091BB
:1012E0007D018CE090E00E94380D60917E0184E1E8
:1012F00090E00E94380D539823981092B4001092F9
:10130000B30081E08093150180916C0181115FCF62
:101310007ECE882339F28130C9F780916D0190919A
:101320006E0190937C0180937B01109213014FCF4B
:1013300080911301823071F180917001109214013B
:1013400092E09093130180936B0141CF81E08093F1
:1013500013015DCE80911301813051F080916F01B6
:101360001092140191E09093130180937F012FCF8D
:1013700080916F0190917F018913F2CF28CF8091E6
:101380007E01981319CF8091710120917D01821304
:1013900015CF1DCF8091700190916B018913CECF35
:1013A00016CFFC01AC01465F5F4F8FEF9FEF21919D
:1013B0008227082E8295807F8025092E982F82957E
:1013C0008F700826869598278927880F880F880FA1
:1013D0008025E417F50759F708950FB6F894A4B1DE
:1013E00020913F012A2B24B921E030913F01203088
:1013F00029F0000025B1232B25B904C0000000000E
:10140000000000C0000000000000309525B123233B
:1014100025B92EEA2A95F1F72BEE30B735FF0AC031
:10142000A4B930913F01309525B1232325B90FBED2
:1014300080E0089500002A9581F721E030913F0176
:10144000203029F0000025B1232B25B904C000006D
:101450000000000000C0000000000000309525B131
:10146000232325B9000024E52A95F1F7FC018CE03F
:10147000619170E0660F771F616072609AE041E0F1
:1014800050E09A0126233723232B30913F0120304F
:1014900029F0000025B1232B25B904C0000000006D
:1014A000000000C0000000000000309525B123239B
:1014B00025B9000021E52A95F1F7440F551F9A95AB
:1014C00001F78A95A9F620B7206120BFA4B9309111
:1014D0003F01309525B1232325B90FBE81E0089542
:1014E0000E94010184E790E0909308018093070136
:1014F00081E790E0909306018093050163EA70E034
:1015000088E890E00E94FD0180E090E0089597FB5C
:10151000072E16F4009407D077FD09D00E94B00A78
:1015200007FC05D03EF4909581959F4F08957095E6
:1015300061957F4F0895EE0FFF1F0590F491E02D08
:101540000994A29FB001B39FC001A39F700D811D9C
:101550001124911DB29F700D811D1124911D0895BC
:10156000AA1BBB1B51E107C0AA1FBB1FA617B707C9
:1015700010F0A61BB70B881F991F5A95A9F78095E5
:101580009095BC01CD0108955058BB27AA270E9411
:10159000DC0A0C942D0C0E941F0C38F00E94260CC3
:1015A00020F039F49F3F19F426F40C941C0C0EF42F
:1015B000E095E7FB0C94160CE92F0E943E0C58F3C3
:1015C000BA17620773078407950720F079F4A6F528
:1015D0000C94600C0EF4E0950B2EBA2FA02D0B018D
:1015E000B90190010C01CA01A0011124FF27591B68
:1015F00099F0593F50F4503E68F11A16F040A22F6E
:10160000232F342F4427585FF3CF469537952795DE
:10161000A795F0405395C9F77EF41F16BA0B620BDD
:10162000730B840BBAF09150A1F0FF0FBB1F661F24
:10163000771F881FC2F70EC0BA0F621F731F841F67
:1016400048F4879577956795B795F7959E3F08F08D
:10165000B0CF9395880F08F09927EE0F979587954F
:1016600008950E94450B0C942D0C0E94260C58F0F6
:101670000E941F0C40F029F45F3F29F00C94160CD7
:1016800051110C94610C0C941C0C0E943E0C68F3DC
:101690009923B1F3552391F3951B550BBB27AA272B
:1016A00062177307840738F09F5F5F4F220F331F65
:1016B000441FAA1FA9F335D00E2E3AF0E0E832D02D
:1016C00091505040E695001CCAF72BD0FE2F29D030
:1016D000660F771F881FBB1F261737074807AB0702
:1016E000B0E809F0BB0B802DBF01FF2793585F4F77
:1016F0003AF09E3F510578F00C94160C0C94610C56
:101700005F3FE4F3983ED4F3869577956795B79558
:10171000F7959F5FC9F7880F911D9695879597F963
:101720000895E1E0660F771F881FBB1F62177307DC
:101730008407BA0720F0621B730B840BBA0BEE1FF1
:1017400088F7E09508950E94AA0B6894B1110C9453
:10175000610C08950E94460C88F09F5798F0B92FAD
:101760009927B751B0F0E1F0660F771F881F991FD6
:101770001AF0BA95C9F714C0B13091F00E94600C0C
:10178000B1E008950C94600C672F782F8827B85F1C
:1017900039F0B93FCCF3869577956795B395D9F72E
:1017A0003EF490958095709561957F4F8F4F9F4F38
:1017B0000895E89409C097FB3EF490958095709544
:1017C00061957F4F8F4F9F4F9923A9F0F92F96E98D
:1017D000BB279395F695879577956795B795F11102
:1017E000F8CFFAF4BB0F11F460FF1BC06F5F7F4F9F
:1017F0008F4F9F4F16C0882311F096E911C07723B1
:1018000021F09EE8872F762F05C0662371F096E8B9
:10181000862F70E060E02AF09A95660F771F881F88
:10182000DAF7880F9695879597F9089597F99F6746
:1018300080E870E060E008959FEF80EC0895002458
:101840000A941616170618060906089500240A9425
:1018500012161306140605060895092E0394000CAB
:1018600011F4882352F0BB0F40F4BF2B11F460FF3A
:1018700004C06F5F7F4F8F4F9F4F089557FD905863
:10188000440F551F59F05F3F71F04795880F97FB44
:10189000991F61F09F3F79F08795089512161306FE
:1018A0001406551FF2CF4695F1DF08C0161617062D
:1018B0001806991FF1CF8695710561050894089562
:1018C000E894BB2766277727CB0197F908950E94F4
:1018D0007A0C0C942D0C0E941F0C38F00E94260CE0
:1018E00020F0952311F00C94160C0C941C0C112470
:1018F0000C94610C0E943E0C70F3959FC1F3950F00
:1019000050E0551F629FF001729FBB27F00DB11D83
:10191000639FAA27F00DB11DAA1F649F6627B00D13
:10192000A11D661F829F2227B00DA11D621F739FFC
:10193000B00DA11D621F839FA00D611D221F749F0A
:101940003327A00D611D231F849F600D211D822F51
:10195000762F6A2F11249F5750409AF0F1F0882378
:101960004AF0EE0FFF1FBB1F661F771F881F9150A5
:101970005040A9F79E3F510580F00C94160C0C9432
:10198000610C5F3FE4F3983ED4F3869577956795B5
:10199000B795F795E7959F5FC1F7FE2B880F911DCF
:1019A0009695879597F908958F929F92AF92BF92DF
:1019B000CF92DF92EF92FF92CF93DF93EC01688199
:1019C00079818A819B81611571058105910521F4D9
:1019D00064E279ED8BE597E02DE133EF41E050E0F3
:1019E0000E94460D49015A019B01AC01A7EAB1E4EE
:1019F0000E94650D6B017C01ACEEB4EFA501940172
:101A00000E94730DDC01CB018C0D9D1DAE1DBF1D11
:101A1000B7FF03C00197A109B04888839983AA83BF
:101A2000BB839F77DF91CF91FF90EF90DF90CF90B6
:101A3000BF90AF909F908F9008950E94D40C08950E
:101A400089E091E00E94D40C0895A0E0B0E080937A
:101A5000090190930A01A0930B01B0930C01089522
:101A6000F999FECF92BD81BDF89A992780B5089566
:101A7000262FF999FECF1FBA92BD81BD20BD0FB6AA
:101A8000F894FA9AF99A0FBE01960895052E97FBDD
:101A90001EF400940E945D0D57FD07D00E94780D42
:101AA00007FC03D04EF40C945D0D50954095309595
:101AB00021953F4F4F4F5F4F0895909580957095BA
:101AC00061957F4F8F4F9F4F08950E94A10AA59F58
:101AD000900DB49F900DA49F800D911D1124089529
:101AE000B7FF0C94650D0E94650D821B930B089542
:101AF000A1E21A2EAA1BBB1BFD010DC0AA1FBB1F12
:101B0000EE1FFF1FA217B307E407F50720F0A21B83
:101B1000B30BE40BF50B661F771F881F991F1A94F0
:101B200069F760957095809590959B01AC01BD011A
:081B3000CF010895F894FFCFE6
:0E1B3800FF00AA0001FD00FC000100000000FB
:00000001FF
