:100000000C9446000C946F000C946F000C946F00DD
:100010000C946F000C946F000C9462020C946F00AF
:100020000C946F000C946F000C946F000C942108DA
:100030000C946F000C946F000C9481070C946F006B
:100040000C946F000C946F000C946F000C946F0074
:100050000C946F000C946F000C946F000C94430888
:100060000C946F000C946F00C80244039C0293022E
:10007000990226031B03A60983088308A309AF0975
:100080009F09B609B209BA097209440911241FBEB1
:10009000CFEFD8E0DEBFCDBF14BE0FB6F894A89561
:1000A00080916000886180936000109260000FBEB4
:1000B00011E0A0E0B1E0EEEBF1E202C005900D929C
:1000C000AE31B107D9F721E0AEE1B1E001C01D9238
:1000D000AC38B207E1F70E94EC0A0C94DD100C94E6
:1000E00000008093C6008091C00085FFFCCF80E0B7
:1000F00090E008950895CB0121E030E030931F0196
:1001000020931E010E94C20490E0909327018093E7
:1001100026010895CF93DF93C0911E01D0911F0156
:10012000C130D10519F0DF91CF91089510921F01D0
:1001300010921E01809127018F93809126018F9349
:1001400089E191E09F938F930E94A80D80912601F1
:10015000909127010F900F900F900F90883291058A
:100160000CF449C0CC971CF180E10E94FD078091FE
:100170002001909121010397B1F283E090E09093E8
:100180002101809320010E94E1038091850190E08C
:100190009C01220F331F820F931F9595879595958C
:1001A000879560917101DF91CF910C94DC0381E020
:1001B0000E94FD078091200190912101029709F48E
:1001C000B2CF82E090E090932101809320010E94C1
:1001D000E1038091710190E0BC01660F771F680F09
:1001E000791F759567957595679580918501DF9164
:1001F000CF910C94DC0384E00E94FD0780912001E4
:1002000090912101019709F48ECFD0932101C093E1
:1002100020010E94E1036091840180918301DF91BC
:10022000CF910C94DC03F894519A8CE090E0909379
:10023000C5008093C400E0ECF0E080818D7F808376
:10024000E2ECF0E0808186608083E1ECF0E0808188
:100250008860808380E091E0909389018093880199
:1002600078940895209120013091210128173907B1
:1002700071F090932101809320010097D9F0813093
:100280009105E1F08230910509F1039709F0089595
:100290000E94E1038091850190E09C01220F331FB1
:1002A000820F931F9595879595958795609171011C
:1002B0000C94DC0360E080E00C94DC030E94E1031A
:1002C00060918401809183010C94DC030E94E1031E
:1002D0008091710190E0BC01660F771F680F791F54
:1002E0007595679575956795809185010C94DC03EC
:1002F000089580E090E008950895DF92EF92FF92D4
:100300000F931F93CF93DF93F89414B817B81AB8CC
:1003100015B818B81BB8529A5A9A14BC85E085BD16
:100320008FEF87BD82E080936E0010928000109264
:1003300081002FE83BE03093890020938800809370
:100340006F005398239891EA9093B0008093B10086
:100350001092B4001092B3008BE080BF83E08093D2
:100360007F0086E080937C0083E880937A00809110
:100370007A00806480937A0080917A0086FDFCCFB9
:1003800010927C0083EA80937A0081E080937B0066
:1003900081E090E00E943C108F3F11F08093660056
:1003A00010924F01C1E0C0932801C0936C011092DC
:1003B00046011092800180E990E00E943C108093F9
:1003C000450180914501887311F0C0934501109259
:1003D000700110926F018FEF90E090936E01809307
:1003E0006D0110924B0110924C0110924D01109230
:1003F0004E0181E08093250182E49FE090937F018C
:1004000080937E0180EB90E00E943C10C82F81EB2E
:1004100090E00E943C102C2F30E0382B309382016A
:100420002093810185E090E00E943C10809385013B
:1004300089E090E00E943C10809371018CE090E094
:100440000E943C108093830184E190E00E943C1064
:100450008093840150E5E52E51E0F52E09E211E08C
:10046000C0E2D0E0CE010E943C10D82ECE01019611
:100470000E943C102D2D30E0322F2227282BF7012F
:10048000219331937F01CE01C0960E943C10D82E5B
:10049000CE01C1960E943C102D2D30E0322F222734
:1004A000282BF801219331938F012296CC33D1056B
:1004B000C9F67894DF91CF911F910F91FF90EF9043
:1004C000DF9008951F920F920FB60F9211248F9311
:1004D0000FB6F894A89580916000886180936000C1
:1004E000109260000FBE8F910F900FBE0F901F9063
:1004F00018953C01EB0110E099249A9484E0C82EF1
:1005000096E0A92E23E8B22E38E1D32E49E2E42E5C
:1005100090912501E92FF0E0E730F105C8F7EC5C98
:10052000FF4F0C94130B112309F4FCC0C09225015A
:1005300011E0FE010995ECCF80914F018111EBC0D4
:10054000F894A0927C00B0927A0080917A00806446
:1005500080937A0090917A0096FDFCCF809178008C
:100560009091790078948B3AE2E09E070CF0EDC010
:100570008938F2E09F070CF0EFC0873692400CF408
:10058000CAC0559A549A3B9A3A9A3D983C98C0CF23
:10059000F89480B7877F80BF80917A008F778093AF
:1005A0007A0014B817B81AB815B818B81BB80FB62F
:1005B000F894A895D09260000FBEE0926000809100
:1005C000600080648093600093B7917F946093BFD4
:1005D000F89483B7816083BF7894889583B78E7FC2
:1005E00083BF789410924F01529A5A9A80917A0060
:1005F000806880937A0087E592E00197F1F700C068
:10060000000080B7886180BF559A549A3B9A3A9A05
:100610003D9A3C9AEFE1FEE43197F1F700C000000B
:1006200080914F01811181C0559854983B983A9818
:100630003D983C986DCF80912301811141C010926B
:10064000B3001092B4001092240162CF4899ECCF0D
:10065000559A54983B983A983D983C988FEC97E07F
:100660000197F1F700C00000559854983B983A98CC
:100670003D983C989FEFE1EEF4E09150E040F0406F
:10068000E1F700C0000044CF559854983B9A3A9A3D
:100690003D983C98EFECF7E03197F1F700C000008F
:1006A000559854983B983A983D983C98FFEF21EE26
:1006B00084E0F15020408040E1F700C0000028CFE6
:1006C0009091230180912401981709F421CF809102
:1006D00023018093240180912301813009F450C0CB
:1006E000809123011092B3009092B4008230D9F12E
:1006F0009092B3009092B4008FE295E70197F1F7E2
:1007000000C0000080918401909183019093B30018
:100710008093B400FDCE559A549A3B983A983D98F0
:100720003C98F6CEF301099501CF559A549A3B981F
:100730003A983D983C98FFEF20E782E0F150204046
:100740008040E1F700C000006FCF559854983B9A65
:100750003A9A3D983C98DCCE559854983B983A98F4
:100760003D9A3C9AD5CEEFE2F5E73197F1F700C01C
:100770000000809171011092B3008093B400C8CE44
:100780009092B3001092B4008FE295E70197F1F7D1
:1007900000C00000809185018093B3001092B400E6
:1007A000B7CE07C0EFECF7E03197F1F700C00000DB
:1007B00001970097B9F708958093B3006093B40050
:1007C00008958FEF8093B3008093B4008FE090E0A2
:1007D000EFECF7E03197F1F700C000000197C1F7A7
:1007E000089580914F0181111EC0F89487E0809395
:1007F0007C0083E880937A0080917A008064809303
:100800007A0080917A0086FDFCCF809178009091EB
:10081000790010927C0023EA20937A0021E0209353
:100820007B00789408958FEF9FEF089580914F019A
:1008300081111EC0F89488EC80937C0087E8809337
:100840007A0080917A00806480937A0080917A00A7
:1008500086FDFCCF809178009091790010927C0009
:1008600023EA20937A0021E020937B007894089576
:100870008FEF9FEF08950F931F93CF93DF93E0E0E7
:10088000F0E080E003EA11E0D6E0C3E8A1E0B0E0E8
:1008900060E870E0F894D0937C00C0937A00909167
:1008A0007A00906490937A0090917A0096FDFCCF44
:1008B0002091780030917900217090917A009064B5
:1008C00090937A0090917A0096FDFCCF4091780049
:1008D0005091790010927C0000937A0010937B0075
:1008E00078944170241303C06150710999F6222352
:1008F00039F09D010E2E01C0220F0A94EAF7822BD7
:100900003196E830F10509F0C3CFDF91CF911F9107
:100910000F91089580910E01982F990F990F990FBB
:1009200089279091220121E0290F20932201282F6D
:1009300022952695277082279695969589278093EC
:100940000E01089580930E01089580914F01811149
:1009500016C0F89486E080937C0083E880937A0048
:1009600080917A00806480937A0080917A0086FD7D
:10097000FCCF8091780090917900789408958FEF62
:100980009FEF08952F923F924F925F926F927F92C6
:100990008F929F92AF92BF92CF92DF92EF92FF928F
:1009A0000F931F93CF93DF9300D000D000D0CDB72B
:1009B000DEB71C01DC0112960D90BC91A02DBE8308
:1009C000AD83A438E3E0BE070CF0C9C080912901D3
:1009D00090912A018A179B0708F437C100912B01D7
:1009E00010912C010A171B0708F42FC200912D014A
:1009F00010912E010A171B0708F42FC200912F0136
:100A0000109130010A171B0708F42FC20091310121
:100A1000109132010A171B0708F42FC2009133010D
:100A2000109134010A171B0708F4EFC1009135013A
:100A3000109136010A171B0708F427C200913701ED
:100A4000109138010A171B0708F427C200913901D9
:100A500010913A010A171B0708F427C200913B01C5
:100A600010913C010A171B0708F427C200913D01B1
:100A700010913E010A171B0708F427C200913F019D
:100A8000109140010A171B0708F423C2009141018D
:100A9000109142010A171B0708F423C20091430179
:100AA000109144010A171B0708F423C280E090E06C
:100AB000A0EDB0E489839A83AB83BC834CE0E42E41
:100AC000F12CF701EE0FFF1FE75DFE4F8081918152
:100AD000B801681B790B80E090E00E94510C9B01EB
:100AE000AC010E943D0B6B017C01AD81BE81BD015B
:100AF000BB0F880B990B0E94530C4B015C01B80192
:100B000080E090E00E94510C2B013C0129813A8148
:100B10004B815C81C701B6010E94DF0C9B01AC01D7
:100B2000C301B2010E943C0B9B01AC01C501B401A1
:100B30000E943C0B20E030E040E251E40E94DF0CD8
:100B40000E941B0C8B01C701B6010E941B0CAB015C
:100B5000BC01C801BA010E94FF0A162F77C0DC0150
:100B6000CD90DC9080915001909151018C159D05A4
:100B700008F48CC01FEFE0905201F0905301EC1488
:100B8000FD0408F45EC1E0905401F0905501EC14AE
:100B9000FD0408F45EC1E0905601F0905701EC149A
:100BA000FD0408F45EC1E0905801F0905901EC1486
:100BB000FD0408F45EC1E0905A01F0905B01EC1472
:100BC000FD0408F4C3C0E0905C01F0905D01EC14FA
:100BD000FD0408F456C1E0905E01F0905F01EC1452
:100BE000FD0408F456C1E0906001F0906101EC143E
:100BF000FD0408F456C1E0906201F0906301EC142A
:100C0000FD0408F456C1E0906401F0906501EC1415
:100C1000FD0408F456C1E0906601F0906701EC1401
:100C2000FD0408F45AC1E0906801F0906901EC14E9
:100C3000FD0408F45AC1E0906A01F0906B01EC14D5
:100C4000FD0408F45AC10AE531C010E0ED81FE81CF
:100C5000ED3BF240FCF481E2810F26960FB6F8944A
:100C6000DEBF0FBECDBFDF91CF911F910F91FF90DF
:100C7000EF90DF90CF90BF90AF909F908F907F903C
:100C80006F905F904F903F902F90089500E081E229
:100C9000800FE3CFD101CD90DC90809150019091F5
:100CA00051018C159D0508F066CF00E01F3F79F3D8
:100CB000ED81FE81BF01FF0F880B990B0E94530C41
:100CC0006B017C01612F70E080E090E00E94510C8C
:100CD0004B015C01A701960160E070E081E694E4BD
:100CE0000E943C0B9B01AC01C501B4010E94DF0CCA
:100CF0004B015C01602F70E080E090E00E94510C9D
:100D00002B013C0120E030E04FE254E4C701B60182
:100D10000E943C0B9B01AC01C301B2010E94DF0C9D
:100D20009B01AC01C501B4010E943D0B20E030E005
:100D300048E453E40E94A90B20E030E044E052E490
:100D40000E943D0B0E94220C862F87CF05E085E094
:100D500090E0880F991FFC01E25BFE4F808191813A
:100D6000B701681B790B80E090E00E94510C9B0159
:100D7000AC010E943D0B4B015C01B601DD0C880B00
:100D8000990B0E94530C2B013C01B70180E090E0CD
:100D90000E94510C6B017C01602F70E080E090E0BC
:100DA0000E94510C20E030E040E05FE30E94DF0C45
:100DB00020E030E0A9010E943D0BA50194010E94B2
:100DC000DF0C9B01AC01C701B6010E943C0B9B01EB
:100DD000AC01C301B2010E943C0B20E030E040E2D4
:100DE00051E40E94DF0C0E941B0C7B01C501B40181
:100DF0000E941B0CAB01BC01C701BA010E94FF0A93
:100E0000062F6F3F09F052CF26CF65E085E090E0D6
:100E10007C01F1E0EF1AF10870E080E090E00E94C0
:100E2000510C20E030E040E05FE30E94DF0C20E066
:100E300030E0A9010E943D0B69837A838B839C83F8
:100E400040CE01E081E090E084CF61E081E090E07D
:100E5000DFCF02E082E090E07CCF62E082E090E0D1
:100E6000D7CF03E083E090E074CF63E083E090E0CD
:100E7000CFCF04E084E090E06CCF64E084E090E0C9
:100E8000C7CF06E086E090E064CF66E086E090E0C1
:100E9000BFCF07E087E090E05CCF67E087E090E0BD
:100EA000B7CF08E088E090E054CF68E088E090E0B9
:100EB000AFCF09E089E090E04CCF69E089E090E0B5
:100EC000A7CF0AE08AE090E044CF6AE08AE090E0B1
:100ED0009FCF6BE08BE090E09BCF0BE08BE090E04E
:100EE00038CF6CE08CE090E093CF0CE08CE090E0A9
:100EF00030CF6DE08DE090E08BCF0DE08DE090E0A5
:100F000028CF1F920F920FB60F9211242F933F9369
:100F10004F935F936F937F938F939F93AF93BF9301
:100F2000EF93FF9320916F013091700180916D01DB
:100F300090916E01820F931F9093700180936F01C7
:100F40008FEF90E090936E0180936D018FEF87BDDE
:100F500080914B0190914C01A0914D01B0914E01B7
:100F60000196A11DB11D80934B0190934C01A0935C
:100F70004D01B0934E0180914F0181110FC08091BE
:100F80007E0190917F0120916F0130917001821755
:100F9000930720F480912501843089F0FF91EF912F
:100FA000BF91AF919F918F917F916F915F914F9181
:100FB0003F912F910F900FBE0F901F901895E091C9
:100FC0001101F09112010995009741F30E94690AFD
:100FD000811109C00E94980D992790936E0180930A
:100FE0006D0187BDDBCFE0910F01F09110010995F4
:100FF0001092700110926F01D1CF80FF11C0559AED
:1010000081FF11C0549A82FF11C03B9A83FF11C027
:101010003A9A84FF11C03D9A85FD11C03C9808950D
:10102000559881FDEFCF549882FDEFCF3B9883FD1B
:10103000EFCF3A9884FDEFCF3D9885FFEFCF3C9AF4
:1010400008951F920F920FB60F9211248F939F93C2
:1010500010928100109285001092840081E08093AC
:10106000280180936C0110924F0110927C0093EA4A
:1010700090937A0080937B009F918F910F900FBE89
:101080000F901F9018951F920F920FB60F92112478
:101090002F933F934F935F936F937F938F939F9380
:1010A000AF93BF93CF93DF93EF93FF93209184008F
:1010B0003091850041E040934F01809128018823C1
:1010C000A9F1109285001092840040938100109243
:1010D00080011092280180916C018823A1F08091F9
:1010E0007A0086FDFCCF80917800909179009093F2
:1010F0004A018093490181E080937C0093EA9093B8
:101100007A0080937B00FF91EF91DF91CF91BF91A7
:10111000AF919F918F917F916F915F914F913F918F
:101120002F910F900FBE0F901F901895C9018758EF
:1011300091098437994008F052C026583109A4EF2C
:10114000B0E00E94190BAA27BB2788309105A105A2
:10115000B10508F47BC04093280180916C01811196
:1011600052C080914601E82FF0E0EE58FE4F90917A
:10117000800190838F5F809346018C3021F610921E
:101180008100109285001092840040936C011092AF
:101190004F01C0917C01D0917D0182E791E00E94D6
:1011A0004D0AC817D90709F0AECF80917B0187FFA0
:1011B00061C098E7980F933030F0539823981092BD
:1011C000B4001092B30090E0FC01E058F109EB305C
:1011D000F10508F098CFE55CFF4F0C94130B1092CB
:1011E0008100109285001092840040932801409362
:1011F0006C0110924F0110927C0083EA80937A0078
:1012000040937B0080CF80917A0086FDFCCF809157
:101210007800909179009093480180934701109253
:101220007C0083EA80937A0081E080937B00909138
:1012300080019923D1F010928100109285001092C4
:10124000840080936C0110924F015DCF21E030E06B
:10125000F90102C0EE0FFF1F8A95E2F7CF019091CE
:101260008001892B809380014ECF10926C011092E7
:10127000460149CFE0911301F091140167E471E058
:1012800082E791E009953FCF80917201823009F4A5
:10129000DDC008F4BAC0833009F4C6C0843009F058
:1012A000B1C08091230190917801833009F4E3C0AB
:1012B000809177011092240123E0209323018093F1
:1012C00083019093840180912501863009F41BCF1E
:1012D000539A239A1092B4001092B30086E0809340
:1012E000250111CF80912501863099F0539A239AD8
:1012F0001092B4001092B300559854983B983A98C5
:101300003D983C98109223011092240186E080932E
:10131000250181E090E09C010090720102C0220F43
:10132000331F0A94E2F78091810190918201822318
:101330009323892B09F086C010922301E4CE81E02B
:1013400080932501E0CEE0E0F0E0099580916E0009
:101350008D7F80936E0016BCE0E0F0E70995109257
:101360002501D1CE82E080932501CDCE85E080930A
:101370002501C9CE80912501833009F4C4CE809126
:101380002501843009F4BFCE539A239A1092B400F9
:101390001092B30083E080932501B5CE80912501A2
:1013A000863009F0B0CE6091810180EB90E00E9420
:1013B00044106091820181EB90E00E9444106091A2
:1013C000850185E090E00E9444106091710189E000
:1013D00090E00E944410609183018CE090E00E94B4
:1013E00044106091840184E190E00E94441053987D
:1013F00023981092B4001092B30081E080932501ED
:101400008091720181115FCF7ECE882339F28130C5
:10141000C9F7809173019091740190938201809338
:101420008101109223014FCF80912301823071F10D
:10143000809176011092240192E090932301809391
:10144000710141CF81E0809323015DCE8091230122
:10145000813051F0809175011092240191E09093B8
:101460002301809385012FCF809175019091850193
:101470008913F2CF28CF80918401981319CF8091DE
:10148000770120918301821315CF1DCF80917601C2
:10149000909171018913CECF16CFFC01AC01465F4C
:1014A0005F4F8FEF9FEF21918227082E8295807FDB
:1014B0008025092E982F82958F700826869598276B
:1014C0008927880F880F880F8025E417F50759F7BB
:1014D00008950FB6F894A4B1209145012A2B24B9A0
:1014E00021E030914501203029F0000025B1232B67
:1014F00025B904C000000000000000C0000000008A
:101500000000309525B1232325B92EEA2A95F1F75D
:101510002BEE30B735FF0AC0A4B9309145013095A4
:1015200025B1232325B90FBE80E0089500002A9538
:1015300081F721E030914501203029F0000025B1EC
:10154000232B25B904C000000000000000C00000EB
:1015500000000000309525B1232325B9000024E5C3
:101560002A95F1F7FC018CE0619170E0660F771F1E
:10157000616072609AE041E050E09A0126233723CF
:10158000232B30914501203029F0000025B1232B79
:1015900025B904C000000000000000C000000000E9
:1015A0000000309525B1232325B9000021E52A95B7
:1015B000F1F7440F551F9A9501F78A95A9F620B7C0
:1015C000206120BFA4B930914501309525B1232376
:1015D00025B90FBE81E008950E947D010E9413018C
:1015E0008BE790E090931401809313016AE870E018
:1015F0008AE790E00E94790280E090E0089597FBEE
:10160000072E16F4009407D077FD09D00E94280B0E
:1016100007FC05D03EF4909581959F4F08957095F5
:1016200061957F4F0895EE0FFF1F0590F491E02D17
:101630000994A29FB001B39FC001A39F700D811DAB
:101640001124911DB29F700D811D1124911D0895CB
:10165000AA1BBB1B51E107C0AA1FBB1FA617B707D8
:1016600010F0A61BB70B881F991F5A95A9F78095F4
:101670009095BC01CD0108955058BB27AA270E9420
:10168000540B0C94A50C0E94970C38F00E949E0CF1
:1016900020F039F49F3F19F426F40C94940C0EF4C6
:1016A000E095E7FB0C948E0CE92F0E94B60C58F3E2
:1016B000BA17620773078407950720F079F4A6F537
:1016C0000C94D80C0EF4E0950B2EBA2FA02D0B0124
:1016D000B90190010C01CA01A0011124FF27591B77
:1016E00099F0593F50F4503E68F11A16F040A22F7D
:1016F000232F342F4427585FF3CF469537952795EE
:10170000A795F0405395C9F77EF41F16BA0B620BEC
:10171000730B840BBAF09150A1F0FF0FBB1F661F33
:10172000771F881FC2F70EC0BA0F621F731F841F76
:1017300048F4879577956795B795F7959E3F08F09C
:10174000B0CF9395880F08F09927EE0F979587955E
:1017500008950E94BD0B0C94A50C0E949E0C58F09D
:101760000E94970C40F029F45F3F29F00C948E0CF6
:1017700051110C94D90C0C94940C0E94B60C68F383
:101780009923B1F3552391F3951B550BBB27AA273A
:1017900062177307840738F09F5F5F4F220F331F74
:1017A000441FAA1FA9F335D00E2E3AF0E0E832D03C
:1017B00091505040E695001CCAF72BD0FE2F29D03F
:1017C000660F771F881FBB1F261737074807AB0711
:1017D000B0E809F0BB0B802DBF01FF2793585F4F86
:1017E0003AF09E3F510578F00C948E0C0C94D90C75
:1017F0005F3FE4F3983ED4F3869577956795B79568
:10180000F7959F5FC9F7880F911D9695879597F972
:101810000895E1E0660F771F881FBB1F62177307EB
:101820008407BA0720F0621B730B840BBA0BEE1F00
:1018300088F7E09508950E94220C6894B1110C94E9
:10184000D90C08950E94BE0C88F09F5798F0B92FCC
:101850009927B751B0F0E1F0660F771F881F991FE5
:101860001AF0BA95C9F714C0B13091F00E94D80CA3
:10187000B1E008950C94D80C672F782F8827B85FB3
:1018800039F0B93FCCF3869577956795B395D9F73D
:101890003EF490958095709561957F4F8F4F9F4F47
:1018A0000895E89409C097FB3EF490958095709553
:1018B00061957F4F8F4F9F4F9923A9F0F92F96E99C
:1018C000BB279395F695879577956795B795F11111
:1018D000F8CFFAF4BB0F11F460FF1BC06F5F7F4FAE
:1018E0008F4F9F4F16C0882311F096E911C07723C0
:1018F00021F09EE8872F762F05C0662371F096E8C9
:10190000862F70E060E02AF09A95660F771F881F97
:10191000DAF7880F9695879597F9089597F99F6755
:1019200080E870E060E008959FEF80EC0895002467
:101930000A941616170618060906089500240A9434
:1019400012161306140605060895092E0394000CBA
:1019500011F4882352F0BB0F40F4BF2B11F460FF49
:1019600004C06F5F7F4F8F4F9F4F089557FD905872
:10197000440F551F59F05F3F71F04795880F97FB53
:10198000991F61F09F3F79F087950895121613060D
:101990001406551FF2CF4695F1DF08C0161617063C
:1019A0001806991FF1CF8695710561050894089571
:1019B000E894BB2766277727CB0197F908950E9403
:1019C000F20C0C94A50C0E94970C38F00E949E0C0F
:1019D00020F0952311F00C948E0C0C94940C11248F
:1019E0000C94D90C0E94B60C70F3959FC1F3950F1F
:1019F00050E0551F629FF001729FBB27F00DB11D93
:101A0000639FAA27F00DB11DAA1F649F6627B00D22
:101A1000A11D661F829F2227B00DA11D621F739F0B
:101A2000B00DA11D621F839FA00D611D221F749F19
:101A30003327A00D611D231F849F600D211D822F60
:101A4000762F6A2F11249F5750409AF0F1F0882387
:101A50004AF0EE0FFF1FBB1F661F771F881F9150B4
:101A60005040A9F79E3F510580F00C948E0C0C94C9
:101A7000D90C5F3FE4F3983ED4F38695779567954C
:101A8000B795F795E7959F5FC1F7FE2B880F911DDE
:101A90009695879597F908958F929F92AF92BF92EE
:101AA000CF92DF92EF92FF92CF93DF93EC016881A8
:101AB00079818A819B81611571058105910521F4E8
:101AC00064E279ED8BE597E02DE133EF41E050E002
:101AD0000E94521049015A019B01AC01A7EAB1E4EE
:101AE0000E9471106B017C01ACEEB4EFA501940172
:101AF0000E947F10DC01CB018C0D9D1DAE1DBF1D12
:101B0000B7FF03C00197A109B04888839983AA83CE
:101B1000BB839F77DF91CF91FF90EF90DF90CF90C5
:101B2000BF90AF909F908F9008950E944C0D0895A4
:101B300085E191E00E944C0D0895A0E0B0E0809313
:101B4000150190931601A0931701B0931801089501
:101B5000A0E0B0E0EEEAFDE00C949410AE014B5F23
:101B60005F4FFA0161917191AF018091880190916D
:101B700089010E94BE0DE2E00C94B010ACE0B0E030
:101B8000E4ECFDE00C9484107C016B018A01FC0103
:101B900017821682838181FFBDC1CE0101964C015F
:101BA000F7019381F60193FD859193FF81916F0178
:101BB000882309F4ABC1853239F493FD859193FFF5
:101BC00081916F01853229F4B70190E00E94A60F40
:101BD000E7CF512C312C20E02032A0F48B3269F079
:101BE00030F4803259F0833269F420612CC08D3298
:101BF00039F0803339F4216026C02260246023C08C
:101C0000286021C027FD27C030ED380F3A3078F426
:101C100026FF06C0FAE05F9E300D1124532E13C03C
:101C20008AE0389E300D1124332E20620CC08E3293
:101C300021F426FD6BC1206406C08C3611F42068A7
:101C400002C0883641F4F60193FD859193FF81919E
:101C50006F018111C1CF982F9F7D9554933028F447
:101C60000C5F1F4FFFE3F9830DC0833631F08337DC
:101C700071F0833509F05BC022C0F801808189834F
:101C80000E5F1F4F44244394512C540115C038015A
:101C9000F2E06F0E711CF801A080B18026FF03C036
:101CA000652D70E002C06FEF7FEFC5012C870E94A9
:101CB0009B0F2C0183012C852F77222E17C0380112
:101CC000F2E06F0E711CF801A080B18026FF03C006
:101CD000652D70E002C06FEF7FEFC5012C870E9479
:101CE000900F2C012C852068222E830123FC1BC021
:101CF000832D90E048165906B0F4B70180E290E0D9
:101D00000E94A60F3A94F4CFF50127FC859127FE97
:101D100081915F01B70190E00E94A60F31103A94C3
:101D2000F1E04F1A51084114510471F7E5C08436AF
:101D300011F0893639F5F80127FF07C060817181FC
:101D4000828193810C5F1F4F08C060817181072ED3
:101D5000000C880B990B0E5F1F4F2F76722E97FF8A
:101D600009C090958095709561957F4F8F4F9F4FDB
:101D70002068722E2AE030E0A4010E94DE0FA82E17
:101D8000A81844C0853729F42F7EB22E2AE030E00F
:101D900025C0F22FF97FBF2E8F36C1F018F4883599
:101DA00079F0B4C0803719F0883721F0AFC02F2FF9
:101DB0002061B22EB4FE0DC08B2D8460B82E09C0F8
:101DC00024FF0AC09F2F9660B92E06C028E030E09D
:101DD00005C020E130E002C020E132E0F801B7FEAA
:101DE00007C060817181828193810C5F1F4F06C0A3
:101DF0006081718180E090E00E5F1F4FA4010E941E
:101E0000DE0FA82EA818FB2DFF777F2E76FE0BC0C5
:101E1000372D3E7FA51450F474FE0AC072FC08C032
:101E2000372D3E7E05C0BA2C372D03C0BA2C01C019
:101E3000B52C34FF0DC0FE01EA0DF11D8081803309
:101E400011F4397E09C032FF06C0B394B39404C0C4
:101E5000832F867809F0B39433FD13C030FF06C09A
:101E60005A2CB31418F4530C5B18B32CB31468F445
:101E7000B70180E290E03C870E94A60FB3943C85B6
:101E8000F5CFB31410F43B1801C0312C34FF12C04D
:101E9000B70180E390E03C870E94A60F3C8532FFAB
:101EA00017C031FD03C088E790E002C088E590E0EC
:101EB000B7010CC0832F867859F031FF02C08BE246
:101EC00001C080E237FD8DE2B70190E00E94A60FCD
:101ED000A51438F4B70180E390E00E94A60F5A944D
:101EE000F7CFAA94F401EA0DF11D8081B70190E0CB
:101EF0000E94A60FA110F5CF332009F451CEB701EF
:101F000080E290E00E94A60F3A94F6CFF701868116
:101F1000978102C08FEF9FEF2C96E2E10C94A01006
:101F2000FC010590615070400110D8F780959095A4
:101F30008E0F9F1F0895FC016150704001900110A9
:101F4000D8F7809590958E0F9F1F08950F931F933C
:101F5000CF93DF93FB01238121FD03C08FEF9FEF20
:101F600028C022FF16C0468157812481358142173F
:101F7000530744F4A081B1819D012F5F3F4F31830E
:101F800020838C93268137812F5F3F4F37832683B1
:101F900010C0EB01092F182F0084F185E02D099561
:101FA000892BE1F68E819F8101969F838E83812FFD
:101FB000902FDF91CF911F910F910895FA01AA27D9
:101FC000283051F1203181F1E8946F936E7F6E5F7C
:101FD0007F4F8F4F9F4FAF4FB1E03ED0B4E03CD02A
:101FE000670F781F891F9A1FA11D680F791F8A1F0D
:101FF000911DA11D6A0F711D811D911DA11D20D074
:1020000009F468943F912AE0269F11243019305D2D
:102010003193DEF6CF010895462F4770405D41931E
:10202000B3E00FD0C9F7F6CF462F4F70405D4A336B
:1020300018F0495D31FD4052419302D0A9F7EACF33
:10204000B4E0A6959795879577956795BA95C9F762
:1020500000976105710508959B01AC010A2E069455
:102060005795479537952795BA95C9F7620F731F0E
:10207000841F951FA01D0895F999FECF92BD81BDC3
:10208000F89A992780B50895262FF999FECF1FBA9F
:1020900092BD81BD20BD0FB6F894FA9AF99A0FBE91
:1020A00001960895052E97FB1EF400940E94691076
:1020B00057FD07D00E94BB1007FC03D04EF40C94D0
:1020C000691050954095309521953F4F4F4F5F4F88
:1020D000089590958095709561957F4F8F4F9F4F94
:1020E00008950E94190BA59F900DB49F900DA49F79
:1020F000800D911D11240895B7FF0C9471100E945A
:102100007110821B930B08952F923F924F925F9212
:102110006F927F928F929F92AF92BF92CF92DF92F7
:10212000EF92FF920F931F93CF93DF93CDB7DEB75C
:10213000CA1BDB0B0FB6F894DEBF0FBECDBF0994F0
:102140002A88398848885F846E847D848C849B8447
:10215000AA84B984C884DF80EE80FD800C811B8155
:10216000AA81B981CE0FD11D0FB6F894DEBF0FBE84
:10217000CDBFED010895A1E21A2EAA1BBB1BFD01E4
:102180000DC0AA1FBB1FEE1FFF1FA217B307E40756
:10219000F50720F0A21BB30BE40BF50B661F771FAE
:1021A000881F991F1A9469F760957095809590958E
:0E21B0009B01AC01BD01CF010895F894FFCF53
:1021BE000000000200000000710000000000AA7C78
:0E21CE0001790178010100000025640A00007B
:00000001FF
